:020000040800F2
:1000000040A10020750300089F3900089D330008B7
:100010009D390008E10D0008153E000800000000B1
:10002000000000000000000000000000B502000811
:100030002B0F000800000000110300082D3B0008F2
:100040008F0300088F0300088F0300088F03000848
:100050008F0300088F0300088F0300088F03000838
:100060008F0300088F0300088F0300088F03000828
:100070008F0300088F0300088F0300088F03000818
:100080008F0300088F0300088F0300088F03000808
:100090008F0300088F0300088F0300088F030008F8
:1000A0008F0300088F0300088F0300088F030008E8
:1000B0008F0300088F0300088F0300088F030008D8
:1000C0008F0300088F0300088F0300088F030008C8
:1000D0008F0300088F0300088F0300088F030008B8
:1000E0003D0F00088F0300088F0300088F030008EE
:1000F0008F0300088F0300088F0300088F03000898
:10010000450F00088F0300088F0300088F030008C5
:100110008F0300088F030008193C00088F030008B4
:100120008F0300088F0300088F0300088F03000867
:100130008F0300088F0300088F0300088F03000857
:100140008F0300088F0300088F0300088F03000847
:100150008F0300088F0300088F0300088F03000837
:100160008F0300088F0300088F0300088F03000827
:100170008F0300088F0300088F03000800000000B1
:100180008F0300088F0300088F0300088F03000807
:100190008F0300088F0300088F0300088F030008F7
:1001A000BD3400088F030008890E000800F002F833
:1001B00000F070F80AA090E8000C82448344AAF191
:1001C0000107DA4501D100F065F8AFF2090EBAE88F
:1001D0000F0013F0010F18BFFB1A43F0010318477B
:1001E00010FB000030FB00000A444FF0000C10F838
:1001F000013B13F0070408BF10F8014B1D1108BFA5
:1002000010F8015B641E05D010F8016B641E01F844
:10021000016BF9D113F0080F1EBF10F8014BAD1C94
:100220000C1B09D16D1E58BF01F801CBFAD505E0B2
:1002300014F8016B01F8016B6D1EF9D59142D6D30C
:10024000704700000023002400250026103A28BF34
:1002500078C1FBD8520728BF30C148BF0B60704738
:10026000642900F07B81782900F0B481632900F0D3
:100270003084002070471FB50DF0FAFE9DE80300A2
:1002800000F096FC00F054FB1FBD10B5002000F0FC
:100290003FFC10BD00F014FD1146FFF7ECFF0CF021
:1002A000A7F800F04CFD03B4FFF7EFFF03BC0BF021
:1002B00064FF00002C4B19680868B0E8F04F80F329
:1002C0000988BFF36F8F4FF0000080F311887047EB
:1002D0000000000008480068006880F308884FF0BC
:1002E000000080F3148862B661B6BFF34F8FBFF38E
:1002F0006F8F00DF00BF00BF08ED00E0DFF80C00EB
:10030000016841F470010160704700BF88ED00E0B2
:10031000EFF30980BFF36F8F134B1A681EF0100FB5
:1003200008BF20ED108A20E9F04F106009B44FF0AB
:10033000500080F31188BFF34F8FBFF36F8F0CF025
:10034000C9FD4FF0000080F3118809BC19680868E6
:10035000B0E8F04F1EF0100F08BFB0EC108A80F329
:100360000988BFF36F8F704744000020EFF30580CA
:10037000704700000948804709480047FEE7FEE74C
:10038000FEE7FEE7FEE7FEE7FEE7FEE7FEE7FEE745
:1003900004480549054A064B70470000FD3B00082C
:1003A000AD010008409B002040A10020409D00209E
:1003B000409D0020704753EA020C00F069802DE94F
:1003C000F04B4FF00006002B1FBFB3FA83F503FA82
:1003D00005F424FA05F65E4012BF1643B2FA82F520
:1003E00002FA05F4C5F120051EBF22FA05FC44EA15
:1003F0000C04203556EA044C4FEA144418BF641C20
:100400004FF000084FF00009904271EB030C39D314
:10041000002919BFB1FA81F701FA07F6B0FA80F79F
:1004200000FA07F6C7F120071EBF20FA07FC46EACC
:100430000C062037B6FBF4FCA7EB0507103F07F0CE
:100440001F0BCBF120060CFA0BFB2CFA06F644BF6F
:10045000B3460026202FA4BF5E464FF0000B5BEA98
:10046000060C08BF4FF0010B19EB0B09ABFB027C2C
:1004700048EB0608C01B06FB02CC0BFB03CC71EB60
:100480000C01C1E70B46024641464846BDE8F08BE9
:1004900013B54FF000004FF00001AFF30080BDE84E
:1004A0001C4070470FB4044910B503AA029800F02D
:1004B0001DFB10BC5DF814FB0000002070B5044665
:1004C00085690068C10601D5302600E02026C007F6
:1004D00007D070BDD4E9012130469047206A401C06
:1004E00020626D1EF6D570BD70B504468569007832
:1004F000C00707D170BDD4E9012120209047206AB0
:10050000401C20626D1EF6D570BD70B50C460546C8
:10051000012A05D02878800600D5EA69002302E088
:10052000012305E05B1C934202D2E05C0028F9D174
:10053000A869E618C01AA861286A184428622846E3
:10054000FFF7BCFF04E0D5E9012114F8010B904747
:10055000B442F8D32846FFF7C7FF70BD2DE9F0413C
:100560000646002410687529314616A510D0AFF351
:100570000080002802DA404213A507E031688A07AC
:1005800001D512A502E0490704D511A5012401E017
:10059000AFF3008000210A2206F1240709E0B0FB36
:1005A000F2FCB0FBF2F302FB1C003030785418462A
:1005B000491C0028F3D123462A463046BDE8F041C5
:1005C00000F024BA000000002D0000002B00000005
:1005D0002000000070B504460D4621461068AFF3B8
:1005E00000802188090502D50F4A7A4402E00E4AAC
:1005F0007A440E32002104F1240305E000F00F06D6
:100600000009965D5E54491C0028F7D1207800232C
:10061000000704D5702D02D009B102231132204603
:10062000BDE8704000F0F2B99ADB00002DE9F05F00
:10063000894604464FF0000ADFF824B1FB44C0F8B5
:1006400020A02046E168884700287DD0252806D0D4
:10065000D4E901219047206A401C2062F1E700257F
:100660005F462046E16888472028064607DB312E92
:1006700005D2B81910F8200C08B10543F1E7A80716
:1006800001D525F00405C4F81CA00027C4F818A063
:100690002A2E09D030460BF069FD38B304EB8708E9
:1006A000303EC8F8186019E059F8041B204604EBE6
:1006B00087029161E1688847012F064618D1E069F9
:1006C000002820DA25F020051DE0D8F8180000EBFE
:1006D000800006EB40003038C8F818002046E1687A
:1006E000884706460BF042FD0028EED1012F0AD0C4
:1006F0002E2E08D12046E16888477F1C0646022F2F
:1007000045F02005C4DBA069002803DA404245F02B
:100710000105A061E80701D025F01005A6B1A6F1FA
:100720004100192802D8203645F400654A46314672
:10073000204625604D46FFF793FD60B1012807D0A4
:10074000ED1D25F0070000E007E000F1080978E75B
:1007500005F1040975E730467AE7206ABDE8F09FA5
:1007600070DB000010B5002000F0F3F9FFF78DFDFD
:10077000BDE8104001200BF000BD2DE9F041074617
:1007800015460E46102000F0EBF804000AD0676012
:10079000C4E9026500F0E0F801682160046000200F
:1007A000BDE8F0810120FBE7032A40F2308010F021
:1007B000030C00F0158011F8013BBCF1020F6244FC
:1007C00098BF11F801CB00F8013B38BF11F8013B8D
:1007D000A2F1040298BF00F801CB38BF00F8013B3A
:1007E00011F0030300F02580083AC0F0088051F8AA
:1007F000043B083A51F804CBA0E80810F5E7121DB5
:100800005CBF51F8043B40F8043BAFF30080D207D3
:1008100024BF11F8013B11F801CB48BF11F8012B9F
:1008200024BF00F8013B00F801CB48BF00F8012BC2
:10083000704710B5203AC0F00B80B1E81850203A4C
:10084000A0E81850B1E81850A0E81850BFF4F5AF70
:100850005FEA027C24BFB1E81850A0E8185044BFFA
:1008600018C918C0BDE810405FEA827C24BF51F867
:10087000043B40F8043B08BF7047D20728BF31F85B
:10088000023B48BF11F8012B28BF20F8023B48BFAC
:1008900000F8012B70474FF000020429C0F01280CD
:1008A00010F0030C00F01B80CCF1040CBCF1020F23
:1008B00018BF00F8012BA8BF20F8022BA1EB0C01F8
:1008C00000F00DB85FEAC17C24BF00F8012B00F8EE
:1008D000012B48BF00F8012B70474FF0000200B514
:1008E000134694469646203922BFA0E80C50A0E853
:1008F0000C50B1F12001BFF4F7AF090728BFA0E801
:100900000C5048BF0CC05DF804EB890028BF40F8CC
:10091000042B08BF704748BF20F8022B11F0804F0E
:1009200018BF00F8012B70477047704770470000F0
:1009300070B5064C7C44064D7D4403E0206820449D
:100940008047241DAC42F9D170BD00003CF400008A
:1009500048F4000070470000004870474C980020A1
:1009600070B5064600F008F9056806F10B0020F0A6
:100970000704B4429CBF002070BD2B466A68BAB120
:100980001068A04210D304F1080188423CBF5068AF
:10099000586007D35168101941601168091B016044
:1009A00058601460101D70BD13465268002AE7D1CC
:1009B0002146284600F0E8F80028DED170BD70B569
:1009C0000446051F00F0D8F80068002C14BF4468E6
:1009D00070BD002C18BFAC423CBF20466468F8D301
:1009E00001680A18AA4218BF456003D12A68054663
:1009F0001144016028684119A1421CBF6C6070BDA0
:100A00006168696021680844286070BD2DE9F0477D
:100A10000D4699469246044600F12408016888066E
:100A200004D5E06921F01001216000E00120A84216
:100A300001DD471B00E00027A1697A1902EB0900DC
:100A4000081AA0612078C00602D42046FFF736FDC0
:100A5000002608E0D4E901211AF806009047206A30
:100A6000401C761C20624E45F4DB2078C0060AD577
:100A70002046FFF723FD06E0D4E90121302090470E
:100A8000206A401C2062381EA7F10107F4DC07E051
:100A9000D4E9012118F805009047206A401C206223
:100AA000281EA5F10105F3DC2046FFF71DFD207887
:100AB000000602D50220BDE8F0870120FBE710B553
:100AC000436913B1AFF3008001E0FFF71EFD012081
:100AD00010BD127800F124010A7000224A70012230
:100AE000EDE711684FF0FF32E9E70000074B70B502
:100AF0000D467B4400F097F80446284600F0A6F81F
:100B000010B14FF0FF3070BD204670BD9FB60000A1
:100B10002DE9F0410646FFF71FFF8046454613E0EA
:100B200016B1E068B0420ED120682860D4E9010116
:100B3000D8F8007088472046FFF741FFD8F800003A
:100B4000B842EBD100E025462C68002CE8D1BDE886
:100B5000F08110B500F084F8BDE8104000F07AB8DC
:100B600010B500F095F8BDE8104000F073B8000033
:100B70000048704714980020004870471C980020D7
:100B8000704770477047704738B504460A460020E2
:100B90006946AFF30080002808BF38BD02460099BF
:100BA000204600F0B2F8012038BD012000F0E9B87D
:100BB000F8B5AFF30080054600200C46102000BFBA
:100BC0000646A819A0420DD9324669460020AFF367
:100BD0000080070008BF00F0D4F80098A04218BFBA
:100BE0000546C419FFF7C8FF05600746F01D20F051
:100BF00007004619284600F00AF8B44208BFF8BDBD
:100C0000A21B31463868BDE8F84000F07EB80021EC
:100C10000160C0E9011070471020704701694A1C4B
:100C200002610878704700B58FB0CDE9013100212D
:100C3000059105497944CDE9031011466846FFF74F
:100C4000F5FC0FB000BD0000E5FFFFFF007B00F0EA
:100C500080007047002801D00BF08FBA7047000069
:100C600010B5002102A000F073F8012010BD0000B3
:100C7000534947414252543A2041626E6F726D614E
:100C80006C207465726D696E6174696F6E0000002E
:100C900010B5002102A000F05BF8012010BD00009B
:100CA0005349475056464E3A205075726520766932
:100CB000727475616C20666E2063616C6C65640093
:100CC0007546FFF755FFAE4605006946534620F0CE
:100CD0000700854618B020B5FFF75AFBBDE8204055
:100CE0004FF000064FF000074FF000084FF0000BE8
:100CF00021F00701AC46ACE8C009ACE8C009ACE89B
:100D0000C009ACE8C0098D467047034640688C4670
:100D1000002818BF88423CBF03464068F8D31868D3
:100D20001844884207D00CF1030020F00700001D92
:100D3000411A521A0146081D0A60FFF740BE10B55D
:100D40000446AFF300802046BDE81040FFF7ABBA81
:100D500070B505460C460A2000E06D1C0BF00EFA3B
:100D600035B128780028F8D102E0641C0BF006FAAF
:100D700014B120780028F8D1BDE870400A200BF0AB
:100D8000FDB910B500F004F8BDE81040FFF762BFF0
:100D900010B5012805D0002103A0FFF7D9FF0120DD
:100DA00010BD09A1F8E7000053494752544D454D85
:100DB0003A204F7574206F662068656170206D65FC
:100DC0006D6F7279000000003A2048656170206DF7
:100DD000656D6F727920636F7272757074656400EF
:100DE000FEE70000214A10B4136823F001031360EA
:100DF0001F4A1368C3F30B1C0123ACF54064243C69
:100E000007D01268C2F30B12A2F5406CBCF1270C9C
:100E100022D1184A1268FAB9174AD2F800C0CCF3A6
:100E20000B0CBCF58A6F07D01268C2F30B02A2F557
:100E3000806CBCF1830C0FD1104A13601368002B37
:100E4000FCD10F4A10601068884202D010BC00200C
:100E5000704710BC012070470A4A93609368002BCA
:100E6000FCD1106010688842F3D0EFE7002000E06A
:100E700000ED00E0002004E00010005C084C025887
:100E8000004C025800300240014800F08BBC0000CA
:100E9000A4040020F0B50468059D666C45EA034390
:100EA00006F040461E4366640368DA634268B2F5A2
:100EB000403F02D00068C160F0BD01F47F4201F400
:100EC0007F0C836801F07F4401F47F0701F47F46C3
:100ED000CDB242EA0C02BBB1012B16D001F47F0265
:100EE000D20CC1F3C401022B11D0032B14D0210F5B
:100EF0003A0D340B240144EA022242EA013242EA6A
:100F0000151200688263F0BD22432A43F9E7B30A51
:100F10005B0143EAC22206E0E30FF40A640144EAFB
:100F2000822242EAC3320A43EBE7704701B50098D8
:100F300001E0401E00900028FBD108BD4FF4005096
:100F400000F0C8BD014801F007BF0000780600208E
:100F500030B5D1E901231A43D1E9033423431A43BD
:100F60004B690D681A438B691A43D1E90734012D87
:100F7000496A056807D01A4322436FF30E050A43F6
:100F80002A4302600AE025F4F845234329430B4332
:100F9000416803606FF30E010A434260002030BDD8
:100FA000426942EA4101416100207047F8B51446A8
:100FB0000546D1E9000210438A686FF01F03C96833
:100FC00003EB421242EA412108430090286100F0FD
:100FD0007FFE064609E0601C07D024B100F078FED1
:100FE000801BA04201D90320F8BDA8698006F2D475
:100FF0000020F8BDF0B56FF00F05D1E9003405EB26
:1010000004145B1E2E0123438C682F0306EB04247B
:101010004FEA054C23430D8A8E8ACC68097E4FF037
:101020007F4E07EB05450CEB06560EEB0161012ADE
:101030000CD082683F1107EB043423432B43334326
:1010400002F070420B43134383600FE08768084A45
:1010500017402203A2F580523243C4683A432B431F
:1010600004F070440B4323438260C3600020F0BD52
:10107000FF0F0FFF00F0E8B97CB50020009080263C
:1010800001908DF8006048208DF801000622694625
:10109000BA2000F047F8002819DB9DF802009DF8FF
:1010A00003108DF8006000EB012085B29DF804006C
:1010B0009DF80510032200EB012084B24D208DF82D
:1010C00001006946BA2000F02DF8002801DA00205E
:1010D0007CBD9DF80200224600F00303294602A0D1
:1010E000FFF7E0F901207CBD3C3C2D4754502D49D1
:1010F0004E464F2D3E3E20585F4D4158203D202505
:10110000642C20595F4D4158203D2025642C2054EB
:10111000524947474552203D203078253032780AE1
:1011200000000000F0B587B00E460221ADF80410B3
:1011300000240121ADF80240ADF80E108DF800003A
:101140008DF80C00901EADF81000B01C17460296EA
:1011500005900221684602F065F90546022803D091
:10116000641C052CF5DB01E0052C06DB30882B46E2
:1011700041BABA1E0248FFF795F907B02846F0BDFC
:1011800034EE000838B50C480024651E0068009055
:101190000BE003226946BA20FFF7C4FF45B2002DD9
:1011A00008DC214605A0FFF77DF92046641CE4B267
:1011B0000528EED3284638BD28E100083C3C2D47E1
:1011C00054502D4552524F522D3E3E2047545020F0
:1011D0006932632074657374206661696C6564208C
:1011E00074696D652025642E0A000000FEB5002498
:1011F000ADF8024016460F468DF80000ADF8042009
:1012000002910121684602F00DF90546012803D03C
:10121000641C052CF5DB01E0052C06DB38882B4629
:1012200041BAB21E0248FFF73DF92846FEBD000054
:1012300084EE00082DE9F8430024B82502F0F0F808
:10124000FFF7A0FF002802DA20A0FFF72BF900F03B
:1012500059F82948407898B1274FC037DFF89C806B
:10126000BA26F02108F10200FFF715FB3246394695
:1012700008F10200FFF798FA02204146AA1C06E096
:101280001D4FBF1DEAE70B5C401C2344DCB29042BB
:10129000F9DBE24308EB0500521C01218270C170AA
:1012A00000242A1D1549BA20FFF7A0FF002802DC00
:1012B000641C052CF5DB12480090401E0090FCD108
:1012C000FFF7DAFE0020BDE8F88300003C3C2D4724
:1012D00054502D4552524F522D3E3E20493243200C
:1012E000636F6D6D756E69636174696F6E204552D1
:1012F000524F52210A000000E00000205A02002054
:10130000FFFF0F0030B52B4885B00822D0E901104F
:10131000CDE9031003A9BA20FFF704FF040003D5A9
:1013200025A0FFF7BFF841E09DF811002D4D9DF875
:10133000121090B19DF813200291CDE900029DF8A2
:1013400010309DF80F209DF80E1027A0FFF7AAF887
:101350009DF80E0039281BD028E09DF81300CDE938
:1013600000019DF810309DF80F209DF80E102AA066
:10137000FFF798F89DF80E00392817D19DF80F0057
:10138000312813D19DF8100031280FD101200CE035
:101390009DF80F00312809D19DF81000352805D19E
:1013A0009DF81100372801D10020687005B0204653
:1013B00030BD000028E100083C3C2D4754502D452D
:1013C00052524F522D3E3E20475450207265616468
:1013D0002076657273696F6E206661696C65640A58
:1013E00000000000E00000203C3C2D4754502D49F7
:1013F0004E464F2D3E3E204943322056657273695A
:101400006F6E3A2025632563256325635F2530329F
:1014100078253032780A00003C3C2D4754502D4945
:101420004E464F2D3E3E204943312056657273692A
:101430006F6E3A202563256325635F25303278255A
:101440003032780A000000007FB51DA0BA25006880
:1014500003901C484FF0FF3407C88DE807000C22AA
:1014600069462846FFF75EFE010003D516A0FFF788
:1014700019F87FBD9DF802001F49C0B102060BD5C7
:1014800000F00F00012807D801200870BDF8040003
:10149000BDF8062048808A80032203A92846FFF76A
:1014A000A5FE0028E5DA15A0FEF7FCFF7FBD087851
:1014B0000028FBD04C808C80002008707FBD00008D
:1014C000814E000034E100083C3C2D4754502D452E
:1014D00052524F522D3E3E20493243207472616E6B
:1014E00073666572206572726F722E206572726EFD
:1014F0006F3A25640A200A00E00000203C3C2D479A
:1015000054502D494E464F2D3E3E204932432077C0
:101510007269746520656E645F636D6420657272C4
:101520006F72210A0000000010B5040002D060793B
:1015300010B106E0012010BD00202071204600F00F
:1015400005F801206071002010BD000008B500689A
:101550000649884208D10648016841F4805101607B
:10156000006800F48050009008BD00000030024088
:10157000303802402DE9F04104460068016821F04E
:101580000501091D016000F0A3FB054600264FF48C
:101590007A770FE000F09CFB401BB8420AD954F860
:1015A0003C0F40F0200044F80409032060702670CE
:1015B000BDE8F08120680068C007EBD120680168B1
:1015C00021F40C510160012084F8390084F838605E
:1015D0000020EDE7F8B504461D46DDE9063094F835
:1015E0003860012E18D0012684F83860022684F86D
:1015F00039602668726100902A462046FFF74AFC4F
:101600002068016841F40C5101602068016841F0D4
:10161000010101600020F8BD0220F8BD70472DE9EE
:10162000F0410446006800F12405026842F004021B
:101630000260012901D125681C3500F049FB0646EE
:1016400000274FF47A780FE000F042FB801B404502
:101650000AD954F83C0F40F0200044F80409032054
:1016600060702770BDE8F08128688006ECD420689F
:10167000016821F464510160012084F8390084F884
:1016800038700020EEE7000070B590F83820012A8D
:1016900024D0012680F83860022280F8392000EB3F
:1016A0000112148CD369183243EA04451E4C0A2BEC
:1016B00016D0092B14D0137B45EA03630029016877
:1016C00013D0CD69A5431D43CD610368116819612D
:1016D00051680A291BD0092919D01DE0022070BDCC
:1016E000D36803F07F432B43E8E74D6AA5431D43CE
:1016F0004D6203681168996151680A2901D009296E
:101700000AD1D168026821F07F41916204E0D1687A
:10171000026821F07F41116280F83960002180F871
:101720003810084670BD00000F0003FF70B50400BC
:1017300011D01B480068000217D520680168C9074E
:1017400003D02046FFF716FF04E0416A890604D55E
:10175000002106E048B1012070BDC069800604D5B3
:1017600001212046FFF75BFFF4E7206800250560B4
:1017700021683F20886020680561206885612068B5
:10178000C5612068456220684563204600F0C8F8BE
:10179000E56384F8395084F83850002070BD0000AB
:1017A000303802402DE9F047044600684668056875
:1017B000F1074FF004084FF000074FF0010914D073
:1017C000E90512D5016821F480710160E06B40F0F9
:1017D0000100E0632168C1F8089084F8398084F83A
:1017E0003870616909B120468847B00615D5A8044C
:1017F00013D52068016821F4005101602168202080
:101800008860E06B40F00200E06384F8398084F87F
:101810003870616909B120468847300715D5280519
:1018200013D52068016821F4006101602168082057
:101830008860E06B40F00400E06384F8398084F84D
:101840003870616909B12046884770070CD5680572
:101850000AD52068016821F4806101602168C1F81F
:101860000880204600F05AF8B00713D5A80511D516
:101870002068016821F400710160216802208860FD
:10188000E06BE06384F8399084F83870216909B11D
:1018900020468847F00612D5E80410D52068016874
:1018A00021F480510160216810208860E06BE063C2
:1018B00084F8399084F838702046FFF7AFFEBDE811
:1018C000F08770B5040004D094F83900002510B1F9
:1018D00006E0012070BD84F83850204600F032F850
:1018E000022084F8390020680168626821F44031E0
:1018F000114301602068416BA26821F00701114388
:1019000041632068016CE2686FF30D0111430164CB
:10191000E563012084F83900002070BD70470000A5
:1019200000680649884207D10548016821F4000192
:1019300001605A2000F0B2BD7047000000B00240C4
:101940003038024008B500680B49884212D10B4874
:10195000016841F4000101600068002200F4000009
:10196000009005215A2000F0B7FDBDE808405A203C
:1019700000F0A5BD08BD000000B0024030380240B4
:1019800038B50446049894F83850012D15D0012537
:1019900084F83850022584F8395000902046FFF72B
:1019A00079FA2068016841F40C51016020680168EF
:1019B00041F001010160002038BD022038BD000067
:1019C00070B5044600F084F90546601C02D0044856
:1019D0000078044400F07CF9401BA042FAD370BDAB
:1019E000340000202DE9F04186B014216846FEF74E
:1019F00074FF2F480168002957D14FF00108C0F843
:101A000000802C480024016841F001010160006859
:101A1000022500F0010005904FF63F00CDE90005DA
:101A200002AA03260C2782E8D0006946224800F06B
:101A30005DF802AA694682E8D000CDE900851F481A
:101A400000F054F848F23310CDE9000502AA6946C7
:101A500082E8D0001A4800F049F84FF68370CDE9CB
:101A6000000502AA694682E8D000164800F03EF858
:101A7000C020CDE9000502AA694682E8D0001248DC
:101A800000F034F84CF20370CDE9000502AA694673
:101A900082E8D0000D4800F029F80022052130200E
:101AA00000F01AFD302000F00AFD06B0BDE8F0811C
:101AB0002C00002038380240001402400008024088
:101AC0000018024000100240001C0240000C0240BE
:101AD00070470000044910B50A68024202D008604D
:101AE000FFF7F6FF10BD0000143C01402DE9F84F50
:101AF000DFF894B100224FF003094FF00F0A0BF109
:101B0000040E01250B6895402B40AB4272D14C6806
:101B1000012C05D0022C03D0112C01D0122C10D195
:101B20008668540009FA04F7BE43CF68A7403743DC
:101B300087604468AC430D79C5F300159540254393
:101B40004560C468570009FA07F58E68AC43BE408B
:101B50002643C6604C68022C01D0122C12D1D40846
:101B600000EB840CDCF820605407E40E0AFA04F859
:101B700026EA0806D1F8108008FA04F848EA0608B0
:101B8000CCF820800468AC430D7905F00305BD4016
:101B9000254305604C68E4006FD53C4C256845F44E
:101BA00080452560246822F0030504F480440094F5
:101BB000374C2E19D6F808789407250F0AFA05F441
:101BC000A743344CA04201D100242EE0324CA04265
:101BD00001D1012429E0314CA04201D1022424E0AA
:101BE0002F4CA04201D103241FE02E4CA04202D171
:101BF00004241AE041E02C4CA04201D1052414E059
:101C00002A4CA04201D106240FE0294CA04201D168
:101C100007240AE0274CA04201D1082405E0264C05
:101C2000A04201D1092400E00A24AC403C43C6F89C
:101C30000848DBF800405D464E689C43F60300D53B
:101C40001C432C60DEF8004075464E689C43B6038A
:101C500000D51C432C600C4D08352C684E689C4305
:101C6000F60200D51C432C60074D0C352C684E68DD
:101C70009C43B60200D51C432C60521C102AFFF472
:101C800040AFBDE8F88F0000003C014044380240FE
:101C90000030014000000240000402400008024001
:101CA000000C0240001002400014024000180240E4
:101CB000001C02400020024000240240006908404D
:101CC00000D0012070470AB1816170470904FBE729
:101CD00001488068704700003400002090F83D20E3
:101CE000202A01D002207047242280F83D2002687B
:101CF000136823F0010313600268536A23F0100392
:101D000053620268536A0B43536201680A6842F0E7
:101D100001020A60202180F83D100020704790F8F1
:101D20003D20202A01D002207047242280F83D2047
:101D30000268136823F0010313600268536A23F0FA
:101D40000F030B4399B2516201680A6842F0010225
:101D50000A60202180F83D100020704770B5040013
:101D600025D094F83D00002520B984F83C50204649
:101D700000F0B8F8242084F83D002068016821F0C4
:101D8000010101602068016841F4004101602068A0
:101D9000016821F40041016000F0E8FD4D4B6168ED
:101DA000994201D84C4900E04C49884201D20120B7
:101DB00070BD4B492268B0FBF1F1566826F03F0632
:101DC0000E43566062689A4206D94FF496725143A8
:101DD0004FF47A72B1FBF2F12268491C166A26F0C0
:101DE0003F06314311626168994210D84900401E94
:101DF000B0FBF1F2521CC2F30B02042A01D2042000
:101E000022E0B0FBF1F0401CC0F30B001CE0A26824
:101E1000F2B301EBC10303EB0116431EB3FBF6F370
:101E20005B1C43F480431B0549D092B301EBC10214
:101E300002EB0111401EB0FBF1F0401CC0F30B009F
:101E400040F4804040F400402168CA694CF6FF73BA
:101E50009A431043C861D4E907100143206802681F
:101E600022F0C00211430160D4E90301014320685C
:101E7000826848F2FF339A4311438160D4E9051028
:101E800001432068C26822F0FF021143C16001E0F3
:101E90000EE016E02068016841F001010160256450
:101EA000202084F83D00256384F83E50002070BD5A
:101EB00001EB4106431EB3FBF6F35B1CB3E70120C5
:101EC000C2E701EB4101401EB0FBF1F0401CC0F342
:101ED0000B00B7E7A086010080841E0000093D00CA
:101EE00040420F0010B586B0044614216846FEF744
:101EF000F4FC13492068884220D11248016841F05F
:101F0000020101600068694600F002000590C020EF
:101F100000901220019001200290032003900420E1
:101F200004900948FFF7E2FD06481030016841F4CB
:101F300000110160006800F40010059006B010BDAB
:101F400000540040303802400004024002488168DA
:101F50000278114481607047340000200B4810B5AE
:101F6000016841F400710160016841F48061016021
:101F7000016841F480710160032000F0CDFA002077
:101F800000F006F800F06EFA002010BD003C0240A0
:101F900010B5014688B00022362000F09DFA3620A8
:101FA00000F08DFA13480024016841F0100101602F
:101FB000006805A900F010000690684600F0B6FC25
:101FC00000F0D4FC0C494000B0FBF1F10C480B4A86
:101FD000491E026040F2E732C0E90324C0E901145F
:101FE00001F087F810B1012008B010BD044801F0DD
:101FF0009CF8F9E74038024040420F0000100040D2
:10200000201600202DE9F041044690F8A000154666
:102010000F4601281DD0012684F8A060022084F814
:10202000A10005EB850000EBC50004EB8000342225
:102030003830FEF7FEFB2A463946204601F044FAC6
:102040002068466284F8A160002084F8A000BDE802
:10205000F0810220FBE770472DE9F041044600685B
:10206000856B466B69074FF004084FF0000715D5E4
:10207000710713D5416B21F0040141632168C1F858
:102080003C80D4F8A41041F00101C4F8A41084F8F5
:10209000A18084F8A0702046FFF7DDFFA80716D5C1
:1020A000B00714D52068416B21F00201416321681B
:1020B0000220C863D4F8A40040F00200C4F8A400D1
:1020C00084F8A18084F8A0702046FFF7C4FF05EAD9
:1020D0000600C0074FF001080ED02068416B21F0C8
:1020E000010141632168C1F83C8084F8A18084F833
:1020F000A070204600F090F8280710D530070ED5C4
:102100002068416B21F00801416321680820C86301
:1021100084F8A18084F8A070204600F0A1F9BDE801
:10212000F081000070B5040004D094F8A1000025EF
:1021300010B106E0012070BD84F8A050204600F0E8
:1021400097F8022084F8A1002068816921F070418D
:102150008161D4E901100143D4E903021043014332
:1021600020688269114381612068826829490A4098
:102170008260A08A020420688368A66933431343FF
:1021800083602068C2680A40C260A08B0204206895
:10219000C368266A33431343C360206802690A4058
:1021A0000261A08C020420680369A66A33431343CA
:1021B0000361206842690A404261A08D01042068E1
:1021C0004269236B1A430A43426194F835000202C4
:1021D00094F8360001042068C36A03F07F43C362A9
:1021E0002068C36A94F83460114333430B43C362DD
:1021F0002068416B41F0060141632068816941F02C
:1022000001018161C4F8A450012084F8A1000020DC
:1022100070BD000000F800F0124910B50B68124ABA
:10222000124C11888B4211D1518800F0F7F82068C8
:1022300010F8661F491C017002F0DCFC206804F0F5
:10224000A5FCBDE81040002005F0F5BD00F0E6F863
:10225000002005F0F1FD206801688969BDE81040A3
:1022600008470000406801401C000020880400204E
:102270002DE9F04786B0044614216846FEF72DFB91
:102280005D49206888427DD15C480024016841F0A6
:1022900080610160006800F0806005905748143844
:1022A000016841F480710160016801F48071059159
:1022B000016841F020010160016801F020010591F1
:1022C000016841F001010160016801F0010105911F
:1022D000016841F002010160016801F0020105910D
:1022E000016841F040010160016801F04001059181
:1022F000016841F004010160016801F004010591E9
:10230000016841F0800101600068022500F0800052
:10231000059040F215600090CDE901540E26CDE9FC
:10232000034669463648FFF7E1FB6F020097CDE9A7
:102330000154CDE9034669463248FFF7D7FB41F621
:1023400008000090CDE90154CDE9034669462E48C6
:10235000FFF7CCFB03200090CDE901544FF00908B2
:10236000DFF8A8A0CDE9034869465046FFF7BEFB59
:102370004FF40C600090CDE90154DFF89490694669
:10238000484600E034E0CDE90346FFF7AFFB80208C
:102390000090CDE90154CDE9034669461D48FFF799
:1023A000A5FB4FF420400090CDE90154CDE9034650
:1023B00069461948FFF79AFB0097CDE90154CDE92A
:1023C000034869464846FFF791FB4FF44070009080
:1023D000CDE90154CDE9034669465046FFF786FB37
:1023E00000220521582000F077F8582000F067F807
:1023F00006B0BDE8F08700000068014044380240A4
:10240000002002400014024000000240000402408C
:102410000018024000080240001C024010B590F86D
:10242000A020012A17D0012300F8A03F0222427009
:1024300050F8A02C546B24F001045463074A116037
:1024400050F8A01C4A6B42F001024A63437000211D
:102450000170084610BD022010BD00004068014018
:10246000704700000C4882B0016841F4804101606F
:10247000006800F4804000900748001F016841F0A8
:10248000805101600068002200F0805000900F2110
:10249000901E02B000F020B84438024000280DDB46
:1024A00000F01F02012191404009800000F1E0206E
:1024B000C0F88011BFF34F8FBFF36F8F70470028B4
:1024C00009DB00F01F02012191404009800000F16A
:1024D000E020C0F800117047F0B40E4B1B68C3F346
:1024E0000223C3F10704042C00D904241D1D072D69
:1024F00001D2002300E0DB1E012606FA04F56D1E62
:102500000D409D409E40761E164045EA0601F0BCF7
:1025100009F091BD0CED00E0064A00F007011068DB
:102520004FF6FF03184040EA0120034908431060BA
:10253000704700000CED00E00000FA052DE9F843BB
:102540001748016841F0805101600068DFF854804D
:1025500000F0805001270090C8F84070FFF7B8FBEA
:1025600004464FF47A75104E04E0FFF7B1FB001BF0
:10257000A8420DD87068C003F7D5C8F84470FFF7BB
:10258000A7FB044607E0FFF7A3FB001BA84202D904
:102590000320BDE8F88370688003F4D50020F8E7D5
:1025A0004038024000000E42007000402DE9F84F14
:1025B00004460068DFF81CA2874F884DC1074FF022
:1025C00001094FF0000803D1810701D4400646D528
:1025D000CAF86880FFF77CFB064604E0FFF778FB4B
:1025E000801B02287DD828680001F7D42078C10715
:1025F0007B4805D06168227A890141EA0271016055
:102600002178890711D501686268237B9201C1F3A3
:10261000027142EA036242EA017101603968E269CB
:1026200021F01F01521E114339602178490608D557
:102630006168227B890141EA0261227A41EA0271E2
:102640000160CAF86890FFF743FB064604E0FFF715
:102650003FFB801B022844D828680001F7D520687A
:10266000410701D400074CD5CAF87080FFF730FB52
:10267000064604E0FFF72CFB801B022831D82868AF
:10268000C0438000F6D520785649400714D5086825
:102690002269237D9201C0F3027042EA036242EA9A
:1026A000007008603868226A6FF0FF0320F4F85069
:1026B00003EB0222104338602078000710D5086829
:1026C0002269C0F30360920142EA0060227E40EA80
:1026D000027008603868616A20F44030084338604E
:1026E00000E04EE0CAF87090FFF7F2FA064604E008
:1026F000FFF7EEFA801B022843D82868C043800009
:10270000F6D42078800653D53448454640300168D9
:1027100041F0805101600068334F00F0805000901C
:10272000386840F480703860FFF7D2FA064604E05B
:10273000FFF7CEFA801B022823D83868C005F7D5EA
:10274000274E143E306810F4407020D0218D01F4E3
:10275000407181421BD03068244920F44070C1F898
:1027600000900D6030603068C00710D0FFF7B0FAFD
:10277000054641F2883707E0FFF7AAFA401BB84246
:1027800002D90320BDE8F88F30688007F4D5A06A2D
:102790001249C0F301220831032A13D0086820F43B
:1027A000F81008603068218DC1F30B0108433060D8
:1027B0002078C00604D50E4994F82C00C1F8E00139
:1027C0000020DFE70A680B4B22F4F812184002439E
:1027D0000A60E7E7000047428C38024000380240B8
:1027E000843802408838024000700040400E474262
:1027F00000104742FFFCFF0F2DE9F0470D46040093
:1028000065D0DFF81491D9F80000EFB200F00F00A6
:10281000A84207D289F80070D9F8000000F00F0034
:10282000A84254D120683D4E810712D5400703D5F8
:10283000306840F4E05030602078000703D53068FD
:1028400040F4604030603068A16820F0F000084338
:1028500030602078C0072DD03049606808390128E1
:1028600012D0022813D0032811D009688907002943
:102870002DDA316821F0030101433160FFF728FAB6
:10288000804641F2883A0EE009688903EFE709685B
:102890008901ECE7FFF71CFAA0EB0801514502D9CA
:1028A0000320BDE8F0873068616800F00C00B0EBF1
:1028B000810FEFD1D9F80010484601F00F01A9426D
:1028C00007D90770006800F00F00A84201D001206E
:1028D000E7E72078400705D53068E16820F4E0504C
:1028E000084330602078000706D53068216920F45D
:1028F000604040EAC100306000F058F83168084A92
:10290000C1F30311515CC8400649086006480068DD
:10291000FFF73EFB0020C4E7003C024008380240BD
:1029200098E0000840000020380000200F220260DC
:102930000C4A136803F003034360136803F0F003C9
:102940008360136803F4E053C36012684FF4E053EC
:1029500003EAD20202610448006800F00F00086038
:102960007047000008380240003C02400448054916
:1029700000680968044AC1F38221515CC84070476D
:102980004000002008380240A8E00008044805493B
:1029900000680968044AC1F34231515CC84070477D
:1029A0004000002008380240A8E00008154810B593
:1029B000006810F00C01144813D0144B04290FD0F8
:1029C00008290ED10F4C241F216801F03F02216815
:1029D000490207D52068C0F38810A0FB030106E078
:1029E000184610BD2168C1F38811A1FB0001002326
:1029F000FDF7E1FC2168C1F30141491C4900B0FB2E
:102A0000F1F010BD083802400024F40040787D0148
:102A10002DE9F84F040075D02078DFF828A3C0070F
:102A2000AAF1040548D00AF104000168C1F381014C
:102A3000012908D00068C0F3810002280AD1DAF821
:102A40000000400206D52868800335D5606800285C
:102A5000E1D031E06068B0F5803F10D0B0F5A02F34
:102A6000286810D020F480302860286820F4802066
:102A700028606068A0B1FFF72BF906460CE02868D3
:102A800040F48030F4E740F480202860F7E7FFF757
:102A90001FF9801B642871D828688003F7D50BE0E4
:102AA000FFF716F9064604E0FFF712F9801B6428C9
:102AB000F1D828688003F7D42078DFF88C9280075B
:102AC0004FF0000B3DD59F48001D016811F00C0F21
:102AD00008D00068C0F3810002280AD1DAF80000AB
:102AE000400206D42868800715D5E068012809D17E
:102AF00011E0E068B8B10121C9F80010FFF7E8F86B
:102B0000064605E01AE1FFF7E3F8801B0228C2D869
:102B100028688007F7D52868216920F0F80040EA86
:102B2000C10028600DE0C9F800B0FFF7D1F80646F3
:102B300004E0FFF7CDF8801B02281FD82868800723
:102B4000F7D42078000722D57E4F8048616970371E
:102B500071B101210160FFF7BBF8064604E0FFF701
:102B6000B7F8801B022809D838688007F7D50EE02F
:102B7000C0F800B0FFF7ACF8064605E082E0FFF7CA
:102B8000A7F8801B02287DD838688007F7D4207802
:102B9000400765D56B484FF000083C300068C00026
:102BA0000BD468483C30016841F0805101600068F6
:102BB0004FF0010800F080500090654F3868C00564
:102BC0000FD4386840F480703860FFF781F806460B
:102BD00004E0FFF77DF8801B022853D83868C00551
:102BE000F7D5584FA0686C3701280FD005283868F2
:102BF00010D020F001003860386820F00400386000
:102C0000A068B0B1FFF764F806460EE0386840F0FF
:102C10000100F4E740F004003860F7E7FFF758F8E8
:102C2000811B41F28830814263D838688007F5D52E
:102C30000DE0FFF74DF8064606E0FFF749F8811B67
:102C400041F28830814254D838688007F5D4B8F111
:102C5000000F05D03B483C30016821F080510160F5
:102C6000A069B8B33749091D0968C1F38101022978
:102C700046D00228584606D0C9F86000FFF728F869
:102C8000044639E035E04F46C9F86000FFF720F808
:102C9000064604E0FFF71CF8801B022829D82868A4
:102CA0008001F7D4D4E907010843A16A294A4908F9
:102CB00002EB0141626A41EA8211084394F82C1048
:102CC00040EA0161CAF8001001203866FFF700F8F9
:102CD000044605E034E0FEF7FBFF001B022808D89D
:102CE00028688001F7D52BE0FEF7F2FF001B0228D1
:102CF00002D90320BDE8F88F28688001F4D41FE0D2
:102D00000128F7D0DAF80000E26900F4800191426E
:102D100014D1226A00F03F0191420FD147F6C071F1
:102D2000626A0140914209D1A26A00F440319142A5
:102D300004D1E16A00F07060884201D00120D9E737
:102D40000020D7E70438024000004742800E474287
:102D5000007000400000FFFF10B504460068806965
:102D6000C00707D0204600F03AF82068416941F0DA
:102D70000101416110BD70B50D46040003D094F807
:102D80002C0010B107E0012070BD002084F82D0058
:102D9000204600F011F8022084F82C00211D206844
:102DA000FEF7D6F8D4E900022946FEF723F9012000
:102DB00084F82C00002070BDFEF714BE10B5044648
:102DC00090F82C00022809D0022084F82C002068FA
:102DD000FEF7E6F8012084F82C00002010BD7047B3
:102DE00070B5044690F82C000D4602280CD0022045
:102DF00084F82C002068FEF7D9F82868022804D04F
:102E0000012084F82C00002070BD0520F9E770B582
:102E1000040005D00025A56294F8510010B106E029
:102E2000012070BD84F85050204600F031F8022097
:102E300084F851002068016821F040010160D4E964
:102E400001010843D4E903121143084361690843AF
:102E5000218B01F400710843E1690843216A0843AA
:102E6000A16A084321680860A069042101EA1040B2
:102E7000616A0843216848602068C16921F40061E3
:102E8000C1616565012084F85100002070BD00001B
:102E900010B586B0044614216846FDF71EFD14499E
:102EA0002068884221D113480021026842F4801230
:102EB0000260006800F4801005900E481438026823
:102EC00042F020020260006800F0200005904FF4FC
:102ED000607000900220CDE90101032003900520DD
:102EE000049069460448FEF701FE06B010BD0000DC
:102EF0000050014044380240001402402DE9F84FD0
:102F0000044690F8500001250A9E1F4692468B46C3
:102F10004FF0000801280ED0012084F85000FEF781
:102F2000D7FE814694F85100616801280CD0B1F5B4
:102F3000827F07D102E00220BDE8F88FA16809B9BD
:102F4000042801D00220B6E0BBF1000F27D0BAF16F
:102F5000000F24D01FB394F85100042802D005209C
:102F600084F8510000206065C4F838A0E787A7877F
:102F7000C4F830B0E786A7862064606420680168E2
:102F8000490603D4016841F040010160E068B0F5F2
:102F9000006F606805D0E8B3012F43D079E00120CD
:102FA00089E008B1012F34D1206B21680088C86006
:102FB000206B801C2063E08E401EE08629E02068A4
:102FC000816889070DD5E18E59B1012D09D1216B99
:102FD0000988C160206B801C2063E08E401EE08663
:102FE000002520688168C9070BD0E18F49B1C0680E
:102FF000A16B0880A06B801CA063E08F401EE0875F
:103000000125FEF765FEA0EB0900B04201D3701C5C
:1030100050D100E006E0E08E0028D0D1E08F0028FB
:10302000CDD13CE0206B216800780873206B401CF8
:103030002063E08E401EE0862BE0206881688907CF
:103040000DD5E18E59B1012D09D1216B097801739C
:10305000206B401C2063E08E401EE0860025206827
:103060008168C9070BD0E18F49B1C068A16B0870B6
:10307000A06B401CA063E08F401EE0870125FEF797
:1030800027FEA0EB0900B04202D3701C01D011E072
:1030900086B1E08E0028D0D1E08F0028CDD14A46FD
:1030A0003146204600F0B2FC38B120204FF0010834
:1030B000606508E00320804605E0A06818B9206834
:1030C000C16880680090012084F85100002084F8D5
:1030D0005000404630E74FF0E0210428086903D053
:1030E00020F004000861704740F00400FAE77047E0
:1030F000704710B5040003D094F83D0010B107E00C
:10310000012010BD002084F83C00204600F00CF89F
:10311000022084F83D00211D206800F083FD01207D
:1031200084F83D00002010BD70470168CA6842F075
:103130000102CA600068816801F00701062903D016
:10314000016841F00101016000207047704770B5CF
:103150000446006801694FF00005C943890715D48A
:10316000C168C943890711D4E91E01610120207794
:10317000206880698007204602D0FFF7E7FF04E05F
:1031800000F098F8204600F096F82577206801694D
:10319000C943490717D4C168C943490713D46FF01D
:1031A00004010161022020772068806910F4407FCB
:1031B000204602D0FFF7CAFF04E000F07BF820466B
:1031C00000F079F8257720680169C943090716D40A
:1031D000C168C943090712D46FF0080101610420D6
:1031E00020772068C0698007204602D0FFF7AEFF35
:1031F00004E000F05FF8204600F05DF825772068D5
:103200000169C943C90617D4C168C943C90613D4A3
:103210006FF010010161082020772068C06910F468
:10322000407F204602D0FFF791FF04E000F042F813
:10323000204600F040F8257720680169C943C90796
:1032400008D1C168C943C90704D1891E016120465C
:1032500000F032F820680169C943090609D4C16841
:10326000C943090605D46FF0800101612046FFF7CC
:103270003EFF20680169C943490609D4C168C943B2
:10328000490605D46FF040010161204600F01EF8A8
:1032900020680169C94389060BD4C168C9438906FE
:1032A00007D46FF0200101612046BDE87040FFF7B0
:1032B0001FBF70BD7047704700680349884201D145
:1032C000FEF744BE7047000000100040704770B524
:1032D000040004D094F83900002510B106E0012064
:1032E00070BD84F83850204600F022F8242084F87D
:1032F00039002068C16821F40051C160204600F007
:10330000F5FC2068016921F4904101612068416960
:1033100021F02A0141612068C16841F40051C16077
:10332000E563202084F8390084F83A00002070BD5D
:1033300010B586B0044614216846FDF7CEFA14494C
:103340002068884221D113480021026842F010020F
:103350000260006800F0100005900E481438026802
:1033600042F001020260006800F0010005904FF495
:10337000C06000900220CDE90101032003900720E6
:10338000049069460448FEF7B1FB06B010BD00008A
:10339000001001404438024000000240FEE770B5D2
:1033A00014460D46064608F0B1FF46F0010008F04D
:1033B00077FF08F0F3FF88B108F0D0FF012070BD5F
:1033C000012C03D108F01EFF08F0C8FF08F03EFFF3
:1033D000641E05F8010BA4B208F0E6FE002CEFD144
:1033E00008F0BCFF002070BD70B50B4D4FF40064B9
:1033F000002221462846FEF766FC084E3046FDF7BF
:1034000095FD012221462846FEF75DFC3046BDE8C9
:103410007040FDF78BBD0000000C0240FFFF0F0065
:10342000FFF7E2BF70B50E460546002416E004EB38
:10343000440005EB80039978C90706D09A8815F8EF
:1034400020009968FFF7ABFF05E01A7915F8200016
:10345000996800F007F8641C002802D1B442E6D154
:10346000204670BD2DE9F04115460E46804608F015
:1034700075FF00244FF47A7708F048FF404608F0C3
:103480000FFF08F08BFF18B1641CA4B2BC42F3D349
:10349000BC4206D00BE0307808F002FF08F07EFF57
:1034A00020B108F05BFF0120BDE8F081761C6D1EA5
:1034B000EDB2F0D208F052FF0020F5E70148FEF728
:1034C000CBBD000038050020F0B504688B88E568A6
:1034D000C5F30B452B441D04882303EBC213E658A8
:1034E00006F47046E65004680F68E668C6F30B46BB
:1034F000761C3E442E43E65003688C89DD68C5F394
:103500000A052C4425048C2404EBC2141E5906F42D
:1035100070461E5103688F68DE68C6F30A06761C83
:103520003E442E431E519423046803EBC213E55816
:1035300025F00705E55005680C69EC5091F831302D
:1035400005681F0291F832301C040B7E1E069C2376
:1035500003EBC21355F803C04FF0000C45F803C04D
:1035600091F8305034433D4325430468E550982397
:10357000046803EBC213E55825F0FF05E550056824
:103580004C69EC50A023046803EBC213E55840F2E9
:103590000776B543E550D1E907452C430568EC5063
:1035A000AC23046803EBC213E55844F803C0056874
:1035B0004C6AEC500B698BB3012B32D0042B32D008
:1035C000022B30D0032B2ED0072B2CD00123B0247C
:1035D000056804EBC2142E5906F0E0262E51D1E9FD
:1035E0000065AD1B0E8D5D435E43ED1C45EA064351
:1035F00005682B51B423046803EBC213E5586FF33D
:103600000A05E5500468C96AE1500068842101EBAD
:10361000C211425842F001024250F0BDFFE70423BC
:10362000D5E70323D3E70223D1E7000000B587B035
:103630001C216846FDF751F9154814490022016024
:103640000121C0E9011204211023C0E90313402322
:1036500043614FF4C073C0E906324A0202628A0233
:103660004262CA02826207220220CDE90002CDE94D
:1036700002120321CDE90410069069460448FFF7C1
:103680007AFB00F029F907B000BD0000400100A05E
:10369000780600202DE9F04786B014216846FDF732
:1036A0001CF94F480024016841F0040101600168E1
:1036B00001F004010591016841F480710160016825
:1036C00001F480710591016841F0200101600168F9
:1036D00001F020010591016841F08001016001685D
:1036E00001F080010591016841F00101016001686C
:1036F00001F001010591016841F0020101600168DA
:1037000001F002010591016841F04001016001688A
:1037100001F040010591016841F01001016001686C
:1037200001F010010591016841F008010160006895
:10373000DFF8B08000F008000590002230214046FC
:10374000FEF7C1FADFF8A0904FF400660022314680
:103750004846FEF7B8FA012290214846FEF7B3FA30
:10376000DFF888A0B710002239465046FEF7ABFAC2
:10377000302000900125CDE901546946404603946C
:10378000FEF7B4F9CDE900650226CDE90264694689
:103790004846FEF7ABF9680300901548CDE90104EF
:1037A00069464846FEF7A2F99020CDE90005CDE92B
:1037B000025469464846FEF799F9CDE90264CDE91D
:1037C000007569465046FEF791F900220521282030
:1037D000FEF782FE2820FEF772FE06B0BDE8F087F5
:1037E00030380240001C0240000C02400018024029
:1037F000000011100E4810B50C4901600D494160E0
:1038000000214FF480428160C0E90312416181616F
:10381000C1610162FEF7A2FA00210548FEF75EFAD7
:10382000BDE8104000210248FEF779BA005400407C
:10383000E4040020A086010010B58EB03421684653
:10384000FDF74BF8234822490024C0E900148460A6
:10385000C46004612E214461C0E906411721016260
:1038600040F24E31416240F2F711816240F2623122
:10387000C16240F20D21016380F8344080F8354088
:1038800080F83640FEF74EFC4FF44872CDE9004216
:103890004FF4F07102200294CDE903104FF48063DD
:1038A000CDE90643FF200590CDE90A2105238DF8D7
:1038B000300008938DF831004FF050438DF83200FE
:1038C0000993002269460348FEF79CFB0EB010BD29
:1038D00000680140380500202DE9F8431F4C002501
:1038E000012608270095C4E90067C4E902654FF680
:1038F000FF7921464A46A1F13400FFF771FA012011
:10390000FEF75EF80220C4E90007C4E9026521461B
:103910004A46A1F13400FFF763FA03204FF0040890
:10392000E56084E8810121464A46A1F13400FFF7B1
:1039300057FA4FF40C700090C4E90260C4E90087A4
:1039400021464A46A1F13400FFF74AFAA4F13400B7
:10395000BDE8F84340F26A51FFF730BAAC060020E8
:103960000B480A494FF4007201604FF482714160C4
:1039700000218160C1600161C0E90512C16101627D
:10398000416281620A21C162FFF741BA00500140E1
:10399000E005002009F08EB809F0C8B8FEE77047CE
:1039A00004480068016841F040010160FF2000F018
:1039B00003B80000E005002001B582B04FF47A7032
:1039C0000090012301AA02A90248FFF797FA9DF887
:1039D00004000EBDE00500200B4A10B511680B680D
:1039E00023F040030B6011680B684FF6C774234047
:1039F0000B6011680B6803430B601068016841F0AD
:103A00004001016010BD0000E005002038B504460B
:103A10001248134D4FF47A730068B0FBF5F0584329
:103A200000906068B0F5827F0DD10B4600920022B5
:103A30008021204600F016F870B1606D40F0200043
:103A40006065032038BD009830B1401E00902068AA
:103A50008068C0430006F6D5002038BD4000002035
:103A600000366E012DE9F0411D4617460E4604460C
:103A7000DDF8188008E0681C06D0FEF729F9A0EBF5
:103A80000800A8420BD255B12068806836EA0000D1
:103A900030D00020B842EED10020BDE8F08120688F
:103AA000416821F0E00141606068B0F5827F0BD190
:103AB000A068B0F5004F02D0B0F5806F04D1206847
:103AC000016821F040010160A06AB0F5005F09D1F2
:103AD0002068016821F4005101602068016841F408
:103AE00000510160012084F85100002084F850004A
:103AF0000320D2E70120CDE7FFF74EFF03A0FCF73C
:103B0000D1FC012008F0D4FCFBE7000077656C6372
:103B10006F6D6520746F2074686520546F756368DD
:103B200047465820776F726C6400000010B5502033
:103B300080F31188BFF34F8FBFF36F8F09F032FE10
:103B400018B104494FF080500860002080F31188BC
:103B500010BD000004ED00E030B59FB03021684694
:103B6000FCF7BBFE142118A8FCF7B7FE30210CA807
:103B7000FCF7B3FE1F480025016841F08051016049
:103B8000006800F080501D901B48016841F44041DE
:103B900001600068022400F440401D900120009064
:103BA000000401908001CDE90640192008904FF4EF
:103BB000B470CDE9090404200B906846FEF728FF95
:103BC000FEF7BCFC18A90F2081E831004FF4A0508B
:103BD0001B90E0021C90052118A8FEF70DFE08209E
:103BE0000C9064201595109012940CA8FEF7DEFC42
:103BF0001FB030BD403802400070004005480168E9
:103C000041F47001016003494FF0006080390860A1
:103C10007047000088ED00E00148FFF798BA000007
:103C200020160020F0B50268254D264E264FDFF8FD
:103C30009CC0274B4FF0804EA84209D0704507D05A
:103C4000B04205D0B84203D0604501D0984203D1BC
:103C500022F070044A682243A8421BD0704519D054
:103C6000B04217D0B84215D0604513D0984211D059
:103C7000184CA0420ED0184CA0420BD0174CA042BA
:103C800008D0174CA04205D0164CA04202D0164CCA
:103C9000A04203D122F44074CA6822434C6922F046
:103CA0008002224302608A68C2620A688262A84275
:103CB00001D0984201D10969016301214161F0BD40
:103CC000000001400004004000080040000C0040DB
:103CD0000004014000400140004401400048014010
:103CE00000180040001C0040002000402DE9F04179
:103CF000044600680169E26821F440511143016102
:103D0000A1682069E26901436069104301432068AA
:103D1000C26849F20C639A430A43C2602068416951
:103D2000A26921F4407111434161E06919276425BA
:103D30003226B0F5004F354A354920684FF000086B
:103D400006D0884201D0904236D1FEF71FFE35E002
:103D5000884201D0904202D1FEF718FE01E0FEF742
:103D600005FE61684A18A0FB070148EB0803FCF751
:103D700022FB0146B0FBF5F00201B1FBF5F06FF05C
:103D80001803584301EB800006EBC000B0FBF5F0D0
:103D900000F0F80002EB4002B1FBF5F0584301EBF4
:103DA000800006EBC000B0FBF5F000F007002168D2
:103DB00010448860BDE8F081FEF7D8FD01466068D8
:103DC000830F8200A1FB0701FCF7F5FA0146B0FB67
:103DD000F5F06FF01802504301EB800006EB001085
:103DE000B0FBF5F000F0F002B1FBF5F002EB0012D1
:103DF000B1FBF5F06FF01803584301EB800006EBC0
:103E00000010B0FBF5F000F00F00D0E70014014007
:103E100000100140FEE70000F0B51C4887B0002705
:103E2000016841F0200101600068012400F02000D9
:103E300005904020CDE900040220CDE9024069460A
:103E40001348FDF753FE134DC5F89842FFF7A8FD40
:103E50000020FFF7C1FD00F057F80F4E01463080FB
:103E60000EA0FCF71FFB3088A0F56F4118390BD16D
:103E7000032000F06BF8C00706D1C5F89872B72090
:103E8000FFF79AFDC5F8984207B0F0BD3038024000
:103E900000140240008042425003002025780A00AE
:103EA0002DE9F041164F0646002015460C46C7F88E
:103EB00098020320FFF780FD12480088A0F56F41AB
:103EC000183902D1200EFFF777FDC4F30740FFF742
:103ED00073FDC4F30720FFF76FFDE0B2FFF76CFD41
:103EE000002405E0FF20FFF767FD3055641CA4B2F5
:103EF000AC42F7D30120C7F89802BDE8F08100007A
:103F0000008042425003002070B50F4D0024C5F8D8
:103F10009842902005F52675FFF74EFD0020FFF72B
:103F20004BFD0020FFF748FD0020FFF745FDFF2077
:103F3000FFF742FD44EA0024FF20FFF73DFD204348
:103F40000121296070BD00000080424210B50128A7
:103F500003D0022803D0032803D0052002E0352037
:103F600000E01520064C0021C4F8981204F52674D0
:103F7000FFF722FDFF20FFF71FFD0121216010BD8B
:103F800000804242002809DB00F01F02012191401D
:103F90004009800000F1E020C0F80011704730B502
:103FA0000468256825F440350D43256001684C6B95
:103FB00024F0070414434C630068016C6FF30D0197
:103FC00019430164002030BD00280DDB00F01F0202
:103FD000012191404009800000F1E020C0F88011EB
:103FE000BFF34F8FBFF36F8F70470907090E00288B
:103FF00004DB00F1E02080F80014704700F00F00AF
:1040000000F1E02080F8141D7047000002480068AD
:10401000406801684969084788040020FCF7A2FB52
:1040200000B514488BB00078C0071FD1114808F0C4
:1040300024F8D8B1104A069200203F21CDE907109C
:104040000E4909900122CDE90401CDE902200421A5
:10405000CDE900010A230A490A4802F0E9F90A4AAF
:104060000A49FCF78AFB0348AFF300800BB0054810
:1040700000BD0000A400002048FB000818E1000873
:1040800070FB0008509700200000000875640008CD
:1040900000B514488BB00078C00720D1114807F054
:1040A000ECFFE0B1104A069200203F21CDE9071055
:1040B00001210E4A0990CDE90412CDE90210042134
:1040C000CDE900011423112209490A4802F0B0F990
:1040D000094A0A49FCF751FB0248AFF300800BB0D4
:1040E000044800BDA80000204CFB00081CE10008AB
:1040F00080FB000874970020000000087564000829
:1041000000B514488BB00078C00720D1114807F0E3
:10411000B4FFE0B1104A069200203F21CDE907101C
:1041200001210E4A0990CDE90210CDE904120420C4
:10413000CDE900102823092209490A4802F078F93C
:10414000094A0A49FCF719FB0248AFF300800BB09B
:10415000044800BDAC0000206CFB000820E1000812
:1041600070FC0008989700200000000875640008A3
:1041700010B5094C074820602046FDF7A2FB074810
:1041800020610748074960614FF08060C1F8000175
:1041900010BD000000B00240A40400200D40000843
:1041A0001D40000808E000E040F2EF1070470000FA
:1041B0002DE9FC47086800260C464FF400372028FC
:1041C0000DD040280BD0042809D0002189464FF497
:1041D000807A802801D0504503D1012002E00121DE
:1041E000F4E70020804602F0CFFD0168096A8847A5
:1041F00005462068402810D004DC04280AD0202876
:1042000020D10AE0802803D050451BD1092604E0C4
:104210000A2602E0102D18D001264549102D4F60C6
:1042200016D04FF001008860E08A228A8A46A0EB0F
:104230000200C860E18A208AA1EB00030BD14FF095
:1042400002020AE04FF00007E4E74FF00206E4E75D
:104250004FF00200E7E74FF0010239463448FFF71C
:104260009EFECAF82C60A18A228A5046891ACAF892
:10427000281059EA080620D0217FFF2904D2022104
:104280000163217F416301E000210163B8F1000F68
:1042900006D0102D22D0227FA16941EA026141633C
:1042A000E18A228A891A8161102D36D00121CAF84B
:1042B0001C1000211E48FDF7E7F901211C48FDF7FD
:1042C000E3F966B3618A208ACDE90001E268184803
:1042D00013466168FDF77EF9BDE8FC87218B1F2737
:1042E00089B2CA0AC2EB0222B2FBF7F3C1F345124C
:1042F00001F01F01C1EB0121B1FBF7F1C2EB02227A
:104300004FF03F0CB2FBFCF2277F3F0647EA034326
:1043100043EA02220A434263C2E70221C7E7608AF6
:104320000090238A0248E2686168FDF729FBD3E721
:10433000A40400202DE9FC470C4602F025FD01688D
:10434000096A88470646102825D04FF001008146AB
:1043500024D1208B4FF01F0380B24FEAD021C1EB54
:104360000121B1FBF3F2C0F3451100F01F00C0EBD7
:104370000020B0FBF3F0C1EB01214FF03F05B1FB92
:10438000F5F1237F4FEA036343EA024242EA012741
:1043900047EA000706E04FF00200D8E7217FA06956
:1043A00040EA016720684FF4003A082816D04FF41D
:1043B00040352C49102E4D6012D04FF0010088601E
:1043C000E08A228A8846A0EB0200C860E08A218A3F
:1043D000A0EB010307D14FF0020206E05546E8E7E3
:1043E0004FF00200EBE74FF0010229461D48FFF7AE
:1043F000D6FD554517D141460120C1E90C070920DA
:10440000C8F82C00E08A228A801AC8F81800102EFA
:1044100007D00120C8F81C0000211248FDF734F92C
:1044200004E00220F6E70021C8E90A1901210D483D
:10443000FDF72AF955450BD1618A208ACDE90001A3
:10444000E16808480B460A46FDF7C4F8BDE8FC875A
:10445000608A0090238A39460248E268FDF790FAA4
:10446000F4E70000A40400200168896A08470000FE
:1044700010B500F10C010B46416000210172417240
:104480000749016000F120016022184602F098F906
:10449000602320220349143007F0DDFD203810BDD1
:1044A000CCE10008D585000810B504460748206017
:1044B0000748FDF73BF907494FF08060C1F88001DC
:1044C000BFF34F8FBFF36F8F204610BDCCE10008C4
:1044D000A404002008E000E010B504468022D103C7
:1044E000044804F053F804F009F82046BDE81040F1
:1044F00000F09CB8000030D07047000010B500F00C
:10450000A1F80149016010BD1CE2000801490160E9
:1045100070470000A8E8000800F034B970470000B8
:1045200010B500F03BF90149016010BD50E20008F0
:104530000149016070470000A8E8000800F024BAB3
:1045400000F03CBA00F043BA00F043BA00F04ABAB7
:1045500000F052BA00F05CBA10B50C4602F1E0412E
:10456000B1F1007F05D29AB22046FFF799FC0120F5
:1045700010BD2146BDE8104002F076BE7047000035
:1045800010B500F1140200F12C01C0E90121164917
:1045900000F58E7400F5BC730160C0E9034310465A
:1045A00002F0C0F8114940F8181B02F0BBF810499E
:1045B00040F8F01B02F0B6F802460E48106002F513
:1045C000D67102F15C00A2F58E7200F0B5F900F52B
:1045D000A87000F0F4FAA0F53274A0F5A87000F00D
:1045E00037FA204610BD000038E30008C8ED000887
:1045F00094ED0008FCED000810B50849016000F5D5
:10460000BC7000F0D5FA5C3802F094F8F03802F093
:1046100091F8183802F08EF8143810BD38E300080D
:1046200000487047B0E0000802207047704710B59E
:10463000A430814205D100F04DFBBDE8104000F0F0
:1046400041BA10BD2DE9FF4104F06EFB002544493D
:10465000C56340F8401B04F0B5FB4249FF240160EC
:1046600080F82640856280F82C50303004F0AAFB98
:104670003D494FF6FF760160C684856220F82C5FC5
:104680008470C57005714571083004F09BFB85622C
:1046900080F82C50012280F8242034490160C6851E
:1046A000068680F83240324A00F134073946D2E9B2
:1046B0000032C1E90232A0F1A4042E4EC7E9006421
:1046C0004FF4F0700090002204F140004FF4487362
:1046D0001146804604F095FBFF2246461146002015
:1046E00003F004FCB06204F17000D82240F2231100
:1046F000064604F0E1FB00221146104603F0F6FBEB
:10470000B062B585ADF80050ADF80C503046009958
:1047100006F099FBDB2240F2F62104F1A40004F03C
:10472000CBFB0120ADF8080002AA01A9ADF80450A6
:1047300004F1A40003F051FF4146201DC4F8CC70E1
:1047400006F0D1FC3146201D06F0CDFC04F1A40199
:10475000201D06F0C8FC04B02046BDE8F081000032
:104760004CE30008CCE6000824EC000838E8000818
:1047700008E1000844E900080149016003F0AABB10
:104780004CE30008704710B5A430814205D100F019
:10479000A1FABDE8104000F081B910BD2DE9FF413C
:1047A00004F0C2FA00254449C56340F8401B04F0F8
:1047B00009FB4249FF24016080F82640856280F8A9
:1047C0002C50303004F0FEFA3D494FF6FF76016080
:1047D000C684856220F82C5F8470C57005714571B0
:1047E000083004F0EFFA856280F82C50012280F83E
:1047F000242034490160C685068680F83240324A5A
:1048000000F134073946D2E90032C1E90232A0F1A1
:10481000A4042E4EC7E900644FF4F070009000220B
:1048200004F140004FF448731146804604F0E9FA61
:1048300046460522FF21002003F058FBB06204F138
:104840007000E422EF21064604F036FB00221146F8
:10485000104603F04BFBB062B5850120ADF80000B7
:10486000ADF804003046009906F0EDFADB2240F284
:10487000F62104F1A40004F01FFB0120ADF80C00A8
:1048800003AA02A9ADF8085004F1A40003F0A5FEA4
:104890004146201DC4F8CC7006F025FC3146201D91
:1048A00006F021FC04F1A401201D06F01CFC04B05C
:1048B0002046BDE8F081000080E30008CCE6000857
:1048C00024EC000838E8000810E100085CE9000862
:1048D0000149016003F004BB80E3000870477047A2
:1048E0000023034A8360026018324260C16070474F
:1048F000B4E3000870477047704700000023034A84
:104900008360026018324260C1607047DCE30008D7
:10491000704702207047000000487047BC97002095
:1049200010B50446D0F84C0100F048F92046BDE827
:10493000104000F0E9BB000010B500F0FBF80149A1
:10494000016010BD04E4000870B514460D46FCF784
:1049500091FB09480949B0F90000421C03D1B1F9A3
:104960000020521C05D02860B1F900002060012011
:1049700070BD002070BD0000E2000020E4000020B7
:10498000FCF758BC7047000070B5044602F00CF804
:1049900000F0A0F901462068C26C204690472068CC
:1049A0000023054A456F4FF050412046A84700209C
:1049B00084F84A0070BD000000B80BD010B55A2032
:1049C000FFF7E0FABDE810405820FFF7DBBA02F02D
:1049D000D7B810B55A20FFF7F7FABDE810405820B5
:1049E000FFF7F2BA034801600249012088390860E4
:1049F00070470000AC68014010B509215A20FFF74C
:104A0000F4FA0921BDE810405820FFF7EEBA000083
:104A10000C4800680C49C0F30A00401E094A80B2E5
:104A2000121D08801268C2F30A02521E4A8005490C
:104A30003431086003482830016841F00101016009
:104A4000704700000C6801401C0000207047000007
:104A50007FB5044607482146D0E90223684609F09D
:104A6000A7FA014604F59C70054604F0C3F9C4F8A2
:104A700034517FBDD8E0000808B5D0F84C11009142
:104A800000F59871D0F84821024B034809F020F84E
:104A900008BD00003C040020380400207FB5044617
:104AA00007482146D0E90423684609F081FA014607
:104AB00004F59C70054604F09DF9C4F834517FBD9F
:104AC000D8E000087FB5044607482146D0E9062310
:104AD000684609F06DFA014604F59C70054604F03D
:104AE00089F9C4F834517FBDD8E0000808B5D0F882
:104AF0004C11009100F59871D0F84821024B034801
:104B000009F03EF808BD00003C04002038040020F5
:104B100008B5D0F84C11009100F59871D0F84821F3
:104B2000024B034809F081F808BD00003C04002056
:104B30003804002070B515460E4600F07BFE16497D
:104B40000021164AC0F83011C0F834111060144A20
:104B50000446026000F59C70124AC0E90021124927
:104B6000D1E90A21C0E90221C4E952560F4D286853
:104B700001688A6800219047002003F0D1F9286875
:104B800090F8761009B1C16C01B98168084605F04A
:104B900013F9204670BD0000A0E500084004002085
:104BA0006CE4000874E90008D8E0000888040020DC
:104BB00001490160704700006CE400087047002163
:104BC0000160704710B503220021012008F02AFA85
:104BD000074CA06020B100231A46194608F08AFA53
:104BE00001210022084608F01DFA606010BD000097
:104BF000200000200B4808B54068002811D0002193
:104C00000B4600916A46074908F026FB00980028E9
:104C100007D005494FF080500860BFF34F8FBFF3B6
:104C20006F8F08BD2000002004ED00E010B507499B
:104C300000220C46606808F0BBFB21466068BDE8B6
:104C400010404FF0FF3208F0B3BB000020000020FE
:104C5000034800231A461946806808F04BBA000042
:104C60002000002002484FF0FF31806808F03CBC73
:104C70002000002002480021806808F035BC0000B8
:104C80002000002008B50020009008486946806890
:104C900008F040FB0098002807D005494FF08050ED
:104CA0000860BFF34F8FBFF36F8F08BD2000002057
:104CB00004ED00E0704741607047704770470000A6
:104CC000024901600021416001727047BCE40008A4
:104CD000704700000148C06870470000340400209D
:104CE00003484068002808BF70470268926A10476E
:104CF000340400202DE9F04F824610B28DB00C46EE
:104D00001546002812BF5FEA25400DB0BDE8F08FC0
:104D1000BAF8E800002800F05A81B0F1010900F16A
:104D2000568100BF1FFA89F00AEBC00021B2D0E91A
:104D30002A870FFA88F0884214DC22144FEA2843AD
:104D400093420FDC0FFA85FC3EB28C440644B44516
:104D500008DC02EB254C03EB27429445DCBF0DB089
:104D6000BDE8F08F884239DB4FEA284223149A428B
:104D700034DB0FFA87FC2EB284440E4466452DDBEB
:104D800002EB274C03EB2542624527DB0020ADF800
:104D90001800ADF81C00ADF81A00ADF81E00BAF806
:104DA000E8001FFA89F70AF1A806B84240F20B8121
:104DB00006EBC701884606A807F038F9B6F84000A8
:104DC000401E80B2A6F84000B84240F2FC8006EBDC
:104DD000C001404607F02AF900F0F5B82AB28B1856
:104DE00083426ADD3BB203448B4266DD211401EB52
:104DF000254C4FEA28439C455FDD03EB27438B425C
:104E00005BDD0020ADF82000ADF82400ADF82200F5
:104E1000ADF82600BAF8E8001FFA89FB0AF1A806E7
:104E2000584512D906EBCB0108A8009107F0FEF80F
:104E3000B6F84000401E80B2A6F84000584504D99C
:104E400006EBC001009807F0F1F83BB2002B18BF49
:104E50005FEA27467DD00FFA85FBBBF1000F18BF34
:104E60005FEA254776D022B20FFA88FC6245B4BFCC
:104E700010466046864620144FEA28484045B4BF95
:104E8000014641465A44634412B21BB29A42D8BF0B
:104E90001A46384403B208EB060000B28342C8BF8A
:104EA00018466EF30F04A2EB0E0262F30F05401AD0
:104EB00061F31F4460F31F4585E039B2A3462E46D7
:104EC000002918BF5FEA274347D00FFA86FCCDF8C8
:104ED00010C0BCF1000F7BD05FEA264CCDF80CC0AF
:104EE00076D00FFA8BFCCDF808C08445A8BF844665
:104EF0004FEA2B4ECDF814C04FEA284CCDE900EC18
:104F0000E645B8BFF446E646DDF810C0DDF8088097
:104F10000844C4440FFA8CFC00B28445D8BF8446D0
:104F2000E046DDF800C0039860440FFA80FC019869
:104F3000184400B28445C8BF6046059BA0EB0E0034
:104F400063F30F0BA8EB03036EF31F4B63F30F0622
:104F500001E038E042E060F31F4628144243381471
:104F600001FB002000EB400101EBC00116FB16F035
:104F700000EB80004000814225DD0020ADF82800D4
:104F8000ADF82C00ADF82A00ADF82E00BAF8E80014
:104F90001FFA89F50AF1A804A84212D904EBC50149
:104FA0000F460AA807F042F8B4F84000401E80B24D
:104FB000A4F84000A84204D904EBC001384607F029
:104FC00035F85C463546B9F101097FF5ABAE00E036
:104FD0000FE0BAF8E800082816D076E068F30F046E
:104FE0004FEA284063F30F0560F31F4466F31F4543
:104FF000E9E760F30F0B4FEA284061F30F0660F317
:105000001F4B63F31F46A8E70020ADF80000ADF882
:105010000400ADF80200ADF80600BAF8E8000AF1A5
:10502000A806072812D906F138010F46684606F08F
:10503000FDFFB6F84000401E80B2A6F840000728E9
:1050400004D906EBC001384606F0F0FFDDE90001A7
:105050000EB2002E18BF5FEA214936D02FB2002FC2
:1050600018BF5FEA254B27D022B201B28A42B4BFF3
:1050700094468C464FEA244800148045B4BF43460A
:1050800003463A44314417B209B28F42D8BF0F46A3
:1050900008EB0B01484409B202B29142C8BF0A466C
:1050A0006CF30F04A7EB0C0060F30F05D01A63F349
:1050B0001F4460F31F4508E060F30F04001466F31B
:1050C0000F0560F31F4469F31F45CDE90045BAF8A9
:1050D000E8200AF1A801082A01D3FBF743FB01EB02
:1050E000C200521CA1F84020694606F09FFF0DB097
:1050F000BDE8F08F03484068002808BF7047026889
:10510000D2691047340400202DE9F041454D044692
:105110000026A86808B1017A19B194F82D11C1B917
:1051200006E084F82D6101688968BDE8F041084710
:1051300000281CBF007A00280BD0686810B10168F5
:1051400009698847A8680168C9688847012084F808
:105150002D01B4F88400002700280FDDE01990F835
:10516000880030B1201DB9B250F821000168096DE6
:105170008847B4F884007F1CB842EFDC80B2431E3D
:10518000002BA8BF04F1880C41DBE01890F88800E0
:10519000D8BB211D98B20A4651F82080B4F884107B
:1051A000002000291DDD00BF52F82010414508BF36
:1051B000014607D010E000BF02EB81077F6842F88C
:1051C0002170491CB2F88070B942B8BF1F29F3DBC7
:1051D000B9B2491EA2F88010B2F88010401C81427A
:1051E000E2DCB4F8841098B281420AD92118401C3C
:1051F00091F8892081F88820B4F8841080B2814227
:10520000F4D8B4F8840000F80C605B1EBDD5686863
:10521000002808BFBDE8F0810168496ABDE8F04197
:10522000084700003404002003484068002808BFF5
:1052300070470268926910473404002003484068B0
:10524000002808BF70470268126A10473404002023
:105250002DE9F04FA9B00026044680F82C11002952
:105260001EBFA0F8E86029B0BDE8F08FB4F8E800F0
:10527000002818BF0120DFF80C94D9F8101001B3F2
:1052800009F11405A98800291CBFE988002918D054
:10529000FD4801F045FB294602A806F0C7FEDDE9FE
:1052A00002122046FFF726FDADF80060ADF804605D
:1052B0006946ADF80260ADF80660284606F0B6FE15
:1052C00004E0002804BF29B0BDE8F08F01A808233E
:1052D0001A46EE4906F0BFFEA0F84060B9F800504B
:1052E000B4F8E800A84288BF1EAF1BD904F1A8009B
:1052F00000EBC5010DF10408384606F097FEBDF835
:105300004400082872D208EBC002401CADF84400EB
:105310003946104606F08AFE681C85B2B4F8E800EB
:105320008542E3D3D7480588B4F82A01A84288BF4C
:1053300012AF11D904F1EA0000EBC501384606F0BE
:1053400075FEDDE912122046FFF7D4FC681C85B219
:10535000B4F82A01A842EDD8CD48006890F848007A
:10536000012845D00228C748C94F0588B4F8E8008D
:1053700000F01B81A84218D904EBC501D1E92A012C
:10538000CDE91201BDF84C0000281CBFBDF84E004D
:10539000002804D0206812A9C26A20469047681CE1
:1053A00085B2B4F8E800A842E6D8BA4800780028E8
:1053B00004BF29B0BDE8F08FA4F82A61B148058880
:1053C000BDF84400A84287BF0DF1040820AF29B002
:1053D000BDE8F08F08EBC50104F1EA06384606F097
:1053E00025FEB6F840000828C0F05C81FBF7BAF94A
:1053F000A44AB4F8E83000271088834211DD00BFCA
:1054000004F1A8011FFA80FC01EBCC01B1F902C044
:10541000B1F906106144B942C8BF0F46401C83422F
:10542000EEDC9D4800880F288CBFC00801204FF09B
:10543000000CADF860C0ADF864C01A90ADF862C061
:10544000ADF866C0002FC8BF0DF158087EDD904D45
:1054500028680168D1F880108847BDF96210BDF94D
:10546000662011441A9A0A448242C8BF874203DD6B
:105470008142C8BF00296ADD0AB2824201DC87424C
:1054800000DA3846854B401A4FF0000C1B88ADF807
:105490007430ADF870C0ADF876001CA9ADF872207C
:1054A00018A806F0C3FD77480588B4F8E800A842BC
:1054B0006DD900BF04F1A80000EBC501404606F01D
:1054C000B5FDBDF96020BDF96400BDF9581002EBCF
:1054D000000C8C454DDDBDF95C0001EB00099145E8
:1054E00047DDBDF96230BDF9660003EB000ABDF986
:1054F0005A0082453DDDBDF95EB083449B4538DDF1
:105500009142D8BF11469842D8BF18460FFA89F287
:105510000FFA8CF39A42A8BF1A46521AADF85C20D3
:105520000FFA8BF20FFA8AF39A42A8BF1A46121AA0
:10553000ADF85810ADF85E20ADF85A00DDE916015F
:10554000CDE92201BDF88C00002801E027E019E038
:105550001CBFBDF88E00002804D0206822A9C26AB2
:1055600020469047681C85B2B4F8E800A842A1D84C
:105570000DE0ADF85860ADF85C60ADF85A60ADF87C
:105580005E60DBE728680168CA6F01219047BDF9BA
:105590006200BDF966100844B842FFF658AF3C48B7
:1055A00000680168C9698847FFE6A84288BFDFF83C
:1055B000F0807FF6FAAE00BF04EBC501D1E92A0105
:1055C000CDE91C0198F80000012804BF1CA801F0D7
:1055D00047F9BDF9740000281CBFBDF876100029FA
:1055E0003BD0BDF87010ADF84810ADF84E60BDF876
:1055F0007210ADF84A10ADF84C0000BFBDF8720053
:10560000BDF87610BDF84C300844BDF84A10401A79
:1056100080B2009038688AB2BDF84810D0F800C057
:10562000DCF878C0E047ADF84E0098F8000001289B
:105630001AD0206812A9C26A20469047BDF84A00D5
:10564000BDF84E10BDF97620084400B2ADF84A000E
:10565000BDF9721011448142D0DC681C85B2B4F8E7
:10566000E800A842A8D8A0E6DDE91201CDE91401BE
:1056700014A801F055F9206814A9C26A2046904781
:10568000DCE7000034040020480400203D7E0008D0
:105690008804002079040020800400207E0400207B
:1056A0007804002006EBC002401CA6F840003946F2
:1056B000104606F0BBFC681C85B2BDF8440085426C
:1056C000FFF488AE29B0BDE8F08F0021A0F8841067
:1056D000C0F88810C0F88C10C0F89010C0F8941072
:1056E000C0F89810C0F89C10C0F8A010C0F8A41022
:1056F000704770472DE9F04781463D4884B0002649
:1057000000880F460FFA80F83A48344600880FFAAE
:1057100080FA684606F08AFCBDF90050A84549DDCC
:10572000BDF904002B18B34244DDBDF9020004EBBF
:105730000A0181423EDDBDF906200244A24239DD64
:10574000B542D8BF3546A042C8BF044618B206EBE2
:1057500008031BB29842A8BF1846401BADF80400CE
:1057600010B209B28842A8BF0846001BADF800502D
:10577000ADF80600ADF80240009802900198039041
:1057800002A9384606F052FC1B4C6068002804BF92
:1057900004B0BDE8F08799F82C11A9B139466846E4
:1057A00006F044FCDDE9001204B04846BDE8F047CD
:1057B000FFF7A0BA0020ADF80000ADF80400ADF886
:1057C0000200ADF80600D7E701688A6839469047BD
:1057D000206918B101688A6839469047074800680F
:1057E00001684A6904B03946BDE8F0471047000037
:1057F0007E0400208004002034040020880400205F
:105800000A4900B50A880A4983B04FF0000C09889C
:10581000ADF800C0ADF80420ADF802C0ADF8061038
:105820000168CA6A6946904703B000BD7E04002043
:105830008004002070B5214901600025A0F8845043
:105840000823A8301A461E4906F005FCA0F840506F
:10585000082342301A461A4906F0FDFBA0F84050D2
:1058600080F84250A0F1EA0480F8435015491648E8
:10587000FBF7B8FA154E002818BF358006D14FF453
:10588000806030800220706003F0AAF8F5607560D7
:10589000B560A4F88450C4F88850C4F88C50C4F89B
:1058A0009050C4F89450C4F89850C4F89C50C4F870
:1058B000A0502046C4F8A45070BD0000DCE40008ED
:1058C0003D7E0008CDB5E8B5C2A507F4340400203C
:1058D0000149086070470000740400200121017232
:1058E0007047704710B5C36382600160002141605A
:1058F000C1600174018601830446018700F06AFAE1
:105900000A48016851B1426804EB620012F0010FCD
:1059100001D002685158BDE810400847426812F0B3
:10592000010F18BF002AEED110BD0000C8000020F2
:105930002DE9F74FDFF8F4B182B000BF31F8022B48
:10594000DDF810C0130B31F81340644503D005B0E7
:105950000020BDE8F08FC2F30327C2F3031902F061
:105960000F02CDE900920A464FF0000C002B88BFD1
:10597000B0F818801AD900BFA3EB0C04641E32F8EB
:10598000026BA4B200F11205A0457DD995F804A0E0
:105990008AEA040404F0010435F81440A64274D1E4
:1059A0000CF1010C1FFA8CFC9C45E5D3B9444FF077
:1059B000000CB9F1000F88BFB0F830801ED900BFCD
:1059C00032F8026B00F11A04E0455DD9B4F814A076
:1059D0000AEB0C05ABFB05EA4FEADA0ACAF1000A4A
:1059E0000AEB8A0A05EB4A0534F81540A6424CD169
:1059F0000CF1010C1FFA8CFCE145E1D803EB070C1C
:105A0000DDE90032634401EB4304BA4237D9D11BCC
:105A10008BB20026002B32D9B0F830C000F11A0149
:105A2000BCF1000F62D0ACF1010C1FFA8CFCA1F8A4
:105A300016C08D8AAC44ABFB0C584FEAD8056D42BA
:105A400005EB85050CEB450C058F31F81CC01831B2
:105A500005F10108B8F1020F48D80D791FFA88F84E
:105A60006D1E05F001058D80A1F80680B8F1000FCC
:105A70003CD921F815C0711C8EB2B342CCD8038E2C
:105A800000F11A019F4201E030E043E02ED88B8AFA
:105A90003B44ABFB035C4FEADC0CCCF1000C0CEBA1
:105AA0008C0C03EB4C038B82CB8ADB1BCB825AB36F
:105AB000511E8AB2B0F830C034F812300CF1010532
:105AC00000F11A010A2D11D8B1F814C0ADB20CF1D1
:105AD000090CABFB0C76F608764206EB86060CEB5F
:105AE000460CA1F814C0CD82002D01D8FAF73AFE79
:105AF000ABFB0C65ED086D4205EB85050CEB450C29
:105B0000002A21F81C30D3D100F064F905B001203F
:105B1000BDE8F08F01EB430101EB4702009902EB76
:105B20004102019902EB410108E70000CDCCCCCC49
:105B30002DE9F0418C46044600214AB39088136851
:105B40002364536863649368A3649389A4F84C3016
:105B500094F84D3013F0100318BF4FF4807394F88D
:105B60004750A0F631671D43EE101E2F7ED2DFE8AE
:105B700007F0189393181818186C6C6C9393939300
:105B800093939393939393931818181818181818BD
:105B9000A4F84E10A4F85010A0F852100846BDE822
:105BA000F081218E04F11A00002901D8FAF7DAFDFC
:105BB000818A874AA2FB0132D208524202EB82025A
:105BC00001EB420130F81100A0F56061333916D1C4
:105BD000DCF8000040F63361C26860469047417BC4
:105BE00011F0400218BF4FF47E4211F0200118BF9F
:105BF0004FF480711143007A0843A4F84E00B4F8C2
:105C00004E00A919084400B2A4F84E0084F84800D8
:105C100094F84D2004F1400122F0600284F84D20F8
:105C200010F4807F1CBF42F020024A7310F4007F02
:105C300003D0D0B240F04000487394F8490094F883
:105C40005210401A84F8490022E0B4F8500004F1E0
:105C50004001801B00B284F8480094F84D2010F4F5
:105C6000807F22F0600284F84D2000E014E01CBF29
:105C700042F020024A7310F4007F03D0D0B240F00B
:105C800040004873B4F85000A919401AA4F8500015
:105C900004F14000BDE8F081A0F560631B3B1FBF2D
:105CA000A0F56063B3F11D03A0F56063B3F11F03BA
:105CB00046D1401E81B2DCF800001646C26860463C
:105CC0009047002808BF3046417B11F0400118BFC3
:105CD0004FF47E41427B12F0200218BF4FF48072D5
:105CE0001143007A0843A4F84E0094F84D0000F0E8
:105CF0008000002814BF4FF48071002194F84A00FE
:105D000041EA00014FEA910114BF4FF48072002272
:105D100042EA000001EB5010A4F8520094F84D0044
:105D200010F0400118BF4FF47E4110F0200018BF62
:105D30004FF48070084394F848100843401BA5E7CF
:105D400094F84D3013F0400618BF4FF47E4613F020
:105D5000200318BF4FF48073334394F848603343F3
:105D6000A4F84E30A0F56063093B1CBFA0F560634A
:105D7000B3F1130306D0A0F56063193B18BFA4F874
:105D80005210CBD1A0F56061164613390CBF40F616
:105D90000C60401E81B2DCF80000C268604690478B
:105DA000002808BF304694F84D1011F0800118BF4C
:105DB0004FF4807194F84A201143427B12F0800224
:105DC00018BF4FF48072807A1043081AA4E70000CD
:105DD000CDCCCCCC2DE9F041044601273C4E1BE054
:105DE00099880A2833F8112027EA01019980ACF13B
:105DF0000101D98004F11A0151D28B8A1844A6FB03
:105E000000C3DB085B4203EB830300EB430021F894
:105E10001020C88A401CC882208E0A2808BFBDE80E
:105E2000F081B4F838C0BCF1000F18BF04F13203A0
:105E3000D6D14FF0000800BF616804F11A05204672
:105E400071B1017C91B1C16800291BBF0A88002A89
:105E500080F810808A1C18BFE26007D008881BE019
:105E60000168002918BF4160EBD11AE041680A8837
:105E7000BAB1022A1CBF8A1C6260EFD1891C416042
:105E800081680A1D82600968C16000291EBF0988F7
:105E90000029077400F0B1F9E98A0A2903D3FAF757
:105EA00061FC0020F8E7AA8A1144A6FB0132D2085F
:105EB000524202EB820201EB420125F81100E88A0E
:105EC000401C80B2E8820A28B6D1BDE8F08100000B
:105ED000CDCCCCCC2DE9F04705467748774E02680B
:105EE0004068002A00F0C08005F11A0405EB600349
:105EF00010F0010F01D018688258184690470146EB
:105F0000E08A002840F2CD80A08AA6FB0032D208A9
:105F1000524202EB820200EB420024F81010EF6BB9
:105F2000002F7DD0298E05F11A00002979D9818AA8
:105F3000A6FB0132D208524202EB820201EB42017F
:105F400030F81100002874D078884FF0010A4FEA29
:105F5000500807EB880900BF298E05F11A000029B7
:105F60005FD9818A4446A6FB0132D208524202EB35
:105F7000820201EB420130F8112038880021904262
:105F80009CBF39F8040C82421BD8002C19D908197F
:105F9000400837F82030934288BF84B23CBF401C91
:105FA00081B268D107EB8000408850B107EB400117
:105FB0002846FFF7BDFC20B150460AF1010A0A2825
:105FC000CADB298E05F11A0001296AD9818A4A1C87
:105FD000A6FB02C3DB085B4203EB830302EB430235
:105FE00000EB42021088A0F510633F3B21D1A6FBD5
:105FF00001C3DB085B4203EB830305F11A0001EBED
:10600000430130F8110010802A8E05F11A0040F685
:106010003F11002A45D9828AA6FB02C3DB0801E0B2
:1060200007E03EE05B4203EB830302EB430220F810
:106030001210298E05F11A0099B3818A30F81140A7
:10604000491CA6FB0132D208524202EB820201EB4C
:1060500042018182C18A491EC1822846FFF7BAFEE9
:10606000288B02280AD00BE010F0010F18BF00287F
:106070007FF43AAF53E7A14289D3A2E701212983F4
:10608000298B05F11200491C02290AD80179491E01
:1060900001F001018180C188491C89B2C1800029B9
:1060A00001D8FAF75FFB027902F0010220F81240F2
:1060B0002046BDE8F0870000D0000020CDCCCCCC3D
:1060C0002DE9F0411E4617460446FFF703FF05463B
:1060D00038682946C26838469047A5F56061306047
:1060E0007F2906D8024639462046FFF721FD306059
:1060F00020E094F85510E9B1A5F51061023919D1E5
:10610000B8B102682264426862648268A2648089CD
:10611000A4F84C0094F84D0010F0080118BF4FF49B
:10612000807194F846000843404284F8490004F125
:106130004000306050B1417B11F0800118BF4FF436
:106140008071807A084308BF012000D0002084F8C5
:1061500055002846BDE8F0812DE9F0471E46DDE9EF
:10616000088917460446FFF7B5FE054638684B46D2
:106170004246D0F808C029463846E047A5F5606198
:1061800030607F2906D8024639462046FFF7D0FC0A
:10619000306020E094F85510E9B1A5F5106102399E
:1061A00019D1B8B102682264426862648268A2644C
:1061B0008089A4F84C0094F84D0010F0080118BF35
:1061C0004FF4807194F846000843404284F8490037
:1061D00004F14000306050B1417B11F0800118BFE4
:1061E0004FF48071807A084308BF012000D000205E
:1061F00084F855002846BDE8F087416871B1017CFC
:1062000091B1C168002919BF0A88002A00210174D0
:106210001CBF8A1CC26007D008887047016800292B
:1062200018BF4160EBD115E041680A8892B1022A9B
:106230001CBF8A1C4260EFD1891C416081680A1D25
:1062400082600968C16000291FBF098800290121F7
:106250000174D2E70020704710B50446002020608A
:106260006060E0602074E0822083E0852086E08624
:106270002087E063A4F84E00A4F85000A4F8520070
:10628000012184F8541084F855002046FFF7A2FD40
:106290000A4A116851B1526804EB620012F0010F12
:1062A00001D0026851588847204610BD506810F050
:1062B000010F18BF0028EED1F6E70000C80000204B
:1062C00070B50D460446606801684A68904700282A
:1062D000F9D10B4E30680168496E8847FEF7CAFC59
:1062E000606801688A68294690472068C16A20462C
:1062F000884730680168096EBDE8704008470000B3
:1063000088040020002070477047704701680969C1
:106310000847406801680968084710B504464068A6
:1063200001680968884738B9207A28B1606801682F
:1063300049698847002020726068016809688847B9
:1063400018B1BDE81040FEF79DBC2068416A2046A8
:10635000BDE81040084710B5FEF784FCBDE81040CA
:10636000FEF776BC0168496C084710B504464068E2
:10637000016809688847002818BF10BD607A0028A6
:1063800008BF10BD207A002818BF10BD2068416AE0
:106390002046BDE81040084770B504460120207231
:1063A000606801688969884705460068202811D01F
:1063B0000ADC01280ED002282FD0042815D0082886
:1063C0001FD000BFFAF7CEF940281CBF8028B0F5D7
:1063D000807FF7D12068C16B204688472068294616
:1063E000026B2046BDE8704010472068297F826B11
:1063F0002046904720682946026B2046BDE8704041
:1064000010472068297F826B2046904720682946E4
:10641000426B2046BDE8704010472068C16B2046A3
:10642000884720682946426B2046BDE870401047E7
:106430002DE9F04F87B00DF1500E81469EE8200CFB
:106440000DF1400EDDE917409EE8C0110495CDE93D
:1064500005408DE8C011484604F056FD044901602E
:10646000C0E906AB1999016207B0BDE8F08F0000E2
:106470004CE50008704770B5044690F82C50087938
:106480000E4600280CBF0120002084F82C0008B123
:106490001DB109E0002D08BF70BD2068416920468C
:1064A0008847002D08BF70BD3079012818BF70BD26
:1064B000A06A002808BF70BD0168C9688847002825
:1064C00008BF70BDA06A01688A682146BDE87040B7
:1064D000104710B50446D0F8340100280CD00168EC
:1064E000C9688847002807D0D4F834010168896852
:1064F00088470020C4F8340110BD000030B50446C0
:1065000087B00D46228961890023ADF80030ADF8CF
:106510000420ADF80230ADF8061000686946026A42
:1065200020469047214604A805F01EFBDDE9040142
:10653000CDE902010B48016891F8760000281ABFE6
:10654000C86C0028886801682B4602AAD1F818C0D8
:106550006946E047002808BF4FF6FF75E58407B09D
:1065600030BD00008804002001684A6E4FF6FE71BD
:106570001047000010B400248480C480048144814A
:106580008481C4810482448244618461C46180F84E
:106590002440012180F82510044901604FF6FF7165
:1065A000C184FF2180F8281010BC7047DCE500088A
:1065B000704701EB020C0FFA8CFC98422DD263B3AA
:1065C00000EE100AF8EE400A00EE103AB8EE401A5B
:1065D00080EE810AF7EE000A30EE600A20EE001A23
:1065E00041EE000A00EE101A01EE102AB8EEC00AC1
:1065F000B8EEC11A01EE200AF6EE000AB5EEC00AA6
:10660000F1EE10FAD4BF30EE600A30EE200ABDEE93
:10661000C00A10EE100A0FFA80FC604670470000B6
:106620002DE9F0410546244CD5E90061A06984B00C
:1066300000283BD0A16800EBD07201EB620103AFF0
:10664000CDE90060CDE90271E36BE26AE16920689F
:1066500000F034F80646A0696968CDE90010029799
:10666000236C226B216A606800F028F80644D4E9A4
:10667000051000EBD07201EB620103912968CDE9AE
:1066800000100297636C626B616AE06800F016F8B4
:106690008046A0696968CDE900100297A36CA26BDF
:1066A000A16A206900F00AF800EB0801C5E9006161
:1066B00004B0BDE8F0810000C89700202DE9F0018A
:1066C0004FF0010CDDE90554079F0028BCBF404294
:1066D0004FF0FF3C002DBCBF6D42CCF1000C002CF4
:1066E000BCBF6442CCF1000C45FA01F6D7F800803B
:1066F000724303FB0683012606FA01F1491E294075
:10670000484390FBF4F104FB1100184490FBF4F3B0
:1067100004FB13003860BDE8F0011944114401FB8B
:106720000CF0704702490160002181807047000031
:1067300074E60008704710B50446D4E90320801AB7
:106740000028DCBFA368184401280DD9606800EB5D
:1067500042101F22FAF76DF8E068A168401C8142E0
:1067600098BF401AE06010BDF9F7FCFF10B5044671
:10677000006801682046884708B1F9F7F3FF2069EF
:10678000A168401C814298BF401A206110BD416839
:10679000006901EB40107047D0E90321891A0029F4
:1067A000DCBF806801440129D4BF0120002070476C
:1067B000D0E9031081420CBF012000207047000087
:1067C000034B0360C0E901120021C1600161704701
:1067D000A8E6000870B516460C460546FEF77AFA9C
:1067E000FEF773FF306838B10168C96888473068C0
:1067F00010B1016809688847286810B101684969C3
:106800008847206810B1016849688847286810B136
:106810000168096888472068002804D001688968F1
:10682000BDE87040084770BD70B5044600680E466C
:106830001546C16820468847306801683046884759
:106840002946204601F0DBFE286801692846884772
:10685000FEF740FA0168896ABDE870400847000009
:106860000F4A104B12881B8862F30F010E4A63F324
:106870001F411278002A08BF7047012A18BF7047CD
:1068800002888388B0F802C01A44521E891AA0F800
:1068900000C0491E4180C2888280C38070470000CA
:1068A0007E04002080040020780400200B4A127827
:1068B000002A08BF7047012A18BF704702888388E2
:1068C000B0F802C0A0F800C01A448988521E891A84
:1068D000491E4180C2888280C380704778040020AE
:1068E0000C4BB3F800C00C4B6CF30F021B8863F326
:1068F0001F420A4B1B78002B08BF7047012B18BFA3
:1069000070470388B1F800C0A0F800C0D01A401E3C
:10691000088070477E040020800400207804002056
:106920000B490978002908BF7047012918BF704733
:1069300002884388C188DFF81CC00B44BCF800C043
:10694000ACEB03030380428082888180C280704761
:10695000780400207E040020094A1278002A08BF2B
:106960007047012A18BF704702880B88DFF814C0EF
:10697000BCF800C0ACEB03035B1E03800A807047C9
:1069800078040020840400200449497800291BBFB2
:1069900090F86A0000280120002070477804002049
:1069A000406801688969084710B50446FEF70AF98E
:1069B00060680168C9688847E06801688968884735
:1069C0002068C16D2046BDE8104008474068016856
:1069D000096808472DE9F04788B09946DDE9116359
:1069E00092460446DDE91402109F4FF0000CCDF8EA
:1069F00018C0CDE90021DDF84C80224DADF81070B3
:106A0000ADF81260ADF814308DF81C00687848B10C
:106A10002068816A20468847E16B884204BF20468F
:106A2000236C01D0E36B20464A46514604F066FCD5
:106A300003906889ADF81600296991F8760000285E
:106A40001ABFC86C002888680168496A88478DF8B1
:106A50001E008DF81D00002F18BF002E10D02068DA
:106A6000016B204688470099084209D0CDF818806C
:106A7000606801684A686946904708B0BDE8F087D9
:106A8000F9F770FE7804002070B50546044690F8CA
:106A90006A00C8B1022001F0D0F9002084F86A0031
:106AA00084F869000C48407840B12068816A20462B
:106AB0008847E16B884208BF216C00D0E16B2068F9
:106AC000D0F89C20204690472868D0F8901028469F
:106AD000BDE87040084700007804002070B5104DF4
:106AE0000446687868B994F84800022809D06068BC
:106AF000FFF70FFC002818BF606802D0417A002918
:106B0000FCD0FEF7AFF8687840B12068816A204673
:106B10008847E16B884204BF206C70BDE06B70BD9C
:106B2000780400202DE9FF4F144C89B08B46216971
:106B3000DDE91876DDE9169891F876001D46924653
:106B400000281ABFC86C002888680168496A88470D
:106B500062890123CDF80880CDE905320221CDE913
:106B60000710CDE90059CDE9037653460022594676
:106B7000099800F033FA0DB0BDE8F08F78040020DA
:106B8000012180F84B1080F86910704710B5044659
:106B900090F86A00002808BF10BD022001F04DF9EE
:106BA000002084F86A0084F869000A48407840B1FF
:106BB0002068816A20468847E16B884208BF216CC3
:106BC00000D0E16B2068D0F89C202046BDE8104042
:106BD0001047000078040020416801224A72406892
:106BE0000168096908474FF6FF707047FEF730B833
:106BF0002DE9F04188B00546002006900120009064
:106C000028680F461E46816A1446DDF838802846FB
:106C1000884703463A0CB9B2284604F06FFB01904E
:106C2000ADF81040200CADF81200114803964189D0
:106C3000ADF81410ADF81680016991F876000028BF
:106C40001ABFC86C002888680168496A88478DF8AF
:106C50001D008DF81E00FF208DF81C00686801687B
:106C60004A686946904708B03046BDE8F0810000A8
:106C70007804002081651C3002F0CEB980F87410D1
:106C8000012180F8751070472DE9F04383B0054667
:106C90000F4680690A9999461646002838D0002286
:106CA000029202AACDE9001201683246D1F800C072
:106CB0003946E047174C8046A4F80A90216991F8BC
:106CC000760000281ABFC86C002888680168496AE5
:106CD00088470D2818D2DFE800F0070F1B1B1B1B8D
:106CE0001B1B1B1B1B1B1B006089029906FB0070F2
:106CF000404201EB400006E06089029906FB00700B
:106D0000A0EB80000844E86303B04046BDE8F08390
:106D1000F9F728FD7804002010B569B14364C0E993
:106D20000F12111C18BF01210448002B417014BF21
:106D300001210021817010BDF9F714FD78040020B5
:106D400010B490F874C090F834400E48A445C2883E
:106D50000189037809D0002B1CBF10BC7047428109
:106D600081810281C180012108E0002B04BF10BC99
:106D70007047418182810281C1800021017010BC75
:106D800070470000780400200448016891F87600FC
:106D900010B1C86C002800D18868704788040020B2
:106DA000F0B50446006885B0D0F8941020468847B6
:106DB0005B4F0026002800F0A880012001F03BF87E
:106DC00094F8660084F8670084F8666084F84B6085
:106DD00094F8750030B12068D0F8A8102046884794
:106DE00084F8756094F84A10606800290CBF01218E
:106DF000002141720125FD70FDF76CFF01680A6BEF
:106E00000121904794F86700002808BF84F8675074
:106E1000FDF760FF016849698847A06D016809694D
:106E2000884794F86700401EC0B284F8670094F861
:106E30006810002918BF0028EAD13879401C40B2F8
:106E4000387194F96410814214DC3E71E06802AA42
:106E50000168CB6801A998470028206806D0DDE9C1
:106E60000112D0F8A0302046984703E0D0F8A410D3
:106E7000204688478DF80060606950B10168CA6893
:106E80006946904728B1A06D0168CA689DF8001056
:106E9000904704F11C0002F0C1F894F86C0000283F
:106EA0002DD020690168096988470546206F0028B0
:106EB00008BF2567206F1B49281A88421FD92069FF
:106EC0000168896988470146206F174A281AA2FB82
:106ED00000204009B1FBF0F00028D8BF642006DD97
:106EE0006428ACBF84F86560C0F1640001DA84F8FE
:106EF000650020690168CA69002190472567FDF790
:106F0000E9FE01680A6B002190472068D0F89810CC
:106F100020468847012000F08FFFFE7005B0F0BDCD
:106F20007804002000E1F5051F85EB5110B586B00F
:106F30000446CDE9041204A8FFF772FB0498ADF8EB
:106F400004000598ADF8080002A901A8FFF704FDA8
:106F500094F86B000028BDF808001BD080B20090A8
:106F6000BDF8040083B2B4F8600082B2B4F85C00EB
:106F700081B204F11C0001F0B1FF002804BF06B08B
:106F800010BD00BFBDF90400E065BDF90800206632
:106F900006B010BD83B2BDF80400002182B204F136
:106FA0001C0001F0E1FF012084F86B00EAE710B556
:106FB000044690F86B00002808BF10BDB4F86000CC
:106FC000012183B2B4F85C0082B204F11C0001F02C
:106FD000CBFF002084F86B0010BD00002DE9F04FBE
:106FE00089B00446DDE915B0DDE91858DDE9127A0B
:106FF0004FF0000EDDF85CC0DDF850901A9ECDF821
:1070000018E0B8F1020F2ED0FF2828BFBCF1000F06
:107010000CBF4FF0010C4FF0040CCDF800C0CDE9CF
:1070200001128DF81C002A48ADF810A0ADF812909E
:10703000ADF814B040789B4640B12068816A204684
:107040008847E16B884208BF216C00D0E16B0020CB
:107050000D2E19D2DFE806F0151311393939391719
:10706000171717173900FF2828BFBCF1000F14BFEE
:107070004FF0400C4FF0200CCFE7202004E0182008
:1070800002E0102000E0082005FB07B2C00802FB68
:1070900000108DF81D800390ADF816508DF81E601D
:1070A000BAF1000F18BFB9F1000F0ED02068016BC4
:1070B000204688470099084207D0606801684A68FE
:1070C0006946904709B0BDE8F08FF9F74BFB000027
:1070D000780400202DE9FF4F89B0134CDDE91976C3
:1070E0002169DDE9179891F87600DDF858A01D4672
:1070F000934600281ABFC86C002888680168496A4E
:1071000088476189CDE90610CDE9005A0890CDE99C
:107110000476CDE90298DDE909015B460022FFF71C
:107120005DFF0DB0BDE8F08F780400202DE9F04F31
:10713000134C85B08B4621690546DDE90F7691F841
:107140007600DDF838809946924600281ABFC86C50
:10715000002888680168496A88476189CDF80080FD
:10716000CDE90310CDE9017628684B465246D0F8A8
:1071700044C059462846E04705B0BDE8F08F0000FE
:10718000780400202DE9FF4F89B04FF00009DDE9B8
:1071900017BADDE919650446CDF81890BAF1FF0F6A
:1071A00034BF082002209046CDE9000924481F463C
:1071B000407840B12068816A20468847E16B884268
:1071C00008BF216C00D0E16B00200D2D0FD2DFE84D
:1071D00005F00B0907343434340D0D0D0D0D34005A
:1071E000202004E0182002E0102000E0082006FB28
:1071F0000782C00802FB001003901698ADF810003B
:10720000ADF81490ADF816608DF81CA00A988DF8B2
:107210001D50ADF812B006908DF81E502068016B1D
:10722000204688470099084207D0606801684A688C
:10723000694690470DB0BDE8F08FF9F793FA00006A
:107240007804002010B504464068016889688847C2
:1072500094F8690000281CBF012084F86A0010BD62
:107260004068016889680847002B04BF0120704707
:1072700030B4D007B0EBC17F17D0B3F1004FA3F10A
:10728000010006D312F8013B01F8013B401EF9D280
:1072900074E0B0F1FF3F71DD12F8013B401E01F8D0
:1072A000013BB0F1FF3FF7DC68E012F0010F04D0C2
:1072B00012F8010B01F8010B5B1E0124012B27D9E9
:1072C0009007B0EB817F1BD0B3F1004F08D300BF14
:1072D00032F8020B9B1E21F8020B012BF8D817E0A5
:1072E00003EBD37C012004EB6C0C05E032F8025B6D
:1072F0009B1E21F8025B401C8445F7DC012B07D95B
:1073000012F0030F04D032F8020B21F8020B9B1E7F
:10731000B3F1004F08D300BF52F8040B1B1F41F814
:10732000040B032BF8D81CE00120DD1703EB957C40
:1073300004EBAC0C06E000BF52F8044B1B1F41F8F5
:10734000044B401C8445F7DCB3F1004F09D3581EB1
:1073500033B100BF12F8013B01F8013B401EF9D2E6
:107360000CE0581EB0F1FF3F08DD00BF12F8013BF2
:10737000401E01F8013BB0F1FF3FF7DC30BC0120BB
:107380007047826B002A08BF70470846104700000C
:1073900004460068816E204688472068016E2046BA
:1073A000884700BFFDF742FC2068816D2046884772
:1073B000F8E7000070B5234EDDE9044540C00EC07B
:1073C000002140F8101900F11C02416181618183A4
:1073D000C183018441848184C18401859173C16228
:1073E000018640F8381F012341608160C16001744B
:1073F0004374837440F8141F134A8180C180018153
:10740000418100F8183F41708170C3700171417172
:107410008171C1710172C1604174643810600B4A9E
:10742000AC4214800A4A15800A4A11700A490C803D
:107430000A490D8001D2012100E0002180F83410BA
:1074400070BD000034E70008880400207E0400209E
:10745000800400207804002082040020840400209E
:107460000FB4DFF83CC010B5DCF804C082B000EB0C
:107470006C001CF0010FDFF828C01A46089BDCF8EE
:1074800000C00AA902D0046854F80CC001910999FF
:10749000009105A9E04702B010BC5DF814FB0000A4
:1074A000D800002030B587B0002A04BF07B030BD37
:1074B000012A1DD0022A30D0032A1CBF07B030BDDC
:1074C00004ABCA88C188B0F802C0521AA2EB0C0201
:1074D000B0F800C08488ADF81410ADF81020ADF8F5
:1074E00012C0ADF81640194604F0A0FD07B030BD3B
:1074F0008A8881880488521A121BB0F802C0C48896
:10750000ADF80440ADF800C0ADF80610ADF80220AB
:10751000694604F08BFD07B030BDB1F804C0828825
:107520000488ACEB020CACEB040CCC88C188458819
:10753000641AADF80C2002AB641BADF808C0ADF8BE
:107540000E10ADF80A40194604F070FD07B030BDCA
:1075500070B58AB006460E981546012491B1CDE962
:10756000003182B22B46314602A800F0F4FB002124
:1075700002A800F0D9FABDF80800002818BF641C62
:10758000F5D10CE011463046FEF7A4FC0A2808BFEE
:10759000641C29463046FEF79DFC0028F6D10AB04F
:1075A000A0B270BD2DE9FF4FDDB01C46DDE96A5683
:1075B000002D19BF2068002861B0BDE8F08FA07BC6
:1075C000002804BF61B0BDE8F08F114654A804F054
:1075D0002DFD5E985E9A00218088D288ADF820103B
:1075E000ADF82400ADF82210ADF82620A27908A944
:1075F00054A8FFF757FF08A9A2790846FFF752FFE2
:107600003EA8FEF729FE20680168496C88470346BA
:107610003246B24629463EA8FEF764F928A8FEF78E
:107620001BFE2079002808BF4FF000080BD020680F
:107630004FF001080168496C8847034652462946C5
:1076400028A8FEF74FF920680168096B8847B4F94C
:107650000C100E18002E07DDBDF952219042DCBF40
:10766000501890FBF6F700DD002712A8FEF7F4FD96
:10767000207C48B120680168496C8847034652461F
:10768000294612A8FEF72EF9217C2068CDE90001D9
:107690006379BDF8242012A90AA800F05CFB207CC5
:1076A0004FF0000AB0B3002F57DD00BFBDF9260030
:1076B000B0EB460FB4BF012100210AA800F034FA54
:1076C000BDF83A00411E8DB278B161793EA8FEF74F
:1076D00001FCB8F1000F03D0617928A8FEF7FAFB8E
:1076E0002800A5F101018DB2EFD1BDF822007F1E67
:1076F0003044ADF82200BDF82600801BADF826000E
:10770000BDF82800002804BF61B0BDE8F08F002F4D
:10771000CCDC22E0FFE7002F1FDD61793EA8FEF7F9
:10772000D9FB0546B8F1000F03D0617928A8FEF710
:10773000D1FB002D04BF61B0BDE8F08F0A2D0AD146
:10774000BDF822007F1E3044ADF82200BDF82600AF
:10775000801BADF82600002FDFDC207C002748B11D
:10776000BDF92600B0EB460FACBF002101210AA8ED
:1077700000F0DAF9B8F1000F08BFE77B50D0207CA9
:10778000002818BFBDF8420035D128A856902068BF
:10779000049047F6FF70069000205B9005468146F6
:1077A0005A90CDF864A1AB4659AB049A5B995698B0
:1077B000FEF786FC050018BF0A2D1BD0599AA2B10E
:1077C0000498958859460068C36B0498984759995E
:1077D0004A7B12F0800218BF4FF48072897A1143FD
:1077E00001445A98084480B25A90069809F1010958
:1077F0008145D6DB5A9801B22079012802D00228AF
:1078000008D00DE0BDF92400401A00EBD07040F321
:107810004F0705E0E27BBDF824001144401A07B28F
:10782000BDF820003844ADF85C01207C002814BF6E
:10783000BDF83A1047F6FF719DF846003EAACDE923
:10784000051054A857A9CDE900100294CDE903A270
:10785000DDE95D02BDF92230002100F025F80028A5
:107860001CBF61B0BDE8F08FBDF82200304401B20A
:10787000BDF82600ADF82210801B00B2ADF826003E
:10788000227C002A18BFB042BCBF61B0BDE8F08FB7
:10789000BDF95201BDF9562110448842BFF65DAFD3
:1078A00061B0BDE8F08F00002DE9FF4F97B00024D4
:1078B0002598DDE9298203888088269D184400B236
:1078C0001190286824994746437A1493007A0F90C0
:1078D000B1F900000E940C9032B1287C04280CBF42
:1078E0000220012000EB08070026002FC4BF4FF63E
:1078F000FF6A42F20B0B40F313810020A1460D906A
:1079000046450EDB286801684969884704462868AF
:1079100015AB10AA0168D1F808C02146E0470D90C8
:107920000AE015A910A8CDE90001DDE927100DAB8B
:107930002A68FEF711FC0446544518BF5C4500F068
:10794000D680002C00F0EC800A2C00F0E5800D9829
:10795000002818BF84880FD1286801680969884702
:10796000504518BF584500F0C2800D98002804BF4C
:1079700000200E9000F0BB80279818B90C990E9843
:1079800008440C900D9A507B10F0800018BF4FF403
:107990008070917A08430E902798012803D10E99A0
:1079A0000C98401A0C902798B9F1000F14D00028B9
:1079B00028680168CB6B494604D098470C99081A8F
:1079C0000C900DE098470C9908440C900F99411ABF
:1079D000119881427EDC10E0002808BF0C98F5D099
:1079E0002798012809D10E990C9801441498014454
:1079F0002598B0F9000081427DDB0D98417B11F0A4
:107A0000080118BF4FF4807182790A430C990A4427
:107A100090F9091025980A44B0F90000824266DB0B
:107A20000C9A0A441199914261DD0C994FF00009BA
:107A3000884202DD401A1FFA80F900200090286871
:107A40000168C96A88470D9B5A7B12F0400118BF34
:107A50004FF47E4112F0200C18BF4FF4807C41EAB5
:107A60000C0193F808C041EA0C01411A1A98084425
:107A700001B225980191B0F9020088420DDD12F0A3
:107A8000100218BF4FF48072DB791A430A44824215
:107A90002DDB0190401A80B2009028680168896B44
:107AA0008847AB79AA7B9DF854100B93CDE9091256
:107AB000A96808912599109A0D9BCDE90620CDE97A
:107AC00004130C9B009A4B44CDE902921BB2009325
:107AD00012A800E00FE0199904F0A8FA17980068BE
:107AE000D0F844C0DDE91701DDE91223E047761C38
:107AF000BE42FFF602AF9CB10A2C1CBF741C444569
:107B00000ADA00BFDDE92710FEF7E4F940B10A28E0
:107B10001CBF641C4445F5DB1BB00020BDE8F08FA2
:107B20001BB00120BDE8F08F2DE9F04F83B04FF07E
:107B3000000B0446CDF808B0407A5FEA0109D84648
:107B4000DA4629D0032818BF042822D0012818BFFC
:107B50004FF000081DD002280CBF4FF0010A4FF073
:107B6000000A00266682A68242F20B050196009664
:107B70002788217A6B46E2686068FEF7A1FA2080C8
:107B8000C0B1E18A491CE1820A2813D0009A12B3DD
:107B900023E04FF00108DEE703281ABF04284FF066
:107BA000000B4FF0010B012816BF02280120002016
:107BB0000290D6E7638AE28A208B1A446282A28A04
:107BC000002102446283A28A1044A082E1822683BB
:107BD00003B0BDE8F08FA842C9D10023A84212D05B
:107BE00090882080E0680168CB6B39469847014651
:107BF0000098427B12F0800218BF4FF48072807AA6
:107C00001043084483B22188202918BFA94204D117
:107C1000202F1EBFAF42208B0190208BC21892B242
:107C20002283A38AB4F810E003EB020CF4458CBF66
:107C300001230023B9F1000F2BD0B8F1000F06D1BA
:107C4000BAF1000F09D0202918BFA94205D1A08B95
:107C5000604470450FD9608A68B1002B1CBF608AF0
:107C6000002884D00120A077608BA18B084460831A
:107C700003B0BDE8F08F618AE38A00201944618275
:107C8000A18A11446183A18A1144A182E0822683E2
:107C90006DE7BBB3BBF1000F12D0E38A628A5B1EB3
:107CA0001A446282A28A012102446283A28A0244A7
:107CB000A282E182218B081A208303B0BDE8F08FF5
:107CC000029A002A3FF453AF202918BFA9421AD0C4
:107CD000202F18BFAF4216D1B4F816C0638AACF19A
:107CE000010C634401996382A38A012219446183D0
:107CF00099B20144A182E282218B081A208303B049
:107D0000BDE8F08F09E020291EBFA942608A002843
:107D10003FF42DAF03B0BDE8F08F202918BFA94272
:107D20003FF425AF202F18BFAF427FF420AFB4F847
:107D300016C0638AACF1010C634401996382A38A83
:107D400001221944618399B20144A182E282218B0C
:107D5000081A20830BE770B50446DDE9045C0020B7
:107D600020806160237284F809C0E560228260820D
:107D7000A082E08220836083A083A0772868416985
:107D800028468847060023D0E0680168CA68314663
:107D900090470546407B10F0800018BF4FF480707C
:107DA000A97A0843A083607A042811D1E0682A46A2
:107DB0000168CB6B31469847697B11F0800118BF91
:107DC0004FF48071AA7A11430844A18B0844A08320
:107DD000204670BDB0F900C0012B08D0022B0BD09B
:107DE000032B0CBF0CEB02000CEB01007047B0F949
:107DF00004006044801A03E0B0F904006044401AB3
:107E0000401E7047B0F902C0012B04BF0CEB01000B
:107E10007047022B0AD0032B1CBF0CEB02007047EB
:107E2000B0F906006044401A401E7047B0F90600E1
:107E30006044801AF8E7704770477047002101805E
:107E400041808180C1807047F0B4B1F90040B1F940
:107E50000420A618B0F90020964233DDB0F90430B2
:107E6000D718A7422EDDB1F902C0B1F906300CEBEC
:107E70000305B0F902309D4224DDB0F906501D44DF
:107E800065451FDDA242D8BF22466345D8BF634681
:107E90000FFA87FC34B2A445A8BFA446ACEB020C91
:107EA000A0F804C04C88C9880FFA85FC214409B2A7
:107EB0008C45A8BF8C46ACEB0301C1800280438097
:107EC000F0BC70470021018041808180C180F0BCFE
:107ED000704700000149016070470000A8E80008F1
:107EE0000149016070470000A8E8000870B5054628
:107EF0000A48006828B190F8763023B1C46C1CB9E8
:107F000001E0F8F72FFC846813460A4620682946EA
:107F1000C66A2046B446BDE8704060478804002029
:107F200070B5002822D11249114A0968121F41B1C7
:107F30000B680B4493604B680B44D3608B685C18F0
:107F400006E00C4991600C490968D1600B490C6846
:107F5000002C0BD01080FCF7DFFC0546FCF7D9FCA9
:107F600007490C6007490D600749088070BD000093
:107F7000B400002018FD000824E1000870FD00088E
:107F800090040020980400209C04002070B42B4C26
:107F90002069002804BF70BC70476188A2884FF632
:107FA000FE7511444B1C2B404FEA810CC2EBC20200
:107FB0005B0055006044C218E2602A44C4E905022F
:107FC00000222280266AA6EB0C0CACEB03035B1BA1
:107FD000E361E28000291CBF00234FF6FF7C07D03D
:107FE000256945F823205B1C20F802CB491EF7D1F8
:107FF000A188002904BF70BC704711F0010004D0B3
:10800000E268137B23F020031373884232BFD4F855
:108010000CC070BC704700BFC0EBC0020CEB42024A
:10802000801C137B884223F020031373937E23F07C
:1080300020039376F0D370BC7047000050040020FA
:108040002DE9F04F3D4983B04FF6FE734A8888888A
:108050004FF0000802EB00094FEA8902019209F192
:1080600001021A405200C0EBC00000924FEA400BE0
:108070000869019A46461044009A5F1C104400EBC0
:108080000B0A544640E02D48006950F825000028AE
:1080900008BF21F8167035D0284600F051F8DFF8F7
:1080A0009CE08446DEF8100050F82500844224D07D
:1080B0004FEA9C0100EB81010B1A9910002912DD97
:1080C000011F201F13F0040F03D051F8042F40F8B4
:1080D000042FDA1007D04B68436051F8083F40F88E
:1080E000083F521EF7D1DEF8100040F82540DEF8B8
:1080F000140020F8167020F8185008F101006444AC
:108100001FFA80F8701C86B24E4505D20B484169B3
:1081100031F81650BD42B6D108488461A0F80080FD
:10812000026A0199521A0099511AA1EB0B01A4EBB2
:108130000A02891AC16103B0BDE8F08F5004002023
:108140002DE9F0414FF6FE7188427DD251494F88AA
:10815000C11BC1EBC1024F49B842CB68896803EB30
:10816000420400EB800201EB820210D2138AB2F8C3
:1081700012C05B0BDB0043EA5C36536811895589FA
:10818000002B14BF4FF001084FF0000806E0237BDE
:108190002189658903F01F064FF0000801FB05FCEB
:1081A0000D2E74D2DFE806F00B1B0735712D25224A
:1081B0002222223D25004FEA8C00BDE8F0810320F9
:1081C00000EB4C0020F00301B8F1000F1ABF0CF1D6
:1081D000030020F0030000200844BDE8F0810CEB10
:1081E0004C00C01C20F00300BDE8F0810CF103003E
:1081F00013E0481C40086843C01C20F00300BDE8A1
:10820000F081C81C80086843C01C20F00300BDE852
:10821000F081C81DC0086843C01C20F00300BDE801
:10822000F0810021B84216D2506802784088002AB6
:1082300004BF042101EB80011CD0012A04BF00EB24
:108240004000011D16D000E01FE0022A04BF0421F7
:1082500001EB40010EE0207B800908BF40F20441A1
:1082600008D0012808BF4FF4417103D0022808BF8D
:108270004FF401710CF10300C91C20F0030021F040
:1082800003010844BDE8F08101E0F8F76BFA002033
:10829000BDE8F081500400202DE9F0470E464FF66E
:1082A000FE71884280F0F58000EB80047A48826895
:1082B00002EB8400018A438A490BC90041EA533129
:1082C0000389B0F80AC00D2903FB0CF580F0E180AA
:1082D000DFE801F02513078CDD766050505050A286
:1082E00060006E48AB0052F8242000680168D1F8A5
:1082F0002CC03146BDE8F047604705EB4500C01C87
:1083000020F003036548644952F824200068896915
:10831000D0F800C0DCF82CC0BDE8F047604703206F
:108320005E4F00EB450020F003083868DFF86891E5
:1083300052F8242001684346D1F82CC03146E0476A
:10834000002808BFBDE8F087D9F8081001EB8401C8
:108350004A68002A08BFBDE8F087E81C20F0030344
:10836000386806EB0801D0F800C0DCF82CC0BDE886
:10837000F0476047E81C20F003034848464952F89C
:10838000242000688969D0F800C0DCF82CC0BDE862
:10839000F047604703891FFA8CF05B1C5B08584369
:1083A000C01C20F003033D483B4952F824200068DC
:1083B0008969D0F800C0DCF82CC0BDE8F047604700
:1083C00003891FFA8CF0DB1C9B085843C01C20F06B
:1083D00003033248304952F8242000688969D0F8F4
:1083E00000C0DCF82CC0BDE8F047604703891FFAE5
:1083F0008CF0DB1DDB085843C01C20F0030327482A
:10840000254952F8242000688969D0F800C0DCF8BA
:108410002CC0BDE8F0476047E81C204D20F0030762
:10842000DFF87480286852F824203B460168D1F8B0
:108430002CC03146E047D8F808104FF0000C01EB93
:1084400084014A6813785188002B04BF042303EB8E
:10845000810C0BD0012B04BF01EB410101F1040C95
:1084600004D0022B04BF042303EB410C002808BFF7
:10847000BDE8F0870CF1030020F003032868F11930
:10848000D0F800C0DCF82CC0BDE8F0476047F8F732
:1084900069F90020BDE8F08750040020880400201E
:1084A00070B5DFF854C0049CDCF80850002D18BFEC
:1084B00070BDCCF80800ACF80210DCF818000028F9
:1084C00018BF70BD002B08BF70BDA0B20144ACF84E
:1084D000040001EB41014900C0EBC00001EB40008A
:1084E000984201D3F8F73EF9CCF82030CCF81020B0
:1084F000BDE87040FFF74ABD500400202DE9F0416F
:10850000214C012600256088002838D9A069002860
:1085100038D06088A1880844A84233D9E088002870
:1085200018BFFFF78DFD2946206950F82500F8B9DE
:108530000846FFF705FE0746E069874222D86188B2
:1085400028468D4203D2A169FFF7A6FED0B1226969
:10855000A16942F82510E069C01BE061A0693844B8
:10856000A0612288616921F812502088401C208077
:10857000681C85B2608806F001068542C6D3304685
:10858000BDE8F081F8F7EEF850040020104BD3F866
:1085900018C0BCF1000F18BF7047002908BF704712
:1085A00010B592B29A80B3F802C094440CEB4C0C14
:1085B0004FEA4C0CC2EBC2020CEB42028A4201D3DE
:1085C000F8F7D0F819621861BDE81040FFF7DEBC7B
:1085D0005004002000228261704710B504460888CC
:1085E000E0851088208604F1300003F08BF82081AC
:1085F00004F1300003F0E4F8608110BD70470A46D2
:1086000009684B69011D104618477047704770474D
:108610002DE9F0410C46016B8EB00546002904BFE0
:108620000EB0BDE8F08102A803F09EFAE088B5F92B
:108630003480DDE902C1404403B22089B5F93670C7
:108640000FFA8CF2384400B29A422CDC0EB2164477
:10865000B34228DA4FEA2C43984224DB03EB214C47
:10866000604520DA6089404401B2A0898A423844DA
:1086700000B2D8BFB14203DA984201DB604512DB99
:1086800002230020DFF87CC08DF80430ADF808002C
:10869000CDF800C0ADF80600ADF80A00286B0168FF
:1086A0004A6C694690470AA8296B03F05DFAE08896
:1086B000AF8EB4F80A80C119BDF82800EE8E0A1AF0
:1086C00021892379A489BDF82AC03144A1EB0C018A
:1086D0003444A4EB0C0C4744381A0B4C8DF81C3076
:1086E000ADF820100694ADF81E20ADF82200ADF8CC
:1086F00024C0286B0168CA6C06A990470EB0BDE87B
:10870000F0810000A8E4000880ED00087047000038
:108710002DE9F34F99B00C461998016B207929B1D6
:10872000002804BF1BB0BDE8F08FB9E000287CD161
:1087300077480025006890F84900189019988586B8
:108740001998C5861898042870DB1998056318983D
:10875000401E0B28C8BF032004DC6E4981FB0010BB
:10876000A0EBE07017904FF0FF301390002003460D
:10877000024612906848694963F30F060088098829
:1087800060F30F0762F31F4661F31F4748226449F5
:108790006846F8F74EF817984FF00108012878DB83
:1087A0001898A8F1010508FB00F11798092D91FB15
:1087B000F0F95EDA00201690684600EBC5003DF83F
:1087C0003510808801FB09F100FB09F00FFA80FAEF
:1087D0000FFA81FB2089E1885044594402B209B262
:1087E00030B2884242DC3BB2034499423EDA301454
:1087F00082423BDB00EB2743934237DD199816ABEF
:10880000001D02F0B3FB169900291CBF129881428B
:108810002CD014A803F0A8F9BDF95400BDF95010EC
:1088200000EBD07001EB600001E032E027E0B4F92A
:108830000610BDF95220091ABDF95600494300EB54
:10884000D07002EB6000B4F90820101A00FB001091
:10885000139988420AD21699CDE91210199801632A
:108860001998A0F834B01998A0F836A0AD1C092DBD
:10887000A0DB179808F10108804591DD09E01998FF
:10888000B4F9082000F13003B4F90610001D02F01D
:108890006DFB1998006B002804BF1BB0BDE8F08F7A
:1088A0001998016B04A803F05FF9199AE088199BE5
:1088B000928E21791044BDF81020DB8E821A208917
:1088C000DFF860C01844BDF81230CDF800C0C01AFF
:1088D000ADF80800199800238DF80410ADF80620B3
:1088E000ADF80A30006B01684A6C69469047207900
:1088F000002804BF1BB0BDE8F08F00201999086361
:10890000199988861999C8861BB0BDE8F08F0000B8
:1089100088040020565555557E0400208004002010
:1089200040E10008A8E4000830B50C46016B87B0B0
:108930000546002904BF07B030BD04A803F014F9B0
:108940002089AA8EB5F836C01044BDF810202379CE
:10895000801A6289E1886244BDF812C08DF8043043
:10896000A2EB0C02DFF820C0ADF80800CDF800C083
:10897000ADF80610ADF80A20286B01688A6C6946CC
:10898000904707B030BD000018E5000830B50A4632
:1089900085B0044600F1080102A802F067FDDDE998
:1089A0000201CDE9000194F8380090B100206D4635
:1089B000029002AA2946201D02F00EFB029A002A0C
:1089C00004BF05B030BD2946204600F023F805B0AD
:1089D00030BD6946201D03F0A1FA05B030BD00008E
:1089E0000A4900B50A880A4983B04FF0000C09888B
:1089F000ADF800C0ADF80420ADF802C0ADF8061027
:108A000001688A686946904703B000BD7E04002073
:108A1000800400202DE9F0418046888890B01446FB
:108A20000D46002819BFE888002810B0BDE8F08185
:108A3000B4F90C00401C13D1218963890022ADF8E0
:108A40000820ADF80C10ADF80A20ADF80E30206803
:108A500002A9026A20469047DDE902122261E16024
:108A6000B5F90020B5F9041004F10C005318B4F95D
:108A70000C108B4221DDB0F90430194491421CDD09
:108A8000B5F90220B5F906105318B0F902108B425F
:108A900013DDB0F90600084490420EDDE0690028BD
:108AA00000F0DE8020682146C26806A89047B4F92D
:108AB00020000AAF401C06D00FE0E469002CB7D1BB
:108AC00010B0BDE8F0812146684603F04DF8BDF8CE
:108AD00000102184BDF802106184208CBDF81810AC
:108AE000084406B2B4F92200401C09D1214602A86C
:108AF00003F03AF8BDF808102184BDF80A1061842B
:108B0000608CBDF81A10BDF81E200144BDF81C0091
:108B1000ADF82C00ADF82860ADF82A10ADF82E2085
:108B200039462A4608A802F0A1FCDDE90801CDE992
:108B30000E01B4F90C00401C13D120896289002178
:108B4000ADF80810ADF80C00ADF80A10ADF80E2025
:108B5000206802A9026A20469047DDE902122261DC
:108B6000E16004F10C020EA908A802F07FFCDDE927
:108B70000867B5F9002030B290420ED1B5F9021065
:108B80003014884209D1B5F9041038B2884204D1B2
:108B9000B5F906103814884262D038B2002818BFE0
:108BA0005FEA274061D0B5F90210301488420EDD2B
:108BB000AB88401AADF81820ADF81C30ADF81A108B
:108BC000ADF81E0006A94046E269FFF723FFB5F99C
:108BD000001030B288420FDD421A3814ADF8181078
:108BE000ADF81C203314ADF81E00ADF81A3006A9FC
:108BF0004046E269FFF70EFFB5F90000B5F9041031
:108C00003AB2014430B2104481420FDD0B1A3914DC
:108C1000ADF81800ADF81C303214ADF81E10ADF8E8
:108C20001A2006A94046E269FFF7F4FEB5F90200F2
:108C3000B5F906100844311401EB274188420FDDD5
:108C40002A88AB88401AADF80820ADF80C30ADF892
:108C50000A10ADF80E0002A94046E269FFF7DAFEFD
:108C6000B4F90C00401C1AD105E029464046E269DF
:108C7000FFF7D0FEF4E7218960890023ADF80830C2
:108C8000ADF80C10ADF80A30ADF80E00206802A95E
:108C9000026A20469047DDE902122261E16004F198
:108CA0000C02294606A802F0E1FBDDE90601CDE948
:108CB0000401BDF81400002819BFBDF816000028F3
:108CC00010B0BDE8F081B4F92000401C09D1214664
:108CD000684602F049FFBDF800102184BDF802107B
:108CE0006184208CBDF81010081AADF81000B4F99A
:108CF0002200401C09D12146684602F035FFBDF82C
:108D000000102184BDF802106184608CBDF812103F
:108D1000081AADF81200206804A98268204690471E
:108D200010B0BDE8F081000070B50446194820601D
:108D3000002525816581A581E58125826582A58241
:108D4000211DE582A5618D61CD6181F8245001224C
:108D500081F82520104B8D620B602563A5860F4896
:108D6000E58684F838200088002206B20C481146B7
:108D7000008805B26068436B201D984760683146E3
:108D8000826B201D904760682946C26B201D90476A
:108D9000204670BDA8E80008F4EC00087E0400201E
:108DA000800400200149016070470000A8E8000825
:108DB00090F8251000291DBF90F824100029186094
:108DC0007047704730B500258580C5800581458195
:108DD0008581C5810582458245618561C56180F8CF
:108DE0002450012180F825100149016030BD0000A8
:108DF000DCE800084A684260D1E90221C0E90221AA
:108E0000704770B5044600681E46049DD0F834C013
:108E10002046E04720683146826B20469047206814
:108E20002946C26B2046BDE87040104710B5044685
:108E300084B051EA020004BF04B010BDD4E90103BC
:108E4000CDE90003E088104402B2A088084401B2D2
:108E50002068436B20469847D4E90101CDE902011F
:108E6000606950B101680A696946904760690168A4
:108E70000A6902A9904704B010BDFBF72BFF0168F7
:108E8000CA6A69469047FBF725FF0168CA6A02A9CA
:108E9000904704B010BD4FF0FF31818101844184BF
:108EA0001168C16110607047704770477047704724
:108EB00081807047C180704770B5044600681546D0
:108EC000C36A2046984720682946036B2046BDE8C0
:108ED0007040184701817047418170472DE9F0418A
:108EE00084B0044688468088B4F906101D460023E5
:108EF0008DF804300A9EADF806001746281A32B2E3
:108F0000DFF860C0ADF8081000B2CDF800C0ADF8D1
:108F10000A50ADF80C200028BCBF404200B2A38A22
:108F200098420BDC501A00B20028BCBF404200B28D
:108F30009842DEBF002004B0BDE8F08120690168DE
:108F40004A686946904700202081A5EB08006081AF
:108F5000F01BA081A580E6800120A07304B0BDE8CD
:108F6000F081000080ED00082DE9F04186B01E463A
:108F700017460D460446012918BF022D04D0002DC6
:108F800004BFA780E6802FE0B4F90A00DFF88080F4
:108F9000C11C072911D3A188E28800238DF8103065
:108FA000ADF81410CDF80C80ADF81200ADF8162015
:108FB000206901688A6803A99047B4F90C00C11CB4
:108FC000072911D3A388E28801218DF81010ADF88C
:108FD0001430CDF80C80ADF81200ADF816202069E1
:108FE00001688A6803A9904700200A498DF8045057
:108FF000ADF808600091ADF80670ADF80A00206980
:1090000001680A686946904706B0BDE8F081000033
:1090100018E50008A8E4000801617047817B002979
:1090200008BF70470189491C89B20181072998BF8F
:109030007047002141818181817370472DE9F04F94
:1090400091B006461C4615460F4604A802F0EEFFF6
:10905000294606A802F0EAFF04A8FDF701FC3946FC
:1090600006A8FDF723FCBDF91810BDF81420BDF8C3
:109070001A0012FB001206EB8206BDF810205E4FAC
:109080001144ADF81810BDF81210BDF91C50084479
:10909000ADF81A00BDF91E00099038680168096B27
:1090A0008847FF2C18D010F0400F18D00999BDF850
:1090B0001400AAB289B203940092CDE90110386875
:1090C000BDF81A30BDF818200168D1F83CC031460F
:1090D000E04711B0BDE8F08F10F0200FE6D1464810
:1090E00000680168096A8847444ABDF91810BDF94B
:1090F0001A30B2F800C00CFB031100EB410C0998C8
:10910000002100285CDD0020002D55DDBDF9142074
:1091100002FB010256F82220130E4AD0FF2B08BF93
:10912000FF2C55D0C2F30747C2F3072A02F0FF090C
:1091300004FB03F202EB1222521CC2F30722C2F11B
:10914000FF0317FB02FE2D4F4FF0F80B3F8807FB84
:1091500001083CF818700BEA172B1BFB03EB1FFAF6
:109160008BFB1AFB02FE4FF0FC0A0AEAD70A1AFB35
:1091700003EA1FFA8AFA19FB02F2FF063F0E17FBF9
:1091800003220BEB1B235B1C03F478470AEB1A2327
:1091900003F101094FF4FC6392B203EA59133B4314
:1091A00002EB1222521CC2F3072243EAD2022CF82D
:1091B0001820401CA842A9DB0998491C8142A2DB67
:1091C0000D4800680168496A884711B0BDE8F08F12
:1091D0004FF4784303EA12274FF4FC6303EA521377
:1091E0003B43C2F3C4021343044A128802FB010248
:1091F0002CF81230DDE700008804002082040020F3
:109200002DE9F04F91B0074608881A9E1C46154676
:109210008846022801D0F7F7A5FA002E04BF11B046
:10922000BDE8F08F11460AA802F000FF21460CA805
:1092300002F0FCFE0AA8FDF713FB29460CA8FDF777
:1092400035FBBDF93000BDF82C20BDF8321012FB03
:109250000102D419BDF82820DFF8B8911044ADF808
:109260003000BDF82A00BDF934500844ADF8320092
:10927000BDF936000190D9F800000168D1F88410DA
:109280008847654F012873D0484600680168096A1D
:109290008847BDF93010BDF932203B88FF2E03FB13
:1092A000021100EB410308F104017DD20198C6F1DF
:1092B000FF024FF0000E002858DD0020002D4CDD8D
:1092C00094F800C0F827641C31F81CC007EA1C2879
:1092D00008FB06F9DFF84081B8F8008008FB0E0AA9
:1092E000401C33F81A8007EA182707FB02971FFA79
:1092F00087F9FC2707EADC0B07EAD8074FEACC6CB2
:109300004FEA1C6C4FEAC8680CFB06FC4FEA186871
:1093100008FB02CC0BFB06FB07FB02B709EB192885
:10932000BFB207EB17271FFA8CFC07F1010908F100
:1093300001084FF4FC670CEB1C2C08F4784807EA92
:1093400059170CF1010C48EA0707CCF3072C47EA40
:10935000DC0C23F81AC08542B2DCBDF92C000EF1FA
:10936000010E401B044401988645A6DB4CE0FFE754
:109370003A880020CDE905020B21CDE907100199BB
:10938000BDF82C0089B2CDE90210AAB20192BDF855
:10939000320004960090BDF8303042462146D9F89C
:1093A0000000FDF71BFE00E002E011B0BDE8F08F09
:1093B00001980026002827DD002D1DDD3888704328
:1093C00003EB4000801E15F0010F05D014F8012BAF
:1093D00031F8122020F8022F6A100DD014F801CBBA
:1093E000521E31F81CC0A0F802C014F801CB31F8AD
:1093F0001CC020F804CFF1D1BDF92C00761C401B15
:1094000004440198B042D7DC024800680168496A08
:109410008847C8E788040020820400202DE9F04F27
:109420008FB080460888189D1E4614460F460128B6
:1094300001D0F7F797F9002D04BF0FB0BDE8F08F0A
:1094400011460AA802F0F2FD31460CA802F0EEFD2A
:109450000AA8FDF705FA21460CA8FDF727FABDF981
:109460003000BDF82C20BDF8321012FB010202EBD7
:109470000804BDF82820DFF894911044ADF83000BE
:10948000BDF82A00BDF934600844ADF83200BDF9DA
:1094900036000190D9F800000168D1F8841088479F
:1094A000DFF86C81012877D0484600680168096AB6
:1094B0008847BDF93010BDF93220B8F8003003FB01
:1094C000021100EB41030198002100285BDD002020
:1094D000002E50DD227802EB42023A44121DFF2D8D
:1094E0007BD092F802C092F800900CFB05FEDFF8EA
:1094F00020C192F801A04FF0F80BBCF800C0C5F1F4
:10950000FF020CFB010809FB05F933F818C00BEA50
:109510001C2B0BFB02EB0AFB05FE4FF0FC0A0AEAD0
:10952000DC0A0AFB02EA4FEACC6C4FEA1C6C0CFB2B
:1095300002921FFA8BFB0BEB1B2C0CF1010C1FFA98
:109540008AFA0CF478490AEB1A2C92B20CF1010A4F
:109550004FF4FC6C02EB12220CEA5A1C521C49EA32
:109560000C0CC2F307224CEAD20223F81820641C28
:10957000401CB042AEDBBDF92C00491C801B0444EA
:1095800001988142A3DB214800680168496A884745
:109590000FB0BDE8F08FFFE70DF1140A00230B2296
:1095A000B8F800100120AAE80F000199BDF82C00BE
:1095B00089B2CDE90210B2B20192BDF83200049531
:1095C0000090BDF830303A462146D9F80000FDF74A
:1095D00005FD0FB0BDE8F08FFFE792F802804FF471
:1095E000784C0CEA082892F801904FF4FC6C0CEAD5
:1095F000C90C127848EA0C0C4CEAD20C044A1288C6
:1096000002FB010223F812C0B1E700008804002029
:10961000820400202DE9F0478AB08946DDE9124531
:109620008046002D04BF0AB0BDE8F08717469A4671
:10963000084602F067F80646484602F0C1F8ADF861
:109640000C60ADF80870ADF80E00ADF80AA0484601
:1096500002F080F858B1484602F07CF8022806D0A3
:10966000484602F077F80B2801D0F7F77BF8484618
:1096700002F024F80746484601F056FF06464846E1
:1096800002F068F802287CD0484602F063F80B2804
:1096900078D0484601F0E0FF4FF0000A002872D071
:1096A000494608A801F08AFFDDE90801CDE9060175
:1096B00006A9684602F0BAFC21466846FEF7C4FBDC
:1096C000DDE90001CDE90401BDF8140000281CBF4C
:1096D000BDF8160000287DD0CDE9005AD8F800006A
:1096E00004AB02AAD0F810C039464046E047BDF9A5
:1096F0001210B4F90200814211DD2388A288091AF0
:10970000ADF82030ADF82420ADF82200ADF82610D9
:1097100008AB02AA31463846009500F09DF9BDF924
:109720001010B4F90000814213DDBDF81220091AAF
:10973000BDF81630ADF82000ADF82410ADF82220A9
:10974000ADF8263008AB02AA31463846009500F045
:1097500083F92088A188BDF81420084401B2BDF81F
:109760001000104400B2814217DDBDF81220091A22
:10977000ADF82000BDF81630ADF82220ADF8241069
:1097800002E030E038E058E0ADF8263008AB02AA3D
:1097900031463846009500F05FF96088E188BDF8F1
:1097A0001620084401B2BDF81200104400B28142F4
:1097B000DCBF0AB0BDE8F0872288A388ADF820207E
:1097C000ADF82430091AADF82200ADF8261008AB28
:1097D00002AA00E03FE031463846009500F03CF92F
:1097E0000AB0BDE8F0872B46224602A93846FFF7AB
:1097F00025FC0AB0BDE8F08796F800C0384631462F
:1098000002AA2346BCF1000F0BD0BCF1010F0ED011
:10981000BCF1020F04BF0095FFF7F2FC0AB0BDE8EF
:10982000F087009500F022F80AB0BDE8F0870095B7
:10983000FFF7F4FD0AB0BDE8F087CDE9005AD8F88B
:109840000000234602AAD0F810C039464046E0473F
:109850000AB0BDE8F087234602AA31463846009593
:1098600000F0FAF80AB0BDE8F08700002DE9F04FEB
:109870000646088891B01C4615460F4608B1F6F713
:1098800071FF11460AA802F0D1FB21460CA802F094
:10989000CDFB0AA8FCF7E4FF29460CA8FDF706F863
:1098A000BDF93000BDF82C20BDF8321012FB0102CA
:1098B0009419BDF82820664E1044ADF83000BDF86C
:1098C0002A00BDF934500844ADF83200BDF9360025
:1098D000009030680168D1F884108847DFF87491EF
:1098E00001287DD0304600680168096A8847BDF9C3
:1098F0003010BDF93220B9F8003007F1040803FB3D
:10990000021100EB410600980022002862DD0021D0
:10991000002D57DD207858F82000030E4ED0FF2B85
:1099200004BFDDF868C0BCF1FF0F7CD0DDF868C073
:10993000C0F307470CFB03F303EB13235B1CC3F3D8
:109940000723C3F1FF0C17FB03F9424F4FF0F80B4D
:109950003F8807FB021A36F81A700BEA172B1BFB1D
:109960000C991FFA89F9C0F3072B1BFB03FE4FF07C
:10997000FC0B0BEAD70B1BFB0CEB1FFA8BFBC0B2EB
:1099800010FB03F0FB061B0E13FB0C0009EB192365
:109990005B1C03F4784C0BEB1B235F1C80B24FF471
:1099A000FC6300EB102003EA5713401C4CEA03034E
:1099B000C0F3072043EAD00026F81A00641C491CB3
:1099C000A942A7DBBDF92C00521C401B044400989F
:1099D00082429CDB1E4800680168496A884700E0B3
:1099E00002E011B0BDE8F08F0DF1140800230B2246
:1099F000B9F800100120A8E80F00009A1A98BDF8E5
:109A00002C10CDE9031092B2ABB2CDE90132BDF812
:109A100032000090BDF830303A4621463068FDF7FC
:109A2000DDFADCE7FFE74FF4784303EA102C4FF44C
:109A3000FC6303EA50134CEA0303C0F3C40003437E
:109A40000448008800FB021026F81030B6E700003A
:109A500088040020820400202DE9F04F91B00E46CA
:109A600080461C461546114668461A9F02F0DEFAEB
:109A7000214608A802F0DAFA6846FCF7F1FE29460A
:109A800008A8FCF713FFBDF92010BDF80420BDF8AD
:109A9000220012FB001208EB42051644BDF800201C
:109AA000BDF924401144ADF82010BDF8021008445F
:109AB000ADF82200BDF9260004907E4800680168D8
:109AC000096A88477C4ABDF92010BDF92230B2F8F6
:109AD00000C0FF2F0CFB031100EB41034FF000010E
:109AE00073D2DDF81090B9F1000F6CDD0020002C6E
:109AF00065DD00BFBDF9048006EB000C08FB01F238
:109B000012F80C20002A57D07A4302EB1222521C82
:109B1000C2F30722002A4FD008FB01084FF0F80AD1
:109B200035F81890C2F1FF0C0AEA192808FB02FB6D
:109B3000DFF88481B8F8008008FB0108CDF81C80AC
:109B400033F818800AEA182A0AFB0CBA1FFA8AFBB3
:109B50004FF0FC0A0AEAD90E0AEAD80A0EFB02FE06
:109B60004FEAC9694FEA19694FEAC86809FB02F26E
:109B70004FEA186808FB0C220AFB0CEA0BEB1B2CC3
:109B80000CF1010C1FFA8AFA0CF478480AEB1A2C33
:109B90000CF101094FF4FC6C92B20CEA591C48EA32
:109BA0000C0C02EB1222521CDDF81C80C2F30722BF
:109BB0004CEAD20223F81820401CA0429ADB0498F9
:109BC000491C814292DB62E0FFE7049F002F5EDDCB
:109BD0000020002C57DD00BFBDF90470321807FBD0
:109BE00001FC1CF80220EAB3FF2A58D007FB01074A
:109BF0004FF0F80935F81780C2F1FF0C09EA182771
:109C000007FB02FA2C4F3F8807FB010B33F81B7050
:109C100009EA172909FB0CA91FFA89FA4FF0FC0978
:109C200009EAD80E09EAD7090EFB02FE4FEAC86816
:109C30004FEA1868FF0608FB02F23F0E09FB0CE929
:109C400007FB0C220AEB1A2C0CF1010C1FFA89F904
:109C50000CF4784709EB192C0CF1010892B24FF47F
:109C6000FC6C00E00CE002EB12220CEA581C521CC7
:109C700047EA0C0CC2F307224CEAD20223F81B205D
:109C8000401CA042A8DB0498491C8142A0DB094883
:109C900000680168496A884711B0BDE8F08F07FB8A
:109CA000010235F812C0044A128802FB010223F8AF
:109CB00012C0E5E7880400208204002070B52D4C16
:109CC000054694F8C40010F0010F10D104F1C4004F
:109CD00002F0D3F958B104F1C80027490160274ABE
:109CE0002749F6F74AFD04F1C400AFF3008094F869
:109CF000C00010F0010F0DD1224802F0BEF948B1AA
:109D0000214822491D4A01602149F6F736FD1D48C8
:109D1000AFF300801F482867001D686794F8D400DF
:109D200010F0010F0DD11C4802F0A7F948B11B48F3
:109D30001B49124A01601B49F6F71FFD1648AFF395
:109D4000008094F8D00010F0010F0DD1164802F0F9
:109D500094F948B115481649084A01601549F6F7C3
:109D60000CFD1148AFF300800C48A866001DE866A2
:109D700070BD000054030020CCE90008000000087A
:109D800011A600081404002020040020E0E90008C7
:109D900013A600081C040020280400202C04002026
:109DA000A4E900080DA600082404002030040020C7
:109DB000B8E900080FA6000810B50446FFF77EFFBB
:109DC000204600F001F9204600F0A2FB204600F0FA
:109DD00079F9204600F0ECF92046BDE8104000F08B
:109DE00001B8000070B5574D044695F8640010F0B6
:109DF000010F10D105F1640002F03FF958B105F1EF
:109E0000680051490160514A5149F6F7B6FC05F125
:109E10006400AFF3008095F8600010F0010F0DD1E1
:109E20004C4802F02AF948B14B484C49474A016076
:109E30004B49F6F7A2FC4748AFF30080494820653C
:109E4000001D606595F8840010F0010F0DD14648A3
:109E500002F013F948B1454845493C4A016045497B
:109E6000F6F78BFC4048AFF3008095F8800010F0C7
:109E7000010F0DD1404802F000F948B13F48404978
:109E8000324A01603F49F6F778FC3B48AFF3008067
:109E900036482064001D606495F8740010F0010FCE
:109EA0000DD1394802F0E9F848B138483849274A15
:109EB00001603849F6F761FC3348AFF3008095F84C
:109EC000700010F0010F0DD1334802F0D6F848B100
:109ED000324833491D4A01603249F6F74EFC2E489C
:109EE000AFF300802948A064001DE06495F8940059
:109EF00010F0010F0DD12C4802F0BFF848B12B48EB
:109F00002B49124A01602B49F6F737FC2648AFF37C
:109F1000008095F8900010F0010F0DD1264802F056
:109F2000ACF848B125482649084A01602549F6F7AA
:109F300024FC2148AFF300801C48A063001DE063AF
:109F400070BD000054030020A8EA000800000008CB
:109F500027A60008B4030020C0030020E4EA00089C
:109F60002DA60008BC030020D8030020DC0300203D
:109F7000F4E9000815A60008D4030020E00300203F
:109F800008EA000817A60008C8030020CC03002038
:109F900020EB000833A60008C4030020D0030020F3
:109FA00084EB00083DA60008E8030020EC03002035
:109FB00044EA00081DA60008E4030020F003002086
:109FC00094EA000825A6000870B52D4C054694F8C3
:109FD000A40010F0010F10D104F1A40002F04DF81C
:109FE00058B104F1A80027490160274A2749F6F72C
:109FF000C4FB04F1A400AFF3008094F8A00010F0BB
:10A00000010F0DD1224802F038F848B12148224909
:10A010001D4A01602149F6F7B0FB1D48AFF30080EF
:10A020001F482866001D686694F8B40010F0010F00
:10A030000DD11C4802F021F848B11B481B49124AB7
:10A0400001601B49F6F799FB1648AFF3008094F8BE
:10A05000B00010F0010F0DD1164802F00EF848B113
:10A0600015481649084A01601549F6F786FB11485C
:10A07000AFF300800C48A865001DE86570BD0000C6
:10A080005403002048EB00080000000837A6000831
:10A09000F40300200004002098EB00083FA600080D
:10A0A000FC030020080400200C04002058EA0008EB
:10A0B0001FA600080404002010040020BCEA0008C9
:10A0C00029A6000870B52A4C0546207910F0010F2A
:10A0D0000ED1201D01F0D1FF50B104F10800254937
:10A0E0000160254A2549F6F748FB201DAFF30080A3
:10A0F000207810F0010F0DD11D4801F0BEFF48B1CE
:10A100001F4820491C4A01601F49F6F736FB1848D2
:10A11000AFF300801D482861001D6861207D10F0AC
:10A12000010F0DD11A4801F0A8FF48B119481A498A
:10A13000114A01601949F6F720FB1548AFF300807A
:10A14000207C10F0010F0DD1154801F096FF48B1A9
:10A1500014481549084A01601449F6F70EFB1048E7
:10A16000AFF300800B48A860001DE86070BD0000E0
:10A1700054030020F8EA0008000000082FA6000899
:10A18000600300205CEB000839A600085C03002097
:10A19000680300206C0300201CEA000819A60008D0
:10A1A00064030020700300206CEA000821A6000868
:10A1B00070B52D4C054694F8240010F0010F10D115
:10A1C00004F1240001F059FF58B104F12800274997
:10A1D0000160274A2749F6F7D0FA04F12400AFF3CB
:10A1E000008094F8200010F0010F0DD1224801F0FA
:10A1F00044FF48B1214822491D4A01602149F6F730
:10A20000BCFA1D48AFF300801F482862001D686239
:10A2100094F8340010F0010F0DD11C4801F02DFF0F
:10A2200048B11B481B49124A01601B49F6F7A5FAC1
:10A230001648AFF3008094F8300010F0010F0DD1F4
:10A24000164801F01AFF48B115481649084A01603E
:10A250001549F6F792FA1148AFF300800C48A8614F
:10A26000001DE86170BD0000540300200CEB0008E5
:10A270000000000831A600087403002080030020BD
:10A2800070EB00083BA600087C0300208803002038
:10A290008C03002030EA00081BA60008840300207D
:10A2A0009003002080EA000823A600082DE9F04F63
:10A2B000DFF850B205468DB0DBF8000014460E46BC
:10A2C00090F8480002287DD0ADF8043001A801F0D4
:10A2D00041FA07462868416A2846884787427FD165
:10A2E00001A801F0EBF90490002879D0214608A8D4
:10A2F00001F09CFE314602A801F098FE268867888E
:10A3000001A801F0FFF9044601A801F059FAADF8DF
:10A310001C40ADF81860ADF81E00ADF81A7008A822
:10A32000FCF79EFA02A8FCF79BFA06A8FCF798FA3D
:10A33000DFF8D48175484FF0000CB8F80020008891
:10A34000ADF82C20ADF828C0ADF82E000AA9ADF864
:10A350002AC002A8FDF778FDBDF90C30002B1CBF08
:10A36000BDF90E40002C37D0BDF90810BDF9200012
:10A37000814235DBBDF90AC0BDF9222094452FDBAF
:10A380001944BDF924301844884229DBBDF9261050
:10A390000CEB04001144884222DC2868816A2846BC
:10A3A00088470746DBF800000168896A884701464C
:10A3B000BDF90820BDF81800BDF91C60101A00B2E4
:10A3C000049D00E00CE000280CDD05EB4005A6EB49
:10A3D0000000ADF81C000FE004980DB0BDE8F08F50
:10A3E000F6F7C0F908DAA2EB0002ADF80820BDF8D4
:10A3F0000C201044ADF80C00BDF90A20BDF81A007D
:10A40000A2EB000000B200280ADD00FB06F205EB1B
:10A410004205BDF81E20A2EB0000ADF81E0009E0C9
:10A4200008DAA2EB0002ADF80A20BDF80E201044B5
:10A43000ADF80E00BDF91CA0BAF1000FC4BFBDF904
:10A440001E40002CC8DDBDF9082001EB4200BDF91B
:10A450000A1001FB0709BDF90C005045B8BF824640
:10A46000B8F80000821A5245D8BF9246BDF90E20B6
:10A47000A242B8BF1446254A1288511AA142D8BF39
:10A480000C46824508BF864223D1DBF800000168F4
:10A49000096B884710F0010F10D0ADF80CA0ADF893
:10A4A0000E400096DBF800002B460168D1F854C03E
:10A4B000DDE90212E0470DB0BDE8F08FDBF80000E7
:10A4C00004FB07F34A460168D1F82CC02946E0474F
:10A4D00082E74FF00008002CC8BF4FEA4A0A7FF716
:10A4E0007BAFDBF8000053464A460168D1F82CC028
:10A4F0002946E04708F10108B94405EB4605444503
:10A50000EFDC69E788040020820400208404002036
:10A5100070B52D4C054694F8440010F0010F10D191
:10A5200004F1440001F0A9FD58B104F148002749A5
:10A530000160274A2749F6F720F904F14400AFF3F8
:10A54000008094F8400010F0010F0DD1224801F076
:10A5500094FD48B1214822491D4A01602149F6F77E
:10A560000CF91D48AFF300801F482863001D686385
:10A5700094F8540010F0010F0DD11C4801F07DFD3E
:10A5800048B11B481B49124A01601B49F6F7F5F810
:10A590001648AFF3008094F8500010F0010F0DD171
:10A5A000164801F06AFD48B115481649084A01608D
:10A5B0001549F6F7E2F81148AFF300800C48A8629D
:10A5C000001DE86270BD000054030020ACEB0008E1
:10A5D0000000000841A6000894030020A00300200A
:10A5E000C0EB000843A600089C030020A80300203D
:10A5F000AC030020D0EA00082BA60008A40300202A
:10A60000B003002034EB000835A6000870477047FF
:10A610007047704770477047704770477047704782
:10A620007047704770477047704770477047704772
:10A630007047704770477047704770477047704762
:10A64000704770472DE9F04F8FB01D46DDE918487F
:10A6500016460F46002C04BF0FB0BDE8F08F114620
:10A6600006A801F0E3FC294608A801F0DFFC06A8D3
:10A67000FCF7F6F8314608A8FCF718F9BDF92010E8
:10A68000BDF81C20BDF8220012FB001207EB4206A9
:10A69000BDF81820634D1144ADF82010BDF81A1014
:10A6A000BDF924700844ADF82200BDF926000290DF
:10A6B00028680168096B8847FF2C03D210F0040F4B
:10A6C00007D11DE008BFB8F1000F19D110F0010F3C
:10A6D00016D00299BDF81C0089B2CDE90110B8B2BC
:10A6E0000090CDE903482868BDF82230BDF820204D
:10A6F0000168D1F838C03146E0470FB0BDE8F08FAF
:10A70000484800680168096A8847DFF81C81BDF97C
:10A710002010BDF92220B8F80030FF2C03FB0211F5
:10A7200000EB410559D202980021C4F1FF02002834
:10A73000C8BFC6466EDD0020002F49DDBDF91C30C4
:10A740004FF0F80C03FB010336F813300CEA132822
:10A7500008FB04F9BEF8008008FB010A401C35F82C
:10A760001A800CEA182C0CFB029C1FFA8CF94FF093
:10A77000FC0C0CEAD30B0CEAD80CDB061B0E4FEAE0
:10A78000C86863434FEA186808FB02330BFB04FBFD
:10A790000CFB02BC09EB19281FFA8CFC9BB20CEBDA
:10A7A0001C2C0CF1010903EB132308F101084FF4F1
:10A7B000FC6C5B1C08F478480CEA591C48EA0C0C49
:10A7C000C3F307234CEAD30325F81A308742B5DCDC
:10A7D0000298491C8142AEDB1CE00298002400284C
:10A7E000C4BFDFF840907F0014DDD9F800003B467D
:10A7F00032460168D1F82CC02946E047B8F800007D
:10A80000641C05EB4005BDF91C0006EB40060298F0
:10A81000A042EADC034800680168496A88470FB033
:10A82000BDE8F08F8804002082040020002B08BFC0
:10A8300070472DE9F04F888887B01F469046002862
:10A8400019BFC888002807B0BDE8F08F04A801F040
:10A85000EDFB04A8FCF704F85B4D28680168096B60
:10A860008847FF2F03D010F0080F17D002E010F038
:10A87000020F13D0BDF81600BDF81410CDE900107A
:10A8800002972868BDF81230BDF810200168D1F891
:10A8900048C04146E04707B0BDE8F08FBDF914401D
:10A8A000BDF916000090484800680168096A8847A9
:10A8B000464BBDF91010BDF91220B3F800C04FF09F
:10A8C000F80A02FB0C1100EB410CC8F3C4204FEA5C
:10A8D000C009C8F3451086000AEAC800FF2F4CD211
:10A8E0000022DDF80080C7F1FF011546B8F1000F26
:10A8F00062DD09FB07F87E4347430020002C34DD6E
:10A9000002EB00094FF0F80A3CF81930401C0AEA43
:10A91000132A0AFB018A1FFA8AFB4FF0FC0A0AEA93
:10A92000D30ADB060AFB016A1B0E03FB01731FFA45
:10A930008AFA9BB20AEB1A2A0BEB1B2B0AF1010EC7
:10A9400003EB13230BF1010B4FF4FC6A5B1C0BF4BC
:10A95000784B0AEA5E1A4BEA0A0AC3F307234AEA6B
:10A96000D3032CF819308442CADC18486D1C0088C7
:10A97000024400988542C0DB1EE000260098354660
:10A980000028C8BF1FFA88F216DD002C0EDD0CEB84
:10A990004600801E14F0010F18BF20F8022F61102E
:10A9A00004D0428020F8042F491EFAD118886D1C6B
:10A9B00006440098A842E8DC034800680168496A38
:10A9C000884707B0BDE8F08F88040020820400208B
:10A9D0002DE9FF4F8FB0DDE92021DDF89C90B2F921
:10A9E000000093881C9E03441BB204935388D288B2
:10A9F000DDE924A41A4412B20392DDE91E754A7BF4
:10AA0000DDF88CB012F0080318BF4FF4807391F892
:10AA100006C012F0100243EA0C0818BF4FF480720F
:10AA2000CB791A430192B8F1000F12BF002A13B07C
:10AA3000BDE8F08F002F91F9091004BF31440EB228
:10AA400007D0791A8FB239B2002902DAF11B0EB29F
:10AA50000027B04203DD811B39448FB20646E5482A
:10AA60000078012818BF00204B460290314611A8FB
:10AA70001D9AFDF7AFF9ADF818004B46314611A805
:10AA80001D9AFDF7BFF9ADF81C0007A906A8FBF752
:10AA900027FF0298CDF800A059EA000005D0B9F1CF
:10AAA000010F4FD1029800284CD0DFF84CA3DAF800
:10AAB00000000168096B884710F0800F06D0042C55
:10AAC00004D1BBF1000F18BF012100D1002110F407
:10AAD000807F03D0082C08BF012000D0002008434D
:10AAE00030D000290CBF4FF48070802057EA050158
:10AAF00028D1049906EB08028A4223DC019A1D99A9
:10AB00000A44039991421DDB082C1CBF08F1010186
:10AB100021F001082699CDE904100098CDF80080B5
:10AB2000CDE90280BDF81C0083B2BDF8180082B2E6
:10AB3000DAF800000168D1F840C02299E04713B06C
:10AB4000BDE8F08F109820B9AB4800680168096A29
:10AB50008847AA49BDF91820BDF91C30098803FBB4
:10AB6000012200EB420C0120A040401E00F0FF0A31
:10AB7000012C08BFFF2007D0022C08BF552003D0AE
:10AB8000042C0CBF112001200022C6460B90042C7F
:10AB900004D1BBF1000F18BF012000D1002010EA42
:10ABA000080F18BF0EF1010E229857EA05030BD0CB
:10ABB0000EFB0572624393B203F0070200EBD30071
:10ABC000019B5B1B9BB20193029D4FF6FF73002D0F
:10ABD0004D460AD0012D1FD0022D04D0B9F1030F2C
:10ABE00012D049B314E059B940E0012D07D0022D2D
:10ABF0000AD0B9F1030F18BF012508D00CE0D9B174
:10AC000003EA41056D0807E04FF0FF3504E099B114
:10AC100003EA41056D086D42DDF808B0BBF1000F95
:10AC20000DD0B9F1010F06D0B9F1020F15D0B9F16D
:10AC3000030F02D01CE061B918E091B916E0B9F138
:10AC4000010F0AD0B9F1020F0AD0B9F1030F0FD0EA
:10AC500061B103EA41014B080BE04FF0FF3308E01C
:10AC600021B103EA410149084B4202E0F5F77AFDC0
:10AC70000123DDF874900399A1EB09090199894535
:10AC8000C8BF8946F61B0499891B4145D8BF884631
:10AC9000A8EB07010291AEEB01016143039101783A
:10ACA000CDF80490D140B9F1000F7DDD009E009FEA
:10ACB000C6F3C426F6000E96009EC6F34516B600EF
:10ACC0000D96F82606EAC7060C96029E05FB16337B
:10ACD0000A93029B002B6CDD11EA0A0659D00B9FE8
:10ACE0007743009EFF2FB6B204DBDDF89880B8F101
:10ACF000FF0F4CD2269EDDE90C9B7E430E9F0997E9
:10AD0000BCF800704FF0F80E0EEA172ECDF820E0D8
:10AD10004FF0FC0E0EEAD70EB6B2FF06CDF814E0E7
:10AD200006EB16264FEA176E761CCDF810E0C6F338
:10AD30000726099FDDF820E0C6F1FF0877431EFBD8
:10AD40000877DDF814E0BFB20BFB06FB1EFB08BB67
:10AD5000DDF810E01FFA8BFB09FB06F61EFB086608
:10AD600007EB17277F1C07F478480BEB1B27B6B2BD
:10AD700007F101094FF4FC6706EB162607EA59179D
:10AD8000761C48EA0707C6F3072647EAD606ACF85A
:10AD90000060224492B2E140082A02D310F8011F59
:10ADA00000220CEB450C01E016E002E05B1E002BDC
:10ADB00092DC039B3BB1D11889B200EBD10001F0CA
:10ADC00007020178D1400A9B0CEB430C019B5B1EF0
:10ADD0000193002B3FF77DAF109800281CBF13B0E4
:10ADE000BDE8F08F044800680168496A884713B0DD
:10ADF000BDE8F08F78040020880400208204002041
:10AE00000F49016000218160C16001614161816180
:10AE1000C161016241628162C16201634163816318
:10AE2000C163016441648164C164016541658165F8
:10AE3000C165016641668166C16601674167704709
:10AE4000D4EB0008704773B5BDF80410C1840189C4
:10AE5000002907BF4189002902B070BD0446C08C9B
:10AE6000A0F57F41FF3904BF02B070BD2068C16EFC
:10AE70002046884705462068816E2046884786B26E
:10AE800094F83000002818BF02282068826B0AD08E
:10AE900031B220469047206829B2C26B02B02046EA
:10AEA000BDE87040104729B220469047206831B273
:10AEB000C26B02B02046BDE87040104710B5C18C8F
:10AEC000A1F57F42FF3A04BF002010BD04460B48A5
:10AED000006818B10A480088814201D3F5F742FCA6
:10AEE0000848006800F016FB0146206800231A4657
:10AEF000D0F870C02046BDE81040604790040020A4
:10AF00009C040020940400202DE9F0070DF11C0A98
:10AF1000BAE8F01383808471C379DFF828A065F361
:10AF2000060366F3C713C371077280F80980A0F89F
:10AF30000A90A0F80CC0044B036001618282BDE856
:10AF4000F0077047E8E70008A0EC000870B5846AD5
:10AF50000D46002C08BF70BD28682146826828462F
:10AF60009047A469002CF7D170BD00002DE9F04195
:10AF70000E4690F824101F461546002918BF386069
:10AF8000846A002C08BFBDE8F08100BF94F825005A
:10AF9000E0B1B4F90410201DB14217DCB0F904206F
:10AFA0008B189E4212DAB0F9022095420EDBB0F9FE
:10AFB00006001318AB4209DD701A01B2A81A02B2DA
:10AFC00020683B46D0F81CC02046E047A469002C0E
:10AFD000DCD1BDE8F08100002DE9F04F0F4690F87C
:10AFE00025108DB0914600291FBF846A002C0DF1F9
:10AFF0002008002604BF0DB0BDE8F08F94F82500AE
:10B00000002861D0251D3946404601F00FF8B5F9FA
:10B010000030B5F904001A18BDF92000824259DD4C
:10B02000BDF9241000EB010C9C4553DDB5F902106D
:10B03000B5F906A001EB0A0BBDF922A0D34549DD05
:10B04000BDF926B0D3448B4544DD9842D8BF18469D
:10B050008A45C8BF51460FFA8CF312B29342A8BF7B
:10B0600013461A1AADF824206B88B5F806C00FFAFB
:10B070008BF263441BB29A42A8BF1A46521AADF82B
:10B080002000ADF82620ADF8221000BFDDE9080150
:10B09000CDE90001BDF8040000281CBFBDF8060082
:10B0A000002811D0BDF80000A1884A46401AADF82A
:10B0B0000000BDF80200E188401AADF802002068E7
:10B0C0006946C36D20469847A469002C96D10DB0FF
:10B0D000BDE8F08FADF82060ADF82460ADF82260D7
:10B0E000ADF82660D2E710B5814215D04A699AB909
:10B0F0000022C1E90502826A002A04BF816210BDF4
:10B10000906928B18A4207D0024680690028F9D1A7
:10B110008A421CBF916110BDF5F724FB826A002AA8
:10B1200008BF704700238A4207D14B618A69002A11
:10B1300014BF8262836206D170479069884204D14D
:10B14000886990614B618B6170470200F5D170474F
:10B15000AFF300800148006870470000AC68014010
:10B1600010B5C2B1137BB3B1D47A527B02F007029F
:10B1700044EA022213440CE0C46934F822408C42B1
:10B1800005D1C069022101EB8201405610BD521C5D
:10B1900092B29342F0D8002010BD006A70478A88AE
:10B1A0008069D20A096850F822000844704791F873
:10B1B0002820FF2A04D3CA8CA2F57F43FF3B0AD183
:10B1C0004FF0000CA0F800C0A0F802C0A0F804C026
:10B1D000A0F806C070470A894FF0000C4989A0F812
:10B1E00000C0A0F802C08280C1807047F0B504465C
:10B1F00090F8280087B00E46002804BF07B0F0BDC5
:10B20000E08CA0F57F41FF3904BF07B0F0BD0027F7
:10B2100003A9ADF80C003D46084600F073FA6189B9
:10B22000ADF81070ADF81400ADF81250ADF816106E
:10B23000206804A9426A204690470F48006890F8A9
:10B24000761000291ABFC56C002D856803A8E18C13
:10B25000ADF80C1000F032FA0146002294F82800F4
:10B26000CDE900022868334604AAD0F810C0284669
:10B27000E04707B0F0BD00008804002070B400264D
:10B2800091F82CC066F30F0366F30F0266F31F43B9
:10B2900066F31F42BCF1000F04D191F826C0BCF147
:10B2A000FF0F06D1B1F808C049896CF30F0261F3B2
:10B2B0001F420360426070BC7047000010B582B04E
:10B2C0000446684600F0B2FE20686946426A20469D
:10B2D00090470948016891F8760000281ABFC86CA9
:10B2E0000028886894F82630A26A0168D1F81CC04A
:10B2F0006946E04702B010BD880400202DE9F04106
:10B3000018480E461546016947891C4691F8760093
:10B3100000281ABFC86C002888680168496A8847F5
:10B320004FF0000C0D2815D2DFE800F00D0A0710D1
:10B33000101010121212121210004FF0200C09E01F
:10B340004FF0180C06E04FF0100C03E0F5F70AFA86
:10B350004FF0080C07FB05604FEADC0100FB0140E1
:10B36000BDE8F0817804002000207047002070477D
:10B37000808870470FB40A4A10B5DFF824C05268BD
:10B3800005ABDCF800C000EB620012F0010F02D048
:10B39000026852F80CC0049AE04710BC5DF814FB38
:10B3A000C0000020C07900F07F007047C079C0095C
:10B3B000704780897047408970472DE9F04798B001
:10B3C00007461C4615468A466846FAF745FF386820
:10B3D000416C384688470346224629466846FAF7B4
:10B3E00081FA00252E462C46A946A04616AB3A46C1
:10B3F00051466846CDF85890FAF762FE040018BF2F
:10B400000A2C1BD0169A002AEFD03868948841463F
:10B41000C36B3846984701461698427B12F080026B
:10B4200018BF4FF48072807A10430844284485B2D4
:10B43000002CDAD118B03046BDE8F087B54288BF9D
:10B440002E460025F4E781888079084480B2704751
:10B4500000B583B0002200928DF80420026801AB91
:10B46000D2F808C06A46E04703B000BDF0B583B02B
:10B4700005461446684600F0D9FDB4F90000B4F959
:10B4800004104618BDF900108E4238DDBDF90420C5
:10B490008F18874233DDB4F90230B4F9062003EB8C
:10B4A000020CBDF90220944529DDBDF906C0944483
:10B4B0009C4524DD8142D8BF01469A42C8BF13464D
:10B4C0003AB230B28242A8BF0246501AADF8040028
:10B4D0000FFA8CF26088B4F806C0604400B2824271
:10B4E000A8BF0246D01AADF80010ADF80600ADF8BE
:10B4F0000230009828600198686003B0F0BD002019
:10B50000ADF80000ADF80400ADF80200ADF806009B
:10B51000EFE700000348C268806852F8211000EB92
:10B5200041007047B000002002884FF6FE70824252
:10B5300036D22148034641881B698A4220D280685E
:10B5400002EB820100EB81014868002814BF002B48
:10B55000704753F82220002A08BF7047088A4B8A98
:10B56000400BC00040EA53300B280889498900FB92
:10B5700001F018BF4000C01C20F0030010447047C9
:10B58000B0F804C08C4494450AD9511AC068C1EB84
:10B59000C10100EB4100017B01F01F010B2901D02B
:10B5A00000207047018940894843C01C53F822108D
:10B5B00020F003000844704750040020234A10B5CF
:10B5C000D2F808C0BCF1000F16D009885388994200
:10B5D00014D201EB81010CEB81010A8AB1F80CC095
:10B5E000CB89498AA0F800C0C2F30C024380C1F3A2
:10B5F0000C018280C18010BDF5F7B4F8B2F804C028
:10B600009C4461450AD2C91AD268C1EBC10102EB60
:10B6100041010A6802604968416010BDA1F57F429E
:10B620004FF0000CFE3A634609D109490A880949DE
:10B630000988A0F800C043808280C18010BDA0F8B6
:10B6400000C0002243808280C28010BD50040020D0
:10B650007E0400208004002017498B6853B30088C3
:10B660004A88904210D200EB800003EB8000018AF0
:10B670000289C1F30C0191421AD3418A4089C1F376
:10B680000C01814214D315E08B881344984211D2E7
:10B69000801AC968C0EBC00001EB4000B0F904108B
:10B6A0000289914204DBB0F906104089814201DA37
:10B6B0000120704700207047500400200F4A10B549
:10B6C000936873B101884FF6FF70814224BF002058
:10B6D00010BDA1F57F40FE3805D109480068406CD7
:10B6E00010BDF5F73FF81069002819BF50F8210088
:10B6F000002801EB810053F8200010BD5004002009
:10B7000088040020114910B58B68A3B100884A88CD
:10B7100090423CBF00EB800003EB800009D38B8894
:10B720001344984209D2801AC968C0EBC00001EBEB
:10B730004000008910BDF5F715F8A0F57F41FE39EE
:10B7400012BF00200248008810BD000050040020F5
:10B750007E040020184900888B68DBB14A8890423B
:10B760000AD200EB800003EB8000018A408A490B7B
:10B77000C90041EA503070478B881344984209D27F
:10B78000801AC968C0EBC00001EB4000007B00F0EC
:10B790001F007047A0F57F41FE391CBF0020704795
:10B7A0000648016891F8760000281ABFC86C002886
:10B7B00088680168496A084750040020880400200E
:10B7C000114910B58B68A3B100884A8890423CBFEC
:10B7D00000EB800003EB800009D38B881344984270
:10B7E00009D2801AC968C0EBC00001EB4000408953
:10B7F00010BDF4F7B7FFA0F57F41FE3912BF00205E
:10B800000248008810BD0000500400208004002081
:10B8100010B5044691F8320084B0FF2806D2002308
:10B8200023806380A380E38004B010BD91F82C00D6
:10B8300038B130316846FFF7C1FE009820600198AA
:10B8400006E02E3102A8FFF7B9FE029820600398A7
:10B85000606004B010BD00002DE9F047074690F885
:10B860002C0088B00E46002819BF386B0390F88D65
:10B87000ADF80C000024254603A8FFF743FF0FFA9C
:10B8800080F903A8FFF79CFF03B2ADF81840ADF8AC
:10B890001C90ADF81A50ADF81E30B6F90000B6F99C
:10B8A0000410002200EB010C4FF00108BCF1000F66
:10B8B000C4BFA144814568DDB6F90210B6F906A0FF
:10B8C0008A44AA45C4BF2B448B425EDD8442D8BF64
:10B8D00004468D42D8BF0D460FFA89F00FFA8CF15D
:10B8E0008842A8BF0846001BADF81C0019B270883A
:10B8F000F388184400B28142B8BF0846401BADF837
:10B900001840ADF81E00ADF81A5025480068002810
:10B9100044D0BDF80C00A0F57F41FF3919BFBDF838
:10B920001C00002808B0BDE8F087BDF81E00002804
:10B9300004BF08B0BDE8F087ADF81020ADF81420C2
:10B94000ADF81220ADF81620386804A9426A3846CE
:10B9500090471448016891F8760000281ABFC86C17
:10B960000028886897F8321006AACDE90021CDF8A2
:10B9700008800168BDF91230BDF91020D1F80CC063
:10B9800003A9E04708B0BDE8F087ADF81820ADF88E
:10B990001C20ADF81A20ADF81E20B6E7F4F7E2FE41
:10B9A000580400208804002000B5D0E9011283B0BB
:10B9B000CDE900120021ADF80010ADF802100168C9
:10B9C0000A696946904703B000BD2DE9F0038288FB
:10B9D0000B8800261A4414B20C80C2884B881A4483
:10B9E0000FFA82FCA1F802C0B0F90420B0F90850A7
:10B9F000031D5719A74243DDB1F9045004EB0508B4
:10BA000090453DDDB3F90250B3F90690A944E145F4
:10BA100036DDB1F90690E144A94531DD9442C8BF55
:10BA20002246AC45D8BFAC460FFA88F43DB2AC42D2
:10BA3000A8BF2C46A41A8C804D88CC882C445D88E5
:10BA4000DB8824B22B441BB29C42A8BF1C46A4EB4B
:10BA50000C03CB800A80A1F802C08A88002A19BF93
:10BA6000CA88002ABDE8F00370474069002804BF77
:10BA7000BDE8F00370470268126ABDE8F0031047A2
:10BA80000E804E808E80CE80BDE8F0037047F0B50A
:10BA90000D4607468088098885B0084406B22E8086
:10BAA000F8886988084404B26C80391D684600F043
:10BAB000BDFAB5F904003318BDF90000834240DD3A
:10BAC000BDF9041000EB010CB4453ADDB5F90610E0
:10BAD0006218BDF902108A4233DDBDF906200A441E
:10BAE000A2422EDDB042C8BF0646A142C8BF0C46E6
:10BAF0000FFA8CF118B28142B8BF0846801BADF82E
:10BB0000040011B26888EA88104400B28142B8BFCC
:10BB10000846001BADF80060ADF80600ADF8024025
:10BB2000009802900198039002A9284600F07EFA3E
:10BB3000786980B101680A6905B02946BDE8F0401E
:10BB400010470020ADF80000ADF80400ADF8020089
:10BB5000ADF80600E4E7F9F7BDF80168CA6A05B078
:10BB60002946BDE8F040104710B50A4682B00446A9
:10BB7000098950894FF0000CADF800C0ADF80410F1
:10BB8000ADF802C0ADF8060010686946436A104679
:10BB90009847009820600198606002B010BD8288CC
:10BBA0000B881A440A80C2884B881A444A8040692C
:10BBB000002808BF70470268526A1047002070478B
:10BBC000054810B5008800281EBF4FF6FF7101EA36
:10BBD000400010BDF4F7C6FD820400204FF4784009
:10BBE00000EA01204FF4FC6101EAC201084340EA87
:10BBF000D3007047102070474FF0000CA0F800C031
:10BC0000A0F802C0A0F804C0A0F806C07047000069
:10BC1000F8B5C18C0646A1F57F40FF3808BFF8BDD6
:10BC2000134D2868A0B1134F3A88914210D2124A9E
:10BC300010F81100126852F8204010480068FFF711
:10BC400069FC0246286818B1F18C3B88994201D3FF
:10BC5000F4F788FD00EB41004078C0F3810100203B
:10BC6000009020680023D0F81CC02046E047F8BDB3
:10BC7000900400209C0400209804002094040020DC
:10BC80000FB42DE9F0470446C08C98B0A0F57F4171
:10BC9000FF3901BF002018B0BDE8F0075DF814FBC4
:10BCA0000DF1880A294F396841B3DFF8A480B8F84C
:10BCB0000020904222D2DFF89C9011F81000D9F8B1
:10BCC000001051F820603068016B3046884705B29B
:10BCD00002A8FAF7C1FA3068416C3046884703463B
:10BCE000524602A82199F9F7FDFDB4F908003A6817
:10BCF00022B1E18CB8F80030994201D3F4F732FD5B
:10BD000012F81130D9F800C002EB410149785CF813
:10BD100023300090C1F3810294F8311002A8FBF7A0
:10BD200017FCB4F92C1000B24A19002A05DD00FBFB
:10BD300005F2401E00FB012502E00028D8BF0025C7
:10BD400028B218B0BDE8F0075DF814FB900400209D
:10BD50009C040020980400202DE9F04F0446C08C7C
:10BD60000F46A0F57F418BB0FF3904BF0BB0BDE893
:10BD7000F08F2E490968B9B32D4A1388984233D2FF
:10BD80002C4A11F81000126852F82000002804BF55
:10BD90000BB0BDE8F08F94F82EA0E28CB4F82C9094
:10BDA00001EB420194F83080497894F82F5094F8D0
:10BDB00031C0D4F828B001F00302C1F381018DF83D
:10BDC00026A08DF81C208DF81D10ADF82490CDF81C
:10BDD00020B006908DF81E808DF827508DF828C071
:10BDE000E18C0026994201D3F4F7BCFC12480068AC
:10BDF000FFF790FB0546214604A8FFF7B5FE0F4864
:10BE0000016891F8760000281ABFC86C002888687D
:10BE100006A90091CDE90156DDE904123B460396DF
:10BE2000FBF71EFB0BB0BDE8F08F00009004002074
:10BE30009C04002098040020940400208804002022
:10BE40002DE9F0470446808A17460022A0F1010C34
:10BE500004251E46BCF1000FA8BF23691ADB00BFF2
:10BE600002EB0C0000EBD0704010C0EBC00805EBFB
:10BE7000480833F80890894538BF421C88BFA0F1B4
:10BE8000010C05D1C0EBC00013EB400828D101E044
:10BE90006245E5DD002918BF0A2931D02068016913
:10BEA000204688470346A08A0022401E0028A8BFDB
:10BEB000D4F810C024DB111801EBD1714910C1EB8B
:10BEC000C10805EB48083CF80880984538BF4A1C73
:10BED00088BF481E12D1C1EBC1001CEB40080FD037
:10BEE00020684146826C2046904738602068416B4C
:10BEF0002046884730704046BDE8F0878242DADD50
:10BF00000020BDE8F0874FF0000CA0F800C0A0F8BA
:10BF100002C0A0F804C0A0F806C0704790F8252021
:10BF2000002A08BF70472DE9F043846A87B0002CCF
:10BF300004BF07B0BDE8F08304A800F077F86F46AF
:10BF40005FF0000694F82500002860D0251D04A9A4
:10BF5000384600F06BF8B5F90020B5F90400BDF9DA
:10BF6000001002EB000C8C4557DDBDF9040001EB1D
:10BF70000009914551DDB5F90230B5F9060003EB32
:10BF80000008BDF90200804547DDBDF90680804408
:10BF9000984542DD9142D8BF11469842D8BF184615
:10BFA0000FFA89F20FFA8CF39A42A8BF1A46521A76
:10BFB000ADF804206A88EB880FFA88FC1A4412B2A4
:10BFC0009445B8BF6246121AADF80010ADF80620CD
:10BFD000ADF80200DDE90001CDE90201BDF80C0079
:10BFE00000281CBFBDF80E00002810D0BDF80800C6
:10BFF000A188401AADF80800BDF80A00E188401A8F
:10C00000ADF80A00206802A9826820469047A4691A
:10C01000002C97D107B0BDE8F083ADF80060ADF813
:10C020000460ADF80260ADF80660D3E70A684B68BB
:10C030000260436070470907090E002804DB00F125
:10C04000E02080F80014704700F00F0000F1E020BD
:10C0500080F8141D70472DE9F0411C4617460E006C
:10C06000804607D0054602E02846B0473D442046BA
:10C07000641EF9D24046BDE8F081016809B1002094
:10C08000704701210160084670470020F4F768BD41
:10C0900005484FF0000CA0F800C0A0F802C0A0F8BE
:10C0A00004C0A0F806C070474804002010B5F7F798
:10C0B000EFFF044C2060F8F723F86060F7F7B0FF5B
:10C0C000A06010BDBC9700207CB5194819491A4AD8
:10C0D00001601A49F4F751FB1948F8F7C9F9164AF3
:10C0E0001849F4F74AFB1848FEF78AFE124A174926
:10C0F000F4F743FB0E481649001D0F4A016015492D
:10C10000F4F73BFB10484FF448744FF4F075783067
:10C110000B490D4A064BCDE90045FBF74BF90E499B
:10C12000016002B0044ABDE870400C49F4F725BB39
:10C130001400002040E400080000000885490008C1
:10C1400010090020A94400083015002045AE000861
:10C1500058E400084D4A000884E200087D450008C4
:10C1600001480021016070478C04002030380A2803
:10C1700001D20120704700207047704770470000CF
:10C1800010B504460420F6F7A6FF0148046010BD70
:10C190004C03002003490A685206FCD5C2B24A602B
:10C1A000704700000010014010B5124C206820F4C8
:10C1B00040602060206840F48060206000222021E0
:10C1C0002046F5F780FD00F017F8012210212046E7
:10C1D000F5F779FD00F010F8002210212046F5F760
:10C1E00072FD00F009F820460122BDE81040202130
:10C1F000F5F769BD001C02400020401CC0B2322887
:10C20000FBD3704710B5104C206820F440602060CC
:10C21000206840F480602060012220212046F5F74C
:10C2200052FDFFF7E9FF012210212046F5F74BFDF3
:10C23000FFF7E2FF002210212046F5F744FDBDE89C
:10C240001040FFF7D9BF0000001C024070B5002469
:10C25000124E25466006040E306820F440603060BF
:10C2600030683060012210213046F5F72CFDFFF7D1
:10C27000C3FF20213046F5F721FD08B1641CE4B26C
:10C28000002210213046F5F71EFDFFF7B5FF6D1CAB
:10C29000EDB2082DDED3204670BD0000001C024028
:10C2A00070B5194E0546306820F440603060306843
:10C2B00040F4806030600024280601D5012200E0AF
:10C2C000002220213046F5F7FEFCFFF795FF012202
:10C2D00010213046F5F7F7FCFFF78EFF0022102102
:10C2E0003046F5F7F0FC072C04D10122202130461E
:10C2F000F5F7E9FC6806050EFFF77EFF641CE4B263
:10C30000082CD9D370BD0000001C024010B5124C9F
:10C31000206820F440602060206840F48060206045
:10C32000012220212046F5F7CEFC012210212046D3
:10C33000F5F7C9FCFFF760FF002220212046F5F742
:10C34000C2FCFFF759FF002210212046F5F7BBFC85
:10C35000BDE81040FFF750BF001C024010B50E4C66
:10C36000206820F440602060206840F480602060F5
:10C37000002220212046F5F7A6FC012210212046AC
:10C38000F5F7A1FCFFF738FF20460122BDE8104079
:10C390002021F5F798BC0000001C024070B5134D39
:10C3A0002C46286820F44060286028682860012214
:10C3B00020212846F5F787FCFFF71EFF01221021F8
:10C3C0002046F5F780FCFFF717FF20212046F5F700
:10C3D00075FC08B1012400E0002400221021284649
:10C3E000F5F771FCFFF708FF204670BD001C024006
:10C3F00088B0F5F7B3FDF7F7AFFBF7F74BF9234933
:10C40000214808600846F5F78FF8224820490024A3
:10C41000C0E900148460C4608462C462046344633D
:10C42000F5F74FFA01211B48F5F72EF9F7F7FEF85B
:10C43000F7F702FA1948184901604FF4E131C0E9F1
:10C4400001140C21C460C0E904418461C461F6F7A1
:10C450003EFFF7F785FAF7F7CDF9F7F79BFAB42027
:10C46000FFF78EFEF7F7D8FC1C220D496846F4F75B
:10C47000E0F90021684600F027F80449091F086028
:10C4800000F01DF8FEE70000003002400800002028
:10C4900000B00240A4040020001001403806002033
:10C4A0007CE0000801460020842900D0C81C7047A9
:10C4B00010B500B9012000F02DFC002010BD10B512
:10C4C00000F0CAFC002010BD7FB50D46044641694E
:10C4D000B0F9080081B1A16971B1FFF7E3FFD4E9B8
:10C4E00005128DE80700D4E900102B46226901F0FF
:10C4F0001EF9039004B070BDFFF7D4FF03A9CDE986
:10C500000001208A2B4682B2D4E9001001F0E2F843
:10C51000012801D00020EDE70398EBE72DE9F04179
:10C52000184E0F46044675693068001D00F004FB84
:10C5300038B9306890F82C1001208840B1698143E7
:10C54000B161601C07D137B13168BDE8F0410E48D8
:10C55000091D00F035BB30682C44AC4244603168A2
:10C5600005D2B068BDE8F041091D00F011BB70684C
:10C57000091D00F00DFB306B844200D23463BDE82E
:10C58000F0810000440000203C1700202DE9F0411C
:10C59000054600F021FB2E4E3069401C30613068AA
:10C5A0002C4F10B1F06940B32DE03560306901289F
:10C5B00029D1002404EB840007EB800000F0DAFAB4
:10C5C000641C072CF6D323488C3000F0D3FA2148A2
:10C5D000A03000F0CFFA1F48B43000F0CBFA1D486D
:10C5E000C83000F0C7FA1B48DC3000F0C3FA194825
:10C5F0008C3070601430B06005E03068E96AC06A61
:10C60000884200D83560F06A0121401CF062E86A77
:10C61000B26981401143B16100EB800007EB8000FB
:10C62000291D00F0CDFA00F0F7FAF06900280CD0CF
:10C630003068E96AC06A884207D207494FF08050E3
:10C640000860BFF34F8FBFF36F8FBDE8F08100002C
:10C65000440000206016002004ED00E030B4026CBD
:10C660000B46002A0BD0C1681144C1608468A14206
:10C6700001D30168C16030BC1846F4F795B830BCEE
:10C6800070472DE9F041856B174604460026026C81
:10C6900082B1C7B1E068F4F787F8E168206C091A45
:10C6A000E1602268914202D2A168081AE060022F7C
:10C6B00016D017E02068A8B9A06801F0D7F80646A0
:10C6C0000020A0600EE06068F4F76EF8216C6068EE
:10C6D00008446060A168884204D32068606001E07B
:10C6E00005B16D1E6D1CA5633046BDE8F08110B527
:10C6F000044690F8510058B101280CD002280FD000
:10C70000502080F31188BFF34F8FBFF36F8FFEE788
:10C71000206B00F095FA2046BDE8104000F090BA7A
:10C7200010BD000010484FF40041420706D0C01D64
:10C730000D4920F00700411AC1F500410B4A0023C2
:10C740000144C2E900030839103A21F007011160E1
:10C750004B600B600B1AC0E9001393604FF0004070
:10C760005360D060704700005017002090000020F8
:10C77000134E144DA6F1C8074FF08058DFF84890CB
:10C7800011E000F029FAF068C468201D00F0D4F927
:10C790002869401E2861E868401EE86000F03CFA05
:10C7A0002046FFF7A4FFE8680028EAD1386801288E
:10C7B000F9D9C9F80080BFF34F8FBFF36F8FF2E74D
:10C7C000281700204400002004ED00E003460098F4
:10C7D00029B10260C0E90F31012100F047BC0060BF
:10C7E000F8E72DE9F0479A46DDE9098481466FF0C4
:10C7F0000303206B03EB82021044089D20F0070620
:10C80000700707D0502080F31188BFF34F8FBFF31C
:10C810006F8FFEE7002761B1002023180A5C83F8C0
:10C8200034200A5C12B1401C1028F6D384F84370FF
:10C8300001E084F83470072D00D30625E562C4E9D1
:10C840001157201D00F0A1F904F1180000F09DF926
:10C850002461C5F107006462A061E76484F8507048
:10C8600052464946304600F00FF92060B8F1000FFB
:10C8700001D0C8F80040BDE8F087000030B511498C
:10C8800000E011460A688242FBD34B685C18844280
:10C8900003D1406818444860084643681C18944215
:10C8A00009D1084C103C2468A24209D052681A44AD
:10C8B00042600A6812680260814200D0086030BDA0
:10C8C0000460F9E79000002010B5044600F084F9F8
:10C8D000A06B20B1002400F09FF9204610BD012478
:10C8E000F9E7000006484168096829B14168C9684C
:10C8F000C9684968016370474FF0FF31FAE70000EB
:10C900004400002008484068401C4FF0500080F36D
:10C91000118804D0BFF34F8FBFF36F8FFEE7BFF3D3
:10C920004F8FBFF36F8FFEE7980000202DE9F04195
:10C93000044600F051F994F9455004F1240609E049
:10C94000606A48B1304601F027F808B100F010FAEB
:10C950006D1E6DB2002DF3DC4FF0FF3684F845609C
:10C9600000F05AF900F038F994F9445004F1100736
:10C9700009E0206948B1384601F00EF808B100F02E
:10C98000F7F96D1E6DB2002DF3DC84F84460BDE84C
:10C99000F04100F041B900002DE9F04105460026C4
:10C9A00000F090FA314F386808B9FFF7BBFEF8681D
:10C9B00005424BD1C5B3083568070ED005F0070016
:10C9C000C0F108000544680707D0502080F31188A3
:10C9D000BFF34F8FBFF36F8FFEE72DB378688542AB
:10C9E00034D8224910310846046801E02146044643
:10C9F0006068A84202D220680028F7D138688442D3
:10CA000024D00E682068086060680836411B102931
:10CA10000FD96019420708D0502080F31188BFF366
:10CA20004F8FBFF36F8FFEE710E041606560FFF747
:10CA300025FF61687868401A7860BA68904200D231
:10CA4000B860F86801430020C4E9000100F0DEFF8F
:10CA5000700707D0502080F31188BFF34F8FBFF3CA
:10CA60006F8FFEE73046BDE8F081000080000020B7
:10CA70000449086818B10868826C521C826408680E
:10CA8000704700004400002010B5031F4FF0807471
:10CA90001C601B1F21F001011960191F044B0B6062
:10CAA00014390A60091F6FF0020244380A6010BD91
:10CAB00005C9000838B5F7F7B7FD0446F7F7B0FD2C
:10CAC0000022134621460092FBF7EAFC1149104868
:10CAD00008600020FBF724FA0D480830F8F7F8FE4C
:10CAE0000D480078C0070DD10B48FFF7C6FA48B1D2
:10CAF0000A48F7F745FD0A4A0A49F3F73EFE064899
:10CB0000AFF30080BDE838400748F7F717BD0000D5
:10CB10001000002094040020A0040020749800203D
:10CB200000000008F9450008A81500200148FAF7A0
:10CB30002FBC0000A8150020D0E9013201699A60DD
:10CB4000D0E901235A604A68824201D182684A6072
:10CB5000002202610868401E0860086870470000F3
:10CB6000034B036003F1540008608020106070479D
:10CB7000BC06002000F108014FF0FF32C0E90112AD
:10CB8000C1600161002101607047002101617047AF
:10CB900030B50C68621C02D000F1080202E00269A4
:10CBA00004E01A4653681D68A542FAD953684B60E1
:10CBB00099608A60516008610168491C016030BD5C
:10CBC00042684A6093688B6093685960916008611D
:10CBD0000168491C01607047502080F31188BFF341
:10CBE0004F8FBFF36F8F0A494868401C4860012887
:10CBF0000CD10848006810F0FF0F07D0502080F3D8
:10CC00001188BFF34F8FBFF36F8FFEE770470000AF
:10CC10009800002004ED00E00849486828B1401E53
:10CC2000486001D180F311887047502080F311884B
:10CC3000BFF34F8FBFF36F8FFEE700009800002017
:10CC400070B5002827D0144DA0F108046068E96889
:10CC5000084207D1502080F31188BFF34F8FBFF3F4
:10CC60006F8FFEE722683AB1502080F31188BFF33E
:10CC70004F8FBFF36F8FFEE78843606000F022F9AB
:10CC800060686968084468602046FFF7F7FDBDE802
:10CC9000704000F0BBBE70BD800000204FF0E0206F
:10CCA00000210161816105494FF47A720968B1FB85
:10CCB000F2F1491E416107210161704740000020E7
:10CCC00010B5F3F753FB114910280ED300F1E02003
:10CCD00090F8F0030A78904207D2502080F3118830
:10CCE000BFF34F8FBFF36F8FFEE709480068896875
:10CCF00000F4E060884207D9502080F31188BFF328
:10CD00004F8FBFF36F8FFEE710BD0000980000202B
:10CD10000CED00E010B5020014D00F48806B38B164
:10CD2000502080F31188BFF34F8FBFF36F8FFEE762
:10CD300000F0C8F800211046FFF7F0FB00F066FE97
:10CD4000002807D105494FF080500860BFF34F8F8E
:10CD5000BFF36F8F10BD00004400002004ED00E021
:10CD600002498A6A026049694160704744000020B4
:10CD700001490120486270474400002010B50C466C
:10CD800050B1094909681831FFF702FF2046BDE894
:10CD900010400121FFF7C2BB502080F31188BFF380
:10CDA0004F8FBFF36F8FFEE74400002070B50B4636
:10CDB00004004BD0A26CA2B1616C994200D219461A
:10CDC000E06A884242D0012A40D1214D2A6894422B
:10CDD0000FD1502080F31188BFF34F8FBFF36F8FB7
:10CDE000FEE7502080F31188BFF34F8FBFF36F8FA2
:10CDF000FEE7E162A269002A02DBC1F10701A1613D
:10CE0000144E00EB8000616906EB800081421DD169
:10CE1000201DFFF791FE012150B9E06A00EB80026E
:10CE200056F8222022B901FA00F2A8699043A861BD
:10CE3000E06AAA6981401143A96100EB800006EB1A
:10CE40008000211DBDE87040FFF7BABE70BD000034
:10CE5000440000206016002010B586B00024039422
:10CE600005AA04A903A80494FFF77AFEDDE90301EB
:10CE70000094CDE9011000230EA11048059A00F09E
:10CE800056FC0F490028486311D0502080F31188C8
:10CE9000BFF34F8FBFF36F8F4FF0FF300863012058
:10CEA000C8614C6106B0BDE8104000F041B806B062
:10CEB00010BD000049444C450000000071C7000847
:10CEC000440000200248816B491C816370470000C8
:10CED00044000020144A906B10B10120506270474A
:10CEE0000020506290691149B0FA80F0C0F11F0033
:10CEF00000EB800051F820306BB101EB800000F1B5
:10CF00000803416849684160994201D1496841601C
:10CF1000C86810607047502080F31188BFF34F8FAE
:10CF2000BFF36F8FFEE70000440000206016002072
:10CF30001CB537480168374A914207D1502080F329
:10CF40001188BFF34F8FBFF36F8FFEE70068314941
:10CF5000491E884207D1502080F31188BFF34F8FBC
:10CF6000BFF36F8FFEE72C4908780190FF2008700F
:10CF700008788DF800009DF800009DF8002000F072
:10CF8000F000904207D0502080F31188BFF34F8FFC
:10CF9000BFF36F8FFEE79DF80000204B00F05000BC
:10CFA00018700720986006E0401E98609DF8000009
:10CFB00040008DF800009DF8000000069868F3D44A
:10CFC000032807D0502080F31188BFF34F8FBFF3A1
:10CFD0006F8FFEE74FF440709860019808700C481E
:10CFE0002030016841F470010160016841F0704136
:10CFF0000160FFF753FE00205860F3F77FF90848FF
:10D00000016841F040410160F3F764F900201CBD64
:10D0100000ED00E071C20F4100E400E09800002044
:10D0200034EF00E0F8B517460E46050014D0DEB127
:10D0300005FB06F04830FFF7AFFC04000AD00020E3
:10D0400084F8460004F148023B46314628460094E5
:10D05000FFF7BCFB2046F8BD502080F31188BFF3DA
:10D060004F8FBFF36F8FFEE70020E3E770B50D46EB
:10D07000040025D0FFF7B0FDD4E90F20216802FBA2
:10D080000011A1600021A163216861600A46D4E912
:10D090000F01401E00FB0121E16021464FF0FF30EF
:10D0A00001F8440F487004F110008DB1FFF762FDE4
:10D0B00004F12400FFF75EFDFFF7AEFD012070BD17
:10D0C000502080F31188BFF34F8FBFF36F8FFEE7BF
:10D0D00021690029F0D000F05FFC0028ECD0044961
:10D0E0004FF080500860BFF34F8FBFF36F8FE3E7BF
:10D0F00004ED00E02DE9FF4F83B01F468B4604008E
:10D100004FF0000603D0BBF1000F08D011E0502013
:10D1100080F31188BFF34F8FBFF36F8FFEE7206C52
:10D1200038B1502080F31188BFF34F8FBFF36F8F5A
:10D13000FEE7022F0AD1E06B012807D0502080F3D0
:10D140001188BFF34F8FBFF36F8FFEE700F01CFB1A
:10D15000DFF800914FF0000A4FF0805848B9059869
:10D1600038B1502080F31188BFF34F8FBFF36F8F1A
:10D17000FEE7FFF731FDA06BE16B884205D3022F7C
:10D1800003D00598C8B1DEB11EE03A4659462046A4
:10D19000FFF777FA616A19B104F1240000F0FCFB93
:10D1A00028B1C9F80080BFF34F8FBFF36F8FFFF72F
:10D1B00033FD012007B0BDE8F08FFFF72DFD21E022
:10D1C0006846FFF7CDFD0126FFF726FDFFF77AFE43
:10D1D000FFF702FD94F94400401C01D184F844A0FB
:10D1E00094F94500401C01D184F845A0FFF714FDD7
:10D1F00005A9684600F034FA30B12046FFF796FBE7
:10D2000000F004FC0020D5E7FFF7E6FCA06BE16B23
:10D21000884201D1012500E00025FFF7FDFC95B112
:10D2200004F110000599FFF7A9FD2046FFF77EFBEA
:10D2300000F0ECFB00289CD1C9F80080BFF34F8FB1
:10D24000BFF36F8F95E72046FFF770FB00F0DEFB22
:10D250008FE7000004ED00E02DE9F0471F469046FF
:10D260008946040003D0B9F1000F08D011E0502026
:10D2700080F31188BFF34F8FBFF36F8FFEE7206CF1
:10D2800038B1502080F31188BFF34F8FBFF36F8FF9
:10D29000FEE7022F0AD1E06B012807D0502080F36F
:10D2A0001188BFF34F8FBFF36F8FFEE7FFF708FDC5
:10D2B0005020EFF3118680F31188BFF34F8FBFF337
:10D2C0006F8FA06BE16B884206D3022F04D0002041
:10D2D00086F31188BDE8F08794F945503A464946EF
:10D2E0002046FFF7CEF9681C04D06D1C84F8455029
:10D2F0000120EDE7606A0028FAD004F1240000F074
:10D300004BFB0028F4D0B8F1000FF1D00121C8F890
:10D310000010EDE770B50E46040009D0206C78B11E
:10D32000502080F31188BFF34F8FBFF36F8FFEE75C
:10D33000502080F31188BFF34F8FBFF36F8FFEE74C
:10D34000206848B9A06838B1502080F31188BFF335
:10D350004F8FBFF36F8FFEE7FFF7B2FC5020EFF364
:10D36000118580F31188BFF34F8FBFF36F8FA16BCF
:10D37000E06B884218D994F94500491CA163411C0F
:10D3800004D0401C84F8450001200EE0606A0028AB
:10D39000FAD004F1240000F0FFFA0028F4D0002EA7
:10D3A000F2D001203060EFE7002085F3118870BDD6
:10D3B0002DE9F74783B08A4604004FF0000603D0FA
:10D3C000BAF1000F08D011E0502080F31188BFF3AC
:10D3D0004F8FBFF36F8FFEE7206C38B1502080F382
:10D3E0001188BFF34F8FBFF36F8FFEE700F0CCF9CA
:10D3F000DFF8F09000274FF0805848B9059838B111
:10D40000502080F31188BFF34F8FBFF36F8FFEE77B
:10D41000FFF7E2FBA56BC5B151462046FFF71EF9A9
:10D420006D1EA563206950B104F1100000F0B4FA3C
:10D4300028B1C9F80080BFF34F8FBFF36F8FFFF79C
:10D44000EBFB012006B0BDE8F087059808B11EB1DE
:10D4500006E0FFF7E1FB27E06846FFF781FC0126C5
:10D46000FFF7DAFBFFF72EFDFFF7B6FB94F9440058
:10D47000401C01D184F8447094F94500401C01D14E
:10D4800084F84570FFF7C8FB05A9684600F0E8F886
:10D49000002820460AD0FFF749FA00F0B7FA2046E4
:10D4A000FFF712FA0028B3D00020CBE7FFF70CFA01
:10D4B00090B104F124000599FFF760FC2046FFF7C6
:10D4C00035FA00F0A3FA0028A2D1C9F80080BFF312
:10D4D0004F8FBFF36F8F9BE72046FFF727FA00F0CF
:10D4E00095FA95E704ED00E02DE9F3434FF00005D0
:10D4F00083B004002E4609D0206C78B1502080F310
:10D500001188BFF34F8FBFF36F8FFEE7502080F37A
:10D510001188BFF34F8FBFF36F8FFEE700F034F930
:10D52000DFF8389100274FF0805848B9049838B197
:10D53000502080F31188BFF34F8FBFF36F8FFEE74A
:10D54000FFF74AFBA06BC8B1401EA063206810B96A
:10D55000FFF78EFAA060206950B104F1100000F0CE
:10D560001BFA28B1C9F80080BFF34F8FBFF36F8F4C
:10D57000FFF752FB012005B0BDE8F083049808B125
:10D5800065B10FE03EB1502080F31188BFF34F8F9B
:10D59000BFF36F8FFEE7FFF73FFB5DE06846FFF7E5
:10D5A000DFFB0125FFF738FBFFF78CFCFFF714FBCF
:10D5B00094F94400401C01D184F8447094F945006A
:10D5C000401C01D184F84570FFF726FB04A968468A
:10D5D00000F046F80028204612D0FFF7A7F900F027
:10D5E00015FA2046FFF770F90028A9D09EB3FFF77F
:10D5F000F3FA606A50B3206B0068C0F1070126E0BF
:10D60000FFF762F9E0B1206838B9FFF7E5FAA068E2
:10D6100000F078F90646FFF7FFFA04F124000499B8
:10D62000FFF7ACFB2046FFF781F900F0EFF9002887
:10D6300086D1C9F80080BFF34F8FBFF36F8F7FE7AC
:10D640002046FFF773F900F0E1F979E70021A068BF
:10D65000FFF7ACFB9FE7FFE700208CE704ED00E05D
:10D660002DE9F0410C46050011D0C4B1FFF7B4FA22
:10D67000174E71696B682268C81A571C17D02F683B
:10D68000B66AB74219D08B4217D8012410E0502057
:10D6900080F31188BFF34F8FBFF36F8FFEE75020E9
:10D6A00080F31188BFF34F8FBFF36F8FFEE7002425
:10D6B000FFF7B2FA2046BDE8F081824205D9101A80
:10D6C00020602846FFF74CFBF1E700202060DCE7F4
:10D6D000440000202DE9FF5F8346DDE90E8799466F
:10D6E00016468A469000FFF757F905001CD05420D3
:10D6F000FFF752F9040014D00020256384F851008C
:10D70000CDE90240CDE900874B46324651465846A6
:10D71000FFF767F82046FEF739FF012004B0BDE8A7
:10D72000F09F2846FFF78CFA4FF0FF30F6E7F0B590
:10D7300085B00546DDE90B040A9EA8B1E4B1542783
:10D7400000972063022084F851000020CDE90240B8
:10D7500004AF2846CDE90067FFF743F82046FEF7FF
:10D7600015FF049805B0F0BD502080F31188BFF379
:10D770004F8FBFF36F8FFEE7502080F31188BFF308
:10D780004F8FBFF36F8FFEE70548C16919B1806BFA
:10D7900018B1002070470120704702207047000038
:10D7A000440000202DE9F0412E4F0026B86B40B117
:10D7B000386A401C3862786A00B101263046BDE8FC
:10D7C000F0817D696D1C7D6113D17868006838B186
:10D7D000502080F31188BFF34F8FBFF36F8FFEE7A8
:10D7E0007868B9687960B860B86A401CB862FFF7B9
:10D7F00079F8386BDFF87080854209D37868006863
:10D8000080B17868C068C468606885420DD23863AA
:10D810003868C06A00EB800158F821000128CAD995
:10D820000126C8E74FF0FF30F1E7201DFFF784F92C
:10D83000A06A18B104F11800FFF77EF9E06A01212F
:10D84000BA6981401143B96100EB800108EB8100A6
:10D85000211DFFF7B5F9E06A3968C96A8842CDD35E
:10D860000126CBE7440000206016002070B50400BC
:10D870004FF0000041D0214D29688C4207D0502044
:10D8800080F31188BFF34F8FBFF36F8FFEE7A16C5A
:10D8900071B1491EA164636CE26A9A422DD00029DD
:10D8A0002BD1201DFFF748F91549012240B112E0A4
:10D8B000502080F31188BFF34F8FBFF36F8FFEE7C7
:10D8C000E06A00EB800351F8233023B9AB6902FA18
:10D8D00000F08343AB61606CE062C0F10700A061BF
:10D8E000E06AAB6982401A43AA6100EB800001EB59
:10D8F0008000211DFFF764F9012070BD4400002065
:10D900006016002070B504004FF0000039D0204DA3
:10D91000E16A2A68D26A914234D2A069002804DB05
:10D920002868C06AC0F10700A061E06A194E00EBE8
:10D930008000616906EB800081421ED1201DFFF747
:10D94000FBF8012150B9E06A00EB800256F8222072
:10D9500022B9AA6901FA00F08243AA612868C06A64
:10D96000E062AA6981401143A96100EB800006EBE7
:10D970008000211DFFF724F902E02868C06AE062F8
:10D98000012070BD616C2A68D26A9142F8D370BDE3
:10D9900044000020601600202DE9F041C068C468F2
:10D9A000ACB104F118000746FFF7C6F8154DA86B97
:10D9B0000126A0B139461448FFF702F9E06A296848
:10D9C000C96A88421CD901206E62BDE8F0815020EE
:10D9D00080F31188BFF34F8FBFF36F8FFEE7201DD9
:10D9E000FFF7AAF8E06AAA6906FA00F11143A961F3
:10D9F000054900EB8000B43901EB8000211DDBE715
:10DA00000020E2E744000020141700202DE9F04731
:10DA10002C4D00242746A86B38B1FFF7DDF8A86B22
:10DA2000401EA863A86B40B146E0502080F31188E7
:10DA3000BFF34F8FBFF36F8FFEE72869224901269E
:10DA4000D0B3A1F1B4098846D8F80010E9B1D8F8EC
:10DA50000C00C46804F11800FFF76EF8201DFFF7F2
:10DA60006BF8E06AAA6906FA00F11143A96100EBBC
:10DA7000800109EB8100211DFFF7A2F8E06A296807
:10DA8000C96A8842E0D36E62DEE70CB1FEF72AFF76
:10DA90002C6A3CB1FFF786FE00B16E62641EF9D1BC
:10DAA00000202862686A38B10849012738070860F1
:10DAB000BFF34F8FBFF36F8FFFF7AEF83846BDE867
:10DAC000F0870000440000201417002004ED00E05F
:10DAD0002DE9F047824690688946984601681446C9
:10DAE000089F096A8847E8280BD360680168096ABB
:10DAF0008847102805D3E0680168096A88470C2820
:10DB000001D2F2F72FFE424649465046F8F762FE30
:10DB1000E06800210268526A904718B1F7F7D0F820
:10DB20001649016006460021A06800F013FA18B1FA
:10DB3000F6F7E4FC054600E000250021606800F0EF
:10DB40000CFA20B12946F6F7CBFE044600E000248B
:10DB5000C8F80060C9F80040CAF800500CB1201D98
:10DB600000E000203860A760324621462846EC637A
:10DB7000F8F75AFE2046BDE8F08700002CE50008C3
:10DB80002DE9F04782469068894698460168144618
:10DB9000089F096A8847E8280BD360680168096A0A
:10DBA0008847102805D3E0680168096A8847542827
:10DBB00001D2F2F7D7FD424649465046F8F70AFE31
:10DBC0000021E06800F0CCF920B1142100F054F9F4
:10DBD000064600E000260021A06800F0BBF918B15D
:10DBE000F6F78CFC054600E000250021606800F097
:10DBF000B4F920B12946F6F773FE044600E000248C
:10DC0000C8F80060C9F80040CAF800500CB1201DE7
:10DC100000E000203860A760324621462846EC63C9
:10DC2000F8F702FE2046BDE8F0872DE9F04782466E
:10DC300090688946984601681446089F096A884793
:10DC4000E8280BD360680168096A8847102805D363
:10DC5000E0680168096A8847542801D2F2F782FD1A
:10DC6000424649465046F8F7B5FD0021E06800F00D
:10DC700077F920B1142100F0FFF8064600E00026F5
:10DC8000A06800210268526A904718B1F6F748FC74
:10DC9000054600E00025606800210268526A90474E
:10DCA00020B12946F6F72AFE044600E00024C8F811
:10DCB0000060C9F80040CAF800500CB1201D00E017
:10DCC00000203860A760324621462846EC63F8F70A
:10DCD000ABFD2046BDE8F08770B504462748012516
:10DCE0000078B0B194F84E00401CC0B284F84E00E9
:10DCF00094F84D30984227D8B4F950200021F8F715
:10DD000058FCA4F85200C1070AD0002803DD012105
:10DD100003E0257270BD4FF0FF310844A4F85200B3
:10DD200094F84C0004F10C03E0B101281AD0022849
:10DD30000FD003280DD02572606801688A6F04F146
:10DD40003C01BDE8704010472572002084F84E0069
:10DD500070BD208AB4F85210081A01B2A4F852100B
:10DD6000002207E0608AB4F85210081A02B2A4F840
:10DD7000522000211846FBF759F8DDE77A0400200D
:10DD800030B490F84C2012480B4600888AB1012A22
:10DD900013D01048022A008807D0032A15D1196829
:10DDA000002240424C6D01B20BE0196800224C6D1C
:10DDB000F9E7196840424C6D01E019684C6D02B2F8
:10DDC0000021A44630BC1846604730BC70470000B4
:10DDD000800400207E04002030B40B46816B994201
:10DDE0000AD090F84C207AB1012A0DD0022A05D031
:10DDF000032A03D00121017230BC7047B0F95210E0
:10DE000018680022446D04E0B0F95220186800211F
:10DE1000446D1846A44630BC604700001FB5044658
:10DE20000B480078002811D00A482146D0E9002389
:10DE3000684600F0D5F8606801688A6F69469047C7
:10DE4000606801680A6E04F10C0190471FBD000074
:10DE50007A040020D8E0000801460648007800282F
:10DE600006D04868002803D002680C31526E104773
:10DE7000704700007A0400202DE9F0470D46F6F7C0
:10DE80001FFF2A4940F80C1BF8F774FBA0F10C01A6
:10DE9000C0622748D0E9082301F13C0000F0A0F857
:10DEA000A0F13C04022084F84C0084F84D5000207E
:10DEB00084F84E00A4F852001E48007838B31E4E75
:10DEC0001E4F04F10C05308800210FFA80F83888C5
:10DED0000A460FFA80F9E068436B2846984728689D
:10DEE0004146826B2846904728684946C26B2846BF
:10DEF00090472846F8F738FB94F84C0070B1012899
:10DF00000ED0022806D0032806D001202072204619
:10DF1000BDE8F087308804E0308803E0388801E00D
:10DF200038884042A4F85000F1E700004CE60008B1
:10DF3000D8E000087A0400207E040020800400203D
:10DF400010B5034940F80C1BF8F732FB0C3810BD34
:10DF50004CE600080268526A10470268526A10478D
:10DF60000268526A104730B4C2684368D40703EBB2
:10DF70006203826801D01868825830BC1846104786
:10DF800030B4C2684368D40703EB6203826801D0EF
:10DF90001868825830BC18461047C1684268CB07E1
:10DFA00002EB6102816801D01068415810460847B1
:10DFB00010B5034C10C080E80E00001F10BD00001B
:10DFC00074E9000830B4C2684368D40703EB620305
:10DFD000826801D01868825830BC1846104700008B
:10DFE00010B5034C10C080E80E00001F10BD0000EB
:10DFF0008CE90008E820704701EB4102C2EB4111B7
:10E0000000EBC100083070471020704700EB011092
:10E010000830704754207047C1EBC10101EB41014A
:10E0200000EB810008307047416839B1816819B947
:10E03000C068C10702D008B10120704700207047B6
:10E04000416839B1816819B9C068C10702D008B107
:10E050000120704700207047416839B1816819B9C3
:10E06000C068C10702D008B1012070470020704786
:10E070004FF04070E1EE100A7047000028EE0008F3
:10E08000F93A0008000000000000000052120000F1
:10E090000000000000000000000000000000000080
:10E0A000010203040607080900000000010203043E
:10E0B00000000090000000002A002A00070006006F
:10E0C0001C001E40901B0090000000002A002A0047
:10E0D000070006001C001E401800000001000000A0
:10E0E000794A000800000000ED4A00080000000026
:10E0F000114B0008000000001C000000010000009F
:10E1000000000000000000002F4600080000000092
:10E110008747000800000000D8EE0008F0EE000875
:10E120006CF3000810FD00088047000081400000EB
:10E1300000000000814E0000000000000000000010
:10E140000000000000000000FFFFFFFFFFFFFFFFD7
:10E1500000000000FFFFFFFF01000000FFFFFFFFC6
:10E16000FFFFFFFF00000000FFFFFFFF01000000B6
:10E17000010000000000000001000000010000009C
:10E1800000000000010000003031323334353637F2
:10E1900038394142434445464030580030313233EB
:10E1A00034353637383961626364656640307800EB
:10E1B0000400000800000000000000020001000050
:10E1C000100000000000000000000000A94100084D
:10E1D000C162000865630008714100086B630008B4
:10E1E0006944000805630008A94400080000000015
:10E1F000996300081B6300080D630008B141000823
:10E2000035430008096300080B63000800000000A4
:10E210005763000800000000000000000D450008E2
:10E22000000000008D890008D94400080F8600080E
:10E23000F9440008118700081186000829890008A0
:10E240000D8700080B860008000000000000000099
:10E2500031450008000000008D89000819450008BC
:10E260000F8600081D450008118700081186000868
:10E27000298900080D8700080B86000800000000AF
:10E28000000000007D450008000000007D6C0008D3
:10E29000917300080000000045450008D96B000894
:10E2A00061720008DD6A0008ED6B000851B10008DA
:10E2B00059450008CD69000800000000D57000082D
:10E2C000256B0008D5690008857100082D710008CC
:10E2D000756C000800000000F16B0008896A0008F6
:10E2E00051450008414500084945000855450008CA
:10E2F0000000000000000000196D0008896C000893
:10E3000083730008E76B0008A169000800000000A3
:10E3100000000000A16D000889690008457200082E
:10E320004D4500082D6F0008AF6F0008416D0008D3
:10E330000000000000000000F94500080000000097
:10E340000000000000000000000000007947000805
:10E35000000000008D8900082D4600080F86000887
:10E360000D86000811870008118600082989000819
:10E370000D8700080B860008000000000000000068
:10E38000D1480008000000008D890008854700087A
:10E390000F8600080D860008118700081186000806
:10E3A000298900080D8700080B860008000000007E
:10E3B00000000000DF480008DD480008F5480008BC
:10E3C00000000000FCFFFFFF000000000000000054
:10E3D000000000000000000000000000F9480008F4
:10E3E000F74800081149000800000000FCFFFFFF8B
:10E3F000000000000000000000000000000000001D
:10E400000000000029520008F55000083D520008A5
:10E41000E14C000821490008D36400080000000016
:10E42000000000000000000000000000015800088B
:10E43000F5560008515200080000000000000000DE
:10E44000854900080000000081490008494900088A
:10E450000000000000000000000000004D4A00081D
:10E460000000000000000000000000002952000829
:10E47000F55000083D520008E14C00080951000821
:10E48000D3640008B14B0008000000000000000049
:10E490000000000001580008F5560008515200081D
:10E4A000000000000000000000000000000000006C
:10E4B000000000000000000000000000D14C000837
:10E4C00000000000B54C0008BD4C0008BB4C000823
:10E4D000B74C0008000000000000000029520008AE
:10E4E000F55000083D520008E14C000809510008B1
:10E4F000F3560008000000000000000000000000CB
:10E500000000000001580008F556000851520008AC
:10E5100000000000000000000000000000000000FB
:10E52000000000000000000000000000E3580008A8
:10E5300000000000DD580008BD4C0008BB4C00087E
:10E54000B74C0008000000000000000075640008DF
:10E550000000000041BE000851B40008B7B3000835
:10E56000B3B300080000000075B30008000000000D
:10E57000000000000000000071B3000847B400086C
:10E58000A5B30008ADB3000861B1000800000000A9
:10E590009BB100089FB100080000000000000000CF
:10E5A00029520008F55000083D520008E14C0008CF
:10E5B00009510008D36400080000000000000000BA
:10E5C000000000000000000001580008F556000897
:10E5D000515200080000000000000000B165000872
:10E5E00000000000EDB10008AFB100088FBA0008CC
:10E5F000A9B9000800000000B18D0008CBB90008DF
:10E600009FBB0008038E0008B18E0008B58E00087D
:10E61000B98E0008D58E0008D98E000800000000D1
:10E62000AD8E0008AF8E0008A98E0008AB8E0008E2
:10E630002D8E000800000000978E00086965000814
:10E64000FD640008000000000000000041DF000839
:10E6500000000000D9DC000859DE00081DDE0008BB
:10E66000B74C000881DD0008D9DD0008000000007B
:10E6700000000000356700080000000000000000F6
:10E68000000000000000000000000000000000008A
:10E690008BC000088BC000088BC000088BC000082E
:10E6A0000000000000000000B16700089967000842
:10E6B0003767000800000000000000006D670008D8
:10E6C0008F6700080000000000000000000000004C
:10E6D00000000000BDB200087DB200088FBA00083B
:10E6E000A9B9000800000000B18D0008CBB90008EE
:10E6F0009FBB0008038E0008B18E0008B58E00088D
:10E70000B98E0008D58E0008D98E000800000000E0
:10E71000AD8E0008AF8E0008A98E0008AB8E0008F1
:10E720002D8E000800000000978E000800000000F9
:10E730000000000000000000000000007D6C0008E8
:10E740009173000800000000816B0008D96B00087D
:10E7500061720008DD6A0008ED6B00088BC00008DC
:10E7600069720008CD69000800000000D57000083B
:10E77000256B0008D5690008857100082D71000817
:10E78000756C000800000000F16B0008896A000841
:10E790008BC000088BC000088BC000088BC000082D
:10E7A0000000000000000000196D0008896C0008DE
:10E7B00083730008E76B0008A169000800000000EF
:10E7C00000000000A16D000889690008457200087A
:10E7D0008BC000082D6F0008AF6F0008416D000866
:10E7E0000000000000000000000000000000000029
:10E7F0008BC0000851B40008B7B30008B3B30008D9
:10E800000000000075B300080000000000000000D8
:10E810000000000071B3000847B40008A5B3000869
:10E82000ADB3000869B30008000000006DB3000834
:10E8300000000000000000000000000000000000D8
:10E8400059B8000811B800088FBA0008A9B9000823
:10E8500000000000B18D0008CBB900089FBB000884
:10E86000038E0008B18E0008B58E0008B98E00082E
:10E87000D58E0008D98E00080000000077640008DB
:10E88000AF8E0008A98E0008AB8E00082D8E000800
:10E8900000000000978E000800000000DB850008E3
:10E8A0000000000000000000A58D0008000000002E
:10E8B0008D890008FD8500080F8600080D86000878
:10E8C0001187000811860008298900080D870008B3
:10E8D0000B8600080000000000000000000000009F
:10E8E000000000008BC000088BC000088FBA000831
:10E8F000A9B9000800000000B18D0008CBB90008DC
:10E900009FBB0008038E0008B18E0008B58E00087A
:10E91000B98E0008D58E0008D98E000800000000CE
:10E92000AD8E0008AF8E0008A98E0008AB8E0008DF
:10E930002D8E000800000000978E000800000000E7
:10E9400000000000000000000000000067DF000879
:10E9500029E00008000000000000000000000000A6
:10E960000000000081DF000841E000080000000016
:10E970000000000000000000000000009BDF000815
:10E9800059E0000800000000000000000000000046
:10E9900000000000C5DF00080000000000000000CB
:10E9A000000000000DA600080000000000000000AC
:10E9B00000000000000000000FA60008000000009A
:10E9C00000000000000000000000000011A6000888
:10E9D0000000000000000000000000000000000037
:10E9E00013A6000800000000000000000000000066
:10E9F0000000000015A60008000000000000000054
:10EA0000000000000000000017A600080000000041
:10EA100000000000000000000000000019A600082F
:10EA200000000000000000000000000000000000E6
:10EA30001BA600080000000000000000000000000D
:10EA4000000000001DA600080000000000000000FB
:10EA500000000000000000001FA6000800000000E9
:10EA600000000000000000000000000021A60008D7
:10EA70000000000000000000000000000000000096
:10EA800023A60008000000000000000000000000B5
:10EA90000000000025A600080000000000000000A3
:10EAA000000000000000000027A600080000000091
:10EAB00000000000000000000000000029A600087F
:10EAC0000000000000000000000000000000000046
:10EAD0002BA600080000000000000000000000005D
:10EAE000000000002DA6000800000000000000004B
:10EAF00000000000000000002FA600080000000039
:10EB000000000000000000000000000031A6000826
:10EB100000000000000000000000000000000000F5
:10EB200033A6000800000000000000000000000004
:10EB30000000000035A600080000000000000000F2
:10EB4000000000000000000037A6000800000000E0
:10EB500000000000000000000000000039A60008CE
:10EB600000000000000000000000000000000000A5
:10EB70003BA60008000000000000000000000000AC
:10EB8000000000003DA6000800000000000000009A
:10EB900000000000000000003FA600080000000088
:10EBA00000000000000000000000000041A6000876
:10EBB0000000000000000000000000000000000055
:10EBC00043A6000800000000000000000000000054
:10EBD0000000000045AE000800000000000000003A
:10EBE0001596000845A6000800000000ADA2000828
:10EBF0002DA80008F5BB0008BDBB0008C1BB00087C
:10EC0000DDBB000800000000000000000000000064
:10EC10000000000000000000D1A900080000000072
:10EC200000000000000000000000000059BD0008C6
:10EC3000F9BB00088FBA0008A9B90008000000005D
:10EC4000B18D0008CBB900089FBB0008038E0008F7
:10EC5000B18E0008B58E0008B98E0008D58E000868
:10EC6000D98E000800000000AD8E0008AF8E0008AD
:10EC7000A98E0008AB8E00082D8E00080000000051
:10EC8000978E00080000000000000000BDAE0008E4
:10EC900011BC000881BC000800000000000000005A
:10ECA000000000000000000041BE000851B4000850
:10ECB000B7B30008B3B300080000000075B3000844
:10ECC00000000000000000000000000071B3000818
:10ECD00047B40008A5B30008ADB300088BC0000816
:10ECE000000000006DB300088BC0000800000000A9
:10ECF0000000000000000000000000001DBF000830
:10ED000007BF00088FBA0008A9B90008000000007A
:10ED10006DAF0008CBB900089FBB0008038E000848
:10ED2000B18E0008B58E0008B98E0008D58E000897
:10ED3000D98E000800000000AD8E0008AF8E0008DC
:10ED4000A98E0008AB8E00082D8E00080000000080
:10ED5000D9AF0008E7B000081DB1000800000000AE
:10ED60000000000000000000000000004DAF00089F
:10ED70000000000000000000000000000000000093
:10ED80000000000000000000000000000000000083
:10ED90000000000000000000000000000000000073
:10EDA0000000000000000000000000000000000063
:10EDB00000000000F5DF0008F9DF00080000000097
:10EDC0000000000000000000000000000000000043
:10EDD0000000000000000000000000000000000033
:10EDE000000000000000000009E000080DE000083D
:10EDF0000000000000000000000000000000000013
:10EE00000000000000000000000000000000000002
:10EE100000000000000000000000000015E00008F5
:10EE200019E00008000000006D61696E5461736BA9
:10EE3000000000003C3C2D4754502D4552524F528B
:10EE40002D3E3E2049324320526561643A2030789D
:10EE5000253034582C20256420627974657320662F
:10EE600061696C65642C20657272636F64653A2019
:10EE70002564212050726F6365737320726573651A
:10EE8000742E0A003C3C2D4754502D4552524F528F
:10EE90002D3E3E204932432057726974653A203036
:10EEA00078253034582C20256420627974657320CD
:10EEB0006661696C65642C20657272636F64653A83
:10EEC000202564212050726F63657373207265730F
:10EED00065742E0A00000000D2CE0321500C0030D1
:10EEE0000C00C105004D00000C00000200000F00E6
:10EEF00093ECDE2900F7ADDAEF02330000F90A00E7
:10EF00000000F30C000000F50A000010FD030000F3
:10EF1000D56F0000B0CF030000E00C000000E00C53
:10EF200000000040030000000000000000F00E00A0
:10EF30000000F00E0000F1FFFFFFFF04F1AEAAAAEF
:10EF4000AA02F10D00000000F10D00000000F10D1B
:10EF500000000000F1AFAAAA2A00F1FFFFFF3F0066
:10EF6000F10D00000000F10D00000000F10D0000A7
:10EF70000000F10D00000000F10D00000000F10D97
:10EF800000000000F10D000000000010B7FEDE5A86
:10EF90000000E6EFABDBFF1E60EF050000711EE135
:10EFA0003F0000000001F7090000000000FB040022
:10EFB00000000000FD030070AAAA1AFD0300B0FFC4
:10EFC000FF1FFB05000000C01FF70A000000C01F64
:10EFD000F24F000000C01F70FF060000D21F00F7B4
:10EFE000EFABDBFF1D0020B7FECE4900FFFFFFFFA8
:10EFF000FFFF05AAAAEABFAAAA030000C02F0000CB
:10F00000000000C02F0000000000C02F0000000022
:10F0100000C02F0000000000C02F0000000000C052
:10F020002F0000000000C02F0000000000C02F00D3
:10F0300000000000C02F0000000000C02F000000F2
:10F040000000C02F0000000000C02F000000D05FB3
:10F05000000000F60A30EF020030DF0100F70B007D
:10F06000C04F0000B06F00F808000020EE42CF0053
:10F07000000000F5DC2E0000000090FF05000000FD
:10F080000090FF0700000000F5EA3F00000020DECE
:10F0900041CF000000C04F00F9080000F80800D17F
:10F0A0004F0040CF000040DF01D12F000000F80AE0
:10F0B00000B4FEAD0470EF9AFB0DF41D002008FAB9
:10F0C00005000000FD01000000FE00000000FD0141
:10F0D000000000FA05000000F51D00200890EF9ADE
:10F0E000FB0D00B5FE9D0300000030AF00000030B6
:10F0F000AF00000030AF00000030AF00B4EE8BAFC7
:10F1000070FFABFCAFF32D0040AFF9060030AFFD50
:10F11000010030AFFE000030AFFD010030AFFB0456
:10F120000030AFF61C00B2AFC0EFCCEFAF10E9DF9C
:10F1300037AF00B4FE9D0270DF89FA2EF30900504C
:10F140009FFA121111DEFDFFFFFFEFEE444444442D
:10F15000FD01000000FA06000000F44E000084707B
:10F16000FF9CDABF00A4FDCE28F30A000000F30ADA
:10F17000000000F30A000000F30A000000F32AE98F
:10F18000DF05F3EDBEFC4FF38F0160AFF30A000023
:10F19000DFF30A0000EEF30A0000EEF30A0000EECF
:10F1A000F30A0000EEF30A0000EEF30A0000EEF3AB
:10F1B0000A0000EEF30AF30AF30AF30AF30AF30A69
:10F1C000F30AF30AF30AF30AF30AF30AF30AF30A57
:10F1D000F30AF32AEABE03A3FE4C00F3FDBEFD8E44
:10F1E000EFCBFF02F37F0090FF1800F907F30A004E
:10F1F00040AF0000F30AF30A0030AF0000F20BF357
:10F200000A0020AF0000F20BF30A0020AF0000F26A
:10F210000BF30A0020AF0000F20BF30A0020AF004E
:10F2200000F20BF30A0020AF0000F20BF30A0020FB
:10F23000AF0000F20B00C5EE6C000090EFAAFD0AD3
:10F2400000F41C00B16F00FA040020CF00FD0000A4
:10F2500000FD00EE000000FC01FD010000FE00FAD0
:10F26000040020CF00F41C00B16F0090EF9AFD0B5A
:10F270000000C5FE7C0000F31AE98FF3EDCF9CF38C
:10F280009F0100F30A0000F30A0000F30A0000F3F4
:10F290000A0000F30A0000F30A0000F30A0000F37A
:10F2A0000A000020AF000020AF000020AF0000F6F1
:10F2B000FFFF7F93DF884820AF000020AF000020D1
:10F2C000AF000020AF000020AF000020BF00001002
:10F2D000EF010000FA9D6A0091FD5DF4080000DF77
:10F2E000F4080000DFF4080000DFF4080000DFF499
:10F2F000080000DFF4080000DFF4090000DFF30A73
:10F300000000DFF12E00B2DF90EFCBDFDF00E8DF9F
:10F3100017DFF10D00A02F00606FC02F00E17F000C
:10F32000A02F805F00F5CE00D00D409F00DAF702DD
:10F33000F10900CE008EF207F50600FB413FC00C3C
:10F34000F80200F7940D802FDC0000F3E808307F0E
:10F350009F0000E0FE0300ED5F0000A0DF0000F86A
:10F360001F0000609F0000F30C00000000105377A6
:10F37000570200000083FCFFFFFFDF170000FDFFC6
:10F38000FFFFFFFFDF0200FDFFFFEFFFFFFF2E008B
:10F39000FD9E150041FAFFBF006B0000000060FFFA
:10F3A000FF02000000000000FBFF0700000000005B
:10F3B00000F7FF08000000000000F6FF0900000051
:10F3C000000000F7FF07000000000000FBFF040042
:10F3D0000000000030FFEF000000000000C1FF7FD0
:10F3E000000000000010FCFF0C0000000000D3FF34
:10F3F000DF020000000081FFFF2C0000000060FE23
:10F40000FF9F0000000000D0FFDF040000000000AC
:10F41000D0FF0B000000000000D0FF09000000003A
:10F420000000D0FF09000000000000D0FF0900002C
:10F4300000000000D0FF09000000000000000000F4
:10F4400000000000000000000000000000000000BC
:10F450000000000000000000404403000000000025
:10F4600000F1FF0E000000000000F1FF0E000000A0
:10F47000000000F1FF0E000000000000F1FF0E0090
:10F480000000000000000000000050FF5F000000CE
:10F490000000000050FF5F0000000000000050FF6F
:10F4A0005F0000000000000050FF5F00000000004F
:10F4B000000050FF5F0000000000000050FF5F00F0
:10F4C00000000000000050FF5F000000000000008E
:10F4D00050FF5F0000002075670350FF5F00005081
:10F4E000FDFFFFDF78FF5F0010FBFFFFFFFFFFFF67
:10F4F0005F00C1FFFFFFFFFFFFFF5F00FAFF9F13E9
:10F500001052FAFF5F40FFEF0400000060FF5FC091
:10F51000FF5F0000000050FF5FF3FF0C00000000E1
:10F5200050FF5FF6FF060000000050FF5FFAFF0289
:10F530000000000050FF5FFCFF000000000050FFD3
:10F540005FFDEF000000000050FF5FFDEF000000D6
:10F55000000050FF5FFCFF000000000050FF5FFB59
:10F56000FF010000000050FF5FF9FF0400000000F1
:10F5700050FF5FF6FF080000000050FF5FF2FF1E23
:10F580000000000090FF5FB0FFBF00000030FCFFF4
:10F590005F30FFFF6D2363FBFFFF5F00F8FFFFFF9E
:10F5A000FFFFDFFF5F0090FFFFFFFFFF56FF5F00E1
:10F5B00000D5FFFFEF2A50FF5F00000063671400D3
:10F5C00000000000000010647725000000000040EB
:10F5D000FBFFFFFF6D00000000FAFFFFFFFFFF1CB5
:10F5E0000000B1FFFFADA9FDFFCF0100FAFF2A0027
:10F5F0000030FBFF0850FF7F00000000C0FF1EC06E
:10F60000FF0B0000000030FF6FF3FF03000000005D
:10F6100000FD9FF7EF000000000000FBBFFAFFDDD8
:10F62000DDDDDDDDDDFFDFFCFFFFFFFFFFFFFFFFB7
:10F63000DFFDFFFFFFFFFFFFFFFFDFFDDF0000003B
:10F640000000000000FCEF0000000000000000FBD4
:10F65000FF0100000000000000F8FF0500000000AE
:10F66000000000F4FF0C00000000000000D0FF7F4D
:10F670000000000000003160FFFF06000000006095
:10F680007E00FBFFBF14000084FE7F00C1FFFFFF70
:10F69000CDFDFFFF7F0000F9FFFFFFFFFFFF5E00D2
:10F6A0000030E9FFFFFFFF5A0000000000537667BB
:10F6B000030000F6FF0400000000000000F6FF0455
:10F6C00000000000000000F6FF0400000000000041
:10F6D00000F6FF0400000000000000F6FF04000038
:10F6E0000000000000F6FF0400000000000000F62B
:10F6F000FF0400000000000000F6FF04000000000E
:10F70000000000F6FF0400307646010000F6FF041A
:10F7100071FDFFFF8F0100F6FF54FEFFFFFFFF1C8E
:10F7200000F6FFFBFFFFFFFFFF9F00F6FFFFDF3745
:10F7300022C6FFFF02F6FFDF05000000FCFF07F610
:10F74000FF1A00000000F5FF0AF6FF0400000000A9
:10F75000F1FF0CF6FF0400000000E0FF0DF6FF04CF
:10F7600000000000D0FF0DF6FF0400000000C0FF05
:10F770000DF6FF0400000000C0FF0DF6FF040000BE
:10F780000000C0FF0DF6FF0400000000C0FF0DF6F2
:10F79000FF0400000000C0FF0DF6FF0400000000A1
:10F7A000C0FF0DF6FF0400000000C0FF0DF6FF04CF
:10F7B00000000000C0FF0DF6FF0400000000C0FFC5
:10F7C0000DF6FF0400000000C0FF0DF6FF0400006E
:10F7D0000000C0FF0DF6FF0400000000C0FF0DF6A2
:10F7E000FF0400000000C0FF0DF5FF05F5FF05F563
:10F7F000FF05F5FF05F5FF05F5FF05F5FF05F5FF2D
:10F8000005F5FF05F5FF05F5FF05F5FF05F5FF0516
:10F81000F5FF05F5FF05F5FF05F5FF05F5FF05F516
:10F82000FF05F5FF05F5FF05F5FF05F5FF05F5FFFC
:10F8300005F5FF05F5FF05F5FF05F5FF05F5FF05E6
:10F84000F5FF05F5FF0500000030756704000000B6
:10F8500000000070FDFFFFEF190000000020FDFF19
:10F86000FFFFFFEF05000000E2FFFFCEDCFFFF5FC0
:10F87000000000FCFF4C0000A3FFEF020070FFBF80
:10F8800001000000F8FF0B00E0FF2E00000000C0A8
:10F89000FF3F00F4FF090000000050FF9F00F8FF49
:10F8A000040000000000FECF00FBFF01000000008C
:10F8B00000FCFF00FCEF000000000000FAFF01FD6B
:10F8C000DF000000000000F9FF02FDDF0000000083
:10F8D0000000F9FF03FCEF000000000000FAFF0148
:10F8E000FBFF010000000000FCFF00F8FF04000027
:10F8F000000000FFCF00F5FF090000000050FF9F4F
:10F9000000E0FF2F00000000C0FF3F0070FFCF01AC
:10F91000000000F9FF0B0000FCFF5D0000B3FFEFEB
:10F92000020000E3FFFFCEDCFFFF5F00000020FDD0
:10F93000FFFFFFFFEF050000000070FDFFFFEF1964
:10F940000000000000003075670400000000F6FFB2
:10F950000400A6FDDF03F6FF04D5FFFFFF04F6FF5A
:10F96000A5FFFFFFFF04F6FFFEFFDFBBFD04F6FF70
:10F97000FF7E01000000F6FF8F0100000000F6FF8F
:10F98000060000000000F6FF040000000000F6FF83
:10F99000040000000000F6FF040000000000F6FF75
:10F9A000040000000000F6FF040000000000F6FF65
:10F9B000040000000000F6FF040000000000F6FF55
:10F9C000040000000000F6FF040000000000F6FF45
:10F9D000040000000000F6FF040000000000F6FF35
:10F9E000040000000000F6FF040000000000F6FF25
:10F9F000040000000000F6FF040000000000F3FF18
:10FA00000A00000030FF2F00000000FBEFE0FF0DB8
:10FA100000000080FF7F00000000FEAFA0FF2F006D
:10FA20000000D0FFCF00000030FF6F60FF5F0000DC
:10FA300000F2FFFF02000060FF2F20FF9F00000088
:10FA4000F7FFFF070000A0FF0D00FDCF000000FC46
:10FA5000BFFF0C0000D0FF0A00F9FF010020FF2DBE
:10FA6000FF2F0000F1FF0600F5FF040070FF09FC06
:10FA70007F0000F5FF0200F2FF0800B0FF04F7CF9F
:10FA80000000F8DF0000D0FF0B00F1EF00F2FF02F2
:10FA900000FB9F000090FF0E00F69F00C0FF0600D5
:10FAA000FE5F000050FF3F00FB4F0070FF0B30FF78
:10FAB0001F000010FF7F10FF0E0030FF1F60FF0CC3
:10FAC000000000FCAF50FF090000FD6FA0FF09001F
:10FAD0000000F8EFA0FF040000F8BFD0FF05000011
:10FAE00000F4FFE3EF000000F3FFF3FF010000006C
:10FAF000F1FFFB9F000000D0FFFBCF00000000B033
:10FB0000FFFF4F00000080FFFF8F0000000070FF2C
:10FB1000FF0E00000030FFFF4F0000000030FFFF2D
:10FB20000900000000FDFF1F0000000000FEFF04B0
:10FB300000000000F8FF0B0000000000FBEF0000D9
:10FB4000000000F3FF080000000000005400FF0068
:10FB50006500FF005400FE005400FE005400FE004B
:10FB60005400FE005400FE005400FE00000000009F
:10FB7000000000003F00050808000500000000002C
:10FB8000000000002000000000000700000000004E
:10FB900000003F00090E0E010B00000046000000AF
:10FBA00046000B0E0E010C0000009A0000004700FA
:10FBB0000E0E0E0110000000FC00000054000D0E9F
:10FBC0000E000C0002005E01000058000D0E0E0039
:10FBD0000E000000C00100006300090B0B010A02C7
:10FBE0000100F701000064000A0F0F010C00000083
:10FBF0004202000065000A0B0B010C0301007902B0
:10FC0000000068000A0F0F010D000000C402000090
:10FC10006C00030F0F0105000000E20200006D0000
:10FC2000110B0B0113000000450300006F000B0BCC
:10FC30000B010C040100870300007200080B0B018C
:10FC400009050100B30300007400080E0E0008004F
:10FC50000000EB03000075000A0B0B010D0601000C
:10FC6000220400007700100B0B00100701000000B9
:10FC7000000000002000000000000E000000000056
:10FC800000003F00111F1F031600000017010000B5
:10FC9000640014201F0219000000570200006500D4
:10FCA0001418170218000000470300006800131F13
:10FCB0001F03190000007D0400006C00051F1F03D6
:10FCC0000B000000DA0400006F001518170218007E
:10FCD0000000E205000072000F161603110000007C
:10FCE0009206000077001E16160121000000000099
:10FCF00084FD000800000020A4040000E8010008C2
:10FD000068FE0008A40400209C9C00004402000837
:10FD10001E00000000000000770065006C0063001A
:10FD20006F006D006500200074006F0020007400FB
:10FD300068006500200054006F00750063006800D3
:10FD4000470046005800200077006F0072006C00EA
:10FD500064000000680065006C006C006F0020000B
:10FD600077006F0072006C0064000000010000006A
:10FD70006CFD000855C3FFFF35C3FFFF15C3FFFF30
:10FD8000E1C3FFFF012002135A32018210035924FC
:10FD9000F41AAA01012013BBB30214086BA575184D
:10FDA0001AFF0111172003E001053C700901082822
:10FDB0000C50320305280B17191E148B2B0D3335ED
:10FDC0000C2C3C9A0311DB21323236205894C502A8
:10FDD0001404B02313932B137B35136941135B4F2A
:10FDE00002245B080F15020406080A0C0E101214F8
:10FDF00016181AFF1F38100F10121316181C1D1E8C
:10FE00001F2021222426A849AF79014B4801BA2A94
:10FE10000DBA9A0FBA413E8A2A0C4547BA540202DB
:10FE20002D2B0364BA1B2864BA1A07BA139C2C132F
:10FE30008F3413843F137C4C13775B022477380D87
:10FE400018161412100E0C0A0806040290D189AF7D
:10FE50003D1312100F2559B1011005F424018047FC
:08FE600003E218EF036EE80352
:0200000490006A
:10000000F8FCF800F8FCF800F8FCF800F8FCF80040
:10001000F8FCF800F8FCF800F8FCF800F8FCF80030
:10002000F8FCF800F8FCF800F8FCF800F8FCF80020
:10003000F8FCF800F8FCF8000000000400000038AC
:1000400000000079000000AA000000CF000000E7D7
:10005000000000F3000000F3000000E7000000CF04
:10006000000000AA00000079000000380000000431
:10007000F8FCF800F8FCF800F8FCF800F8FCF800D0
:100080000000000000000000000000000000000070
:100090000000000000000000000000000000000060
:1000A0000000000000000000F8FCF800F8FCF80078
:1000B000F8FCF800F8FCF800F8FCF800F8FCF80090
:1000C000F8FCF800F8FCF800F8FCF800F8FCF80080
:1000D000F8FCF800F8FCF8000000002C000000928A
:1000E000000000E7000000FF000000FF000000FF2C
:1000F000000000FF000000FF000000FF000000FF04
:10010000000000FF000000FF000000FF000000FFF3
:10011000000000FF000000E7000000920000002C3B
:10012000F8FCF800F8FCF8000000000000000000F7
:1001300000000000000000000000000000000000BF
:1001400000000000000000000000000000000000AF
:10015000F8FCF800F8FCF800F8FCF800F8FCF800EF
:10016000F8FCF800F8FCF800F8FCF800F8FCF800DF
:10017000F8FCF800F8FCF80000000028000000AED1
:10018000000000FB000000FF000000FF000000FF77
:10019000000000FF000000FF000000FF000000FF63
:1001A000000000FF000000FF000000FF000000FF53
:1001B000000000FF000000FF000000FF000000FF43
:1001C000000000FF000000FB000000AE000000285F
:1001D000000000000000000000000000000000001F
:1001E000000000000000000000000000000000000F
:1001F0000000000000000000F8FCF800F8FCF80027
:10020000F8FCF800F8FCF800F8FCF800F8FCF8003E
:10021000F8FCF800F8FCF800000000040000008280
:10022000000000F7000000FF000000FF000000FFDA
:10023000000000FF201C20FF606460FFA0A0A0FF62
:10024000C8C8C8FFE8E4E8FFF0F4F0FFF0F4F0FFFE
:10025000E8E8E8FFC8C8C8FFA0A0A0FF606460FF8E
:10026000201C20FF000000FF000000FF000000FF36
:10027000000000FF000000F70000008600000004FE
:10028000000000000000000000000000000000006E
:10029000000000000000000000000000000000005E
:1002A000F8FCF800F8FCF800F8FCF800F8FCF8009E
:1002B000F8FCF800F8FCF800F8FCF800000000205A
:1002C000000000C7000000FF000000FF000000FF6A
:1002D000000000FF505450FFC0C0C0FFF8FCF8FF02
:1002E000F8FCF8FFF8FCF8FFF8FCF8FFF8FCF8FF62
:1002F000F8FCF8FFF8FCF8FFF8FCF8FFF8FCF8FF52
:10030000F8FCF8FFF8FCF8FFF8FCF8FFC0C0C0FFED
:10031000505450FF000000FF000000FF000000FFED
:10032000000000FF000000C70000002000000000E7
:1003300000000000000000000000000000000000BD
:100340000000000000000000F8FCF800F8FCF800D5
:10035000F8FCF800F8FCF800F8FCF800F8FCF800ED
:1003600000000030000000E7000000FF000000FF78
:10037000000000FF404040FFD8D4D8FFF8FCF8FF51
:10038000F8FCF8FFF8FCF8FFF8FCF8FFF8FCF8FFC1
:10039000F8FCF8FFF8FCF8FFF8FCF8FFF8FCF8FFB1
:1003A000F8FCF8FFF8FCF8FFF8FCF8FFF8FCF8FFA1
:1003B000F8FCF8FFF8FCF8FFF8FCF8FFD8D4D8FFF9
:1003C000404040FF000000FF000000FF000000FF71
:1003D000000000E700000030000000000000000006
:1003E000000000000000000000000000000000000D
:1003F000F8FCF800F8FCF800F8FCF800F8FCF8004D
:10040000F8FCF8000000002C000000EF000000FFE6
:10041000000000FF080808FF909490FFF8FCF8FF28
:10042000F8FCF8FFF8FCF8FFF8FCF8FFF8FCF8FF20
:10043000F8FCF8FFF8FCF8FFF8FCF8FFF8FCF8FF10
:10044000F8FCF8FFF8FCF8FFF8FCF8FFF8FCF8FF00
:10045000F8FCF8FFF8FCF8FFF8FCF8FFF8FCF8FFF0
:10046000F8FCF8FFF8FCF8FFF8FCF8FF909490FF18
:10047000080808FF000000FF000000FF000000EF78
:100480000000002C00000000000000000000000040
:100490000000000000000000F8FCF800F8FCF80084
:1004A000F8FCF800F8FCF80000000020000000E371
:1004B000000000FF000000FF101010FFC8C4C8FFBC
:1004C000F8FCF8FFF8FCF8FFF8FCF8FFF8FCF8FF80
:1004D000F8FCF8FFF8FCF8FFF8FCF8FFF8FCF8FF70
:1004E000F8FCF8FFF8FCF8FFF8FCF8FFF8FCF8FF60
:1004F000F8FCF8FFF8FCF8FFF8FCF8FFF8FCF8FF50
:10050000F8FCF8FFF8FCF8FFF8FCF8FFF8FCF8FF3F
:10051000F8FCF8FFF8FCF8FFC8C4C8FF101010FF83
:10052000000000FF000000FF000000E700000020C6
:1005300000000000000000000000000000000000BB
:10054000F8FCF800F8FCF800F8FCF80000000004E3
:10055000000000C7000000FF000000FF181418FF93
:10056000D0D0D0FFF8FCF8FFF8FCF8FFF8FCF8FF5B
:10057000F8FCF8FFF8FCF8FFF8FCF8FFF8FCF8FFCF
:10058000F8FCF8FFF8FCF8FFF8FCF8FFF8FCF8FFBF
:10059000F8FCF8FFF8FCF8FFF8FCF8FFF8FCF8FFAF
:1005A000F8FCF8FFF8FCF8FFF8FCF8FFF8FCF8FF9F
:1005B000F8FCF8FFF8FCF8FFF8FCF8FFF8FCF8FF8F
:1005C000F8FCF8FFD0D0D0FF181418FF000000FF8F
:1005D000000000FF000000C7000000040000000051
:1005E0000000000000000000F8FCF800F8FCF80033
:1005F000F8FCF80000000086000000FF000000FF8B
:10060000080408FFC8C8C8FFF8FCF8FFF8FCF8FFAA
:10061000F8FCF8FFF8FCF8FFF8FCF8FFF8FCF8FF2E
:10062000F8FCF8FFF8FCF8FFF8FCF8FFF8FCF8FF1E
:10063000F8FCF8FFF8FCF8FFF8FCF8FFF8FCF8FF0E
:10064000F8FCF8FFF8FCF8FFF8FCF8FFF8FCF8FFFE
:10065000F8FCF8FFF8FCF8FFF8FCF8FFF8FCF8FFEE
:10066000F8FCF8FFF8FCF8FFF8FCF8FFF8FCF8FFDE
:10067000C8C8C8FF080808FF000000FF000000FF0E
:1006800000000086000000000000000000000000E4
:10069000F8FCF800F8FCF8000000002C000000FB5B
:1006A000000000FF000000FF909490FFF8FCF8FFAE
:1006B000F8FCF8FFF8FCF8FFF8FCF8FFF8FCF8FF8E
:1006C000F8FCF8FFF8FCF8FFF8FCF8FFF8FCF8FF7E
:1006D000F8FCF8FFF8FCF8FFF8FCF8FFF8FCF8FF6E
:1006E000F8FCF8FFF8FCF8FFF8FCF8FFF8FCF8FF5E
:1006F000F8FCF8FFF8FCF8FFF8FCF8FFF8FCF8FF4E
:10070000F8FCF8FFF8FCF8FFF8FCF8FFF8FCF8FF3D
:10071000F8FCF8FFF8FCF8FFF8FCF8FF909490FF65
:10072000000000FF000000FF000000FB0000002CA4
:100730000000000000000000F8FCF800F8FCF800E1
:10074000000000AE000000FF000000FF404440FF3A
:10075000F8FCF8FFF8FCF8FFF8FCF8FFF8FCF8FFED
:10076000F8FCF8FFF8FCF8FFF8FCF8FFF8FCF8FFDD
:10077000F8FCF8FFF8FCF8FFF8FCF8FFF8FCF8FFCD
:10078000F8FCF8FFF8FCF8FFF8FCF8FFF8FCF8FFBD
:10079000F8FCF8FFF8FCF8FFF8FCF8FFF8FCF8FFAD
:1007A000F8FCF8FFF8FCF8FFF8FCF8FFF8FCF8FF9D
:1007B000F8FCF8FFF8FCF8FFF8FCF8FFF8FCF8FF8D
:1007C000F8FCF8FFF8FCF8FF404440FF000000FF91
:1007D000000000FF000000AE00000000000000006C
:1007E000F8FCF8000000002C000000FF000000FFF3
:1007F000000000FFD8D4D8FFF8FCF8FFF8FCF8FFA1
:10080000F8FCF8FFF8FCF8FFF8FCF8FFF8FCF8FF3C
:10081000F8FCF8FFF8FCF8FFF8FCF8FFF8FCF8FF2C
:10082000F8FCF8FFF8FCF8FFF8FCF8FFF8FCF8FF1C
:10083000F8FCF8FFF8FCF8FFF8FCF8FFF8FCF8FF0C
:10084000F8FCF8FFF8FCF8FFF8FCF8FFF8FCF8FFFC
:10085000F8FCF8FFF8FCF8FFF8FCF8FFF8FCF8FFEC
:10086000F8FCF8FFF8FCF8FFF8FCF8FFF8FCF8FFDC
:10087000D8D4D8FF000000FF000000FF000000FFF8
:100880000000002C00000000F8FCF80000000092BE
:10089000000000FF000000FF505450FFF8FCF8FF7C
:1008A000F8FCF8FFF8FCF8FFF8FCF8FFF8FCF8FF9C
:1008B000F8FCF8FFF8FCF8FFF8FCF8FFF8FCF8FF8C
:1008C000F8FCF8FFF8FCF8FFF8FCF8FF404040FFA8
:1008D000282828FFD8D4D8FFF8FCF8FFF8FCF8FF48
:1008E000F8FCF8FFF8FCF8FFF8FCF8FFF8FCF8FF5C
:1008F000F8FCF8FFF8FCF8FFF8FCF8FFF8FCF8FF4C
:10090000F8FCF8FFF8FCF8FFF8FCF8FFF8FCF8FF3B
:10091000F8FCF8FFF8FCF8FFF8FCF8FF505450FF23
:10092000000000FF000000FF000000920000000037
:1009300000000004000000EB000000FF000000FFCA
:10094000C0C0C0FFF8FCF8FFF8FCF8FFF8FCF8FFA7
:10095000F8FCF8FFF8FCF8FFF8FCF8FFF8FCF8FFEB
:10096000F8FCF8FFF8FCF8FFF8FCF8FFF8FCF8FFDB
:10097000F8FCF8FF282828FF000000FF101010FFE7
:10098000B8B8B8FFF8FCF8FFF8FCF8FFF8FCF8FF7F
:10099000F8FCF8FFF8FCF8FFF8FCF8FFF8FCF8FFAB
:1009A000F8FCF8FFF8FCF8FFF8FCF8FFF8FCF8FF9B
:1009B000F8FCF8FFF8FCF8FFF8FCF8FFF8FCF8FF8B
:1009C000F8FCF8FFC0C0C0FF000000FF000000FFFF
:1009D000000000EB0000000400000038000000FFF1
:1009E000000000FF201C20FFF8FCF8FFF8FCF8FFD7
:1009F000F8FCF8FFF8FCF8FFF8FCF8FFF8FCF8FF4B
:100A0000F8FCF8FFF8FCF8FFF8FCF8FFF8FCF8FF3A
:100A1000F8FCF8FFF8FCF8FFF8FCF8FFD0D0D0FFA6
:100A2000080808FF000000FF000400FF909490FFFA
:100A3000F8FCF8FFF8FCF8FFF8FCF8FFF8FCF8FF0A
:100A4000F8FCF8FFF8FCF8FFF8FCF8FFF8FCF8FFFA
:100A5000F8FCF8FFF8FCF8FFF8FCF8FFF8FCF8FFEA
:100A6000F8FCF8FFF8FCF8FFF8FCF8FFF8FCF8FFDA
:100A7000201C20FF000000FF000000FF00000038E5
:100A800000000079000000FF000000FF606460FFCC
:100A9000F8FCF8FFF8FCF8FFF8FCF8FFF8FCF8FFAA
:100AA000F8FCF8FFF8FCF8FFF8FCF8FFF8FCF8FF9A
:100AB000F8FCF8FFF8FCF8FFF8FCF8FFF8FCF8FF8A
:100AC000F8FCF8FFF8FCF8FFA0A0A0FF000000FF72
:100AD000000000FF000000FF686868FFF8FCF8FFF6
:100AE000F8FCF8FFF8FCF8FFF8FCF8FFF8FCF8FF5A
:100AF000F8FCF8FFF8FCF8FFF8FCF8FFF8FCF8FF4A
:100B0000F8FCF8FFF8FCF8FFF8FCF8FFF8FCF8FF39
:100B1000F8FCF8FFF8FCF8FF606460FF000000FFDD
:100B2000000000FF00000079000000AA000000FFA4
:100B3000000000FFA0A0A0FFF8FCF8FFF8FCF8FF01
:100B4000F8FCF8FFF8FCF8FFF8FCF8FFF8FCF8FFF9
:100B5000F8FCF8FFF8FCF8FFF8FCF8FFF8FCF8FFE9
:100B6000F8FCF8FFF8FCF8FFF8FCF8FFF8FCF8FFD9
:100B7000F8FCF8FF606460FF000000FF000000FF69
:100B8000000000FF484448FFF0ECF0FFF8FCF8FFDD
:100B9000F8FCF8FFF8FCF8FFF8FCF8FFF8FCF8FFA9
:100BA000F8FCF8FFF8FCF8FFF8FCF8FFF8FCF8FF99
:100BB000F8FCF8FFF8FCF8FFF8FCF8FFF8FCF8FF89
:100BC000A0A0A0FF000000FF000000FF000000AA9E
:100BD000000000CF000000FF000000FFC8C8C8FFF1
:100BE000F8FCF8FFF8FCF8FFF8FCF8FFF8FCF8FF59
:100BF000F8FCF8FFF8FCF8FFF8FCF8FFF8FCF8FF49
:100C0000F8FCF8FFF8FCF8FFF8FCF8FFF8FCF8FF38
:100C1000F8FCF8FFF8FCF8FFF8FCF8FFF8F8F8FF2C
:100C2000303030FF000000FF000000FF000000FF38
:100C3000282828FFD8DCD8FFF8FCF8FFF8FCF8FFDC
:100C4000F8FCF8FFF8FCF8FFF8FCF8FFF8FCF8FFF8
:100C5000F8FCF8FFF8FCF8FFF8FCF8FFF8FCF8FFE8
:100C6000F8FCF8FFF8FCF8FFC8C8C8FF000000FF58
:100C7000000000FF000000CF000000EB000000FFBC
:100C8000000000FFE8E8E8FFF8FCF8FFF8FCF8FFD8
:100C9000F8FCF8FFF8FCF8FFF8FCF8FFF8FCF8FFA8
:100CA000F8FCF8FFF8FCF8FFF8FCF8FFF8FCF8FF98
:100CB000F8FCF8FFF8FCF8FFF8FCF8FFF8FCF8FF88
:100CC000F8FCF8FFF8FCF8FFE0DCE0FF101010FF84
:100CD000000000FF000000FF000000FF101010FFE8
:100CE000C0C4C0FFF8FCF8FFF8FCF8FFF8FCF8FF00
:100CF000F8FCF8FFF8FCF8FFF8FCF8FFF8FCF8FF48
:100D0000F8FCF8FFF8FCF8FFF8FCF8FFF8FCF8FF37
:100D1000E8E8E8FF000000FF000000FF000000EB33
:100D2000000000F7000000FF000000FFF0F4F0FFFB
:100D3000F8FCF8FFF8FCF8FFF8FCF8FFF8FCF8FF07
:100D4000F8FCF8FFF8FCF8FFF8FCF8FFF8FCF8FFF7
:100D5000F8FCF8FFF8FCF8FFF8FCF8FFF8FCF8FFE7
:100D6000F8FCF8FFF8FCF8FFF8FCF8FFF8FCF8FFD7
:100D7000F8FCF8FFB8B4B8FF000000FF000000FF67
:100D8000000000FF000000FF181818FFF8FCF8FF33
:100D9000F8FCF8FFF8FCF8FFF8FCF8FFF8FCF8FFA7
:100DA000F8FCF8FFF8FCF8FFF8FCF8FFF8FCF8FF97
:100DB000F8FCF8FFF8FCF8FFF8F4F8FF000000FF7B
:100DC000000000FF000000F7000000F7000000FF37
:100DD000000000FFF0F4F0FFF8FCF8FFF8FCF8FF6B
:100DE000F8FCF8FFF8FCF8FFF8FCF8FFF8FCF8FF57
:100DF000F8FCF8FFF8FCF8FFF8FCF8FFF8FCF8FF47
:100E0000F8FCF8FFF8FCF8FFF8FCF8FFF8FCF8FF36
:100E1000F8FCF8FFF8FCF8FFF8FCF8FFB8B8B8FFEA
:100E2000000000FF000000FF000000FF000000FFC6
:100E3000181818FFF8FCF8FFF8FCF8FFF8FCF8FFAA
:100E4000F8FCF8FFF8FCF8FFF8FCF8FFF8FCF8FFF6
:100E5000F8FCF8FFF8FCF8FFF8FCF8FFF8FCF8FFE6
:100E6000F0F4F0FF000000FF000000FF000000F7BA
:100E7000000000EB000000FF000000FFE8E8E8FFD2
:100E8000F8FCF8FFF8FCF8FFF8FCF8FFF8FCF8FFB6
:100E9000F8FCF8FFF8FCF8FFF8FCF8FFF8FCF8FFA6
:100EA000F8FCF8FFF8FCF8FFF8FCF8FFF8FCF8FF96
:100EB000F8FCF8FFF8FCF8FFF8FCF8FFF8FCF8FF86
:100EC000E0E0E0FF101010FF000000FF000000FF56
:100ED000000000FF101010FFC0C0C0FFF8FCF8FFBA
:100EE000F8FCF8FFF8FCF8FFF8FCF8FFF8FCF8FF56
:100EF000F8FCF8FFF8FCF8FFF8FCF8FFF8FCF8FF46
:100F0000F8FCF8FFF8FCF8FFE8E8E8FF000000FF55
:100F1000000000FF000000EB000000CF000000FF19
:100F2000000000FFC8C8C8FFF8FCF8FFF8FCF8FF95
:100F3000F8FCF8FFF8FCF8FFF8FCF8FFF8FCF8FF05
:100F4000F8FCF8FFF8FCF8FFF8FCF8FFF8FCF8FFF5
:100F5000F8FCF8FFF8FCF8FFF8FCF8FFF8FCF8FFE5
:100F6000F8FCF8FFF8F8F8FF303430FF000000FF1D
:100F7000000000FF000000FF282428FFD8D8D8FF79
:100F8000F8FCF8FFF8FCF8FFF8FCF8FFF8FCF8FFB5
:100F9000F8FCF8FFF8FCF8FFF8FCF8FFF8FCF8FFA5
:100FA000F8FCF8FFF8FCF8FFF8FCF8FFF8FCF8FF95
:100FB000C8C8C8FF000000FF000000FF000000CF0D
:100FC000000000AA000000FF000000FFA0A0A0FF9A
:100FD000F8FCF8FFF8FCF8FFF8FCF8FFF8FCF8FF65
:100FE000F8FCF8FFF8FCF8FFF8FCF8FFF8FCF8FF55
:100FF000F8FCF8FFF8FCF8FFF8FCF8FFF8FCF8FF45
:10100000F8FCF8FFF8FCF8FFF8FCF8FF686868FFE8
:10101000000000FF000000FF000000FF404440FF10
:10102000F0ECF0FFF8FCF8FFF8FCF8FFF8FCF8FF34
:10103000F8FCF8FFF8FCF8FFF8FCF8FFF8FCF8FF04
:10104000F8FCF8FFF8FCF8FFF8FCF8FFF8FCF8FFF4
:10105000F8FCF8FFF8FCF8FFA0A0A0FF000000FFDC
:10106000000000FF000000AA00000079000000FF5F
:10107000000000FF686468FFF8FCF8FFF8FCF8FF68
:10108000F8FCF8FFF8FCF8FFF8FCF8FFF8FCF8FFB4
:10109000F8FCF8FFF8FCF8FFF8FCF8FFF8FCF8FFA4
:1010A000F8FCF8FFF8FCF8FFF8FCF8FFF8FCF8FF94
:1010B000A0A0A0FF000000FF000000FF000000FF54
:1010C000686468FFF8FCF8FFF8FCF8FFF8FCF8FF2C
:1010D000F8FCF8FFF8FCF8FFF8FCF8FFF8FCF8FF64
:1010E000F8FCF8FFF8FCF8FFF8FCF8FFF8FCF8FF54
:1010F000F8FCF8FFF8FCF8FFF8FCF8FFF8FCF8FF44
:10110000686468FF000000FF000000FF0000007935
:1011100000000038000000FF000000FF201C20FF3E
:10112000F8FCF8FFF8FCF8FFF8FCF8FFF8FCF8FF13
:10113000F8FCF8FFF8FCF8FFF8FCF8FFF8FCF8FF03
:10114000F8FCF8FFF8FCF8FFF8FCF8FFF8FCF8FFF3
:10115000F8FCF8FFD0D4D0FF080808FF000000FF1B
:10116000000400FF908C90FFF8FCF8FFF8FCF8FFFB
:10117000F8FCF8FFF8FCF8FFF8FCF8FFF8FCF8FFC3
:10118000F8FCF8FFF8FCF8FFF8FCF8FFF8FCF8FFB3
:10119000F8FCF8FFF8FCF8FFF8FCF8FFF8FCF8FFA3
:1011A000F8FCF8FFF8FCF8FF201C20FF000000FF0F
:1011B000000000FF0000003C00000004000000EB05
:1011C000000000FF000000FFC0C0C0FFF8FCF8FFF7
:1011D000F8FCF8FFF8FCF8FFF8FCF8FFF8FCF8FF63
:1011E000F8FCF8FFF8FCF8FFF8FCF8FFF8FCF8FF53
:1011F000F8FCF8FFF8FCF8FFF8FCF8FF282828FFB7
:10120000000000FF100C10FFB8B4B8FFF8FCF8FFA6
:10121000F8FCF8FFF8FCF8FFF8FCF8FFF8FCF8FF22
:10122000F8FCF8FFF8FCF8FFF8FCF8FFF8FCF8FF12
:10123000F8FCF8FFF8FCF8FFF8FCF8FFF8FCF8FF02
:10124000F8FCF8FFF8FCF8FFF8FCF8FFC0C0C0FF9E
:10125000000000FF000000FF000000EB00000004A1
:10126000F8FCF80000000092000000FF000000FF02
:10127000505450FFF8FCF8FFF8FCF8FFF8FCF8FFBA
:10128000F8FCF8FFF8FCF8FFF8FCF8FFF8FCF8FFB2
:10129000F8FCF8FFF8FCF8FFF8FCF8FFF8FCF8FFA2
:1012A000F8FCF8FF403C40FF282828FFD0D4D0FFAE
:1012B000F8FCF8FFF8FCF8FFF8FCF8FFF8FCF8FF82
:1012C000F8FCF8FFF8FCF8FFF8FCF8FFF8FCF8FF72
:1012D000F8FCF8FFF8FCF8FFF8FCF8FFF8FCF8FF62
:1012E000F8FCF8FFF8FCF8FFF8FCF8FFF8FCF8FF52
:1012F000F8FCF8FF505450FF000000FF000000FF12
:101300000000009200000000F8FCF8000000002C33
:10131000000000FF000000FF000000FFD8D4D8FF4D
:10132000F8FCF8FFF8FCF8FFF8FCF8FFF8FCF8FF11
:10133000F8FCF8FFF8FCF8FFF8FCF8FFF8FCF8FF01
:10134000F8FCF8FFF8FCF8FFF8FCF8FFF8FCF8FFF1
:10135000F8FCF8FFF8FCF8FFF8FCF8FFF8FCF8FFE1
:10136000F8FCF8FFF8FCF8FFF8FCF8FFF8FCF8FFD1
:10137000F8FCF8FFF8FCF8FFF8FCF8FFF8FCF8FFC1
:10138000F8FCF8FFF8FCF8FFF8FCF8FFF8FCF8FFB1
:10139000F8FCF8FFF8FCF8FFD8D4D8FF000000FFF5
:1013A000000000FF000000FF0000002C0000000013
:1013B000F8FCF800F8FCF800000000AE000000FFA8
:1013C000000000FF404440FFF8FCF8FFF8FCF8FF85
:1013D000F8FCF8FFF8FCF8FFF8FCF8FFF8FCF8FF61
:1013E000F8FCF8FFF8FCF8FFF8FCF8FFF8FCF8FF51
:1013F000F8FCF8FFF8FCF8FFF8FCF8FFF8FCF8FF41
:10140000F8FCF8FFF8FCF8FFF8FCF8FFF8FCF8FF30
:10141000F8FCF8FFF8FCF8FFF8FCF8FFF8FCF8FF20
:10142000F8FCF8FFF8FCF8FFF8FCF8FFF8FCF8FF10
:10143000F8FCF8FFF8FCF8FFF8FCF8FFF8FCF8FF00
:10144000404440FF000000FF000000FF000000AE2D
:101450000000000000000000F8FCF800F8FCF800B4
:101460000000002C000000FB000000FF000000FF57
:10147000989498FFF8FCF8FFF8FCF8FFF8FCF8FFE8
:10148000F8FCF8FFF8FCF8FFF8FCF8FFF8FCF8FFB0
:10149000F8FCF8FFF8FCF8FFF8FCF8FFF8FCF8FFA0
:1014A000F8FCF8FFF8FCF8FFF8FCF8FFF8FCF8FF90
:1014B000F8FCF8FFF8FCF8FFF8FCF8FFF8FCF8FF80
:1014C000F8FCF8FFF8FCF8FFF8FCF8FFF8FCF8FF70
:1014D000F8FCF8FFF8FCF8FFF8FCF8FFF8FCF8FF60
:1014E000F8FCF8FF989898FF000000FF000000FF4C
:1014F000000000FB0000002C0000000000000000C5
:10150000F8FCF800F8FCF800F8FCF8000000008691
:10151000000000FF000000FF080408FFC8C8C8FF63
:10152000F8FCF8FFF8FCF8FFF8FCF8FFF8FCF8FF0F
:10153000F8FCF8FFF8FCF8FFF8FCF8FFF8FCF8FFFF
:10154000F8FCF8FFF8FCF8FFF8FCF8FFF8FCF8FFEF
:10155000F8FCF8FFF8FCF8FFF8FCF8FFF8FCF8FFDF
:10156000F8FCF8FFF8FCF8FFF8FCF8FFF8FCF8FFCF
:10157000F8FCF8FFF8FCF8FFF8FCF8FFF8FCF8FFBF
:10158000F8FCF8FFF8FCF8FFC8C8C8FF080808FF17
:10159000000000FF000000FF0000008600000000C7
:1015A0000000000000000000F8FCF800F8FCF80063
:1015B000F8FCF80000000004000000CB000000FF71
:1015C000000000FF181418FFD0D4D0FFF8FCF8FF7B
:1015D000F8FCF8FFF8FCF8FFF8FCF8FFF8FCF8FF5F
:1015E000F8FCF8FFF8FCF8FFF8FCF8FFF8FCF8FF4F
:1015F000F8FCF8FFF8FCF8FFF8FCF8FFF8FCF8FF3F
:10160000F8FCF8FFF8FCF8FFF8FCF8FFF8FCF8FF2E
:10161000F8FCF8FFF8FCF8FFF8FCF8FFF8FCF8FF1E
:10162000F8FCF8FFF8FCF8FFF8FCF8FFD0D0D0FF8A
:10163000181418FF000000FF000000FF000000CB9E
:101640000000000800000000000000000000000092
:10165000F8FCF800F8FCF800F8FCF800F8FCF800DA
:1016600000000020000000E7000000FF000000FF75
:10167000101010FFC8C4C8FFF8FCF8FFF8FCF8FF12
:10168000F8FCF8FFF8FCF8FFF8FCF8FFF8FCF8FFAE
:10169000F8FCF8FFF8FCF8FFF8FCF8FFF8FCF8FF9E
:1016A000F8FCF8FFF8FCF8FFF8FCF8FFF8FCF8FF8E
:1016B000F8FCF8FFF8FCF8FFF8FCF8FFF8FCF8FF7E
:1016C000F8FCF8FFF8FCF8FFF8FCF8FFF8FCF8FF6E
:1016D000C8C8C8FF101010FF000000FF000000FF86
:1016E000000000E7000000200000000000000000F3
:1016F0000000000000000000F8FCF800F8FCF80012
:10170000F8FCF800F8FCF800F8FCF8000000002CE9
:10171000000000EF000000FF000000FF080808FFC5
:10172000909490FFF8FCF8FFF8FCF8FFF8FCF8FF45
:10173000F8FCF8FFF8FCF8FFF8FCF8FFF8FCF8FFFD
:10174000F8FCF8FFF8FCF8FFF8FCF8FFF8FCF8FFED
:10175000F8FCF8FFF8FCF8FFF8FCF8FFF8FCF8FFDD
:10176000F8FCF8FFF8FCF8FFF8FCF8FFF8FCF8FFCD
:10177000F8FCF8FF909490FF080808FF000000FFB5
:10178000000000FF000000EF0000002C000000003F
:101790000000000000000000000000000000000049
:1017A000F8FCF800F8FCF800F8FCF800F8FCF80089
:1017B000F8FCF800F8FCF80000000030000000E73A
:1017C000000000FF000000FF000000FF404040FF5D
:1017D000D8D4D8FFF8FCF8FFF8FCF8FFF8FCF8FFC5
:1017E000F8FCF8FFF8FCF8FFF8FCF8FFF8FCF8FF4D
:1017F000F8FCF8FFF8FCF8FFF8FCF8FFF8FCF8FF3D
:10180000F8FCF8FFF8FCF8FFF8FCF8FFF8FCF8FF2C
:10181000F8FCF8FFD8D4D8FF404040FF000000FF9C
:10182000000000FF000000FF000000E700000030A3
:1018300000000000000000000000000000000000A8
:101840000000000000000000F8FCF800F8FCF800C0
:10185000F8FCF800F8FCF800F8FCF800F8FCF800D8
:10186000F8FCF80000000020000000CB000000FFA2
:10187000000000FF000000FF000000FF505450FF78
:10188000C8C4C8FFF8FCF8FFF8FCF8FFF8FCF8FF44
:10189000F8FCF8FFF8FCF8FFF8FCF8FFF8FCF8FF9C
:1018A000F8FCF8FFF8FCF8FFF8FCF8FFF8FCF8FF8C
:1018B000F8FCF8FFC0C0C0FF505450FF000400FF08
:1018C000000000FF000000FF000000FF000000CB50
:1018D00000000020000000000000000000000000E8
:1018E00000000000000000000000000000000000F8
:1018F000F8FCF800F8FCF800F8FCF800F8FCF80038
:10190000F8FCF800F8FCF800F8FCF800F8FCF80027
:101910000000000400000086000000FB000000FF43
:10192000000000FF000000FF000000FF202020FF5B
:10193000606460FFA0A0A0FFC8CCC8FFE8E8E8FF93
:10194000F0F4F0FFF0F4F0FFE8E8E8FFC8CCC8FFDF
:10195000A0A0A0FF686468FF202020FF000000FF17
:10196000000000FF000000FF000000FF000000FB7F
:1019700000000086000000040000000000000000DD
:101980000000000000000000000000000000000057
:101990000000000000000000F8FCF800F8FCF8006F
:1019A000F8FCF800F8FCF800F8FCF800F8FCF80087
:1019B000F8FCF800F8FCF800F8FCF800F8FCF80077
:1019C00000000028000000B2000000FF000000FF3F
:1019D000000000FF000000FF000000FF000000FF0B
:1019E000000000FF000000FF000000FF000000FFFB
:1019F000000000FF000000FF000000FF000000FFEB
:101A0000000000FF000000FF000000FF000000FFDA
:101A1000000000B2000000280000000000000000EC
:101A200000000000000000000000000000000000B6
:101A300000000000000000000000000000000000A6
:101A4000F8FCF800F8FCF800F8FCF800F8FCF800E6
:101A5000F8FCF800F8FCF800F8FCF800F8FCF800D6
:101A6000F8FCF800F8FCF800F8FCF800F8FCF800C6
:101A70000000002C00000092000000EB000000FFBE
:101A8000000000FF000000FF000000FF000000FF5A
:101A9000000000FF000000FF000000FF000000FF4A
:101AA000000000FF000000FF000000FF000000EB4E
:101AB0000000009200000030F8FCF800F8FCF8008C
:101AC0000000000000000000000000000000000016
:101AD0000000000000000000000000000000000006
:101AE0000000000000000000F8FCF800F8FCF8001E
:101AF000F8FCF800F8FCF800F8FCF800F8FCF80036
:101B0000F8FCF800F8FCF800F8FCF800F8FCF80025
:101B1000F8FCF800F8FCF800F8FCF800F8FCF80015
:101B2000000000040000003C00000079000000AA52
:101B3000000000CF000000E7000000F3000000F309
:101B4000000000E7000000CF000000AA0000007DB8
:101B50000000003C00000004F8FCF800F8FCF8006D
:101B6000F8FCF800F8FCF80000000000000000009D
:101B70000000000000000000000000000000000065
:101B80000000000000000000000000000000000055
:101B90000000000000000000000000000000000045
:101BA0000000000000000000000000000000000035
:101BB0000000000000000000000000000000000025
:101BC000000000000000000000000000F8FCF82009
:101BD000F8FCF861F8FCF896F8FCF8BAF8FCF8CFD5
:101BE000F8FCF8DBF8FCF8DBF8FCF8CFF8FCF8BA06
:101BF000F8FCF892F8FCF861F8FCF824000000000A
:101C000000000000000000000000000000000000D4
:101C1000F8FCF800F8FCF800F8FCF800F8FCF80014
:101C2000F8FCF800F8FCF800F8FCF800F8FCF80004
:101C3000F8FCF800F8FCF8000000000000000000CC
:101C40000000000000000000000000000000000094
:101C50000000000000000000000000000000000084
:101C60000000000000000000F8FCF818F8FCF8790B
:101C7000F8FCF8D7F8FCF8FFF8FCF8FFF8FCF8FFE0
:101C8000F8FCF8FFF8FCF8FFF8FCF8FFF8FCF8FFA8
:101C9000F8FCF8FFF8FCF8FFF8FCF8FFF8FCF8FF98
:101CA000F8FCF8FFF8FCF8D7F8FCF879F8FCF8181D
:101CB0000000000000000000F8FCF800F8FCF8004C
:101CC000F8FCF800F8FCF800F8FCF800F8FCF80064
:101CD000F8FCF800F8FCF800F8FCF800F8FCF80054
:101CE00000000000000000000000000000000000F4
:101CF00000000000000000000000000000000000E4
:101D00000000000000000000F8FCF818F8FCF8964D
:101D1000F8FCF8F7F8FCF8FFF8FCF8FFE8ECE8FF4F
:101D2000A8A8A8FF707470FF484848FF303030FF03
:101D3000202020FF202020FF303030FF484848FF7F
:101D4000707070FFA8A8A8FFE8ECE8FFF8FCF8FFA7
:101D5000F8FCF8FFF8FCF8F7F8FCF896F8FCF8182F
:101D6000F8FCF800F8FCF800F8FCF800F8FCF800C3
:101D7000F8FCF800F8FCF800F8FCF800F8FCF800B3
:101D8000F8FCF800F8FCF80000000000000000007B
:101D90000000000000000000000000000000000043
