:020000040800F2
:10000000B8350020C10100088F1F0008C702000892
:100010008D1F0008450600080924000800000000A4
:10002000000000000000000000000000B5200008F3
:100030007B0600080000000013020008B72000083B
:10004000DB010008DB010008DB010008DB01000820
:10005000DB010008DB010008DB010008DB01000810
:10006000DB010008DB010008DB010008DB01000800
:10007000DB010008DB010008DB010008DB010008F0
:10008000DB010008DB010008DB010008DB010008E0
:10009000DB010008DB010008DB010008DB010008D0
:1000A000DB010008DB010008DB010008DB010008C0
:1000B000DB010008DB010008DB010008DB010008B0
:1000C000DB010008DB010008DB010008DB010008A0
:1000D000DB010008FD230008DB010008DB0100084C
:1000E000DB010008DB010008DB010008DB01000880
:1000F000DB010008DB010008DB010008DB01000870
:10010000DB010008DB010008DB010008DB0100085F
:10011000DB010008DB010008DB010008DB0100084F
:10012000DB010008DB010008DB010008DB0100083F
:10013000DB010008DB010008DB010008DB0100082F
:10014000DB010008DB010008DB010008DB0100081F
:10015000DB010008DB010008DB010008DB0100080F
:10016000DB010008DB010008DB010008DB010008FF
:10017000DB010008DB010008DB01000800000000D3
:10018000DB010008DB010008DB010008DB010008DF
:10019000DB010008DB010008DB010008DB010008CF
:1001A000DB010008DB010008DB010008DFF80CD0F0
:1001B00000F006FA004800473B060008B83500206A
:1001C0000648804706480047FEE7FEE7FEE7FEE7F1
:1001D000FEE7FEE7FEE7FEE7FEE7FEE7C5210008D3
:1001E000AD010008EFF3108072B6704780F31088FD
:1001F0007047434A1368012B04D04FF0010313608A
:10020000404A1060404A116040484FF08051016000
:100210007047EFF3108272B63948016851B34FF05E
:10022000000101603748016891B1EFF309811EF0C8
:10023000100F08BF21ED108B21E9F00F4FF00004E3
:100240001EF0100F08BF012441F8044D0068016042
:100250002D490968096808C9B1E8F00F002B18BFDB
:10026000B1EC108B81F309884EF0100E002B18BFF3
:100270002EF0100E82F310884EF0040E70472249C3
:100280000860EFF3148222F0040282F314881D49FF
:100290004FF0000008601A494FF0010008601C4848
:1002A0004FF47F01D0F8002041EA020101601748B5
:1002B0004FF08051016017480068006880F308889B
:1002C00061B662B670471EF0040F0CBFEFF30880F2
:1002D000EFF3098020E9F00F40F804ED40F804ED59
:1002E0001EF0040F0CBF80F3088880F3098800B566
:1002F00005F0C4FC5DF804EB4EF0040E70470000FE
:10030000A4310020982E0020A02E002004ED00E053
:1003100020ED00E008ED00E02DE9F05F054600204B
:1003200092469B4688460646814640241BE0284666
:1003300041464746224600F0DEF853465A46C01A68
:10034000914110D311461846224600F0C5F82D1AE7
:1003500067EB01084F4622460120002100F0BCF85F
:1003600017EB00094E41201EA4F10104DFDC4846D2
:1003700031462A464346BDE8F09F40EA01039B0709
:1003800003D009E008C9121F08C0042AFAD203E00A
:1003900011F8013B00F8013B521EF9D27047D2B26E
:1003A00001E000F8012B491EFBD270470022F6E75E
:1003B00010B513460A4604461946FFF7F0FF2046DB
:1003C00010BD10B5044604E00B7800F8013B03B102
:1003D000491C521EF8D2204610BD421C10F8011BC9
:1003E0000029FBD1801A704710B5002200E0521C92
:1003F000835C8C5CA34201D1002BF8D1D8B2E1B26E
:10040000401A10BD30B504460020034600E05B1CD6
:10041000934203D2E05CCD5C401BF8D030BD034674
:1004200011F8012B00F8012B002AF9D1184670476A
:1004300030B505460020034600E05B1C934205D220
:10044000EC5CC85C201A01D1002CF6D130BD2DE93E
:10045000F04791460F4680460446002614F8015B9B
:100460002DB100F059F80068405DC007F6D12B2D82
:1004700002D02D2D18D0641E4A463946204600F081
:100480004FF827B13968A14201D1C7F80080710542
:100490004FF002040BD54042002803DD09F026F995
:1004A0000460A007BDE8F08746F48066E4E7002812
:1004B000F8DA09F01BF904606FF00040F2E770B55C
:1004C000064609F013F9046805460A220021304661
:1004D000FFF7BDFF2C6070BD202A04DB203A00FA34
:1004E00002F1002070479140C2F1200320FA03F38B
:1004F000194390407047202A04DB203A21FA02F089
:100500000021704721FA02F3D040C2F1200291404D
:100510000843194670470000004870479497000848
:100520002DE9F05F82460078002715468B460AF1D8
:100530000104B946302801D09DB113E014F8010B35
:100540000127782803D0582801D045B10AE00DB121
:10055000102D07D10027102514F8010B02E0082503
:1005600000E00A250026B0460EE005FB080005FB6A
:1005700006F1012701EB10461FFA80F8B6F5803F1F
:1005800000D3B94614F8010B294600F02BF80028D7
:10059000EBDABBF1000F05D00FB1641E00E054464A
:1005A000CBF80040B9F1000F06D009F09FF8022106
:1005B0000160C81EBDE8F09F48EA0640FAE7000067
:1005C000064C074D06E0E06840F0010394E80700A0
:1005D00098471034AC42F6D3FFF7ECFDF4B30008B3
:1005E00014B400083A2800D2303820F02002412A02
:1005F00001D3A2F13700884201D34FF0FF3070479A
:1006000030B58C1810F8012B12F00F0301D110F83F
:10061000013B120906D110F8012B03E010F8015B31
:1006200001F8015B5B1EF9D101E001F8013B521EAC
:10063000FBD1A142E6D3002030BD80B506F0F0FD2D
:10064000002080BDFEE770B5002341F221020129A0
:1006500011DB0478013983EA04250824AEB282EA6A
:1006600046032D04A4F1010458BF730025061D465E
:10067000F4D10130EBE798B270BD704770470000CD
:10068000EB4A0329136823F4407313604FF440735B
:1006900038BF0B0211680B2841EA03011160116891
:1006A0004FEAC00321F0F80111604FF0200188BF2C
:1006B00001EBC0031068184340F00200106010689E
:1006C00040F48030106070471348016889050FD5E9
:1006D000016821F400710160016841F4006101606A
:1006E000016821F400610160016841F4007101605A
:1006F000016849050FD5016821F480610160016836
:1007000041F480510160016821F480510160016869
:1007100041F4806101607047003C0240E54A0329D2
:10072000136823F44073136004D1116848F2040382
:10073000194306E01368012914BF43F4004143F054
:1007400004011160116841EA002040F4803010601B
:10075000704700BFD74A136823F4407313601368CF
:100760001360136843F0010313600170704700BF0A
:1007700010B5D0490C6824F440740C600C6844F443
:1007800040740C600C6844F001040C600260BFF31C
:100790006F8F436010BD00BFC64A136823F44073D7
:1007A0001360136843F480731360136843F001030C
:1007B00013600180704700BFBE4A136823F4407382
:1007C0001360136843F400731360136843F001036C
:1007D00013600160704700BF32480168C90606D542
:1007E000B349CA6942F01002CA6110210160016870
:1007F000890606D5AE49CA6942F00802CA612021BD
:1008000001600168490606D5A949CA6942F0040297
:10081000CA61402101600168090606D5A449CA6978
:1008200042F00202CA61802101600168C90507D552
:100830009F49CA6942F00102CA614FF480710160A8
:100840000168890706D59A49CA6942F02002CA613F
:1008500002210160704700BFF8B5044694480021AA
:10086000104EC16100F07EFA0546671C3068C00377
:1008700009D5002FFAD024B100F074FA401BA04231
:10088000F4D90320F8BD3068C0071CBF01203060D8
:10089000306810F4F97F03D0FFF79EFF0120F8BD08
:1008A0000020F8BD0C3C0240B0B543F6FF7120EAD1
:1008B000010303F17841B1F5803F3CBF880BB0BD27
:1008C0004FF6FF7120EA010417498C4204BF04204F
:1008D000B0BD164D05F101620240501900F58015BA
:1008E000B5F5602F03D2052000EB5540B0BDA3F154
:1008F0000163B3F5803F03D20C2000EB9330B0BD11
:1009000001F580139C4204BF1020B0BDB0F5202F2C
:1009100003D2112101EB5040B0BD01F5D8111720D1
:100920008A4208BF1620B0BD000001080000EEF7A3
:1009300090F83510022909D1052180F8351000689A
:10094000016821F0010101600020704780214165AC
:100950000120704780B509484FF0FF310022016146
:1009600002614161426101600260416042608160F8
:10097000826000F035FA002080BD00BF10380240D0
:100980002DE9F843DFF82881054698F8180001287A
:1009900001D1022640E0012088F818004CF25030C6
:1009A0008946FFF759FF064698BB4FF0FF30C9F85C
:1009B000000028683F4C01280ED16968287CFFF7A9
:1009C000ADFE4CF25030FFF747FF0646206848F274
:1009D0000401884320601AE0A8680746E9680844D3
:1009E000874210D2297C3846FFF74AFE4CF250303D
:1009F000FFF732FF0646206820F0FA00206026B993
:100A0000A8680137EAE7002601E0C9F80070FFF79F
:100A10005BFE002088F818003046BDE8F88300BF70
:100A20002448016841F0004101600020704700BF88
:100A3000103C02402DE9F041DFF87480074698F839
:100A40001800012804BF0220BDE8F081012088F8C9
:100A500018004CF250301E4614460D46FFF7FCFEBF
:100A600008BB022F07D0012F0AD077B9E1B2284680
:100A7000FFF770FE0EE028462146FFF79DFE09E0D5
:100A8000A1B22846FFF788FE04E0284622463346F6
:100A9000FFF76EFE4CF25030FFF7DEFE05490A68A4
:100AA00022F001020A60002188F81810BDE8F081E8
:100AB0006C2D0020103C02400648C168B1F1FF3F98
:100AC000C4BF002070470449016004490160C06848
:100AD000C00F7047043C024023016745AB89EFCD4E
:100AE0002DE9F84F944A0A249042944A08BF0924F9
:100AF00002444FEAB223092B38BF4FEAB224904A8E
:100B000000944FF0000A01230F24A2F57E7B4FF0E2
:100B100000090027102F08BFBDE8F88F03FA07F27D
:100B20000A4240D00AF00C0C04FA0CF8BC085BF83E
:100B300024E0009B0EEA080503FA0CF6D243B54206
:100B400013D17F4B1D6815401D605D6815405D60C9
:100B50009D6815409D607B4B1D6815401D605BF8CE
:100B6000245025EA08054BF824500323056803FAAE
:100B700009F4A54305600AF01C050F2303FA05F5E7
:100B80006FF0030303EA57060644336AAB4333624C
:100B9000C368A343C36043681A404260826801236C
:100BA000A2430F2482600AF1040A09F10209013705
:100BB000B0E700BF2DE9FC4F5F4A0A2490425F4A2C
:100BC00008BF092402444FEAB223092B38BF4FEA79
:100BD000B2244FF0010B4FF000084FF0000E00223E
:100BE0000094BEF1200F08BFBDE8FC8F0F680BFA20
:100BF00002F6374200F093804F68122F00F2958082
:100C00000BFA07F414F0061F00F08F80032303FA99
:100C10000EF48368CD68A34305FA0EF52B43836079
:100C2000C7F3001345689340B5432B436FEA040CA8
:100C30004FEA420A4360C4688D6804EA0C0405FA6E
:100C40000AF52C43C46047F01004122C12D108F0AE
:100C50001C040F2303FA04F56FF0030303EA5207A1
:100C60000744D7F820900B6929EA0505A3402B43D8
:100C70003B624F68036807F0030403EA0C0304FABD
:100C80000AF423430360FB0049D5002301932E4B54
:100C90002B4F1C461B6822F0030543F4804323605E
:100CA0002368BC4603F4804301933D44019F274FD2
:100CB00008F00C030F24B946EF599C4027EA0404BE
:100CC000009F07FA03F3234345F80930DCF80030AE
:100CD0004D6843EA0604EF0358BF23EA0604CCF844
:100CE0000040DCF80430AF0343EA060458BF23EAAF
:100CF0000604CCF80440DCF80830EF0243EA0604AE
:100D000058BF23EA06040F4BCCF808401F461B6867
:100D1000AD0243EA060458BF23EA06043C6008F12A
:100D200004080EF1020E01325BE7032303FA0EF40E
:100D30006FEA040CF2467EE7002402400000FEBF8A
:100D4000003C01400C3C01404438024008FCFFFFDD
:100D50000069084018BF01207047002A08BF090435
:100D60008161704701480068704700BFB4310020BE
:100D700080B50B48016841F400710160016841F4DD
:100D800080610160016841F480710160032000F01E
:100D90008DF8002000F006F800F024F8002080BD57
:100DA000003C024070B50D4E044630784FF47A7125
:100DB000B1FBF0F0F8490968B1FBF0F000F066FE15
:100DC00001250F2C08D838B94FF0FF3021460022FA
:100DD000002500F04FF87460284670BD0400002024
:100DE0007047000082B00020504901904A6842F4E8
:100DF00080424A604A6802F480420192019A00905F
:100E0000086840F080500860086800F0805000904A
:100E1000009802B0704700BF002808D400F01F01FE
:100E2000012202FA01F1024A400942F820107047FB
:100E300080E200E000280CD400F01F01012202FA39
:100E400001F1044A400942F82010BFF34F8FBFF36D
:100E50006F8F704780E100E0002808D400F01F0188
:100E6000012202FA01F1024A400942F820107047BB
:100E700000E100E0B0B5134B4FF0FF351B68C3F342
:100E80000223DC1E83F0070338BF0024042B28BF95
:100E9000042305FA03F3994305FA04F3A1409A43A6
:100EA0001143BDE8B04001F0B1BA00BF05494FF6AB
:100EB000FF030A681A4060F30A22034810430860DF
:100EC000704700BF0CED00E00000FA057CB5002083
:100ED00001901648164E0168164D41F08051016090
:100EE000006800F080500190019801203060FFF709
:100EF00039FF04462868C00306D4FFF733FF001B00
:100F0000B0F57A7FF6D90DE001207060FFF72AFF77
:100F100004462868800307D4FFF724FF001BB0F5C0
:100F20007A7FF6D903207CBD00207CBD403802408A
:100F300040000E42047000402DE9F041002800F00E
:100F40008680924B0446D3F80004884600F00F00D8
:100F5000884207D283F80084D3F8000400F00F0021
:100F6000404574D12068810711D5410703D59968A0
:100F700041F4E0519960010703D5996841F460415B
:100F80009960A1689A6822F0F00211439960C00745
:100F90002BD06068811E022903D21968890109D407
:100FA00055E0012803D11968890303D44FE019687B
:100FB00089074CD599681D4621F0030108439860C4
:100FC000FFF7D0FE064641F288376068A9682B46D5
:100FD00001F00C01B1EB800F07D0FFF7C3FE801BBF
:100FE000B842F2D90320BDE8F081D3F8000400F044
:100FF0000F00404507D983F80084D3F8000400F0BF
:101000000F00404523D12068410705D5E1689A6863
:1010100022F4E05211439960000706D520699968CF
:1010200021F4604141EAC00098601C4600F0D2F80B
:10103000A168084AC1F30311515CC84062490860C5
:1010400056480068FFF7AEFE0020BDE8F0810120A1
:10105000BDE8F081C09700082DE9F041FFF782FE5E
:101060004A4F0446386840F001003860386880070D
:1010700005D4FFF777FE001B0228F7D941E0386856
:1010800040F080003860FFF76DFE0546002041F219
:101090008838B860BE68FFF765FE044616F00C0F8E
:1010A00003D0601B4045F5D92BE0386820F4502070
:1010B000386038688603FFF755FE0546002E03D5D5
:1010C000281B6428F5D91CE0386820F0807038604F
:1010D00038688401FFF746FE0646002C03D5701BD6
:1010E0000228F5D90DE0386820F080603860386853
:1010F0000501FFF737FE0446002D05D5A01B022889
:10110000F5D90320BDE8F081386820F080503860C0
:101110003868800006D5FFF725FE011B0320022951
:10112000F6D930E01A48404978601A48C7F8840078
:10113000C7F88800F86820F4F850F860F86820F4E0
:101140000050F860F86820F48040F860F86840F4D7
:101150001F00F860F86840F40010F860F86840F488
:101160008000F860786F20F001007867786F40F0B9
:10117000807078671448016008480068FFF712FE25
:10118000002818BF0120BDE8F08100BF00380240F0
:10119000103000040030002420000020080000204F
:1011A00009480A4900680968094AC1F38221515C6B
:1011B000C84070470448054900680968044AC1F3FB
:1011C0004231515CC840704720000020083802407E
:1011D000D097000810B5134C606800F00C00082888
:1011E00004D0042814BF1048104810BD226820689D
:1011F00002F03F0240020D485CBF42F20040C0F2E4
:10120000F40021680023C1F38811A0FB0101FFF75E
:1012100083F821680222C1F3014102EB4101B0FBD6
:10122000F1F010BD043802400024F40040787D0144
:101230002DE9FC41002800F0C88004460078BE4E2D
:10124000C00744D0B06800F00C00042805D1306815
:1012500080033CD56068D0BBB7E0B06800F00C00FC
:10126000082802D170684002F1D46768B7F5803F62
:1012700006D03068B7F5A02F12D140F4802030603E
:10128000306840F480303060FFF76CFD0546306810
:1012900080031CD4FFF766FD401B6428F7D9D7E014
:1012A00020F480303060306820F480203060FFF718
:1012B00059FD0546002FEAD106E0FFF753FD411B1B
:1012C0000320642900F2368130688003F5D4207849
:1012D00080072CD5B06810F00C0F07D0B06800F074
:1012E0000C00082809D17068400206D430688007D5
:1012F00016D5E068012813D067E0E068002800F008
:10130000C8808E4801210160FFF72CFD054630683A
:10131000800705D4FFF726FD401B0228F7D997E088
:101320002069316821F0F80141EAC000306020787E
:10133000000720D56169814871B10121C0F8801E84
:10134000FFF710FD0546706F800714D4FFF70AFD04
:10135000401B0228F7D97BE00021C0F8801EFFF770
:1013600001FD0546706F800705D5FFF7FBFC401BAC
:101370000228F7D96CE02078400729D4A769002F0C
:1013800000F0D780B06800F00C00082863D1012F6E
:101390001BD0E169706800F480028A4215D1216A8D
:1013A00000F03F028A4210D147F6C071626A0140E4
:1013B00091420AD1A16A00F440328A4205D1E16A21
:1013C00000F07060884200F0B4800120BDE8FC812C
:1013D000306C4FF00008C0000CD4CDF80480306CA5
:1013E0004FF0010840F080503064306C00F08050C5
:1013F00001900198524F3868C0050FD4386840F406
:1014000080703860FFF7AEFC05463868C00505D42B
:10141000FFF7A8FC401B0228F7D919E0A768012FA5
:1014200005D0306F052F45D140F004003067306F94
:1014300040F001003067FFF795FC054641F2883720
:10144000306F80074ED4FFF78DFC401BB842F7D9B0
:101450000320BDE8FC813949002088460866FFF773
:1014600081FC0546022F0AD147463068800142D5EB
:10147000FFF778FC411B03200229F6D95AE03068B7
:10148000800156D5FFF76EFC411B03200229F6D9D7
:1014900050E02A4800210160FFF764FC05463068EF
:1014A00080077FF544AFFFF75DFC411B0320022955
:1014B000F5D93FE020F001003067306F20F00400E4
:1014C0003067FFF74FFC0546002FB7D141F2883750
:1014D000306F800706D5FFF745FC411B0320B9425A
:1014E000F6D927E0B8F1000F3FF448AF306C20F098
:1014F0008050306442E71C341FCC084340EA82101D
:10150000D9034FF6FF72914340EA0460A1F58031A0
:101510000843706001203866FFF724FC04463068F9
:10152000800106D4FFF71EFC011B03200229F6D917
:1015300000E00020BDE8FC81003802400000474286
:101540000070004090F851007047F8B5B0B3002427
:101550008462054690F8510000284FF0000005D144
:10156000284685F8504000F02DF8A86A022185F839
:10157000511095E84E001A430F68324327F0400798
:101580000F602B691A436B691A43AB6903F4007649
:101590003243EE6932432E6A32431043086004201E
:1015A0006A6A00EA134010434860C86920F400608A
:1015B000C86101206C6585F8510000E001242046D7
:1015C000F8BD000010B586B0044601A81421FEF74E
:1015D000EDFE21681448814224D10021134A009174
:1015E000536900F5444043F480135361536903F495
:1015F00080130093009B0091136843F02003136055
:10160000126802F020020092052205920322CDE921
:101610000312022102914FF460710191009901A916
:10162000FFF7C8FA06B010BD005001403038024044
:101630002DE9F843044640681D4617460E46B0F5AE
:10164000827F02D1A06800287BD094F85000012846
:1016500004BF0220BDE8F8834FF0010984F85090E0
:10166000FFF780FB804694F85100012861D10120EA
:10167000002E5FD0002F5DD0042084F851000020A0
:101680006065E787A787A663A0862063C4E910008A
:10169000E086A1682068B1F5004F03D1016821F40C
:1016A000804101600168490603D4016841F04001AE
:1016B0000160E0686E1C60B3E08F68B320688168E9
:1016C000C90708D1FFF74EFB002EF5D0A0EB0800AC
:1016D000A842F1D341E0A16BC06821F8020BA163DD
:1016E000E08F0138E087E7E720688168C90707D104
:1016F000FFF738FB6EB1A0EB0800A84209D32CE03D
:10170000007BA16B0870A06B0130A063E08F0138F3
:10171000E087E08F0028E7D120462946424600F0C6
:1017200037FC08B120206065606D002818BF0120DB
:1017300000E00220002184F8501084F85190BDE8A8
:10174000F883042084F851002046314632463B4657
:10175000009500F0B2F8BDE8F8830320EAE72DE930
:10176000F843044690F85000012804BF0220BDE869
:10177000F8834FF001091D4616460F4684F8509035
:10178000FFF7F0FA804694F85100012851D101206A
:10179000002F00F08B80002E00F08880032084F85A
:1017A000510000206065E686A6862763A087A063B7
:1017B000C4E91000E087A1682068B1F5004F03D1AB
:1017C000016841F4804101600168490603D4016861
:1017D00041F0400101606168731EE268B1FA81F175
:1017E000B3FA83F349095B091943B2F5006F22D1BB
:1017F00031B137F8021BC1602763E08E0138E08603
:101800006E1CE08ED0B320688168890708D4FFF78A
:10181000A9FA002EF5D0A0EB0800A842F1D344E0CD
:10182000216B31F8022BC2602163E08E0138E08623
:10183000E7E702203AE039B139780173206B0130D3
:101840002063E08E0138E0866E1CE08EB0B1206827
:101850008168890708D4FFF785FA002EF5D0A0EB40
:101860000800A842F1D320E0216B09780173206BB6
:1018700001302063E08E0138E086E6E72046294605
:10188000424600F0ADFB08B120206065A06838B981
:10189000002000902068C168009180680090009846
:1018A000606D002818BF012000E00320002184F8AB
:1018B000501084F85190BDE8F8832DE9F8430446B0
:1018C00090F85000012804BF0220BDE8F8830120F1
:1018D0001E4615460F4684F85000FFF743FA94F869
:1018E00051108146012969D10120002F00F0AF80FD
:1018F000002D00F0AC80002E00F0A98094F851007B
:1019000004281CBF052084F8510000206065E6878C
:10191000E686A563A6872763C4E91000A68620682B
:101920000168490603D4016841F040010160616823
:10193000731EE268B1FA81F1B3FA83F3DDF8208017
:1019400049095B091943B2F5006F45D131B137F848
:10195000021BC1602763E08E0138E086012608F192
:101960000105E08E10B9E08F002878D020688168EA
:1019700089070CD5E18E012E09D141B1216B0026DA
:1019800031F8022BC2602163E18E0139E186816862
:10199000C9070AD0E18F41B1A16BC068012621F8C7
:1019A000020BA163E08F0138E087FFF7DBF9002D20
:1019B000D7D0A0EB09004045D3D347E06068B0F52D
:1019C000827F07D10220042941D1A16800293FF478
:1019D0008BAF3CE002203AE039B139780173206BDB
:1019E00001302063E08E0138E086012608F1010510
:1019F000E08E08B9E08F90B32068816889070ED522
:101A0000E18E012E0BD151B1216B002609780173B3
:101A1000216B206801312163E18E0139E186816803
:101A2000C9070BD0E18F49B1A16BC06801260870CE
:101A3000A06B0130A063E08F0138E087FFF792F9D7
:101A4000002DD5D0A0EB09004045D1D303200021C3
:101A500084F85010012184F85110BDE8F883204625
:101A600041464A4600F0BCFA18B1202060650120CA
:101A7000EDE7A16800200029E9D100902168CA683B
:101A80000092896800910099E1E70000411E002062
:101A9000B0EB116F1CBF01207047044AF023516066
:101AA00003490B70072190601160704710E000E05F
:101AB00023ED00E07047704770477047F8B5044663
:101AC00000680168C268466901F02F0502F0200332
:101AD000202D05D123B12046BDE8F84000F0B8BB69
:101AE0005FEA017E07D006F0010686F0010712F4D6
:101AF000907F22D10FB311400A060AD4490675D54A
:101B0000C16821F04001C160202084F83900616C77
:101B10006EE094F83910212968D1A268216AB2F5E3
:101B2000805F5AD10A886FF35F2242602269002ADF
:101B300014BF01310231216253E0CD0718BF12F406
:101B4000807503D0E56B45F00105E56301F0040500
:101B50004FF0010C8CEA95053D4303D1E56B45F050
:101B60000205E56301F002058CEA55053D4303D10A
:101B7000E56B45F00405E563334318BF0123BEF16F
:101B8000000F04D51BB1E36B43F00803E363E36B81
:101B900063B31140890603D5204600F059FB206845
:101BA0004069E16B00F0400001F00801401823D0CB
:101BB000204600F01BFB20684169490617D54169A2
:101BC00021F040014161606B88B113490165FEF766
:101BD000AFFE58B1606B016D0BE04A1C22620978C0
:101BE0004160E18C0139E18409040BD0F8BD216D1D
:101BF0002046BDE8F8400847216D20468847002070
:101C0000E063F8BDC16821F08001C160C16841F0A6
:101C10004001C160F8BD00BFE121000880B310B5EC
:101C2000044690F8390058B9002084F8380020465E
:101C300000F0EAFA616E09B91249616620468847E8
:101C4000242084F839002068C16821F40051C16063
:101C5000204600F039FB2068016921F490410161C0
:101C6000416921F02A014161C16841F40051C1601C
:101C700000202021E06384F8391084F83A1010BD68
:101C800001207047B91C000880B50168BE48814238
:101C900018BF80BD074900F570400A6822F01002A5
:101CA0000A604FF4C061FEF71BFF2520BDE88040AD
:101CB000FFF7C0B84438024010B586B0044601A80A
:101CC0001421FEF773FB2168AF4881422CD100211B
:101CD0008D4A0091536900F5704043F01003536141
:101CE000536903F010030093009B0091136843F0C5
:101CF00001031360126802F00102009207220592AC
:101D00000322CDE90312022102914FF4C061019137
:101D1000009901A9FEF74EFF252003210022FFF7BD
:101D2000A9F82520FFF798F806B010BDB0B5034616
:101D300090F83A00202806D10120E9B1E2B193F8E9
:101D40003800012801D10220B0BD00202224DA850C
:101D5000D86383F83A401C68E56845F48075E5600F
:101D6000656945F0010565619A85996283F83800D7
:101D7000E16841F02001E160B0BD000010B50068ED
:101D80008149884218BF10BD04F02CF9094C204647
:101D900010F8041B04F0FDFB04F1200004F0A8FC83
:101DA000784821460122FFF7C1FFBDE8104004F04A
:101DB00025B900BF3001002070472DE9F8430446E3
:101DC00090F8390020280AD10E46012000294AD077
:101DD0001746002A47D094F83800012802D1022083
:101DE000BDE8F8834FF000090120C4F83C9084F866
:101DF000380021201D4684F83900FEF7B3FF8046E5
:101E0000E784A78484F83890E08CF0B1E08C8021DE
:101E10000138E084A768204642462B4600F0C2FA0B
:101E2000B7F5805F0BD1B8B93288206821696FF3AC
:101E30005F224260002914BF01360236E4E758B938
:101E400016F8010B21684860DEE720464021424633
:101E50002B4600F0A7FA10B10320BDE8F88320203C
:101E600084F839000020BDE8F8837047704700000F
:101E70002DE9F04387B000272348069701970168B2
:101E8000224C41F0200101600168002201F0200194
:101E90000191019901970168402641F0800101609C
:101EA000016801F08001019101990197016841F0F9
:101EB000010101600068402100F0010001900198DB
:101EC0002046FEF74AFF04F5006528464FF480617E
:101ED00000224FF48068FEF740FF4FF00109CDE982
:101EE0000477CDE9026902AE20463146FEF762FE74
:101EF00028463146CDE90477CDE90289FEF75AFE3E
:101F000007B0BDE8F08300BF303802400014024043
:101F100010B50E480E4B4FF4827200214FF400743E
:101F2000C0E900320A22C0E90211C0E90411C0E987
:101F30000641C0E90811C0E90A12FFF706FB18B113
:101F4000BDE81040FEF79ABB10BD00BF082B002073
:101F50000050014010B50B480B4C00210C224FF4EF
:101F6000E133C0E90043C0E90211C0E90412C0E94D
:101F70000611FFF753FE18B1BDE81040FEF77EBB17
:101F800010BD00BF602B002000100140FEE770472D
:101F9000B0B50446406813460A46B0F5827F0ED1BC
:101FA000A068B0F5004F02D0B0F5806F0AD121686B
:101FB000B0F5806F0D6825F040050D6002D1204618
:101FC000012101E02046802100F034F800280FBFF5
:101FD0000020606D40F02000606518BF0320B0BD98
:101FE0001CB50446754813460A4600681049B0FB04
:101FF000F1F04FF47A71484301906068B0F5827F48
:102000000AD12046802100F015F870B1606D40F0D3
:102010002000606503201CBD019830B10198013893
:102020000190206880680006F6D400201CBD00BF27
:1020300000366E012DE9F041984616460F460446DB
:10204000551C206880683840B84230D1002DF8D047
:10205000FEF788FEA0EB0800B042F2D3D4E90001FD
:102060004268B1F5827F22F0E00242600AD1A168A5
:10207000B1F5004F02D0B1F5806F03D1016821F0B6
:1020800040010160A16AB1F5005F07D1016821F448
:1020900000510160016841F400510160002084F8A2
:1020A0005000012084F851000320BDE8F081002099
:1020B000BDE8F081704780B503F094FF04F068FE3E
:1020C000BDE8804003F09ABFB0B592B0002420482C
:1020D000CDE90A44CDE9084401940168022541F0A4
:1020E00080510160006800F080500190019819480B
:1020F0000194016841F440410160006800F44040EF
:1021000001900198042011904FF4B47010950F9035
:1021100019200E904FF48000CDE90C504FF4803020
:1021200007900120069006A8FFF782F8FEF7CEFE82
:102130004FF4805005904FF4A05004900F20CDE94B
:102140000254019001A80521FEF7F6FE12B0B0BDC1
:1021500040380240007000401548416801F00C0210
:102160001449082A03D0042A17D1134915E002683C
:1021700002235202104A58BF0A46016801F03F018B
:10218000B2FBF1F10268C2F3881251430268C2F354
:10219000014203EB4202B1FBF2F1084A084B116025
:1021A0004068C0F30310185C21FA00F0106070471B
:1021B000043802400024F40040787D012000002013
:1021C000C09700080548D0F8801041F47001C0F8AD
:1021D00080104FF000610160704700BF08ED00E023
:1021E000806B0021C185C184016D08470168CA6800
:1021F00022F49072CA604A6922F001024A612021E9
:1022000080F83A1070470000F0B5DFF824C0094AA2
:10221000094B0A4C0A4D0B4E0B4F0C49C0E91017E5
:10222000C0E91265C0E91443C0E9162CF0BD00BF37
:10223000B71A0008B91A0008B51A0008BB1A000836
:102240007D1D0008B91D00086B1E00086D1E0008EA
:1022500090F83A10222923D18168B1F5805F08D126
:1022600002680369816A526883B1D2B221F8012BF6
:1022700010E0016802694968002A826A02F10103DC
:10228000836218BF01F07F01117004E06FF35F22D9
:1022900021F8022B8162C18D0139C185090400D06A
:1022A00070470268C16CD36823F02003D360D36801
:1022B00023F48073D360536923F001035361202218
:1022C00080F83A2008470000B0B50446006804F1E1
:1022D00008030ECB0569194325F440552A430261D2
:1022E000C268636949F20C651943E369AA4319435B
:1022F0001143C1604169A26921F4407111434161F8
:10230000274940F48060B3F5004F04D1884207D1DB
:10231000FEF750FF06E0884221D1FEF74BFF20E098
:10232000FEF73EFF63681921A0FB01015A00DB0F95
:10233000FDF7F2FF6421B0FBF1F26FF0630302FBE3
:102340000300322303EBC000B0FBF1F14FF4F8704F
:1023500000EA410000EB021001F007011BE0FEF76C
:102360001FFF63681921A0FB01019A009B0FFDF775
:10237000D3FF6421B0FBF1F26FF0630302FB0300B3
:10238000322303EB0010B0FBF1F101F0F00000EBA1
:10239000021001F00F01084321688860B0BD00BF42
:1023A000001401402DE9F0411D4690460F460446B9
:1023B0005E1C206801683940B9421CD0002EF8D05C
:1023C00035B1FEF7CFFCA0EB0800A842F1D9206898
:1023D000C16821F4D071C160416921F001014161FE
:1023E0002020002184F8390084F8381084F83A005D
:1023F0000320BDE8F0810020BDE8F0810148FFF72F
:102400005DBB00BF602B0020FEE7000010B5074C4D
:1024100000F00F032344044AB0F1FF3FC8BF831804
:102420000801187010BD00BF00E400E014ED00E0EA
:1024300018B1C1B219B101200EE00020704710F4AC
:102440007F4102D0090A092006E010F47F0107BF8E
:10245000010E1920090C1120014A515C08447047F3
:10246000D4980008BCB5069D044600F1200714303E
:102470002EC7C4E90500184623212A4603F0E9FEC9
:1024800004F120030FCB1A440E4B043A03F08CFDE9
:102490000799002284F83610E06108982346C4E9C1
:1024A0000E20206484F83510C4E91C2284F83420FE
:1024B0002263CDE90022044A04F14400214604F0DD
:1024C000DBFCBCBD956A0008E36C0008014601A076
:1024D00003F0E2BD2563000070B50446016927489A
:1024E00000F10805284604F02AF801280DD004F16F
:1024F0001406304640F6B83104F014F940B92169A9
:10250000284604F01CF80128F3D12069007870BD3A
:10251000002070BD2DE9F04100F1140800690C465F
:10252000451C1648002600F10807A919384604F092
:1025300006F80644A64206D2404640F6B83104F0FA
:10254000F1F80028F1D03046BDE8F081B0B504467E
:1025500003F048FD094D297805F1080004F019F849
:102560006868143004F0C4F8204629460122FFF7B9
:10257000DDFBBDE8B04003F041BD00BFA801002075
:1025800080B501F0CFF9002080BD80B501F016FBC9
:10259000002080BD10B5064B4AB111F8014B013A3D
:1025A0004440E4B253F8244084EA1020F4E710BD1C
:1025B0000025002000F1006006F012B910B50C46AD
:1025C00001460F48006870B190F834208AB10D4A76
:1025D00092691144224605F0C7FC002818BF4FF04D
:1025E000FF34204610BDF6480949084A03F054FD5F
:1025F000FEE7F3480449054A03F04EFDFEE700BF3D
:10260000B0310020980000200AAB0008ADAA0008F5
:102610001CAB0008F8B504461048007878B1A4B1A6
:10262000134F0026022E16D057F826502046294672
:102630001822FDF7FDFE01360028F3D10CE0084812
:102640000A4A08A103F028FDFEE70548074A09A148
:1026500003F022FDFEE700252846F8BD452C0020AA
:1026600015A80008696E69745F6F6B008FA8000879
:10267000B09A00086E616D65000000002DE9FE4F04
:102680002248007860BB224EDFF89CA0DFF89C90C7
:10269000DFF89CB000250FF27C0826A7022D1CD085
:1026A00056F82540A06AF0B1E06A10B3206B30B351
:1026B000606A00B18047404651463F22C84704F156
:1026C000180207CA23468DE8070058461821182229
:1026D000C8473846C8470135E0E70C490120087073
:1026E0000020BDE8FE8F14480F4A22A103F0D4FC5D
:1026F000FEE711480C4A18A103F0CEFCFEE70E4895
:10270000094A0EA103F0C8FCFEE700BF452C0020DB
:10271000B09A00085B442F46414C5D202825733A4F
:102720002564292000000000A5A800089960000881
:1027300034A800080A00000015A80008646576693E
:1027400063655F7461626C655B695D2D3E6F70737C
:102750002E657261736500006465766963655F74F8
:1027600061626C655B695D2D3E6F70732E77726977
:10277000746500006465766963655F7461626C65A9
:102780005B695D2D3E6F70732E72656164000000A1
:1027900010B5FFF773FF00280ED400F01FF90446B0
:1027A00001280BDB0F48017841B9012101700EA00F
:1027B00003F072FC11A00CE0044601E0002C0EDCDA
:1027C0000848002101701CA022A13E2203F064FCF5
:1027D000234824A103F060FC24A003F05DFC204604
:1027E00010BD00BF442C00201B5B33323B32326DE6
:1027F0005B492F46414C5D200000000052542D548F
:10280000687265616420466C61736820416273740C
:1028100072616374696F6E204C617965722028560D
:1028200025732920696E697469616C697A65207302
:102830007563636573732E001B5B33313B32326DFE
:102840005B452F46414C5D202825733A256429209D
:102850000000000066616C5F696E69740000000032
:10286000DAA70008302E352E393900001B5B306D99
:102870000A00000001480078704700BF442C002087
:10288000F8B580B105460F465018A96B1646884228
:102890000FD91E481E494FF4E77203F0FDFB2CA030
:1028A00003F0FAFB2BE0D448D449194A03F0F4FBB7
:1028B000FEE705F11C042046FFF7ACFEA0B1696BF2
:1028C000026B39440846314690470546B0F1FF3F58
:1028D0001ADC0E480E494FF4EE7203F0DDFB0DA03A
:1028E000214603F0D9FB0CE00848094940F2D51213
:1028F00003F0D2FB15482A1D214603F0CDFB4FF013
:10290000FF35BC4803F0C8FB2846F8BDBAA800084C
:102910009FAA0008506172746974696F6E206572B5
:10292000617365206572726F722120466C617368F5
:102930002064657669636528257329206572617353
:1029400065206572726F722100000000C6A9000840
:10295000506172746974696F6E206572617365206D
:102960006572726F722120506172746974696F6E42
:102970002061646472657373206F7574206F6620C4
:10298000626F756E642E000070B505460B480178C5
:1029900001290AD1D0E901646EB1211D2846FDF755
:1029A00023FD48B1013E4034F6E70548054906A23B
:1029B00003F072FBFEE70024204670BD700100208A
:1029C00015A8000814AB000866616C5F7061727432
:1029D0006974696F6E5F66696E6400002DE9F84F77
:1029E000254D2878002843D12449DFF89890264EB9
:1029F00004204FF0000834270FF2AC0A0FF2D40B7A
:102A0000C5E9010180451ED2A86838441838FFF78F
:102A100001FE30B10446A868E169C05988420DDB67
:102A200014E01CA049464FF48872B047A8683844A7
:102A3000A0F118015046B0475846B0476868403783
:102A400008F10108DEE7012028700FE00C480D496D
:102A500040F21712B047A868E369C11951F830294C
:102A60000A48B0470A48B0470020686000F05EF9A5
:102A70006868BDE8F88F00BF70010020F4B200085C
:102A8000BAA80008CBAA000899600008E4A80008CA
:102A9000B4A800085B442F46414C5D202825733ABA
:102AA00025642920000000005761726E696E673A44
:102AB00020446F204E4F5420666F756E64207468FA
:102AC0006520666C61736820646576696365282596
:102AD00073292E000A0000002DE9F04190B117463D
:102AE000B2B105460C465818A96B1E46884215D946
:102AF000224823494FF4BF7203F0CEFA2FA003F00F
:102B0000CBFA32E0864888491D4A03F0C5FAFEE751
:102B1000834884491A4A03F0BFFAFEE705F11C080E
:102B20004046FFF777FDA8B1696B836A21440846E8
:102B30003946324698470546B0F1FF3F1ADC0F4848
:102B40000F494FF4C67203F0A7FA0EA0414603F0F6
:102B5000A3FA0CE009480A4940F2851203F09CFAF6
:102B600015482A1D414603F097FA4FF0FF35AA4851
:102B700003F092FA2846BDE8F08100BFBAA8000829
:102B80008CAA0008506172746974696F6E20726556
:102B90006164206572726F722120466C61736820D7
:102BA00064657669636528257329207265616420F0
:102BB0006572726F722100007DA900085061727405
:102BC0006974696F6E2072656164206572726F72DC
:102BD0002120506172746974696F6E20616464723F
:102BE000657373206F7574206F6620626F756E64F5
:102BF0002E000000B4A8000815A80008DEAA0008EE
:102C00002DE9F04190B11746B2B105460C4658186F
:102C1000A96B1E46884215D92248234940F2A712C3
:102C200003F03AFA30A003F037FA32E03C483E496C
:102C30001D4A03F031FAFEE739483A491A4A03F0CF
:102C40002BFAFEE705F11C084046FFF7E3FCA8B1AC
:102C5000696BC36A2144084639463246984705469F
:102C6000B0F1FF3F1ADC0F480F4940F2B51203F0F4
:102C700013FA0EA0414603F00FFA0CE009480A4986
:102C80004FF4D77203F008FA16482A1D414603F0A4
:102C900003FA4FF0FF35604803F0FEF92846BDE81F
:102CA000F08100BFBAA80008B3AA0008506172748E
:102CB0006974696F6E207772697465206572726FCE
:102CC000722120466C6173682064657669636528AB
:102CD000257329207772697465206572726F72217D
:102CE0000000000032A90008506172746974696FB5
:102CF0006E207772697465206572726F7221205040
:102D00006172746974696F6E206164647265737353
:102D1000206F7574206F6620626F756E642E0000E0
:102D200015A80008C7AA0008DEAA00082DE9F04F80
:102D300085B0354E7768B7B1B0684FF0090900F13A
:102D40001C05042497B1A5F11800FDF746FBA0422D
:102D500088BF04462846FDF740FB484588BF8146AA
:102D60004035013FEEE74FF009090424DFF89C806D
:102D7000274D4046A8472748A847274F3846A84729
:102D80004046A84725A01821CDE90091029026A031
:102D900031A321461822A8473846A8474046A847ED
:102DA0002FA0A8473846A847DFF864B000254FF0A9
:102DB000000818277068804519D21448D6F808A072
:102DC000D8470AEB0500D0E90D1200F11C03CDE94C
:102DD0000097CDE90231031D3248049221461822A2
:102DE000D8470D48D847403508F10108E2E70748C1
:102DF00007490C4688472A48A0470748214605B09E
:102E0000BDE8F04F084700BF70010020D3A80008BC
:102E10009960000810AA0008B4A80008666C6173E5
:102E2000685F6465760000007C20252D2A2E2A73B9
:102E3000207C20252D2A2E2A73207C2020206F66BE
:102E4000667365742020207C202020206C656E67CE
:102E5000746820207C0000006E616D650000000039
:102E60002D2D2D2D2D2D2D2D2D2D2D2D2D2D2D2D92
:102E70002D2D2D2D2D2D2D2D2D2D2D2D2D2D2D2D82
:102E80002D2D2D2D2D2D2D2D2D2D2D2D2D2D2D2D72
:102E90002D2D2D2D2D2D2D2D2D2D2D2D2D000000E9
:102EA0004EAA0008E3AA00080139032984BF0020C4
:102EB0007047DFE801F0020E040C007870470178DB
:102EC0004278807841EA022141EA00407047006878
:102ED00070470178407841EA002070472DE9F04FB3
:102EE00004780125B5EB541F7AD0650940F0F380D2
:102EF00002EB030800EB010904F01F06441C4FF02D
:102F0000010A1746202E37D34FF0FF3000EB56153D
:102F1000062D04BF14F8010B851DF91C4819404506
:102F200000F2D9804FF4F850234600EA062B13F83C
:102F3000010BA7EB0B0CACEB000EAEF1010C9445B2
:102F4000C0F0C9804B453ABF6678A31C4FF0000A19
:102F5000BE4533D09CF80010584439709CF80110DD
:102F6000C0F1020079709CF80210B97025B3395C89
:102F7000013DF9700137F9E7711C7B1800204345CA
:102F800000F2AD802144494500F2A98021783846FD
:102F900000F8011B002163188E4203D05B78435474
:102FA0000131F8E77818471C581C484515D25E785F
:102FB0009C1C4FF0010A0DE003370AE09CF800006A
:102FC000B870787038701DB101F8010B013DFAE757
:102FD0000F461C46BAF1000F94D1B81ABDE8F08F25
:102FE00002EB030900EB010A04F01F07451C4FF038
:102FF000010B4FF4F85E4FF0FF381646202F35D303
:103000000EEA072008EB5714311A062C05D10624C6
:1030100015F8013B1C44FF2BFAD02B4613F801CBCB
:10302000B0F5F85FA1EB0C0102D1BCF1FF0F48D065
:10303000F51C281948454ED8481E90424BD353459D
:1030400034BF13F8017B4FF0000B11F8010CB142B3
:10305000307029D0087870704878B070881C54B3EC
:1030600010F8011B013C05F8011BF8E7791C7318E7
:1030700000204B4533D82944514530D82978304673
:1030800000F8011B00216B188F4203D05B7843547A
:103090000131F8E77018461C581C50451ED25F7865
:1030A0009D1C4FF0010B08E0B07070701CB105F86A
:1030B000010B013CFAE72E461D46BBF1000F9DD1E6
:1030C0000CE06878A978EB1C41EA0020301A41F640
:1030D000FF71411AACE70020BDE8F08FB01ABDE8DF
:1030E000F08F000010B53E48416991F82110890722
:1030F00003D41148002101701BE0016929B1FC488B
:103100004FF40072FDF75DF913E001F059F820B1BA
:10311000F74800210171094904E0F5480849C0F861
:1031200003100849F24C01602046FDF756F93E2194
:103130002152EF4810BD00BF002900206D736820A8
:103140007368200066696E73B0B5E84D044628695F
:1031500018B102F0B1FC0020286154B12046FDF7FF
:103160003CF9013002F0BAFF286110B12146FDF7A9
:1031700056F90020B0BD00BF7CB5194E19481A4958
:10318000C6E900100120782101F0CCFA7061F8B195
:103190000A200621CDE90010164914A000224FF4A0
:1031A0000073002403F032FC0546706912A100226E
:1031B000002303F08DFA706990F8211041F00201AC
:1031C00080F821104DB1284603F054FD002404E09E
:1031D0000BA002F061FF4FF0FF3420467CBD00BF22
:1031E000D8010020F4B200084CB20008747368657E
:1031F0006C6C0000193200087368727800000000DF
:103200006E6F206D656D6F727920666F72207368C6
:10321000656C6C0A00000000DFF8D0A2DAF8140038
:1032200090F8211041F0010180F82110FFF75AFFBA
:10323000AF4802F031FFB04E4FF0010B4FF00008E5
:10324000022702F0D1FCDAF814501B2802D185F8CD
:1032500020B0F6E7814695F82000022807D0012823
:1032600030D1B9F15B0F2BD185F82070E9E7A9F1D6
:103270004100022885F82080E3D3B9F1000FE0D0A7
:10328000A9F10800052839D9B9F1FF0FD9D0B9F152
:10329000430F00F01581B9F17F0F55D0B9F1440FFC
:1032A0001DD1B5F874000028CBD0304602F0F4FEF2
:1032B000DAF81400B0F874100139A0F87410C0E7FF
:1032C00085F82080A9F10800052811D9B9F1000F6F
:1032D000B7D0B9F1FF0FB4D0B9F17F0F34D0B5F842
:1032E00072005028C0F093800020A5F87200BDE065
:1032F000DFE800F02A640A03030AF0E7DFE800F0E1
:10330000245E04030304EAE700F05AFF01280FD10A
:10331000DAF8140090F82110C90704D0774802F0B9
:10332000BBFEDAF81400B0F87210223000F022FE72
:10333000FFF7D8FE6E4802F0AFFEDAF81400542111
:103340002230FDF733F87CE7B5F8740000283FF42D
:1033500078AF0138A5F87400B5F8721080B2013961
:10336000A5F8721089B2814240F29F800A1A29188A
:1033700001F12200233102F056FFDAF81400B0F810
:103380007210084480F82280DAF81400B0F8741043
:10339000084400F122015BA002F07EFEDAF814007E
:1033A000B0F87440B0F8720084423FF64AAF30463D
:1033B00002F072FEDAF814000134F3E70024B5F8E5
:1033C0007400844206D2304602F066FEDAF81450E9
:1033D0000134F4E7494802F05FFE223500F0F0FEC8
:1033E000012802D1284600F06DFDFFF77BFE404921
:1033F00046A02A4602F050FEDAF8144004F12200FA
:10340000FCF7EBFFA4F87400A4F8720019E7B5F814
:10341000741088422AD9421A294401F1230022312A
:1034200002F001FFDAF81400B0F87410084480F8D4
:103430002290DAF8140090F82110C90709D0B0F8EA
:103440007410084400F1220132A002F025FEDAF8DF
:103450001400B0F87450B0F872108D4215D2304696
:1034600002F01AFEDAF814000135F4E7284480F877
:103470002290DAF8140090F82110C90705D01D48F1
:10348000494602F009FEDAF81400B0F87210013172
:10349000A0F87210B0F8742089B20132A0F874203C
:1034A000502928BFC0F87280CBE615A002F0F4FDC9
:1034B000DAF81400B0F87210084480F82280C0E6F0
:1034C000B5F87400B5F872108842BFF4BAAE28445B
:1034D00090F82210074802F0DFFDDAF81400B0F887
:1034E00074100131A0F87410ABE600BFD8010020C1
:1034F0000029002076B0000874B0000879B10008F7
:103500000820080008257320200800002573257373
:10351000000000002573000080B502A002F0BCFD91
:10352000002080BD48656C6C6F2052542D54687229
:10353000656164210A0000000020704780B500200A
:1035400004F0A8FD0649086030B101698069054AA8
:10355000C2E90710002080BD4FF0FF3080BD00BFE2
:10356000B031002098000020F8B50C460546884789
:10357000354F20203968884739680646102088472B
:10358000074630462021FCF711FF0020C7E90065FF
:10359000C7E902403846F8BD0068C16170470000C5
:1035A000416831B1006820B1274AC2E9000100201A
:1035B00070474FF0FF307047F8B505680024AA61E6
:1035C000A98169812C61C5F80640AC70686920B199
:1035D0001D49496888476C61AA69501E41782C29A9
:1035E00001D019B904E0E9880131E9800130F5E73B
:1035F0000078E9882C2814481CBF0131E980026852
:1036000088B2800090476861AD6904460026322781
:103610002878B8B12846FCF752FFB0FBF7F101FB60
:1036200017000028F0B206F1010618BF013144F876
:10363000201028782C2803D008B10135F9E7013D86
:103640000135E5E7F8BD00BF0C00002001684A899C
:103650008A8132490A6832B1824202F10C0104BF08
:1036600001207047F6E72D490A68C2600860002013
:10367000704700BF10B5044680688047274801683E
:1036800039B101F10C02A14212BF1046116801606C
:10369000F5E710BD2DE9F04120484FF0FF38002636
:1036A0000468CCB32768B889B0B139890131398150
:1036B0003B6918FA81F199422BD1BA78FB88934281
:1036C00012D97D6955F822300B443B6155F82250E0
:1036D00095B90132BA70EEE72046FFF7CBFFF969E2
:1036E000B9B12046884714E03E61BE703E81FF2894
:1036F0001CBF0138B8810CE0D00703D16068804757
:10370000012002E0A068804700207870B87801307E
:10371000B87004F10C00C3E7BDE8F081042B002071
:103720002DE9F0410DA002F0B7FC1148114D0768DA
:1037300011A40FF24808286887420CD23E6821463F
:1037400030460222FCF774FE18B14046314602F0C2
:10375000A3FC0837EFE70020BDE8F0812D2D46756A
:103760006E6374696F6E204C6973743A0A000000CE
:10377000D8010020DC0100205F5F000025730A00F3
:10378000F8B500240C610646C86828B3087A0D46CF
:1037900008B334462F68002E08BF3C46FCF722FDD4
:1037A00036B114F8042C297A02F07F028A4210D133
:1037B000696800262468BC4206D041F82640EA68C1
:1037C00001369642F6D100E00024FCF70FFD2E6191
:1037D00002E0FCF70BFD00242046F8BD2DE9F04F78
:1037E00093B00520052402F057FE8DF840400024D8
:1037F00008210DF11809043012941191CDF83C9074
:103800000E9029A031A2082102F046FC00F0DAFC5B
:1038100030A002F041FC20460EA9FFF7B1FF9DF851
:1038200040A0129F4FF0000804900597B84534DA85
:1038300059F82840FCF7D6FC14F8045CFCF7D6FCD9
:1038400005F07F00504525D154F8087FB4F80CB03E
:10385000E5892046A4F1140602F036FCA7420FD0F9
:10386000CDE9005B029022A008210822334602F035
:1038700013FC204604F028FF234802F00DFC08E06A
:10388000CDE9005B029021A008210822334602F016
:1038900003FC059F08F10108C8E7049C002CBAD17D
:1038A000002013B0BDE8F08F252D2A2E7320656E01
:1038B0007472792073697A652073757370656E64AC
:1038C000207468726561640A000000006D61696CB3
:1038D000626F7800202D2D2D2D20202D2D2D2D20B7
:1038E0002D2D2D2D2D2D2D2D2D2D2D2D2D2D0A0058
:1038F000252D2A2E2A7320253034642020253034AB
:10390000642025643A00000079B10008252D2A2E94
:103910002A73202530346420202530346420256427
:103920000A000000B0B5074C0C4D216806A0A8475E
:1039300021690BA0A84761690EA02A46BDE8B040E6
:10394000104700BFF0010020746F74616C206D653A
:103950006D6F72793A2025640A00000099600008B2
:1039600075736564206D656D6F7279203A202564EA
:103970000A0000006D6178696D756D20616C6C6F77
:103980006361746564206D656D6F72793A2025649A
:103990000A0000002DE9F04F93B00320032402F049
:1039A0007BFD8DF84040002408210DF1180A0430F9
:1039B00012941191CDF83CA00E901EA026A20821D1
:1039C00002F06AFB00F0FEFB25A002F065FB20463A
:1039D0000EA9FFF7D5FE9DF840B0129E0024059079
:1039E000B44220DA5AF82480FCF7FCFB18F8049C57
:1039F000FCF7FCFB09F07F00584512D1D8F81450B1
:103A000098F8137008F1080002F05EFB08218DE8B9
:103A1000A2000390A8F10C0319A00821082202F0CB
:103A20003BFB0134DCE7059C002CD0D1002013B017
:103A3000BDE8F08F252D2A2E732020206F776E652C
:103A4000722020686F6C642073757370656E6420DB
:103A50007468726561640A006D75746578000000B1
:103A6000202D2D2D2D2D2D2D2D202D2D2D2D202DAD
:103A70002D2D2D2D2D2D2D2D2D2D2D2D2D0A0000F3
:103A8000252D2A2E2A7320252D382E2A7320253005
:103A900034642025640A00002DE9F04F91B0022023
:103AA000022402F0F9FC8DF838400024082104AF0C
:103AB000043010940F910D970C9027A02DA208218F
:103AC00002F0EAFA00F07EFB2DA002F0E5FA2046B3
:103AD0000CA9FFF755FE9DF83890DDF840A04FF097
:103AE00000080390D04530DA57F82840FCF77AFBFD
:103AF00014F8046CFCF77AFB06F07F00484521D1EE
:103B000054F8085FB4F808B02046A4F1140602F097
:103B1000DBFAA5420ED0CDE900B01FA00821082293
:103B2000334602F0B9FA204604F0CEFD1E4802F0FA
:103B3000B3FA07E0CDE900B01CA008210822334603
:103B400002F0AAFA08F10108CCE7039C002CBED1D0
:103B5000002011B0BDE8F08F252D2A2E732076208D
:103B6000202073757370656E64207468726561647B
:103B70000A00000073656D6170686F726500000077
:103B8000202D2D2D202D2D2D2D2D2D2D2D2D2D2D7F
:103B90002D2D2D0A00000000252D2A2E2A73202508
:103BA0003033642025643A0079B10008252D2A2E8F
:103BB0002A7320253033642025640A002DE9F04F54
:103BC00091B00120012402F067FC8DF838400024F8
:103BD000082104AD043010940F910D950C903048DD
:103BE00030A2082102F058FA00F0ECFA2FA002F0FF
:103BF00053FA0FF2181B20460CA9FFF7C1FD9DF8E0
:103C00003880DDF84090002603904E4541DA55F8A3
:103C100026A0FCF7E7FA1AF8041C01F07F014145E1
:103C200033D1FCF7E3FA9AF82900AAF10C030090CB
:103C30002EA00821082202F02FFA9AF8280000F09E
:103C40000F01042906D840F303002BA151F82000EE
:103C500002F022FADAF81C00431E13F8011F232990
:103C6000FBD0DAE90824DAF83470D31ADAF8101045
:103C7000CDE900741418184464235843B0FBF2F3E0
:103C8000611A584602F008FA01E0FCF7AFFA013673
:103C9000BBE7039C002CAED1002011B0BDE8F08F33
:103CA000E2AF00087468726561640000202D2D2D5C
:103CB00020202D2D2D2D2D2D2D202D2D2D2D2D2D5B
:103CC0002D2D2D2D202D2D2D2D2D2D2D2D2D2D203E
:103CD000202D2D2D2D2D2D20202D2D2D2D2D2D2D3B
:103CE0002D2D2D202D2D2D0A00000000252D2A2EF2
:103CF0002A7320253364200026B0000838B000085D
:103D000057B0000860B000082FB0000820307825B8
:103D10003038782030782530387820202020253021
:103D20003264252520202030782530387820253031
:103D300033640A002DE9F04F91B00A200A2402F002
:103D4000ABFB0025082104AF04308DF838401095F6
:103D50000F910D970C9023A02CA2082102F09CF942
:103D600000F030FA2BA002F097F90FF2E80B3DA417
:103D700028460CA9FFF704FD9DF83850DDF8408077
:103D800000260390464520DA57F82690FCF72AFAD9
:103D900019F804ACFCF72AFA0AF07F00A84212D105
:103DA000D9E90601A9F10C03CDE900012848082151
:103DB000082202F071F919F8030CC007204608BF69
:103DC000584602F069F90136DCE7039D002DCFD19A
:103DD00002F0DAFF014618A002F05EF9002011B0EF
:103DE000BDE8F08F252D2A2E732020706572696F33
:103DF00064696320202074696D656F7574202020CC
:103E000020202020666C61670A00000074696D65DF
:103E100072000000202D2D2D2D2D2D2D2D2D2D202E
:103E20002D2D2D2D2D2D2D2D2D2D202D2D2D2D2DCF
:103E30002D2D2D2D2D2D0A0063757272656E742047
:103E40007469636B3A3078253038780A00000000D6
:103E500041B0000864656163746976617465640AE1
:103E6000000000006163746976617465640A000093
:103E700080B500F0CDFF002080BD80B500F06EFC65
:103E8000BDE88040FFF7F4BFB0B590F835300420AE
:103E9000002B4FF0000308BF0320DCB2A04298BF04
:103EA000B0BDE5430544ED0021FA05F51555013394
:103EB000F3E70244904228BF704711F8013B00F835
:103EC000013BF7E72DE9F84F04460078002843D07E
:103ED0002448DFF894B00768DFF8909000264FF090
:103EE000000ADBF8000087422ED23D68494628468A
:103EF0000622FCF79DFA28BB2046FCF76EFA063531
:103F0000024620462946FCF793FAD8B9BAF1000FC9
:103F100004D12846FCF761FA82462E464FF000088D
:103F200016F8080038B115F80810884203D111B10D
:103F300008F10108F4E70EA0294602F0ADF8D045DB
:103F4000B8BFC2460837CCE756B120463146524684
:103F5000BDE8F84F02F088BCBDE8F84F00F0F6B8B5
:103F6000BDE8F88FD8010020DC0100206DB000080A
:103F700025730A002DE9F04F89B089460446207860
:103F8000202818BF092803D1A9F101090134F6E757
:103F9000B9F1000F31D0651E002605E0B14500F0F3
:103FA0008580A01940780136C0B2092818BF2028A2
:103FB000F4D1002E00F09480B01D00905048DFF83E
:103FC0004881D0F800B04F48D0F800A0DA4580F022
:103FD0008780DAF80070414638460622FCF728FA56
:103FE00040B9B81D21463246FCF722FA10B90098B4
:103FF000385C20B10AF1080AE8E700207DE0DAF831
:104000000480B8F1000F6BD00DF1040A5046202156
:10401000FCF7CCF90020214600234FF0000B4B4564
:1040200057D21A460B78202B18BF092B05D14A45C9
:1040300003D201F8010B0132F4E7BBF1080F37D2CC
:104040004A4546D2222B16D101314AF82B100E7860
:10405000531C222E1ED04B451CD25C2E07D10E467F
:1040600016F8017F222F0CBF931C0E4600E00E466F
:104070001A46711CEBE74AF82B100BF1010B0027D5
:10408000CE5DD319092E18BF202E0BD04B4509D277
:104090000137F5E70BF1010B4B451DD201F8010B80
:1040A000931CBCE739444B45B9D315E04E4680E735
:1040B00016A001F0F1FFDFF8749001AF5E462EB15B
:1040C00002CF484601F0E8FF013EF8E7184801F04A
:1040D000E3FFBBF1000F03D001A95846C0470CE035
:1040E00015F8010F10F0DF0FFAD10020287011A091
:1040F000214601F0D1FF4FF0FF3009B0BDE8F08F4D
:10410000DC010020D80100206DB00008546F6F2042
:104110006D616E7920617267732021205765206F71
:104120006E6C79205573653A0A00000069B000088A
:1041300079B1000825733A20636F6D6D616E64205C
:104140006E6F7420666F756E642E0A002DE9F04163
:104150000FA001F0A1FF1548154D0768164CDFF8B8
:104160005C80286887420CD23E6821463046062291
:10417000FCF75EF918B9B11D404601F08DFF083714
:10418000EFE70C4801F088FF0020BDE8F08100BF98
:1041900052542D546872656164207368656C6C209C
:1041A000636F6D6D616E64733A0A0000D801002080
:1041B000DC01002079B100086DB0000869B000088A
:1041C00001207047B0B56FF0070504A425B1204663
:1041D00001F062FF0135F9E7B0BD00BF2D0000001E
:1041E0002DE9FE4F82460D465018DAF8101088422D
:1041F00004D9334803F06CFF05265AE0DAF828109A
:104200001C4617460AF1200609B1304688470C982B
:10421000DFF8A49001960290DFB35046012103F02D
:1042200085F9A0BB4A46022002F8010B50462946F8
:10423000FFF72AFEB5FBF4F005266043401B04EBB4
:104240000008474598BFB8469AF83500424600280E
:1042500008BF0426029909EB0600A346FCF78DF877
:104260000020DAF824400090019808EB0602494645
:104270000023A04778B9504605F05CF838B9029899
:1042800045444044A7EB080702905C46C4E7064655
:1042900005E0002603E00646084803F019FF019CEC
:1042A0005046002103F042F9DAF82C1009B12046FB
:1042B00088473046BDE8FE8F8C2D0020D49D000835
:1042C000839D000870B5124A43685168CC18844237
:1042D0000ED0658865B99568AC4209D0D368451A97
:1042E000A34208BFD0606368436064680C44A56063
:1042F00084680D19854201D06E8806B170BDD668FC
:10430000864208BFD5606B6040680844846070BD19
:10431000F00100202DE9FF4FDDF83C8053A75FEA54
:1043200048644DA458BF27465FEAC86448BF28F0D8
:1043300001085FEAC8744FF03009DDE90D6A96465E
:1043400008BF4FF020095FEA887402D44FF0000CD8
:104350000AE0BEF1FF3F0FDD5FEA48745ABF202438
:1043600004EA880C4FF02B0CBEF1000F08D130226C
:1043700001258DF800201DE0CEF1000E4FF02D0C30
:1043800000254FF00A0B6C46BEF1000F11D00A2B2E
:1043900006D1BEFBFBF202EB8206AEEB460603E063
:1043A0004FEA1E120EF00F069646BA5D62550135B1
:1043B000EAE70D9E55455346C8BF2B46F21A18F042
:1043C000110F12D10024002AC8BF01246646BCF197
:1043D000000F18BF01263440121B2024013A04DBD1
:1043E000884238BF04700130F8E7BCF1000F05D0F7
:1043F000884238BF80F800C00130013A5FEAC864E3
:1044000007D4013A05DB884238BF80F800900130BC
:10441000F7E730249D4205DA013B884238BF04703B
:104420000130F7E76B46013BBAF1000F0FD0002DCA
:104430000DDD6C1E88423CBF5D5D05700130254678
:10444000F2E7013A88423CBF202303700130012A81
:10445000F7DA04B0BDE8F08F303132333435363717
:1044600038396162636465660000000030313233C0
:104470003435363738394142434445460000000060
:104480002DE9F04F85B015468A46044600F0D3F872
:104490000746207881074FF0090158BF03216618AD
:1044A000C007039506D1504631463A46FBF765FFF3
:1044B000384684E00AEB0700011FA0F10B09013820
:1044C000029020460197049100F0A2F82044A0F148
:1044D00001080124D346012C09D1F01C40456DD8B8
:1044E00030460421FEF7E0FC0446351D00E0354669
:1044F000EE1C464562D828460421FEF7D5FCE107AC
:104500000ED1CB4545D2584629460422FFF7D1FCAF
:1045100004F00F002EA151F82070EE19FC401CE0B1
:104520008107002904D01AD4AE1CC0F38D0102E02B
:104530006E1CC0F385010327002003293FD3ABEB9A
:10454000010151453BD30498A0EB0B00874235D8BD
:1045500058463A466408FFF7ACFCBB44BBE7C107CA
:1045600006D1C0F38911C0F38300AE1CC71CE3E77A
:1045700000F07F01032906D1C10903222E1D52FA42
:1045800081F7C10BD8E7C0F3D011C0F38400871CBA
:10459000D2E7029B08F101009B4516D8012C08BF09
:1045A000043585420AD26108012C08BF4FF08041D2
:1045B00015F8012B0C460BF8012BEDE70020039AB0
:1045C0000021116005B0BDE8F08F0198F7E700BF4A
:1045D00004000000000000000100000000000000D6
:1045E00002000000000000000100000000000000C8
:1045F00003000000000000000100000000000000B7
:1046000002000000000000000100000000000000A7
:1046100010B510F8011B0424890758BF0124214656
:10462000FEF742FC2021A1EBC4014FF0FF3222FA39
:1046300001F1084010BD10B501780424890758BF66
:104640000124204401302146FEF72EFC2021A1EB5D
:10465000C4014FF0FF3222FA01F1084010BD00F111
:10466000006004F0EDB8000010B50B4601460D489F
:10467000006858B1144690F834206AB10A4A926929
:104680001144224603F046FD204610BD07480A4962
:10469000084A01F001FDFEE704480549054A01F01A
:1046A000FBFCFEE7B03100209800002015A80008B0
:1046B0000AAB00089AAA00081CAB0008BFB5144654
:1046C000FF228DF80F205A228DF80B208DF80E1046
:1046D0000A0A090C8DF80D208DF80C10456A00931C
:1046E00020300DF10B0105222346A84704B0B0BDD0
:1046F000012002F0ABB90000E0B514200221CDE9A1
:104700000010074904A000224FF4806302F07EF9F4
:10471000BDE88C4002F0AEBA6D61696E0000000029
:104720007B3E0008B0B501FB00F4204601F0D6FC4A
:10473000054620B128460021224601F08AFD284680
:10474000B0BD0000B0B5044C094DAC4228BFB0BDAF
:1047500001CC8047F9E700BF38B20008B0B5044C7F
:10476000044DAC4228BFB0BD01CC8047F9E700BF83
:104770003CB2000848B2000800487047602B002097
:1047800080B5FBF72FFD11494A8801324A80BDE808
:104790008040FBF72BBD00BF10B5FBF723FD0B4C92
:1047A00061880139618009B2002903DDBDE810404C
:1047B000FBF71CBD00216180FBF718FD606818B194
:1047C000BDE8104001F006BF10BD00BF2802002068
:1047D00080B5764901F13000483102F033F8002805
:1047E00018BF012080BD00BFF8B50546FEF7CCF824
:1047F000D0B307464FF4805001F070FCB8B30446C4
:104800003846002122464FF48053FEF765F9B0F197
:10481000FF3F33DD04F1340004F11C01182201F0E4
:10482000D7FC20465C2100F07DF8E0653846002189
:104830004FF48052FEF724F800282AD4384600218D
:1048400022464FF480530026FEF7DAF9B0F1FF3F1D
:1048500021DC1A481A4EB0471AA02946B047204812
:10486000B0476FF0070616E06FF0040601E06FF046
:104870000506124801F010FC294817E00F48104EB9
:10488000B04718A02946B0471548B0476FF0060654
:1048900001E06FF00806204601F00EF9074801F02C
:1048A000FBFB1F4816A1002E08BF084601F0F4FBD1
:1048B0000B4801F0F1FB3046F8BD00BF27AC000803
:1048C0009960000857726974652070617274697428
:1048D000696F6E5B25735D206661696C65642E008F
:1048E000B4A80008526561642070617274697469CB
:1048F0006F6E5B25735D206661696C65642E0000D8
:10490000436F7079206669726D7761726520766594
:104910007273696F6E205375636365737321000052
:1049200036AC000880B50A4601464FF0FF30FDF76F
:1049300031FEC04380BD000070B50C490A4A00201A
:10494000B0F5807F0ED0082304463BB182EA5405BF
:10495000E60708BF6508013B2C46F6E741F8204012
:104960000130EDE7002070BD2083B8ED0025002068
:1049700070B50E4D05F12000FEF706F890B1044623
:104980000B480C4EB047211D0BA0B0471148B04753
:10499000AA6E20460021FDF773FF6FF0080101EABF
:1049A000E07070BD6FF0040070BD00BF8802002091
:1049B00027AC000899600008506172746974696FCF
:1049C0006E5B25735D20657261736520737461721F
:1049D000743A0000B4A800082DE9F04F93B00F46D8
:1049E000044601A8C7A13022FBF7C7FC012C0FD851
:1049F000D84801F051FBD84ED84C0025042D00F0CA
:104A0000518156F82510204601F046FB0135F5E7A7
:104A10007D68C8A1284601F015FF20B3C7A128462C
:104A200001F010FF002800F0AB80C6A1284601F07D
:104A300009FF002800F0DB80C4A1284601F002FF36
:104A4000002800F03581C34801F026FBC24EC34C5C
:104A50000025042D00F0268156F82510204601F08F
:104A60001BFB0135F5E7DFF86CB3D64DDFF858A333
:104A7000D74F4FF000080BF120000DAE01AC0090B5
:104A8000B8F1300F00F0118104EB0809484600F03E
:104A9000F5F9002871D12846D047CC484946D0477F
:104AA0003846D0472846D047CB48009A0B21D047FC
:104AB0003846D04730460021182201F0CAFBBBF827
:104AC0001800C74900F00F000128C44A08BF11466A
:104AD0000228C44808BF01463046042201F0C4FE43
:104AE000BBF8180000F47060B0F5807F07D0B0F517
:104AF000407F06D0B0F5007F0DD1BE4C02E0BAA4D5
:104B000000E0BB4C304601F0A8FE304421460722AD
:104B100001F0AAFE01AC304601F09FFE20B9B64973
:104B20003046042201F0A0FE2846D047B3480B21AE
:104B30003246D0473846D0472846D047B0480BF1D8
:104B400030020B21D0473846D0472846D047DBF803
:104B50006810AC48D0473846D0472846D047DBF8E5
:104B60006C10A948D0473846D0472846D047DBF8D4
:104B70001C10A648D0473846D04708F118087FE7F0
:104B8000D7E9025000210022FBF761FC0646386994
:104B900000210022FBF75BFC83462846FDF7F4FE6C
:104BA000002800F08880DFF81482DFF8B491844F89
:104BB00082460DADBBF1110F60D3504631462A46F7
:104BC0001023FDF789FF4046314601F065FA0024C5
:104BD000102C05D0295D384601F05EFA0134F7E764
:104BE000484601F059FA1036ABF1100BE2E7D7E96D
:104BF00002944846FDF7C8FE07462046FDF7C4FE6E
:104C00008246002F5AD0BAF1000F57D055A0214646
:104C10004A4601F041FABA6B38460021FDF730FEF2
:104C2000002842D44FF48050009401F057FA044613
:104C3000B86BDAF83850DFF858B10026A84238BF10
:104C40000546002C47D0AE4245DA50463146224652
:104C50004FF48053FDF740FFB0F1FF3F42DD804647
:104C60003846314622464346FDF7CAFFB0F1FF3FC2
:104C70003BDD584601F010FA4644E2E75046314623
:104C80002A465B46FDF728FF4C48314601F004FAFE
:104C90004B4E0027BB4505D0E95D304601F0FCF9DD
:104CA0000137F7E72E4801F0F7F913B0BDE8F08FB0
:104CB00000F028FAF9E74048294609E01FB93E48C4
:104CC000494601F0E9F9BAF1000FEED13A48214620
:104CD00001F0E2F9E9E7AE420BDB2C48294601F08E
:104CE000DBF909E02C48009901E02A48494601F027
:104CF000D3F92AA001F0D0F9002CD6D0204600F03C
:104D0000DBFED2E7646F776E6C6F616400000000B9
:104D100000000000000000000000000066616374F5
:104D20006F72790000000000000000000000000029
:104D30000000000070726F626500000073686F779A
:104D400000000000636C6F6E6500000065786563AD
:104D500000000000EBA4000898970008FBA50008DD
:104D600079B10008436C6F6E652025732070617205
:104D7000746974696F6E20746F202573207061727E
:104D8000746974696F6E3A0A0000000076AB00081F
:104D900054AC00084DAB000825AB00080A436C6F0B
:104DA0006E6520706172746974696F6E20666169E6
:104DB0006C6564210A000000A1AB000820AC00086B
:104DC0002EB2000827AC000899600008D6AC000895
:104DD000B4A800088802002096AE00080CAD0008B8
:104DE000F6AC000811AD000820262620474C5A00DA
:104DF00016AD00081EAD00082FAD00085AAE000821
:104E000078AE000800AE00083CAE00081EAE0008F8
:104E10001CB50A200521CDE900100D490AA0002289
:104E20004FF4805301F0F2FD18B1BDE81C4001F0D1
:104E300021BF0848084CA04708A0A047E9482146E0
:104E4000BDE81C40084700BF72742D626F6F74008C
:104E50004952000827AC00089960000872742D665A
:104E60006F74612074687265616420637265617437
:104E700065206661696C65642E0000002DE9F843C9
:104E800010B3FDF781FDF8B181464FF4805001F079
:104E900025F990B3044648460021224660230025A8
:104EA000FDF71AFE002855D420465C21FFF73AFD95
:104EB000E16D884251D135A1204601F0C3FC00B319
:104EC00000256FF0010603E000244FF0FF360025B7
:104ED000FFF756FC834800211430602201F0B9F935
:104EE000FFF75AFC14B1204600F0E6FD15B1284644
:104EF00000F0E2FD3046BDE8F88300246FF00506BF
:104F0000E5E704F10C00FDF73FFD30B34FF48050AE
:104F100001F0E4F828B3054600264FF0FF38A06DF5
:104F2000864222D206F1600148462A464FF4805359
:104F3000FDF7D2FD01280DDBA16D07463044884204
:104F400088BF8F1B404629463A4600F07BF98046D1
:104F50003E44E4E76FF00606BAE700256FF004066A
:104F6000B6E700256FF00506B2E7E16C6FEA0800CE
:104F70008142F3D1FFF704FC5A48214614306022E5
:104F800001F026F9FFF708FC0026ACE752424C007E
:104F900010B50748074CA047084907A0A04708A03C
:104FA000A04714A019A11BA22346BDE81040184732
:104FB000CEAE00089960000825730000D49900085F
:104FC00032303136202D203230313920436F707924
:104FD00072696768742062792052616469617469DA
:104FE0006F6E20402077617266616C636F6E200D7A
:104FF0000A00000056657273696F6E3A20257320AF
:105000006275696C642025730D0A0000312E302E04
:1050100030000000417567202033203230323000EC
:105020002DE9FC474FF0FF3500284CD01C46002BE3
:1050300049D091460F460646204600214FF4805243
:1050400001F007F9B9F1000F2DD0DFF868AADAF8FE
:10505000000040B34FF4805001F040F888B30021C5
:105060004FF48052804601F0F4F807F160013046B9
:1050700042464FF48053FDF72FFD6FF006050128DF
:105080000DDB064610F00F0009D1DAF80000002110
:1050900032464B46CDE9008403F014FC35464046C9
:1050A00000F00AFD0FE007F16001304622464FF4A0
:1050B0008053FDF711FD05460128B8BF6FF00605C6
:1050C00001E04FF0FF352846BDE8FC87FEF7E2FA25
:1050D000322001F07EFDF9E70246B148FF218068E9
:1050E000FEF76ABA8802002005484FF48061012269
:1050F000FBF733BE02484FF480610022FBF72DBE60
:10510000001C0240F8B52EA0FDF73EFC00284CD054
:10511000456B2C4EA85900F07F40B0F1006F20D1B4
:105120004FF000602C58284800F0B6FF2E48204071
:10513000B0F1005F1DD132A000F0AEFF294800F0B1
:10514000ABFF0027EFF3108072B6F8B2522817D2E7
:105150007CB22046FBF76EFE2046FBF75DFE013772
:10516000F3E71948194CA04719A0A0471D48A047CC
:105170001BE01EA000F090FF1A4800F08DFF14E025
:10518000FBF76AFF25480021016041608160FBF761
:10519000E1FB04F09DF8A859214908604FF0006038
:1051A000285880F30888086880470748074CA047BC
:1051B0001CA0A0470B482146BDE8F840084700BFA7
:1051C000617070000400000827AC000899600008B6
:1051D000496C6C6567616C20466C61736820636F15
:1051E00064652E00B4A800080000FE2F496C6C65B1
:1051F00067616C20537461636B20636F64652E007C
:10520000496D706C656D656E74206170706C69635A
:105210006174696F6E206E6F772E000010E000E001
:10522000FC240020496D706C656D656E74206170A2
:10523000706C69636174696F6E206661696C656426
:105240002E000000FDF7A6B9FEB552A0FDF77CFFC9
:10525000534D54482C4644F80C0F53486060204688
:10526000FEF79EF951485249FEF77EF9514EFF2153
:10527000B26844F8040CFEF79FF954F8040C0021BE
:10528000FEF78AF954F8040CFEF7E0F90A2004212D
:10529000CDE900104A4948A000224FF4806301F094
:1052A000B5FB08B101F0E6FC05F114000021602215
:1052B00000F0CFFF02F0F8FEFDF76AFAFDF7DAFA28
:1052C000012806D03F48404CA04740A0A04747488F
:1052D000A047474C01212046FBF73AFD012824D185
:1052E000642001F076FC20460121FBF731FD012806
:1052F0001BD120460121FBF72BFD012802D13E489E
:1053000000F0CAFE002749A520460121FBF720FD39
:10531000092F38D8012836D14FF47A7001F059FCA2
:10532000284600F0B9FE0137EEE73248FFF7A6FD48
:10533000C8B1FFF7E7FE3148FFF7A0FD28B92F48B5
:1053400000F076F808B9FFF7DDFE1E481E4CA047B6
:105350002BA0A0472548A0473068FFF7BDFEBDE859
:10536000FE40FDF709BFFFF733FA0128E1DB706863
:10537000FFF7B2FE1F4800F05BF80028D9D11D48A6
:10538000FFF732FAD5E70A2FE6D37068FFF7A4FEDD
:10539000D1E700BF72742D666F7461202F3E00004C
:1053A00088020020DD600008B95A0008F5500008A6
:1053B000E9500008140000207369675F6C656400A1
:1053C000CD50000827AC0008996000085061727445
:1053D0006974696F6E20696E697469616C697A6558
:1053E00064206661696C65642E000000B4A8000842
:1053F0000000024026AD0008BDAB0008F8AD000873
:10540000426F6F74206170706C69636174696F6E54
:10541000206661696C65642C20656E7472792073F6
:1054200068656C6C206D6F64652E00003E000000A6
:105430002DE9F04F8FB050B1FDF7A6FA38B106460E
:10544000FFF796FAE8B305464FF0000B03E04FF084
:10545000000B4FF0FF350024002600274FF0000816
:10546000DFF88405006808B100F026FBBBF1000FEF
:1054700002D0584600F020FB14B1204600F01CFB7F
:1054800017B1384600F018FBB8F1000F02D04046C3
:1054900000F012FBDFF85005406808B100F00CFB8B
:1054A0005DB9DFF84805DFF84845A047DFF8D405C7
:1054B0003146A047DFF85005A04728460FB0BDE8A9
:1054C000F08F4FF4805000F009FE30B30446DFF84F
:1054D0001805008B00F00F01012923D0022931D1DA
:1054E0004FF48C7000F0FAFDDFF8FC140860DFF870
:1054F0001C050D4601F0B1F9013000F0EFFD8346C7
:1055000028686FF00505BBF1000F18BF00281CD1FB
:1055100000274FF000080026A5E74FF0000B6FF0C2
:10552000050598E7DFF8C404DFF8C454A8470FF274
:10553000C440A847DFF8D004A8474FF0000B4FF055
:10554000FF3589E74FF0000B1CE0DFF8C054284618
:1055500001F083F9421C5846002100F07AFE2846EB
:1055600001F07BF902465846294600F031FEDFF88B
:1055700078040FF29C41054600684FF4807203F0F6
:1055800059FC288B00F47060B0F5807F1DD0B0F519
:10559000007F089628D0B0F5407F49D141F20E1027
:1055A000049041F20E1000F099FD07464FF4805030
:1055B00000F094FD804600266FF00505002F3FF4B3
:1055C0004FAFB8F1000F39D14AE7DFF82004DFF818
:1055D0002054A8470FF25C40A847DFF82C04A847E6
:1055E00000264FF0FF3538E7DFF85C5441F29010A9
:1055F000A84707464FF48050A84780460420A84794
:10560000DFF8E41300266FF00505002F48603FF433
:1056100027AFB8F1000F3FF423AF00283FF420AFCD
:105620000021042200F015FE41F29010049005E0E4
:105630004FF48050049000274FF00008DFF8AC03CF
:10564000DFF8AC53A8470898011DDFF89C0300F170
:1056500020020FF2F830A847DFF8AC03A84707F59F
:1056600080500190201D029000200A974FF4805531
:10567000002700220990002600204FF0000A069023
:10568000CDF81CB0CDE90B84D7480146008BC96E1C
:1056900000F470608A4280F0188160B3B7EB153F68
:1056A00046D00898114691465A462346FFF7B8FC63
:1056B000002800F1738101460EA8B0460E4621462F
:1056C000042200F085FD0A9F049A0E9D38460021B1
:1056D00000F0BFFD2CBA02993846224600F078FD52
:1056E00030460996B1444646DDF82C80CDF834901A
:1056F0000694251DAEE008980D9211465A462346A1
:10570000B046FFF78DFC002800F14A81064640466E
:105710002146324600F0B8F9002800F147810D9883
:10572000D14630440D9030460996B2464646C1E017
:10573000CDF814A004EB050A4FF000090EA903965A
:105740000D9205EB0906B7EB163F09D1B9F1040F2D
:1057500021D01AF8090001F8090009F10109F0E760
:10576000B9F1030F50D8089811465A462346FFF75F
:1057700057FC039EDDF814A0002800F10F8109906A
:105780000EA84844002109EB0102042A3FD0625CC4
:1057900042540131F7E70E980A9F049A0690384662
:1057A000002100F056FD0698C6F5805206BA0AEBB5
:1057B000090196423846069643D900F009FD0D9F2F
:1057C000089839465A462346FFF72AFC039EDDF81F
:1057D00014A0002800F1E2800146B0460E4606996A
:1057E000019829444944401BA1F58055A0EB0900CC
:1057F00021462A4600F0ECFC3046099637444646DE
:10580000DDF82C800D9725E04FF480551FE00A9FAE
:10581000049A0E9D3846002100F01BFD02982CBA18
:10582000A0EB09013846224600F0D2FC09980D99F8
:1058300006940144A4EB0900051D6FF31F350D917B
:1058400008E0324600F0C4FCA81900EB0905039EED
:10585000DDF814A0404600214FF4805200F0F9FC1E
:105860006148008B00F47060B0F5007F0ED00C9C96
:10587000B0F5407F4FF0000711D10A9806994246D3
:105880004FF48053FDF72AFB824608E05648414614
:1058900042680A98FEF7F4FD0C9C82460027BAF194
:1058A000000F70D030464146524600F0EDF8002817
:1058B000D1466CD4714800F0EFFBDDF81CB0DDE997
:1058C0000B840D9A5644CA46DEE6002864D00A9F2F
:1058D0000999A94260D94448806E86425CD2B0469C
:1058E0004E1B052ECDF814A067D30C9C0EA8611991
:1058F000042200F06DFC0E9890FA80F9301F4845A4
:1059000060D3049A3846002100F0A3FC04356119E5
:1059100038464A4600F05CFC0B9800214FF4805258
:1059200000F097FC30484646008B00F47060B0F5FC
:10593000007F0ED0DDF814A0DDF82C80B0F5407F9C
:1059400010D10A98494642464FF48053FDF7C6FAF3
:1059500007E02548DDF82C80426838464146FEF7CE
:105960008FFD82460C9CBAF1000F0CD030464146A8
:10597000524600F089F8002832D440484D4400F0E7
:105980008BFB5644A4E70A9F4FF0FF3568E5DDF82E
:105990001CB06FF003050CE00A9F16E00A9F02E0BE
:1059A0004646DDE90A786FF0060559E56FF0030514
:1059B0004646DDE90A780C9C52E54646DDE90A7860
:1059C0000C9C02E04646DDF82C802D4800F064FB7C
:1059D00005480025806E864238BF4FF0FF353FE511
:1059E0000A9F6FF003053BE58802002027AC000802
:1059F000996000084E6F742073757270706F7274C6
:105A000020584F522E000000B4A80008FBAC00083C
:105A100030313233343536373839414243444546E4
:105A200030313233343536373839414243444546D4
:105A3000000000004E6F742073757270706F727486
:105A400020475A49502E0000DD60000853746172EF
:105A50007420746F20636F7079206669726D77614E
:105A600072652066726F6D20257320746F20257318
:105A700020706172746974696F6E3A0054AC0008EA
:105A8000CEAE0008B5AC000870B50646094814460D
:105A900020300D46FCF778FF48B131462A462346B0
:105AA000FDF7AEF86FF0070101EAE07070BD6FF02E
:105AB000040070BD88020020F8B5D0B31D4F044625
:105AC0007868A04235D8B868A04232D907F11805E5
:105AD00028464FF0FF3100F025FE34F80A0CA4F1FF
:105AE0000C0618B13088B0F5F55F0AD012A000F0AE
:105AF000D3FA34F80C3C34F80A2C16A0314600F0E6
:105B0000CBFA4FF4F55044F80C0CF868B04288BF5B
:105B1000FE6054F8080C7968301A3A69401A10444B
:105B200038613046FEF7CEFB2846BDE8F84000F06D
:105B3000DFBDF8BDF0010020746F2066726565203E
:105B40006120626164206461746120626C6F636BC8
:105B50003A0A00006D656D3A203078253038782C8F
:105B6000207573656420666C61673A2025642C207B
:105B70006D6167696320636F64653A203078253012
:105B800034780A0080B5FBF7F3F8FCF79DFAFCF7D0
:105B9000E3FA10484FF47A710068B0FBF1F0411E4F
:105BA0000020B0EB116F07D10B4AFF2351600B4966
:105BB0000B70072111609060FCF75AF903F092FB1B
:105BC000FEF7C0FDFFF7E4F905480649BDE880404F
:105BD00000F060BE2000002010E000E023ED00E0B7
:105BE000B8350020000003207CB500208DF80700A8
:105BF0000A480DF10705041D00F12006204629463C
:105C000000F09DFC012805D030464FF0FF3100F038
:105C100089FDF3E79DF807007CBD00BF300100203F
:105C2000F8B5114D0446002085F838000D208DF898
:105C30000300204600F011FE06460DF103078EB169
:105C400020780A2805D12846394601220123FCF78D
:105C5000B4F82846214601220123FCF7AEF80134AE
:105C6000013EECE7F8BD00BF602B0020014802496F
:105C7000016070470CED00E00400FA05B0B5044681
:105C80007A48016829B104F128008847002800F00B
:105C90008180616C7648774DA847A16A7648A8470D
:105CA000E16A7648A847216B7548A847616B75483B
:105CB000A847A1687448A847E16874A0A84721696B
:105CC00076A0A847616979A0A847A1697BA0A847E9
:105CD000E1697EA0A847216A80A0A847616A83A0E5
:105CE000A847A16B85A0A847E16B88A0A847216CB5
:105CF0008AA0A8472078400703D48D4800F0CCF94B
:105D000007E000F091FF0146884800F0C5F9FDF773
:105D100055FF2078C00602D4864800F0BDF9864CB5
:105D20006068800702D5854800F0B6F960684000D9
:105D300040F19380607890B3814800F0ADF96178CC
:105D4000804800F0A9F96078C00702D07E4800F0D2
:105D5000A3F96078800702D57C4800F09DF960784F
:105D6000400702D57A4800F097F96078000702D51D
:105D7000784800F091F96078C00602D576A000F06E
:105D80008BF994F90100B0F1FF3F04DD744800F095
:105D900083F904E0B0BD2169724800F07DF92078F4
:105DA00058B3714800F078F92178704800F074F920
:105DB0002078C00702D06E4800F06EF92078800786
:105DC00002D56C4800F068F92078000702D56A48CF
:105DD00000F062F92078C00602D5684800F05CF94E
:105DE00094F90000B0F1FF3F03DD5D4800F054F985
:105DF00003E0E168624800F04FF9608868B36148E9
:105E000000F04AF96188604800F046F96088C007F0
:105E100002D05E4800F040F96088800702D55C48F7
:105E200000F03AF96088400702D55A4800F034F98A
:105E30006088000702D5584800F02EF96088C00538
:105E400002D5564800F028F96088800502D55448EC
:105E500000F022F9424800F01FF96068B0F1FF3FFE
:105E600002DC504800F018F9FEE700BF942E002035
:105E70006EB10008996000082DB100083AB1000821
:105E800047B1000854B1000861B100087230353ADA
:105E9000203078253038780A000000007230363A19
:105EA000203078253038780A000000007230373A08
:105EB000203078253038780A000000007230383AF7
:105EC000203078253038780A000000007230393AE6
:105ED000203078253038780A000000007231303ADE
:105EE000203078253038780A000000007231313ACD
:105EF000203078253038780A000000007231323ABC
:105F0000203078253038780A00000000206C723A82
:105F1000203078253038780A000000002070633A7D
:105F2000203078253038780A0000000093B000084F
:105F300079B00008B0B0000828ED00E00BB100080F
:105F4000DFB00008F2B10008DDB10008D2B10008EE
:105F5000D0B10008C6B1000853544B45525220003E
:105F600079B10008EBB00008BEB0000808B2000824
:105F7000A1B1000897B10008C5B10008BCB1000884
:105F8000FBB00008D1B000081EB20008E6B100085E
:105F90008DB100087BB10008B6B1000882B10008DD
:105FA000ABB1000820B1000870B50446101D20F008
:105FB00007020B4EA2F144006FF0430515B1565194
:105FC0000435FBE700254FF0807642E9081542E9E9
:105FD000065542E9045342E9024642F8445C70BD6A
:105FE000EFBEADDE80B5FAF7FDF80A490A78013256
:105FF0000A70BDE88040FAF7F9B800BF80B5FAF73B
:10600000F1F804490A78013A0A70BDE88040FAF7CD
:10601000EDB800BF9C2E00200068143800F0E0BDF1
:1060200070B504464FF0FF362068A04208BF70BD2F
:10603000FAF7D8F805462068C661143800F0D0FD9C
:106040002846FAF7D3F8EFE770B505460846164636
:106050000C4600F025FEB6B1012E1BD12846006883
:10606000A84210D090F8211094F835208A42F6D238
:106070001438816904F1140200F114030A60C4E9C0
:106080000531826170BD686804F1140101606561C9
:10609000A061696070BD000083B0B8B5044605A872
:1060A000084D0EC005AB284640F2FF112246009372
:1060B00000F062FF2846FFF7B3FDBDE8B84003B02B
:1060C000704700BFA42E002001464FF0FF300A4663
:1060D000126801308A42FBD1704700002DE9F04779
:1060E000D8B3DFF81498033020F0030AD9F8000081
:1060F000824532D809F1180840464FF0FF3100F0D0
:1061000011FBBAF10C0F98BF4FF00C0AD9E900C08F
:10611000D9F80CE0ACEB0A04051DAEEB0002A2427C
:1061200018D286187188134609B1EA58F7E77268E1
:1061300003F10C01571A5745F1D30AF11804A7428D
:106140000ED201217180811B1144D9E9042311442D
:106150008B421DE0404600F0CBFA0020BDE8F087FE
:1061600001EB0A054FF4F551415141194A600122F2
:10617000756072808B6049680CF10C0291421CBF03
:1061800001448D60D9E904120AF10C0421448A42C9
:10619000C9F8101001D2C9F814104FF4F551B645E2
:1061A00031800DD1D9F80820BEF8021041B19645D2
:1061B00006D0DEF8041000EB010EC9F80CE0F3E79E
:1061C000404600F095FA06F10C00BDE8F08700BFEC
:1061D000B0B5102A03D341EA00039B0701D0034660
:1061E0001EE003460F2A0BD90C68103A1C604C685D
:1061F0005C608C689C60CC681031DC601033F1E727
:106200000024042A04D30D59043A1D510434F8E73C
:106210002144234404E011F8014B013A03F8014BF7
:10622000002AF8D1B0BD10B5814209D28B18834243
:1062300006D90139431E5AB18C5C9C54013AFAE7E5
:1062400003462AB111F8014B013A03F8014BF8E774
:1062500010BD10B5042A01D3830701D0034616E010
:10626000CBB243EA032343EA034403460F2A08D987
:10627000C3E90044C3E90244103A1033F6E710C3FF
:10628000043A042AFBD202E003F8011B013A002A77
:10629000FAD110BDB0B514460A460321054600F0F8
:1062A0000FF9054A002005F11401C5E90511C5E9FA
:1062B000072000206C72B0BD0100FF00F8B5054654
:1062C00000F0B2FC0746F9F78DFF0446286A8742C2
:1062D00006D04FF0FF363E632046F9F787FF29E0EE
:1062E000E87F0138E877000603D02046F9F77EFF03
:1062F0001FE02A4612F81E0F97F83510884203D087
:106300003846022100F04FFB284650F8141F814206
:1063100012D0A1F114022A6291F82110A977E97F25
:106320000131E977FFF778FE2046F9F75FFF00F0CB
:1063300051F900263046F8BD0026FF202E62A877CE
:10634000A88B0130A883C7E72DE9F84F05460091D7
:1063500000F06AFC0646F9F745FF804600203063EE
:10636000286AB04239D006F1440B05F1140906F150
:106370003504EA46A88B50BB009898B3286A217868
:1063800090F83520914203D20221224600F00BFB07
:106390006A7A48463146FFF757FE0098012807DB26
:1063A00058460021524600F03DFD584600F07CFD65
:1063B0004046F9F71BFF00F00DF9376B17F10900A4
:1063C000D8D0AFB90027F9F70DFF80460DE00138AE
:1063D0002E62A88396F83500A877E87F0027013061
:1063E000E87702E06FF0010737634046F9F7FEFEF9
:1063F0003846BDE8F88F2DE9F0418846074600F0A1
:106400004BF80546C068FFF769FE0026C0B1EA6890
:1064100000210446FFF71DFF204641460822667210
:10642000277200F021FAF9F7DDFE55F8041F224625
:1064300042F80C1F4A602A602561F9F7D7FE26460C
:106440003046BDE8F08110B5044600202072F9F70F
:10645000C9FE2246216952F80C3F596021690B6040
:1064600022611260F9F7C2FE2046BDE81040FFF736
:1064700023BB10B5044600202072F9F7B3FE54F890
:106480000C1F62684A6062681160C4E90044BDE89C
:106490001040F9F7ABBE000008496FF05F0212F13F
:1064A000100304BF002070470A4492F86020824223
:1064B0001A46F4D1C8185030704700BFD4000020ED
:1064C000F8B50446084615460E46FFF7E5FF0746B1
:1064D000FEF756F9043738460068B842FCD1FEF79B
:1064E0005BF946F08000207220462946082200F021
:1064F000BBF9F9F777FE396844F80C1F4C603C6033
:106500006760BDE8F840F9F771BE007AC0097047CE
:106510004268C2F34E01B1EB524F07D182EA1241F9
:10652000C9070CBF0020B0F908007047520C8A421E
:106530008FBF501A511AB0F9080008447047B0B51F
:106540000D460446FFF7E4FF98B1D4E90001C1F31A
:106550004E01405C28706068C0F34E01B4F9082019
:10656000013A8A4207D14FF6FE71884380F001005C
:1065700005E00020B0BD811C490861F34F00606058
:106580000120B0BD0023C0E9001322F00301018106
:10659000704770B5B0F908600D460446FFF7B8FFC4
:1065A000B04204BF002070BDD4E90001490C45543D
:1065B000B4F908006168013801F50032B0EB514FC1
:1065C0004FF001006FF35F4108BF81F480326260D9
:1065D00070BD0000B0B5F9F705FEED4D04466888C2
:1065E00020B12046BDE8B040F9F700BEA868FBF72F
:1065F0001FFF013805EBC00149696A68A1F1140366
:106600009A42EED06B60287002F11C00044A0831F7
:10661000127812B1F9F7EDFDE3E7F9F7EAFDE0E7EB
:106620009C2E0020F8B50446F9F7DCFD94F83520DF
:10663000D74B04F1140603EBC202956994F83410A9
:10664000A5612E60A56B9F6801F0F0013D4301310B
:106650009D6084F8341002F1140196616161BDE817
:10666000F840F9F7C3BD00BF10B50446F9F7BAFD0D
:10667000214651F8142F4B6853604B681A60C1E9EA
:10668000001191F82120C24901EBC20252F8143FD7
:10669000934204D1A26B8B6823EA02028A60BDE8B0
:1066A0001040F9F7A3BD00BF10B504461430FFF742
:1066B000B7FC2046FFF7C7FE002010BD10B504460A
:1066C0001430FFF7ADFC2046FFF7D3FE002010BDCD
:1066D00070B515460A4602211C460646FFF7F0FE35
:1066E00006F11400B583C6E905000020747270BD80
:1066F000B0B50546F9F776FD0446284650F8141F54
:10670000814207D0FFF788FC2046F9F76FFDFFF7BD
:1067100061FF05E0A88B0130A8832046F9F766FDEC
:106720000020B0BDF8B50E4607460091F9F75AFDB6
:106730000446B88B30B10138B8832046F9F756FDCE
:106740000020F8BDFEB100F06FFA05460020286376
:106750007A7A07F114002946FFF776FC012E09DB4F
:1067600005F144066A463046002100F05BFB3046E6
:1067700000F09AFB2046F9F739FDFFF72BFF286B55
:106780000028DED1DCE72046F9F730FD6FF001008C
:10679000F8BD00001CB50B4C07A0A0470AA0A047FD
:1067A00012A0009014A0032101220323A0471AA0E5
:1067B0002146BDE81C4008470A205C207C202F0AA7
:1067C00000000000996000082D205254202D202048
:1067D000202020546872656164204F706572617476
:1067E000696E672053797374656D0A00417567207F
:1067F0002033203230323000202F207C205C2020BB
:1068000020202025642E25642E2564206275696C65
:10681000642025730A0000002032303036202D20FD
:106820003230313920436F70797269676874206241
:10683000792072742D746872656164207465616D6D
:106840000A00000003780A7823B1934203D1013192
:106850000130F7E70023981A7047411E11F8012F05
:10686000002AFBD1081A7047B0B592B1034604461E
:106870000D7804F8015B2DB1013A01F101012346C5
:10688000F6D106E0012100248A4202D05C54013195
:10689000FAE7B0BD10B50A46014622F003001928F8
:1068A00024D3CB1CA0F1180423F003039C421DD376
:1068B0004FF4F5511960C11A0F4CA1F10C021839AF
:1068C0005A602160002199600C496360034643F8D7
:1068D0000C1DA36040E9022204F1180008A1012266
:1068E0000023FFF7F5FE6068E06010BD06A0BDE87C
:1068F0001040FFF7D1BB00BFF0010020A01E010037
:1069000068656170000000006D656D20696E6974D6
:106910002C206572726F7220626567696E206164F7
:10692000647265737320307825782C20616E642042
:10693000656E6420616464726573732030782578B5
:106940000A000000124800214180402906D0421868
:1069500002F11403C2E905330831F6E707220021EA
:10696000027000F10C02C0E90111C0E90322704776
:1069700010B5074CA068FBF75BFD04EBC000C068D6
:10698000A0F1140161600830BDE81040F9F777BC50
:10699000280200200248011DC0E90111704700BF14
:1069A0007C020020704770B50446D9B101291DD082
:1069B000022929D11546F9F715FC064694F834004A
:1069C00000F00F00012815D12046FFF74DFE287872
:1069D000012184F8350001FA00F0A0632046FFF79A
:1069E00021FE0EE0204600F045F90DE0204600F0C3
:1069F00033F809E02878012184F8350001FA00F025
:106A0000A0633046F9F7F2FB002070BDFEB50E46DC
:106A1000014601201F461546FFF7EDFC98B10446DC
:106A20003846FFF75BFB58B10346DDE908102A46FC
:106A3000CDE90071029020463146FBF713FD03E0DB
:106A40002046FFF700FD00242046FEBD80B500F083
:106A5000EFF8002080BD000010B5044690F8340027
:106A6000000702D02046FFF7FFFD04F1440000F0CC
:106A7000EFF9042084F83400F9F7B4FB37490A68C9
:106A800044F8142F54600C606160F9F7AFFB0020EC
:106A900010BD00BFB0B5B0480568F9F7A3FB0446C8
:106AA0002846FFF7E1FD042085F8340005F1440095
:106AB00000F0CEF92846FFF728FD012801D1286F04
:106AC00038B12648016845F8141F4D6005606860BC
:106AD00002E02846FFF7CDFC2046F9F787FBBDE82A
:106AE000B040FFF777BD00BF00F002F8FCE7000000
:106AF000F8B51A4E3068B04208BFF8BDF9F772FB1E
:106B000037680446B74224D0D7E90001A7F114053D
:106B1000416079680860C7E90077FDF731FEF96DDB
:106B200009B1284688472846FFF7EFFC01280BD01B
:106B3000FDF732FE2046F9F759FB7869FEF7BCFFF6
:106B40002846FFF780FCD5E72846FFF792FCFDF7C3
:106B500023FE2046BDE8F840F9F748BB3402002088
:106B60001FB520200390072002904FF48070019001
:106B70000748084C0A4A009007A12046002300F06D
:106B800011F8204604B0BDE8104000F073B800BF13
:106B9000A4300020CC2B00207469646C65000000D8
:106BA000E96A00087FB515460A4601211C460646DB
:106BB000FFF786FC0B98089B02900A9829460190E3
:106BC0000998224600903046FBF74CFC002004B0A8
:106BD00070BD80B500F0C4F800F02AF8002080BD38
:106BE000B0B5044690F8340000F00F0002281CBF36
:106BF0004FF0FF30B0BDF9F7F5FA21460546A06920
:106C000051F8142F5060A069026004F14400A161A2
:106C1000096000F095F92846F9F7E8FA2046FFF7F1
:106C200001FD0020B0BD00004B480068704700BF68
:106C3000F8B50090F9F7D6FA0546474804682046AB
:106C400000F02EF804F144066A4630460021002781
:106C500000F0E8F8304600F027F92846F9F7C6FAC0
:106C6000FFF7B8FC206B02304FF0000008BF27632D
:106C7000F8BD00BF80B5022180F8341090F83610BE
:106C8000012280F8351002FA01F18163FFF7A8FFB5
:106C90003148006808B1FFF79DFC002080BD00BFAF
:106CA000B0B5044690F8340000F00F0001281CBF76
:106CB0004FF0FF30B0BDF9F795FA054694F834006F
:106CC00000F0F000023084F834002046FFF7CCFCDE
:106CD00004F1440000F034F92846F9F787FA00205F
:106CE000B0BD80B50246816952F8143F5960816990
:106CF0000B606FF00101016382611260FFF792FC8B
:106D0000BDE88040FFF766BC10B5F9F76BFA124991
:106D1000096891F8342002F00F02012A18D10A46BE
:106D200052F8143F5468A34212D05C608C698A61A7
:106D3000236091F83530094C04EBC3035C68226092
:106D4000C1E905345A60F9F751FAFFF743FC01E055
:106D5000F9F74CFA002010BD2C0200203C02002064
:106D600000280DD44FF47A71B0FBF1F202FB110050
:106D7000484300F2E730B0FBF1F002FB010070473E
:106D80004FF0FF30704700000B480068704700BFAD
:106D900080B50948016801310160FFF745FF016CCA
:106DA0000139016403D1C16B0164FFF7ADFFBDE898
:106DB000804000F003B800BFA83100202DE9F04169
:106DC000FFF7E2FF0546F9F70DFA5B4E5B4F804691
:106DD000304650F8044F84421ED06069281AB842E9
:106DE0001AD894E80E00E0684A6062681160C4E94D
:106DF00000449847FFF7C8FF054614F80B0C00F055
:106E0000FE0100F00300032804F80B1CE0D1A4F1FC
:106E1000140000F049F8DBE74046BDE8F041F9F71F
:106E2000E5B900BF032911D8DFE801F00205080C1D
:106E3000116841620AE0406A106007E0417A01F09F
:106E4000FD0102E0417A41F00201417200207047E9
:106E500010B50446F9F7C6F92246A16952F8143F65
:106E60005960A1690B60A2611260F9F7BFF9204671
:106E7000FFF7FFFA002010BD70B515460A460A213B
:106E80001C460646FFF71CFB0020B0620598C6E9C9
:106E9000075400F0FE0070720498706206F114004E
:106EA000C6E9050070BD00002DE9F0410446F9F780
:106EB00099F9254655F8141F6A684A606A68116096
:106EC00015F80B1C01F0FE0105F80B1CC5E9005577
:106ED000F9F78CF9FFF758FF2969DFF85C8008445F
:106EE000686108F10406F9F77DF9D8F80810134A2B
:106EF0000123DB070CD08E4208D03768A36A7F6974
:106F0000DB433B44934201D33668F4E70023F0E7C8
:106F1000316861614D60D8F800100131C8F8001087
:106F20003560A661617A41F001016172F9F75EF99D
:106F30000020BDE8F08100BF7C020020FEFFFF7F43
:106F400010B50446407AC00704BF4FF0FF3010BDB3
:106F5000F9F748F954F8141F62684A6062681160D2
:106F6000C4E90044F9F742F914F80B0C00F0FE00F4
:106F700004F80B0C002010BD2DE9F04F87B01D4622
:106F8000074600EB010B0DF118080692039100294A
:106F900048BF4FF0FF3B04901078252807D0002809
:106FA00000F021815F4500D238700137D6E0501CD7
:106FB0004FF0000A017820290AD023290AD0102294
:106FC000302909D02D2908D02B290AD1042204E028
:106FD000082202E0202200E001224AEA020A0130EF
:106FE000E8E7A1F13002092A069005D8404601F0F1
:106FF00085FB064606980DE02A2909D10130069046
:1070000040CDB6F1FF3FDCBF4AF0100A764201E006
:107010004FF0FF3601782E290BD1411C06914178A3
:10702000A1F13002092A07D8404601F067FB8146EA
:1070300008E04FF0FF390AE02A2906D10230069015
:1070400055F8049BB9F1FF3F01DC4FF000090698A9
:10705000037843F004016C2904D110F8012F9C46F9
:10706000069002E04FF0000C1A46A2F16F04092CC2
:107070000CD9252A00F07680582A54D0692A18BFE6
:10708000642A0DD14AF0020A0A234FE00A23DFE8FE
:1070900004F005186E6E2A6E4D6E6E4C082345E0A6
:1070A000632A64D15FEACA6000F18880013E202231
:1070B000012EC0F284805F4538BF3A70013E01372F
:1070C000F6E7701CB0FA80F04FEA501040EA0A0070
:1070D00004CDC0B208BF0826CDE900690290384649
:1070E0005946102337E055F8048B47A00595B8F1B1
:1070F000000F08BF80464046FFF7AFFB48450146FA
:10710000C8BF4946B9F1000FD8BF01465FEACA605F
:107110003AD42025701EB14238DA5F4538BF3D7041
:1071200001370646F6E74AF0400A1023BCF16C0F1F
:1071300001D104CD08E004CDBCF1680F04D15FEAB1
:107140008A704CBF12B292B25FFA8AF0CDE9006940
:10715000029038465946FDF7DDF807460698421C6E
:10716000069219E75F45BFF420AF25201CE75F4575
:1071700003D22520387006980278791C7AB35945D5
:1071800038BF0A700237E9E7304620250023FA1895
:107190008B4206DA5A453CBF18F80340147001339D
:1071A000F5E70DF11808814205DA01385A4538BF74
:1071B00015700132F7E7059D1746CFE720225F459E
:1071C0003CBF29683970281D711E0137012904DB75
:1071D0005F4538BF3A700139F7E70546BEE7013829
:1071E00006900F46BAE70398049A002848BFD04398
:1071F00030B1384600215F4528BFABF10100017076
:10720000B81A07B0BDE8F08F284E554C4C29000045
:107210000020704700207047002070470020704712
:1072200080B5F8F7DFFFFEF7ADFCFFF7B3FAFFF725
:10723000B1FBFFF787FBFDF75FFAFFF7B3FBFFF743
:107240008FFCFFF795FB002080BD00002DE9F84F73
:10725000B14D0646686041630A9806F114088946F4
:10726000C6E90032B060ADA14046002200234FF0D5
:10727000000BFFF72DFA05F1080005F114011022AB
:10728000FFF780F9A74886F80CB0C9F84C0040F227
:107290000540FEF723FF306178B10B9C012030736D
:1072A00074B14320FBF712F93046FBF715F90128BA
:1072B00009D002280AD0013CF2E76FF00407FBE096
:1072C0006FF06F07F5E04FF0850B01E040F2054BE2
:1072D000ABF10107FFF758FD05464FF0000AFFF735
:1072E00053FD04466420FFF73BFDBA450CD2284409
:1072F000844209D830463946FBF70CF9044605208C
:10730000FFF767FCA244EAE7BA4540F0CD80306958
:10731000417811B98178FF2902D06FF07107C5E07B
:1073200000EB0B0111F8022C11F8011C00F1030A0B
:10733000ABF1050741EA022450463946F9F783F9D3
:10734000844240F0CA807368734D4FF0000B33B134
:10735000304651463A469847062840F0D4800224E9
:107360004FF0030A0620FBF7B1F84320FBF7AEF815
:1073700034733046FBF7B0F8012804D0022838D126
:107380004FF4806700E0802747F004043046214630
:10739000FBF7C0F8A04240F0A380306941788278C2
:1073A0000A44FF2A40F09F8011B9317B0229E0D0C6
:1073B00086F80CA00219015D12F8012CC41C41EAE8
:1073C000022B20463946F9F73EF9834540F091807B
:1073D00033684FF0000B43B1304621463A46984798
:1073E000062802D01828C4D186E00620FBF76EF8E4
:1073F000BFE704287AD104203073B36823B1306921
:107400008022C11C304698471520FBF75FF83046B4
:10741000FBF762F8042869D10620FBF757F84320F0
:10742000FBF754F83046FBF757F8012804D0022840
:107430006CD14FF4806B01E04FF0800B304684211B
:10744000FBF768F884282FD13069417800297FF450
:1074500064AF8178FF297FF460AFC51C90F883404A
:1074600090F8847028468021F9F7EDF847EA042166
:10747000814232D12878022440B173685BB1304632
:1074800029465A469847062805D042E00520307321
:107490000620FBF71BF8307B1F4D002705284FF017
:1074A000000B7FF45FAF04E06FF073071A4D4FF0ED
:1074B000000B3069FEF700FBF8F794FE04464046E7
:1074C000FFF7FCF81848C9F84C002046F8F78EFE84
:1074D0003846C5F804B0BDE8F88F6FF07207E5E7ED
:1074E0006FF07307E5E76FF07107E2E76FF0700781
:1074F000DFE76FF07207DAE7072424B11820FAF704
:10750000E5FF013CF9E76FF07407D2E76FF0700711
:10751000CCE76FF07407C9E7A801002072796D739A
:10752000656D00004D2500087D1D00087CB50546F1
:107530000420002918BF06208DF807006E6A00207D
:107540000C46009005F120000DF1070101220023F7
:10755000B04780B90DF10601284600F075FF50B91B
:107560004CB19DF80600800744BF00207CBD02A0FE
:1075700000F0AEFD02207CBD4572726F723A20436E
:10758000616E277420656E61626C65207772697424
:1075900065207374617475732E0000002DE9FE4F31
:1075A000012811D8DFF85C05FEF776FDDFF8586595
:1075B000DFF858450025062D4ED056F825102046F8
:1075C000FEF76AFD0135F6E74E680C4605460FF2F8
:1075D00000513046F8F708FF002843D0DFF8F8A440
:1075E000DAF8000000284DD00FF2F0413046FFF7E6
:1075F00029F9002852D00FF2EC413046FFF722F96A
:10760000002852D00FF2E4413046FFF71BF9002862
:1076100000F0C4800FF2DC413046FFF713F9002878
:1076200000F0DE800FF2D4413046FFF70BF900285E
:1076300000F02B81DFF8CC04FEF72EFDDFF8C864E4
:10764000DFF8C8440025062D06D056F82510204640
:10765000FEF722FD0135F6E7DFF8B404BDE8FE4F82
:10766000FEF71ABD0020002400F014FDDFF86814B6
:1076700008600169B4EB115F07D10268DFF8880583
:10768000890A06E0DFF87805E8E70268DFF87405A4
:10769000090D03B0BDE8F04FFEF7FEBC032D0BD87B
:1076A000DFF81005DFF8541530E1032D7DD8DFF841
:1076B0000405DFF8281529E1A06800210022F8F769
:1076C000C6FE0546E06800210022F8F7C0FE074626
:1076D000FEF704FD002800F081800446DAF800007F
:1076E00029463A46234600F015FD0646002840F09C
:1076F000F980DAF800002A460168DFF8E4043B4626
:107700000196FEF7C9FCDFF8DC04FEF7C5FCDFF8E4
:10771000E4644FF00009A2460FF2DC440FF2D048B7
:10772000CDF800A0B94580F0D880DFF8C00409EB9F
:107730000501FEF7B1FC4FF0000BBBF1100F0FD0AD
:1077400009EB0B00B84205D21AF80B103046FEF7D1
:10775000A3FC02E04046FEF79FFC0BF1010BECE7B7
:10776000AB460025102D0FD009EB0500B84209D219
:107770001AF80510A1F120005F28204628BF2E210D
:10778000FEF78AFC0135EDE7DFF88403FEF784FCA1
:107790000AF1100A09F110095D46C3E7032D35D837
:1077A000DFF81004DFF82014B0E0A0680021002208
:1077B000F8F74DFEEE1E80463046FEF78FFC68B1AE
:1077C00005460C340027BE4240D054F82700002163
:1077D0000022F8F73CFEE8550137F4E7DE483DE7C4
:1077E000022D5BD8DAF800000DF10B0100F02CFE41
:1077F0000646002840F08180DAF800009DF80B2052
:107800000168DFF8BC03FEF747FC76E0A0680021C2
:107810000022F8F71CFE0546E06800210022F8F778
:1078200016FE0446DAF800002946224600F09CFBCA
:107830000646002862D1DAF800002A460168E148CD
:10784000234603B0BDE8F04FFEF726BCDAF800008F
:10785000414632462B4600F04FFE8146002848D173
:10786000DAF8000042460168D8483346FEF714FCB7
:10787000D748FEF711FCD7A42F46BEB317F8011B5B
:107880002046FEF709FC013EF7E7032D04D3A0686C
:10789000A0A1FEF7D7FFF0B39FA0DFE6042D33D100
:1078A000A06800210022F8F7D2FD0546E06800211B
:1078B0000022F8F7CCFD002D18BF0125C4B2DAF87C
:1078C00000002946224600F0BBFE0646B0B9DAF8B1
:1078D000000022460168B948DBE68D48FEF7DCFB74
:1078E000DDE900462046FEF7E7F806E0BAA0FEF71D
:1078F000D3FB2846FEF7E0F84E461EB1BA483146A3
:10790000FEF7CAFBBDE8FE8FAA48AB4903B0BDE84D
:10791000F04FFEF7C1BBDAF80000D0F810B04FF41A
:107920008070FEF7DBFB81464FF48070FEF7D6FBDC
:107930000746B9F1000F18BF002F04D18648FEF7A3
:10794000ABFB0026BEE0484655214FF48072FEF79F
:1079500080FCDAF800005A46016880A0FEF79CFB24
:10796000FFF712FA0446DAF8000000215A4600F048
:10797000FBFA054620B184482946FEF78DFB0BE053
:10798000FFF702FA001B4FF47A72B0FBF2F101FB31
:1079900012027E48FEF780FBDAF800005A460168C2
:1079A0007B48FEF779FB0024FFF7EEF98046CDF81F
:1079B00004905C450CD2DAF8000021464FF4807246
:1079C0004B4600F099FDA0B904F580740025F0E75E
:1079D000CDB9FFF7D9F9A0EB08004FF47A72B0FBEC
:1079E000F2F101FB12026B48FEF756FB4FF0000963
:1079F0000EE00546DAF800002246016866484FF4BA
:107A00008073FEF749FB65482946A946FEF744FB0B
:107A1000DAF800005A4601686148FEF73DFB4FF472
:107A200080754FF00008FFF7AFF900900020044682
:107A3000AB45284638BF5846A3451ED900EB08027F
:107A4000DAF8000021463B4600F064FBDDF80490C4
:107A50000646484639464FF48072F8F7D3FC00BB1F
:107A600004F58070A8F5807805F580754FF0000961
:107A7000002EDCD0DDF8049017E04E46B9F1000F7F
:107A8000DDF804901AD1FFF77FF900994FF47A726C
:107A9000401AB0FBF2F101FB12024248FEF7FCFA79
:107AA0004FE74148FEF7F8FA0326DAF800002246CD
:107AB00001683E484FF48073FEF7EEFA3C483146C9
:107AC000FEF7EAFA4846FDF7F7FF38460BE700BF36
:107AD00070726F6265000000AC31002072656164F5
:107AE00000000000777269746500000065726173C0
:107AF00065000000737461747573000062656E63E5
:107B000068000000EBA40008A8970008FBA5000887
:107B100079B100087965730044414E4745523A20D7
:107B200049742077696C6C20657261736520667595
:107B30006C6C20636869702120506C6561736520EE
:107B400072756E202773662062656E6368207965A2
:107B500073272E0A0000000083A10008457261739C
:107B6000696E672074686520257320256C64206227
:107B70007974657320646174612C2077616974691C
:107B80006E672E2E2E0A00003EA3000847A20008B2
:107B9000EDA1000877A20008BAA500086DA30008AF
:107BA000C2A1000818A2000820A400087DA50008B2
:107BB00010A30008A8A4000851A70008B4A4000856
:107BC000A7A200089CA3000809A70008DEA30008DC
:107BD000FFA50008256420002E0A00006CA60008FE
:107BE000F3A4000841A50008DEA200080CA60008C6
:107BF000202020002EB2000825630000C2A6000845
:107C000090A1000882A400085CA400087CB5816AE9
:107C1000054600F1200409B1204688472846012185
:107C2000FFF784FC064628BBC7208DF80400A88A0D
:107C3000000706D46E6A0020009001A920460122A8
:107C40000CE09A208DF8070048F29400ADF805008A
:107C50006E6A0020009001A9204604220023B0474C
:107C6000064618B108A000F033FA03E0284601F0F8
:107C700061FB064628460021FFF758FCE96A09B176
:107C80002046884730467CBD4572726F723A204666
:107C90006C61736820636869702065726173652028
:107CA00053504920636F6D6D756E69636174652013
:107CB0006572726F722E00002DE9FE43044600F0DB
:107CC000EDFB7E4D08B1064671E0236933B1A08A11
:107CD00020B1A06910B1207F002854D19F208DF8D9
:107CE0000800666A0320009004F1200002A90DF14B
:107CF00005030122B04720B1064671A000F0E8F963
:107D000055E09DF805002073BDF80600A4F80D00AD
:107D1000204600F039FAF0B10020A060D4E9143117
:107D200001262361A16194F858202277B4F84820F5
:107D3000012A08BF0226A682032821D004EBC00630
:107D4000F26D32B1914204D9A26196F860102177A8
:107D500011460130F0E7217B644A0020B0F5E47F52
:107D60000DD0161833798B4207D17379677BBB42EC
:107D700003D1B379A77BBB4230D01830EEE723693B
:107D80008BB1A08A78B1A06968B1207F58B1217BFE
:107D9000574A0020102814D002EBC00636798E42D4
:107DA00014D00130F6E76F4800F092F90126002761
:107DB00084F834702168284600F08AF93046BDE81E
:107DC000FE836248194600F083F916E052F830103D
:107DD000A26872B147A000F07BF90EE01058A060D5
:107DE000307D20773069B368A061B089A0822361BB
:107DF000C6E74BA01A4600F06BF966208DF8090023
:107E0000666A04F120080DF109074FF000094046A9
:107E1000394601220023CDF80090B0470646A0B9AC
:107E2000204601F087FA99208DF80A00666A791CCD
:107E3000404601220023CDF80090B047064620B905
:107E4000204601F077FA064608B1414856E7A08A75
:107E5000400708D5204601210022002700F0F0FB52
:107E600008B10646A4E72069B0F1807F1AD9204600
:107E70000121FFF75BFB0646002898D1B7208DF85B
:107E80000B00666A002000900DF10B0140460122B4
:107E900000230127B04758B106462F482FA100F014
:107EA00017F984E700262B4D84F8356001277FE71A
:107EB000284D002684F835707AE700BFA99D000898
:107EC0004572726F723A205265616420666C61730C
:107ED0006820646576696365204A454445432049C6
:107EE00044206572726F722E00000000B89A00087C
:107EF000809C000846696E642061202573202573EC
:107F000020666C61736820636869702E2053697AFB
:107F10006520697320256C642062797465732E0076
:107F200046696E64206120257320666C6173682049
:107F3000636869702E2053697A6520697320256C07
:107F4000642062797465732E00000000FE9D0008B5
:107F5000619D0008249E0008389D0008456E7465E8
:107F6000720000004B9E00082DE9F04F85B00446DA
:107F700000690F461144814204D9824800F0A8F8F4
:107F800005256CE0934637B9584504D12046FFF7E4
:107F90003DFE054663E0A16A04F1200609B13046C2
:107FA00088470DF10F000130019004F1180004F131
:107FB0001C080290BBF1000F43D094F844004146E6
:107FC0000028029809D0204639465A4600F04AFA5D
:107FD00004EBC00101F15400583191F800A0D0F831
:107FE000009020460121FFF7A1FA40BB019A2046EC
:107FF00039468DF80FA0FBF747FF94F83500656A06
:108000000021009100284FF0050230460DF10F01CC
:108010004FF0000308BF0422A847A0B9204601F092
:1080200089F960B9B7FBF9F000FB197008B1A9EB49
:108030000009CB4505D9ABEB090B4F44BAE7054620
:1080400005E0002503E0054607A000F041F82046C2
:108050000021FFF76BFAE16A09B1304688472846EC
:1080600005B0BDE8F08F00BF4572726F723A2046CE
:108070006C61736820657261736520535049206399
:108080006F6D6D756E6963617465206572726F7274
:108090002E00000000210D4A7423002808BF00FBB9
:1080A00003210846704700BF70B5084C0126002523
:1080B000F00708D0002620466660FFF7FDFD002887
:1080C00018BF0546F4E7E8B270BD00BF24000020E9
:1080D00083B0B8B5044605A80EC005A8009009A055
:1080E000FDF7DAFF094D009B28464FF480712246C8
:1080F000FEF742FF06482946FDF7CEFFBDE8B8402F
:1081000003B070475B534655445D00006C2C002063
:10811000FBA500082DE9FE4304460E4650182169D0
:10812000884204D91748FFF7D3FF052527E0A16A45
:108130009846174604F1200909B148468847204669
:1081400001F0F8F80546B0B903200DF107058DF8E8
:1081500007006A1C20463146FBF796FE94F835006E
:10816000666A05220028484629464346009708BF0C
:108170000422B0470546E16A09B1484688472846C7
:10818000BDE8FE83839D0008F0B589B00446002059
:1081900084F84400CDE900006A4620460021082307
:1081A000FCF78CFA18B181A0FFF792FF1CE09DF854
:1081B0000000532818D19DF80100462814D19DF8DD
:1081C0000200442810D19DF8030050280CD19DF8DE
:1081D00005109DF80420022984F8462084F84510F3
:1081E0000AD39748FFF774FF21689648FFF770FF9E
:1081F0000025284609B0F0BD0020CDE900006A4600
:10820000204608210823FCF759FA08B16FA0CBE7F4
:108210009DF80210022903D39DF801208748E1E769
:108220009DF80310082903D88348FFF751FFDBE7C7
:108230009DF804009DF805106D4640EA01209DF868
:10824000061040EA014628462421F8F7AFF82046F8
:1082500031462A462423FCF731FA18B16948FFF762
:1082600037FFC5E79DF800009DF8011084F84B101A
:1082700000F00301012903D0032911D1002100E0FE
:10828000012184F84A1041074FF4807158BF012141
:10829000A4F84810010705D4012084F84C000AE036
:1082A0006448DCE70021C00684F84C104CBF06206F
:1082B000502084F84D009DF80200C0F341000328CF
:1082C00004D1002552A0A4F84E5025E04E49C0002C
:1082D000C14084F84F1040F2011121FA00F084F8F7
:1082E0004E009DF806209DF807309DF805101204F9
:1082F0009DF8040042EA036242EA0121084419069B
:1083000003D4012101EBD0000DE020F0004024282F
:1083100005D33E4800252565FFF7DAFE69E70338F7
:10832000012101FA00F0206500200121002204282B
:108330000FD005EB40031E7F4EB1D7B201FA06F60F
:1083400004EBC7077E655B7F013287F85830013048
:10835000EDE74FF0000CBCF1040F22D004EBCC0091
:10836000014651F8542FCAB100F158026646032E57
:1083700014D004EBC605EF6D731C002F1E46F6D01B
:1083800008681E46B842F2D90F6095F86060177809
:108390001670E86585F860701E46E8E70CF1010C80
:1083A000D9E7012584F8445023E700BF4572726F76
:1083B000723A2043616E27742072656164205346CF
:1083C0004450206865616465722E00004572726FCA
:1083D000723A2043616E27742072656164204A45B9
:1083E00044454320626173696320666C6173682051
:1083F000706172616D657465722068656164657233
:108400002E000000CEA000080001010001A000081D
:108410004572726F723A20526561642061646472C1
:10842000657373206279746573206572726F72214F
:10843000000000004CA1000805A100087BA0000876
:1084400046A00008A79F00081CB50B4605218DF823
:108450000710446A0121009120300DF1070101222B
:10846000A0471CBDB0B5436DB1FBF3F404FB13137F
:1084700083B900F16C03002053F83040651E95422B
:1084800004D2B1FBF4F505FB14142CB1C41C01D0CB
:108490000138F1E70020B0BD0330B0BD10B504468F
:1084A0000B480CA10022FDF7F5FEF9F731FD6068DD
:1084B00058B90B480B490E4AC4E90E100A480B493B
:1084C0000C4BC4E90932C4E90B10002010BD00BFF9
:1084D000482C0020736675645F6C6F636B0000004E
:1084E000C0270900F1460008240100202D8700085C
:1084F00021870008398700082DE9FE4F0446808A4D
:108500001F4615468946C10703D140070DD40026F2
:1085100008E0204649462A464FF480730097FBF74F
:108520005FFE06463046BDE8FE8F216905EB090077
:10853000884204D94148FFF7CBFD0526F2E7A16A3E
:1085400004F1200809B1404688475FEAC9700CD0A1
:1085500020464946012201230097FBF741FE0646CB
:1085600048B9013D09F10109013720460121FEF713
:10857000DDFF064648B120460021FEF7D7FFE16A3D
:108580000029CFD040468847CCE7AD200DF1040A42
:108590008DF804000AF1010B0120022D30D3C00731
:1085A00013D0204649465A46FBF76EFC94F8350036
:1085B00000284FF0050008BF042039780AF80010A1
:1085C0007A780AEB00014A7006E038788DF80500E9
:1085D00078788DF806000120666A0021009140F04D
:1085E0000202404651460023B047F0B9204600F051
:1085F000A1FEF8B9023709F10209023D0020CCE7DB
:1086000020460021FEF792FF0646012D08BF002EEE
:1086100007D120464946012201230097FBF7E0FDE0
:108620000646002EA7D10026A9E706460248FFF716
:108630004FFDA0E706469EE7D49D0008839D0008F5
:10864000FEB51646054600F1200461B150208DF8B4
:108650000A006F6A002000900DF10A0120460122F5
:108660000023B84703E028460121FEF75FFF0746D5
:1086700078B901208DF80B608DF80A006D6A002032
:1086800000900DF10A01204602220023A847074668
:1086900020B103A0FFF71CFD3846FEBD0027FBE715
:1086A0004572726F723A2057726974655F737461B4
:1086B0007475732072656769737465722066616989
:1086C0006C65642E00000000F8B5044609A50AA6F2
:1086D00007463F68A74208BFF8BDA7F11401284626
:1086E000FDF7DAFC3868A042F3D03046FDF7D4FC41
:1086F000EFE700BF257300002F0000000268002193
:108700001378303B092B84BF08467047531C036025
:10871000127801EB810102EB410130391A46EFE793
:1087200004484FF0FF31FDF70FBE00BF0148FDF7D1
:10873000C5BD00BF482C00202DE9F04107690D465A
:1087400039897868164600221C46F8F706FB386817
:10875000DDF81880FEB1B8F1000F1CD0B2B2294686
:108760004FF47A73F8F7FBFF05463868F8F7EAFE2E
:108770000128FAD138681FFA88F221464FF47A733B
:10878000F8F756FF002D4FF0030418BF012500280D
:1087900008BF6C0016E056B1B2B229464FF47A73A6
:1087A000F8F7DDFF002818BF012044000AE01FFA97
:1087B00088F221464FF47A73F8F73AFF044600280E
:1087C00018BF03243868F8F7BDFE0128FAD13989AB
:1087D00078680122F8F7C1FA2046BDE8F081000070
:1087E000F0B587B00F180026B7F1016F069602D9D1
:1087F0006FF0090520E00C460546F8F75DF93048B2
:10880000F32101602846F8F74FF80546781EF8F77F
:108810004BF8401B0221013005910196039504900D
:1088200001A806A9F8F7ACF80546002814BF4FF0D8
:10883000FF352546F8F7F4F8284607B0F0BD00BF2D
:108840001318B3F1016F02D94FF0FF3209E010B5F0
:1088500000239A4203D01C5CCC540133F9E7BDE8F5
:1088600010401046704700002DE9F0416FF00907F5
:108870001AB3804610441446B0F1016F1DD80D465E
:10888000F8F71AF90E48F32100260160B44211D01E
:1088900008EB0607AA5D002039460023F8F7CAF85E
:1088A00028B9A85D3978814201D10136EEE74FF051
:1088B000FF3700E02746F8F7B3F83846BDE8F08107
:1088C0000C3C02402DE9FF47DDE90C671C4692464F
:1088D0008046E1B18946BAF1010F3ADB0020102849
:1088E00005D0315C225C514039540130F7E74046F5
:1088F00049463A463B4600F02FF8204639461022BA
:10890000F7F73BFDAAF1100A10371036E3E7E94606
:10891000BAF1010F1DDB484631461022F7F72DFD55
:108920004046002132463B46002500F015F8102D48
:1089300005D0785D615D484078550135F7E7204600
:1089400049461022F7F719FDAAF1100A1037103620
:10895000DEE7BDE8FF8700002DE9F04F8AB0049301
:10896000D0E900434FF0FF3000EB640AD2F800C0BA
:10897000D2F804E09668D268D3E90040D3E90275E2
:1089800080EA0E006A4077408CEA0409002903F16E
:108990002C010992CDF820A000F0E680B84606919F
:1089A000C9F30721DFF80CB9DDF824C0DFF800A90E
:1089B000069A5BF821305FFA8CF15AF8214052F8A0
:1089C0001C1CDFF8F478079152F8181CDFF8ECE86B
:1089D000059152E90556594674406340C0F3074477
:1089E00057F8244063404FEA18645EF8244083EA55
:1089F00004065FFA88F4CCF307235AF824405BF8A6
:108A000023306C406340C9F3074457F82440634067
:108A1000040E5EF8244083EA040BC4B2C8F30723B3
:108A20005AF82440059D51F823306C406340CCF344
:108A3000074457F8244063404FEA19645EF8244025
:108A4000C0F307205C405FFA89F351F820005AF820
:108A50002330079959404840C8F3074157F821107F
:108A6000DDF820A048404FEA1C615EF82110BAF101
:108A7000010F80EA010C52F80C0C5FFA8CF364DBF6
:108A8000DFF82CE8C4F30725DFF828885EF82330E8
:108A900058F82550584021465C46CBF30743DFF891
:108AA00018B868405BF82330E04D5840330E55F855
:108AB00023302F4658400790CCF30720069AF3B294
:108AC0005EF82330156858F820006B405840C1F319
:108AD00007435BF82330C1465840230E57F8233034
:108AE000B8465840E3B20990C6F307205EF8233039
:108AF00052E9025759F820007B405840CCF3074315
:108B00005BF82330474658400B0E58F8233020328C
:108B100080EA0308CBB2C4F307205EF8233059F88B
:108B200020006B40DDF81C905840C6F307435BF80B
:108B300023304FEA1C6157F821105840AAF1010A6E
:108B400048400692CDF820A02AE7F04D069AE91891
:108B50000991A2F108010891A2F11C08A146594609
:108B60005B46B2466246DEE0CDE90619C7F307214F
:108B7000DFF850B7DDF824E0E54D069A5BF82130C8
:108B80005FFA8EF155F8214052F81C1C52F8108CF7
:108B9000059184EA0804DFF8309752E9066C6340D7
:108BA000C0F30744B84659F8244007460798DFF851
:108BB0001CA76340040E5AF82440D54D5FFA88F193
:108BC0005C40C7F3072355F821105BF8233081EA96
:108BD0000C015940C0F3074359F8233059404FEA7C
:108BE0001E635AF8233081EA030CFBB2C0F307215D
:108BF00055F823305BF8211073405940CEF30743FA
:108C000059F8233059404FEA18635AF8233081EA63
:108C10000306C3B2CEF3072155F8233005985BF85D
:108C2000211043405940C8F3074359F82330380E08
:108C30005AF820005940DDF820A081EA000352F8DC
:108C40000C0CD9B2BAF1010F60DBDFF874B6C4F3D3
:108C50000725DFF870965BF82110DFF86CE659F80D
:108C600025504840CCF307415EF821106840A94DDB
:108C70004840310E55F821102F4648400790CCF35C
:108C80000720069AE1B25BF82110156859F8200018
:108C900069404840C6F307415EF821103D46484010
:108CA000190E57F82110AAF1010A48405FFA8CF119
:108CB0000990C6F307205BF8211052E9028759F8A2
:108CC000200079404840C3F307415EF8211020326C
:108CD0004840210E55F8211080EA0107F1B2C3F394
:108CE00007205BF8211059F8200081EA080148406C
:108CF000C4F307415EF82110069248404FEA1C6118
:108D000055F82110CDF820A048402FE7484DB14636
:108D1000294409910699A246A1F108020892A1F1FD
:108D20001C0861461A46C4F30727EF5D8E46079775
:108D3000C1F30747E95D370E0691E95D240E059101
:108D4000C3F30727E95D0391CAF30747E95D4FEADB
:108D50001C670291E95D0191C6F30726A95D0091A8
:108D6000C2F30742AE5C2A5DCCF3072115F801B0CF
:108D7000C9F307416F5C190E6B5C5FFA89F115F856
:108D800001905FFA8EF115F801C05FFA8AF115F8CB
:108D900001A00999D8E906E80978049C81EA000550
:108DA000089988EA0363096825708AEA080525732B
:108DB0008CEA0E05257289EA01051B0E2571E37305
:108DC00088EA07431B0CA37388EA0B231B0A63730F
:108DD0008EEA02638EEA06421B0E120CE372A27246
:108DE000009A8EEA0222120A6272019A81EA0262F3
:108DF000120EE271029A81EA0242120CA271039AE7
:108E000081EA0221090A6171059980EA0161090E6E
:108E1000E170069980EA0141090CA170079980EA86
:108E20000120000A60700AB0BDE8F08FFC0F00203E
:108E3000FC1300202DE9F043C7B00446802A06D079
:108E4000B2F5807F05D0C02A5CD10C2002E00A2058
:108E500000E00E2004F10803C4E9000301A800F0BB
:108E60005BF8DDE90101DFF858E402018A5801EB03
:108E70000011A2604868254AE0608868DFF84484F1
:108E80002061C868DFF840946061D4F800C0214ECA
:108E900004F1180001F11007ACF1010CBCF1010F55
:108EA0001FDB203F0021102918D07B58DCB2145D55
:108EB0005EF82440C3F30725555D58F825506C40F3
:108EC000C3F30745555D1B0ED35C59F8255056F882
:108ED00023306C40634043500431E4E70F440844BE
:108EE000DAE757F8201C016057F81C1C416057F85E
:108EF000181C816057F8141CC16001A84FF48C71D4
:108F0000F7F754FA47B0BDE8F08300BFFC02002039
:108F1000FC140020FC2000202DE9F04FADF5016D80
:108F200082B0DFF8809399F80030002B40F0DE80AB
:108F3000CDE90112002301210DF1180E0DF5836515
:108F4000B3F5807F0DD04A00D2B24EF8213045F8FB
:108F500023104A40090648BF82F01B020133114624
:108F6000EEE7012301210B2B0AD049F823100A0652
:108F70004FEA4101C9B248BF81F01B010133F2E75A
:108F8000DFF8248300900020DFF8209388F8630046
:108F9000632089F800000120B0F5807F20D05EF8C2
:108FA0002010C1F1FF0155F821104A0042EAD11208
:108FB000D2B25300DBB243EAD2146600F6B251409B
:108FC00046EAD313F609614063F3470659407140FE
:108FD00081F0630109F8001008F801000130DBE7B7
:108FE0000F98DDF850A005901198B14F0490139898
:108FF00000230390FF20B3F5807F70D019F8032081
:1090000011064FEA4201C9B24FEA024648BF81F059
:109010001B0146EA022681EA0204314441EA046661
:1090200044EA0121A34C47F8236044F82310A24CE2
:1090300042EA012144F8231042EA01219F4A42F802
:10904000231018F8032052B35EF82210059A0A4440
:1090500092FBF0F4C4EB0424121B01EB0A0494FB12
:10906000F0F655F82220C6EB0626A41B55F824403E
:1090700084EA0222039C0C4494FBF0F6C6EB06261D
:10908000A41B55F8244082EA044B049C214491FB24
:10909000F0F4C4EB0424091B55F821C004E04FF0A0
:1090A000000B00224FF0000C854C8BEA0C6144F859
:1090B0002310090E834C41EA0B2144F82310CBF313
:1090C000074444EA0121804C44F82310C2F30722EC
:1090D00042EA01217D4A42F8231001338BE7DFF891
:1090E000C491012089F800009DE80700802A07D07C
:1090F000B2F5807F06D0C02A40F0CF800C2602E077
:109100000A2600E00E2600F108040131520900236E
:10911000C0E90064934206D251F8015C043144F87E
:1091200023500133F6E70A2E55D00C2E00F0818033
:109130000E2E40F0B280DFF874C100201C2800F031
:10914000AC8004EBC002D36909EB0006C3F307252A
:109150007668D2E900711CF805507E40D2E902E839
:109160007540C3F307461CF80660043085EA0625FF
:109170001E0E1CF8066085EA0645DEB21CF8066085
:1091800085EA066569401562516281EA0E019162C5
:1091900081EA0801CEB2D162C1F307251CF806604E
:1091A00017691CF805507E4086EA0525C1F307467D
:1091B0001CF80660090E1CF8011085EA064585EAD0
:1091C0000161116355696940516395696940916313
:1091D0005940D163B2E7DFF8D4C0002028285CD022
:1091E00004EB8002D2E9026709EB0005D2E9003EF8
:1091F000C7F307216D681CF801106B405940C7F395
:1092000007431CF80330103281EA03213B0E1CF89F
:109210000330043081EA0341FBB21CF8033081EAD9
:10922000036181EA0E0386EA030585EA07066AC23E
:10923000D4E7DFF878C0002008282ED0636909EB56
:1092400080062268C3F3072576681CF80550724033
:109250006A40C3F307451CF80550013082EA052235
:109260001D0E1CF8055082EA0542DDB21CF80550BF
:1092700082EA056244F8182FA4F11407E0CF54F8ED
:10928000081C6A4086EA020587EA050671404B40E1
:10929000271D64C7C4E90413CEE70DF5016D02B0C4
:1092A000BDE8F08F7C010020FC130020FC020020B0
:1092B000FC030020FC070020FC0B0020FC0F00201A
:1092C000FC140020FC180020FC1C0020FC200020C6
:1092D00080B510482030FDF7E7F91248F8F7D4FCC4
:1092E000002080BD10B50B4C1022201D04F1100190
:1092F000FDF748F904F1200007A100220023FDF743
:10930000E7F9F8F727FE074821460122F8F70EFD96
:10931000002010BD300100207368656C6C5F7278AE
:1093200000000000602B002080B5FDF733FA00201C
:1093300080BD00007CB5C66B04460DF107052046D4
:109340002946FFF781F818B99DF80700C0070AD031
:1093500026B1A06B00B18047013EF0E703A0FEF705
:10936000B7FE04207CBD00207CBD00BF4572726F3B
:10937000723A20466C617368207761697420627567
:1093800073792068617320616E206572726F722E2E
:109390000000000000F10060FFF766BA10B50B4650
:1093A00001460F48006878B1144690F834208AB11D
:1093B0000C4A926911442246FFF79EF8002818BF14
:1093C0004FF0FF34204610BD07480A49084AFCF711
:1093D00063FEFEE704480549054AFCF75DFEFEE72B
:1093E000B03100209800002015A800080AAB000842
:1093F000C1AA00081CAB0008B0B508460C46FDF732
:109400002CFA20440130F7F75AF8214C014620602D
:1094100020A0FCF741FE254D002060602868F9F788
:10942000B3FAA06070B1806B2168814210D92D48D9
:10943000FCF732FEA0682A682168836B3848FCF785
:109440002BFE1FE02748FCF727FE2968354817E068
:109450001C4D17A0A84721681BA0A8472048A84773
:109460002268A0680021F9F70BFAB0F1FF3FC4BFF2
:109470000620B0BD1B48FCF70FFEA068011D1AA016
:10948000FCF70AFE1648FCF707FE1820B0BD00BF27
:10949000CC010020596D6F64656D2066696C655F55
:1094A00073697A653A25640A00000000D000002044
:1094B0001B5B33326D5B492F796D6F64656D5D2089
:1094C0000000000099600008537461727420657296
:1094D0006173652E2053697A652028256429000070
:1094E000B4A800085CAF00084669726D77617265C8
:1094F00020646F776E6C6F6164206661696C65646F
:109500002120506172746974696F6E202825732957
:10951000206572617365206572726F7221000000B0
:10952000A2AF00086DAF0008B0B50D4D14460A4655
:10953000D5E901102346F9F763FBB0F1FF3F04DDE5
:109540006868204468600620B0BD0648064CA04705
:10955000A868011D05A0A0471348A0471820B0BD6A
:10956000CC0100205CAF0008996000084669726D6C
:109570007761726520646F776E6C6F6164206661DD
:10958000696C65642120506172746974696F6E2022
:1095900028257329207772697465206461746120BD
:1095A0006572726F72210000B4A80008B0B590B067
:1095B00001281FD824482549016025A0FCF76CFD2F
:1095C0002F48FCF769FD2FA0FCF766FDFBF7D4F8E8
:1095D00001464FF47A700022CDE90020394A3A4B17
:1095E00002A8FDF733FE90B14FF47A70FDF72EFA22
:1095F00036A009E0054648680C4611A1F6F7F4FECE
:1096000008B9022D17D80F48FCF746FD11E0354880
:10961000FCF742FD3448FCF73FFDC820FDF7A0FBF6
:10962000FDF714FAFCF722FBC820FDF799FBFDF7C4
:109630000DFA10B0B0BDA06803490860C0E700BFD4
:109640002D700000D1AE0008D000002026AD00082B
:1096500044656661756C7420736176652066697215
:109660006D77617265206F6E20646F776E6C6F61CD
:109670006420706172746974696F6E2E0A00000054
:109680001DAF0008506C656173652073656C656380
:109690007420746865206F7461206669726D7761EB
:1096A00072652066696C6520616E64207573652043
:1096B000596D6F64656D20746F2073656E642E0A3A
:1096C00000000000F99300082995000855706461B6
:1096D0007465206669726D77617265206661696C78
:1096E0002E0A0000F8AE0008B4AE0008004870472B
:1096F0000000002002E008C8121F08C1002AFAD1A9
:1097000070477047002001E001C1121F002AFBD101
:10971000704700404040404040404040414141414E
:109720004140404040404040404040404040404038
:10973000404040050202020202020202020202024C
:1097400002020220202020202020202020020202CD
:109750000202020290909090909010101010101041
:109760001010101010101010101010101010020215
:109770000202020288888888888808080808080881
:109780000808080808080808080808080808020265
:10979000020240001397000873AD000856AC0008A1
:1097A000B1AD000834AD0008A6A70008C2A60008A5
:1097B0006CA6000809A7000851A7000814A6000815
:1097C0000000000000000000010203040607080971
:1097D00000000000010203045F5F636D645F666F59
:1097E0007461005F5F636D645F66726565005F5FF3
:1097F000636D645F68656C70005F5F636D645F6C70
:109800006973745F6D61696C626F78005F5F636D2F
:10981000645F6C6973745F6D75746578005F5F6316
:109820006D645F6C6973745F73656D005F5F636D1A
:10983000645F6C6973745F746872656164005F5F14
:10984000636D645F6C6973745F74696D6572005FEA
:109850005F636D645F7073005F5F636D645F736609
:10986000005F5F636D645F76657273696F6E005F42
:109870005F636D645F796D6F64656D5F6F746100C8
:1098800068656C6C6F006C6973745F6D61696C62A4
:109890006F78006C6973745F6D656D006C697374CB
:1098A0005F6D75746578006C697374006C697374AE
:1098B0005F73656D006C6973745F74687265616471
:1098C000006C6973745F74696D657200766572739C
:1098D000696F6E000000010002000100030001003A
:1098E0000200010004000100020001000300010069
:1098F0000200010005000100020001000300010058
:109900000200010004000100020001000300010048
:109910000200010006000100020001000300010036
:109920000200010004000100020001000300010028
:109930000200010005000100020001000300010017
:109940000200010004000100020001000300010008
:1099500002000100070001000200010003000100F5
:1099600002000100040001000200010003000100E8
:1099700002000100050001000200010003000100D7
:1099800002000100040001000200010003000100C8
:1099900002000100060001000200010003000100B6
:1099A00002000100040001000200010003000100A8
:1099B0000200010005000100020001000300010097
:1099C0000200010004000100020001000300010088
:1099D00002000100205F5F5F5F205F5F5F5F5F20CD
:1099E00020202020205F5F5F5F5F205F5F5F20207F
:1099F0005F5F5F5F5F20205F2020202020202020ED
:109A00000D0A7C20205F205C5F2020205F7C097C89
:109A100020205F5F5F2F205F205C205F2020205F81
:109A20007C2F205C2020202020200D0A7C207C5FC1
:109A300029207C7C207C5F5F5F5F5F207C207C5FD7
:109A400020207C7C207C7C20207C207C202F205FA0
:109A5000205C2020202020200D0A7C20205F203C3C
:109A6000207C207C5F5F5F5F5F207C20205F7C200C
:109A70007C7C5F7C7C20207C207C2F205F5F5F20B3
:109A80005C20202020200D0A7C5F7C205C5F5C7CB9
:109A90005F7C097C5F7C2020205C5F5F5F2F202043
:109AA0007C5F2F5F2F2020205C5F5C20200D0A0050
:109AB000009D000898000020E09E00081F2600007E
:109AC000000020000A0000000002000081000000E9
:109AD000159F0008EF40130000000800010000007F
:109AE0000010000020000000309F0008EF4015002B
:109AF0000000200001000000001000002000000015
:109B00001E9F0008EF40160000004000010000000A
:109B10000010000020000000279F0008EF40170001
:109B20000000800001000000001000002000000084
:109B3000399F0008EF4018000000000101000000FC
:109B40000010000020000000439F0008EF401900B3
:109B500000000002010000000010000020000000D2
:109B6000C69E0008BF25410000002000060000003E
:109B70000010000020000000999E00082020160020
:109B8000000040000100000000000100D8000000BB
:109B9000929E000820201400000010000100000028
:109BA00000000100D8000000839E00082020130060
:109BB000000008000100000000000100D8000000C3
:109BC000A89E00081C3016000000400001000000A4
:109BD0000010000020000000B19E0008C8401700DF
:109BE00000008000010000000010000020000000C4
:109BF000D29E0008C84015000000200001000000AF
:109C00000010000020000000F49E00080140150034
:109C100000002000010000000010000020000000F3
:109C2000029F000801021500000040000100000032
:109C300000100000200000008A9E00083730140049
:109C400000001000010000000010000020000000D3
:109C5000A09E00088C2013000000080006000000F1
:109C60000010000020000000BA9E0008BF2541003F
:109C7000000020000600000000100000200000008E
:109C80008E9F000801000000969F0008040000005D
:109C9000FE9E00081C0000006F9F00081F000000CF
:109CA000819F000820000000DB9E000837000000B4
:109CB000889F000862000000759F0008890000006E
:109CC0000C9F00088C0000007B9F0008A100000092
:109CD000679F0008AD000000119F0008BF00000052
:109CE0005C9F0008C8000000EF9E0008D50000003F
:109CF000549F0008EF0000009E9F0008C200000073
:109D00006F6E636869705F666C6173680000000065
:109D1000000000000000000000000008000010002B
:109D200000000200393500085F46000895930008DE
:109D3000B5250008000000004572726F723A2025B8
:109D40007320342D42797465206164647265737385
:109D5000696E67206D6F6465206661696C65642E4D
:109D6000004572726F723A20466C617368206465B8
:109D700076696365207265736574206661696C65D8
:109D8000642E004572726F723A20466C61736820CF
:109D900061646472657373206973206F7574206FDA
:109DA0006620626F756E642E004572726F723A2083
:109DB000257320666C61736820646576696365202D
:109DC000697320696E697469616C697A652066617E
:109DD000696C2E004572726F723A20466C6173682E
:109DE0002077726974652053504920636F6D6D75DB
:109DF0006E6963617465206572726F722E004669C8
:109E00006E64206120666C61736820636869702EDF
:109E10002053697A6520697320256C642062797407
:109E200065732E00257320666C6173682064657607
:109E300069636520697320696E697469616C697A08
:109E40006520737563636573732E005761726E6965
:109E50006E673A205468697320666C617368206489
:109E60006576696365206973206E6F7420666F750F
:109E70006E64206F72206E6F7420737570706F72D5
:109E8000742E004D3235503430004132354C30386C
:109E900030004D3235503830004D323550333200BD
:109EA0004632354C30303400454E32355133324233
:109EB000004744323551363442005043543235560F
:109EC00046303136420053535432355646303136DF
:109ED0004200474432355131364200414D4943003A
:109EE00041543435444231363145005350490049DC
:109EF00053534900533235464C3231364B00454FAF
:109F00004E00533235464C303332500045534D5499
:109F100000535354005732355134304256005732B3
:109F2000355133324256005732355136344256009D
:109F30005732355131364256005732355131323869
:109F40004256005732355132353646560057323573
:109F50005158580057696E626F6E640047696761B7
:109F6000446576696365004879756E64616900418E
:109F7000746D656C00496E74656C00467564616E45
:109F8000004D6963726F6E0053616E796F004379A3
:109F900070726573730046756A69747375004D69F4
:109FA00063726F6E6978005761726E696E673A20EE
:109FB00052656164205346445020706172616D6542
:109FC0007465722068656164657220696E666F727F
:109FD0006D6174696F6E206661696C65642E2054D2
:109FE0006865202573206973206E6F742073757007
:109FF000706F7274204A4544454320534644502EA6
:10A00000004572726F723A2054686520666C617305
:10A010006820636170616369747920697320677275
:10A0200061746572207468616E2033322047622F3C
:10A03000203420474221204E6F7420537570706F7A
:10A04000727465642E004572726F723A20546869AA
:10A050007320726576657273696F6E285625642E5B
:10A060002564292053464450206973206E6F742064
:10A07000737570706F727465642E004572726F72C2
:10A080003A205468697320726576657273696F6EE1
:10A09000285625642E256429204A454445432062DC
:10A0A0006173696320666C61736820706172616DB1
:10A0B0006574657220686561646572206973206EDD
:10A0C0006F7420737570706F727465642E005761C1
:10A0D000726E696E673A2043616E27742072656103
:10A0E00064204A4544454320626173696320666C7D
:10A0F00061736820706172616D657465722074614E
:10A10000626C652E004572726F723A205468652049
:10A110004A4544454320626173696320666C6173FC
:10A120006820706172616D65746572207461626C23
:10A1300065206C656E67746820286E6F7720697380
:10A1400020256429206572726F722E004572726F2D
:10A15000723A20556E69666F726D2034204B422032
:10A16000657261736520737570706F7274656420B9
:10A17000696E666F726D6174696F6E206572726F61
:10A18000722E004C6F77206D656D6F7279210A0019
:10A190004E6F20666C617368206465766963652024
:10A1A00073656C65637465642E20506C65617365BE
:10A1B0002072756E202773662070726F6265272E7D
:10A1C0000A0052656164696E6720746865202573B2
:10A1D00020256C6420627974657320646174612C3D
:10A1E0002077616974696E672E2E2E0A0057726996
:10A1F00074696E672074686520257320256C64205F
:10A20000627974657320646174612C20776169746C
:10A21000696E672E2E2E0A00526561642062656E9B
:10A2200063686D61726B20737563636573732C2053
:10A23000746F74616C2074696D653A2025642E25F5
:10A24000303364532E0A0045726173652062656E77
:10A2500063686D61726B20737563636573732C2023
:10A26000746F74616C2074696D653A2025642E25C5
:10A27000303364532E0A0057726974652062656E2C
:10A2800063686D61726B20737563636573732C20F3
:10A29000746F74616C2074696D653A2025642E2595
:10A2A000303364532E0A0054686520257320666C91
:10A2B0006173682073746174757320726567697364
:10A2C0007465722063757272656E742076616C7548
:10A2D00065206973203078253032582E0A00546882
:10A2E000697320666C617368206F70657261746554
:10A2F0002068617320616E206572726F722E204536
:10A3000072726F7220636F64653A2025642E0A00B2
:10A31000526561642062656E63686D61726B20686E
:10A32000617320616E206572726F722E20457272A9
:10A330006F7220636F64653A2025642E0A004572AF
:10A340006173652062656E63686D61726B20686120
:10A350007320616E206572726F722E204572726F6B
:10A360007220636F64653A2025642E0A0057726973
:10A3700074652062656E63686D61726B20686173DD
:10A3800020616E206572726F722E204572726F723C
:10A3900020636F64653A2025642E0A00457261735C
:10A3A000652074686520257320666C61736820647D
:10A3B00061746120737563636573732E20537461D8
:10A3C00072742066726F6D203078253038582C20DA
:10A3D00073697A6520697320256C642E0A005772B0
:10A3E0006974652074686520257320666C617368E4
:10A3F000206461746120737563636573732E2053E9
:10A40000746172742066726F6D2030782530385810
:10A410002C2073697A6520697320256C642E0A00EC
:10A420004461746120636865636B204552524F52EA
:10A430002120506C6561736520636865636B2079CA
:10A440006F7520666C617368206279206F7468652F
:10A450007220636F6D6D616E642E0A002564204B5F
:10A46000422025732069732063757272656E7420B3
:10A4700073656C6563746564206465766963652ED5
:10A480000A002564204D42202573206973206375DE
:10A490007272656E742073656C65637465642064A4
:10A4A00065766963652E0A0055736167653A2025F4
:10A4B000732E0A00577269746520746865202573CD
:10A4C00020666C61736820737461747573207265A3
:10A4D00067697374657220746F2030782530325844
:10A4E00020737563636573732E0A00557361676526
:10A4F0003A0A0052656164207468652025732066FD
:10A500006C61736820646174612073756363657343
:10A51000732E2053746172742066726F6D203078D0
:10A52000253038582C2073697A6520697320256C92
:10A53000642E2054686520646174612069733A0A4E
:10A54000004F6666736574202868292030302030FB
:10A550003120303220303320303420303520303636
:10A560002030372030382030392030412030422010
:10A5700030432030442030452030460A0052656187
:10A5800064202573206661696C65642C20616C729F
:10A590006561647920726420666F7220256C752075
:10A5A00062797465732C207265616420256420656E
:10A5B0006163682074696D650A0057726974696E19
:10A5C00067202573206661696C65642C20616C725C
:10A5D0006561647920777220666F7220256C752022
:10A5E00062797465732C2077726974652025642004
:10A5F000656163682074696D650A0025730A0057F8
:10A600007269746520646174613A20005B2530389A
:10A61000585D200073662062656E636820202020EC
:10A62000202020202020202020202020202020202A
:10A63000202020202D2066756C6C206368697020B6
:10A6400062656E63686D61726B2E2044414E4745B2
:10A65000523A2049742077696C6C20657261736589
:10A660002066756C6C2063686970210073662077C2
:10A670007269746520616464722064617461312060
:10A680002E2E2E20646174614E2020202D207772A2
:10A6900069746520736F6D65206279746573202716
:10A6A000646174612720746F20666C617368207325
:10A6B00074617274696E67206174202761646472CA
:10A6C0002700736620726561642061646472207380
:10A6D000697A652020202020202020202020202092
:10A6E00020202D2072656164202773697A652720F8
:10A6F0006279746573207374617274696E67206126
:10A700007420276164647227007366206572617328
:10A710006520616464722073697A6520202020209E
:10A720002020202020202020202D206572617365AC
:10A73000202773697A6527206279746573207374A2
:10A74000617274696E672061742027616464722786
:10A7500000736620737461747573205B3C766F6C54
:10A760006174696C653E203C7374617475733E5D01
:10A77000202D2072656164206F7220777269746584
:10A780002027313A766F6C6174696C657C303A6E63
:10A790006F6E2D766F6C6174696C652720277374FA
:10A7A00061747573270073662070726F626520098B
:10A7B0000909202020202020202020202020202DBA
:10A7C0002070726F626520616E6420696E6974200A
:10A7D00053504920666C6173680052542D5468725E
:10A7E00065616420466C61736820416273747261B4
:10A7F0006374696F6E204C617965722028562573E9
:10A800002920696E697469616C697A65206661697D
:10A810006C65642E0028257329206861732061739C
:10A8200073657274206661696C65642061742025AB
:10A83000732E0A00466C61736820646576696365EF
:10A84000207C20252A2E2A73207C20616464723AA1
:10A850002030782530386C78207C206C656E3A206A
:10A86000307825303878207C20626C6B5F73697A91
:10A87000653A20307825303878207C696E697469B3
:10A88000616C697A65642066696E6973682E00661A
:10A89000616C5F666C6173685F6465766963655F50
:10A8A00066696E640066616C5F666C6173685F699F
:10A8B0006E6974001B5B306D0A001B5B33313B32E9
:10A8C000326D5B452F46414C5D202825733A256447
:10A8D0002920001B5B33323B32326D5B492F4641EE
:10A8E0004C5D2000496E697469616C697A65206607
:10A8F00061696C65642120506172746974696F6E5E
:10A9000028257329206F66667365742061646472FC
:10A9100065737328256C6429206F7574206F662019
:10A92000666C61736820626F756E64283C256429CB
:10A930002E00506172746974696F6E207772697449
:10A9400065206572726F72212020446F6E2774201B
:10A95000666F756E6420666C6173682064657669E5
:10A96000636528257329206F6620746865207061EF
:10A9700072746974696F6E282573292E0050617294
:10A98000746974696F6E2072656164206572726F9C
:10A99000722120446F6E277420666F756E64206686
:10A9A0006C61736820646576696365282573292066
:10A9B0006F662074686520706172746974696F6E67
:10A9C000282573292E00506172746974696F6E2096
:10A9D0006572617365206572726F722120446F6EBB
:10A9E000277420666F756E6420666C6173682064DE
:10A9F000657669636528257329206F66207468650C
:10AA000020706172746974696F6E282573292E0035
:10AA10003D3D3D3D3D3D3D3D3D3D3D3D3D3D3D3D66
:10AA20003D3D3D3D2046414C207061727469746922
:10AA30006F6E207461626C65203D3D3D3D3D3D3D46
:10AA40003D3D3D3D3D3D3D3D3D3D3D3D3D003D3D73
:10AA50003D3D3D3D3D3D3D3D3D3D3D3D3D3D3D3D26
:10AA60003D3D3D3D3D3D3D3D3D3D3D3D3D3D3D3D16
:10AA70003D3D3D3D3D3D3D3D3D3D3D3D3D3D3D3D06
:10AA80003D3D3D3D3D3D3D3D3D3D3D0066616C5F95
:10AA9000706172746974696F6E5F7265616400667B
:10AAA000616C5F706172746974696F6E5F65726109
:10AAB00073650066616C5F706172746974696F6E52
:10AAC0005F7772697465006275660066616C5F70BD
:10AAD0006172746974696F6E5F696E697400706128
:10AAE0007274007C20252D2A2E2A73207C20252D8F
:10AAF0002A2E2A73207C2030782530386C78207CF0
:10AB000020307825303878207C00736675645F6467
:10AB100065762D3E696E69745F6F6B007366756450
:10AB20005F646576000A7265616420257320706138
:10AB300072746974696F6E206661696C65642C203B
:10AB4000636C6F6E652073746F70210A000A7772F0
:10AB500069746520257320706172746974696F6E01
:10AB6000206661696C65642C20636C6F6E65207370
:10AB7000746F70210A000A436C6F6E6520706172F9
:10AB8000746974696F6E20737563636573732C20C9
:10AB9000746F74616C202564206279746573210A76
:10ABA00000257320706172746974696F6E20697317
:10ABB000206E6F74206578697374210A005468658B
:10ABC00020656666656374697665206C6576656C7C
:10ABD00020636F6E74696E75657320666F72206D89
:10ABE0006F7265207468616E2074656E2073656392
:10ABF0006F6E647320746F20737461727420746F4D
:10AC000020726573746F7265207468652064656670
:10AC100061756C74206669726D776172652E0A00C9
:10AC2000253038583A20001B5B33326D5B492F6664
:10AC30006F74615D2000436F7079206669726D7773
:10AC40006172652076657273696F6E206661696CEA
:10AC5000656421002300666F74612073686F77203C
:10AC6000706172746974696F6E20616464722073BC
:10AC7000697A65202020202D2073686F7720277344
:10AC8000697A6527206279746573207374617274C0
:10AC9000696E672061742027616464722700313017
:10ACA000302C302C003530302C3530302C00353005
:10ACB0002C35302C005570677261646520737563A4
:10ACC000636573732C20746F74616C20256420623B
:10ACD000797465732E003D3D3D3D3D2052424C2030
:10ACE0006F6620257320706172746974696F6E20BD
:10ACF0003D3D3D3D3D004E4F4E45003031323334F9
:10AD000035363738394142434445460020584F5282
:10AD100000204145530020262620464C5A0020267C
:10AD20002620514C5A00646F776E6C6F6164004E40
:10AD30006F6E6500666F7461206578656320202002
:10AD40002020202020202020202020202020202003
:10AD500020202020202D2065786563757465206192
:10AD600070706C69636174696F6E2070726F677266
:10AD7000616D00666F74612070726F6265202020C3
:10AD800020202020202020202020202020202020C3
:10AD9000202020202D2070726F62652052424C20AE
:10ADA00066696C65206F66207061727469746F6E7D
:10ADB00000666F746120636C6F6E65206465735FFD
:10ADC00070617274207372635F70617274202020EE
:10ADD00020202D20636C6F6E65207372632070617C
:10ADE00072746974696F6E20746F2064657320706B
:10ADF00061727469746F6E00666163746F7279005A
:10AE00007C20436F6465207261772073697A6520C6
:10AE100020202020207C2025313164207C007C20D3
:10AE20004275696C642054696D657374616D70203E
:10AE30002020207C2025313164207C007C20436F41
:10AE40006465207061636B6167652073697A652052
:10AE5000207C2025313164207C007C20416C676F90
:10AE6000726974686D206D6F646520202020207CDD
:10AE700020252A2E73207C007C204669726D776124
:10AE800072652076657273696F6E2020207C2025A4
:10AE90002A2E73207C007C204170702070617274B7
:10AEA0006974696F6E206E616D65207C20252A2E85
:10AEB00073207C0053797374656D206E6F772077F3
:10AEC000696C6C20726573746172742E2E2E0D0A7B
:10AED0000055736167653A20796D6F64656D5F6FCA
:10AEE0007461202D70203C7061727469746F6E20E3
:10AEF0006E616D653E2E0A00446F776E6C6F616403
:10AF0000206669726D7761726520746F20666C616E
:10AF1000736820737563636573732E0A00576172DB
:10AF20006E696E673A20596D6F64656D2068617354
:10AF30002073746172746564212054686973206F92
:10AF400070657261746F722077696C6C206E6F74BB
:10AF5000207265636F766572792E0A001B5B333150
:10AF60006D5B452F796D6F64656D5D20004669727C
:10AF70006D7761726520646F776E6C6F61642066B7
:10AF800061696C65642120506172746974696F6EC7
:10AF900020282573292066696E64206572726F729D
:10AFA00021004669726D7761726520697320746F44
:10AFB0006F206C61726765212046696C652073693A
:10AFC0007A6520282564292C202725732720706185
:10AFD00072746974696F6E2073697A6520282564BC
:10AFE0002900252D2A2E7320707269202073746128
:10AFF00074757320202020202073702020202020B2
:10B00000737461636B2073697A65206D6178207554
:10B01000736564206C656674207469636B202065B9
:10B0200072726F720A0020696E69742020200020FD
:10B03000636C6F7365202000207265616479202045
:10B0400000252D2A2E2A732030782530387820309C
:10B05000782530387820002073757370656E640031
:10B060002072756E6E696E6700257320005F5F63E6
:10B070006D645F000800256300686172642066618A
:10B08000756C74206F6E2068616E646C65720D0A59
:10B090000D0A0068617264206661756C74206F6EC1
:10B0A000207468726561643A2025730D0A0D0A00E8
:10B0B00046505520616374697665210D0A006D65FF
:10B0C0006D206D616E616765206661756C743A0A0A
:10B0D000007573616765206661756C743A0A006279
:10B0E0007573206661756C743A0A005343422D3EB5
:10B0F000424641523A253038580A005343422D3EC9
:10B100004D4D41523A253038580A006661696C65E8
:10B110006420766563746F722066657463680A00E4
:10B120006465627567206576656E740A00723030FA
:10B130003A203078253038780A007230313A2030A1
:10B1400078253038780A007230323A20307825304D
:10B1500038780A007230333A203078253038780A4F
:10B16000007230343A203078253038780A00707315
:10B17000723A203078253038780A00494E565043CC
:10B180002000554E414C49474E45442000494E56FB
:10B19000535441544520004441434356494F4C20A9
:10B1A000004941434356494F4C20004449564259B7
:10B1B0005A45524F20004E4F435020004D53544BA0
:10B1C00045525220004D554E53544B45525220008B
:10B1D000494D50524543495345525220004942552A
:10B1E000534552522000554E444546494E53545201
:10B1F00020005343425F434653525F424653523A04
:10B2000030782530325820005343425F4346535232
:10B210005F4D4653523A3078253032582000534320
:10B22000425F434653525F554653523A3078253079
:10B23000325820001D7200081572000811720008B3
:10B240003949000879310008197200085898000837
:10B250009D750008D8970008D94900086F98000824
:10B26000AD9500088098000819350008CC980008B2
:10B27000299300086198000829930008B5980008F0
:10B28000BD3B00082C980008BD3B0008AC980008A6
:10B29000993A00081D980008993A00089C980008FF
:10B2A000953900080C980008953900088698000820
:10B2B000DD370008F9970008DD370008C19800085D
:10B2C000353D00083E980008353D0008A798000865
:10B2D00021370008EE9700084D4100084F980008FC
:10B2E0008B250008E3970008812500089398000843
:10B2F00025390008303150456170700000000000B1
:10B30000000000000000000000000000000000003D
:10B310006F6E636869705F666C617368000000003F
:10B3200000000000000000000000020000000E000D
:10B33000000000003031504574676678000000005E
:10B3400000000000000000000000000000000000FD
:10B350005732355131323800000000000000000043
:10B36000000000000000000000000000000060007D
:10B370000000000030315045646F776E6C6F61647F
:10B3800000000000000000000000000000000000BD
:10B390005732355131323800000000000000000003
:10B3A000000000000000000000006000000010002D
:10B3B00000000000303150456566000000000000CC
:10B3C000000000000000000000000000000000007D
:10B3D00057323551313238000000000000000000C3
:10B3E00000000000000000000000700000001000DD
:10B3F0000000000018B40008000000203001000028
:10B4000000060008A8B400083001002088340000BD
:10B41000049700080000000051420142102FDD6037
:10B420000008B95A0008A5AC0008AEAC0E1D089E75
:10B43000AC00080024F4004D9F00080551EB9E006D
:10B4400008081857323551313238328032102F3DCA
:10B45000350008694600089D930008BD2543080192
:10B460004626AD00080132D83320D8432078420266
:10B4700032E83320E8432020420332F83320F843F7
:10B48000202442054A080100200801002030420A19
:10B490004A18010020180100202C4A082B00200027
:08B4A00014024040000000000E
:04000005080001AD41
:00000001FF
