:020000040800F2
:1000000028A00020C5030008AF4900087940000877
:10001000AD490008350E00085D52000800000000E0
:1000200000000000000000000000000001030008C4
:100030006B0F0008000000005D030008814C000801
:10004000DF030008DF030008DF030008DF03000808
:10005000DF030008DF030008DF030008DF030008F8
:10006000DF030008DF030008DF030008DF030008E8
:10007000DF030008DF030008DF030008DF030008D8
:10008000DF030008DF030008DF030008DF030008C8
:10009000DF030008DF030008DF0300087D0F00080E
:1000A000DF030008DF030008DF030008DF030008A8
:1000B000DF030008DF030008DF030008DF03000898
:1000C000DF030008DF030008DF030008DF03000888
:1000D000DF030008DF030008DF030008DF03000878
:1000E000DF030008DF030008DF030008DF03000868
:1000F000DF030008DF030008DF030008DF03000858
:10010000DF030008DF030008DF030008DF03000847
:10011000DF030008DF030008814D0008DF0300084B
:10012000DF030008DF030008DF030008DF03000827
:10013000DF030008DF030008DF030008DF03000817
:10014000DF030008DF030008DF030008DF03000807
:10015000DF030008DF030008DF030008DF030008F7
:10016000DF030008DF030008DF030008DF030008E7
:10017000DF030008DF030008DF03000800000000C1
:10018000DF030008DF030008DF030008DF030008C7
:10019000DF030008DF030008DF030008DF030008B7
:1001A00029450008DF030008C90E0008DF03000826
:1001B000414C0008DF030008DF030008DF030008EC
:1001C000DF030008DF03000800000000DF03000871
:1001D000DF030008DF030008DF030008DF03000877
:1001E000DF030008DF030008DF030008DF03000867
:1001F000DF030008DF03000800F002F800F070F8E9
:100200000AA090E8000C82448344AAF10107DA4571
:1002100001D100F065F8AFF2090EBAE80F0013F053
:10022000010F18BFFB1A43F00103184754F00000F8
:1002300074F000000A444FF0000C10F8013B13F07A
:10024000070408BF10F8014B1D1108BF10F8015B2F
:10025000641E05D010F8016B641E01F8016BF9D122
:1002600013F0080F1EBF10F8014BAD1C0C1B09D179
:100270006D1E58BF01F801CBFAD505E014F8016BEB
:1002800001F8016B6D1EF9D59142D6D3704700007D
:100290000023002400250026103A28BF78C1FBD88F
:1002A000520728BF30C148BF0B607047642900F077
:1002B000D381782900F00C82632900F08484002027
:1002C00070471FB50DF007FF9DE8030000F0E2FB4B
:1002D00000F0ACFB1FBD10B5002000F093FC10BD7A
:1002E00000F038FD1146FFF7ECFF0BF057FE00F071
:1002F00056FD03B4FFF7EFFF03BC0BF042FE000016
:100300002D4B19680868B0E8F04F80F30988BFF3F7
:100310006F8F4FF0000080F31188704700000000DD
:1003200008480068006880F308884FF0000080F3F8
:10033000148862B661B6BFF34F8FBFF36F8F00DFD3
:1003400000BF00BF08ED00E0DFF80C00016841F4D9
:1003500070010160704700BF88ED00E0EFF3098095
:10036000BFF36F8F144B1A681EF0100F08BF20EDFB
:10037000108A20E9F04F106009B44FF0500072B6B7
:1003800080F31188BFF34F8FBFF36F8F62B60CF00D
:10039000CBFB4FF0000080F3118809BC1968086896
:1003A000B0E8F04F1EF0100F08BFB0EC108A80F3D9
:1003B0000988BFF36F8F70473C000020EFF3058082
:1003C000704700000948804709480047FEE7FEE7FC
:1003D000FEE7FEE7FEE7FEE7FEE7FEE7FEE7FEE7F5
:1003E00004480549054A064B70470000654D000862
:1003F000F9010008289A002028A00020289C00204D
:10040000289C0020704770B5064600F023FB056865
:1004100006F10B0020F00704B4429CBF002070BD21
:100420002B466A68BAB11068A04210D304F10801E3
:1004300088423CBF5068586007D35168101941602A
:100440001168091B016058601460101D70BD1346CF
:100450005268002AE7D12146284600F007FB002811
:10046000DED170BD70B50446051F00F0F3FA0068D8
:10047000002C14BF446870BD002C18BFAC423CBFB8
:1004800020466468F8D301680A18AA4218BF45607C
:1004900003D12A6805461144016028684119A14228
:1004A0001CBF6C6070BD6168696021680844286089
:1004B00070BD53EA020C00F069802DE9F04B4FF05B
:1004C0000006002B1FBFB3FA83F503FA05F424FAE4
:1004D00005F65E4012BF1643B2FA82F502FA05F441
:1004E000C5F120051EBF22FA05FC44EA0C042035A4
:1004F00056EA044C4FEA144418BF641C4FF000083D
:100500004FF00009904271EB030C39D3002919BF59
:10051000B1FA81F701FA07F6B0FA80F700FA07F6A8
:10052000C7F120071EBF20FA07FC46EA0C06203759
:10053000B6FBF4FCA7EB0507103F07F01F0BCBF150
:1005400020060CFA0BFB2CFA06F644BFB346002635
:10055000202FA4BF5E464FF0000B5BEA060C08BFDD
:100560004FF0010B19EB0B09ABFB027C48EB0608C3
:10057000C01B06FB02CC0BFB03CC71EB0C01C1E7EB
:100580000B46024641464846BDE8F08B13B54FF096
:1005900000004FF00001AFF30080BDE81C40704741
:1005A0000FB4044910B503AA029800F019FB10BC5F
:1005B0005DF814FB0000002070B5044685690068F2
:1005C000C10601D5302600E02026C00707D070BD47
:1005D000D4E9012130469047206A401C20626D1EFC
:1005E000F6D570BD70B5044685690078C00707D19F
:1005F00070BDD4E9012120209047206A401C206270
:100600006D1EF6D570BD70B50C460546012A05D0A5
:100610002878800600D5EA69002302E0012305E07E
:100620005B1C934202D2E05C0028F9D1A869E6186D
:10063000C01AA861286A184428622846FFF7BCFF40
:1006400004E0D5E9012114F8010B9047B442F8D336
:100650002846FFF7C7FF70BD2DE9F041064600248C
:1006600010687529314616A510D0AFF30080002818
:1006700002DA404213A507E031688A0701D512A5C6
:1006800002E0490704D511A5012401E0AFF3008081
:1006900000210A2206F1240709E0B0FBF2FCB0FBBE
:1006A000F2F302FB1C00303078541846491C002835
:1006B000F3D123462A463046BDE8F04100F020BA87
:1006C000000000002D0000002B00000020000000B2
:1006D00070B504460D4621461068AFF300802188AE
:1006E000090502D50F4A7A4402E00E4A7A440E32D6
:1006F000002104F1240305E000F00F060009965DD7
:100700005E54491C0028F7D120780023000704D547
:10071000702D02D009B1022311322046BDE870408D
:1007200000F0EEB99EDD00002DE9F05F8946044639
:100730004FF0000ADFF824B1FB44C0F820A02046A7
:10074000E168884700287DD0252806D0D4E901211A
:100750009047206A401C2062F1E700255F46204652
:10076000E16888472028064607DB312E05D2B819F4
:1007700010F8200C08B10543F1E7A80701D525F0D2
:100780000405C4F81CA00027C4F818A02A2E09D01C
:1007900030460BF0EFFB38B304EB8708303EC8F867
:1007A000186019E059F8041B204604EB8702916198
:1007B000E1688847012F064618D1E069002820DA51
:1007C00025F020051DE0D8F8180000EB800006EBAE
:1007D00040003038C8F818002046E16888470646CF
:1007E0000BF0C8FB0028EED1012F0AD02E2E08D125
:1007F0002046E16888477F1C0646022F45F0200509
:10080000C4DBA069002803DA404245F00105A0617D
:10081000E80701D025F01005A6B1A6F1410019287E
:1008200002D8203645F400654A4631462046256008
:100830004D46FFF73BFD60B1012807D0ED1D25F0C7
:10084000070000E007E000F1080978E705F1040976
:1008500075E730467AE7206ABDE8F09F74DD000056
:1008600010B5002000F0EFF9FFF735FDBDE81040AE
:1008700001200BF086BB2DE9F041074615460E46D8
:100880001020FFF7C0FD04000AD06760C4E90265CC
:1008900000F0E4F80168216004600020BDE8F08108
:1008A0000120FBE7032A40F2308010F0030C00F037
:1008B000158011F8013BBCF1020F624498BF11F89A
:1008C00001CB00F8013B38BF11F8013BA2F1040253
:1008D00098BF00F801CB38BF00F8013B11F00303CB
:1008E00000F02580083AC0F0088051F8043B083A2F
:1008F00051F804CBA0E80810F5E7121D5CBF51F8D1
:10090000043B40F8043BAFF30080D20724BF11F84A
:10091000013B11F801CB48BF11F8012B24BF00F8AF
:10092000013B00F801CB48BF00F8012B704710B520
:10093000203AC0F00B80B1E81850203AA0E81850D7
:10094000B1E81850A0E81850BFF4F5AF5FEA027C98
:1009500024BFB1E81850A0E8185044BF18C918C007
:10096000BDE810405FEA827C24BF51F8043B40F8A8
:10097000043B08BF7047D20728BF31F8023B48BF8D
:1009800011F8012B28BF20F8023B48BF00F8012BCB
:1009900070474FF000020429C0F0128010F0030CE1
:1009A00000F01B80CCF1040CBCF1020F18BF00F862
:1009B000012BA8BF20F8022BA1EB0C0100F00DB811
:1009C0005FEAC17C24BF00F8012B00F8012B48BF6F
:1009D00000F8012B70474FF0000200B51346944613
:1009E0009646203922BFA0E80C50A0E80C50B1F187
:1009F0002001BFF4F7AF090728BFA0E80C5048BF9B
:100A00000CC05DF804EB890028BF40F8042B08BF38
:100A1000704748BF20F8022B11F0804F18BF00F834
:100A2000012B7047704770477047000070B5064C47
:100A30007C44064D7D4403E0206820448047241D0B
:100A4000AC42F9D170BD00006CE8000078E800000D
:100A50007047000000487047049700200048704726
:100A600034970020704770477047704738B5044688
:100A70000A4600206946AFF30080002808BF38BD51
:100A800002460099204600F0F1F8012038BD01200F
:100A900000F040B9F8B5AFF30080054600200C46E1
:100AA000102000BF0646A819A0420DD9324669465B
:100AB0000020AFF30080070008BF00F02BF900987A
:100AC000A04218BF0546C419FFF7C4FF05600746DA
:100AD000F01D20F007004619284600F00AF8B4423D
:100AE00008BFF8BDA21B31463868BDE8F84000F0E9
:100AF000BDB800210160C0E90110704710207047A7
:100B00002DE9F0470D4699469246044600F1240827
:100B10000168880604D5E06921F01001216000E039
:100B20000120A84201DD471B00E00027A1697A19D6
:100B300002EB0900081AA0612078C00602D4204602
:100B4000FFF73AFD002608E0D4E901211AF8060073
:100B50009047206A401C761C20624E45F4DB2078CA
:100B6000C0060AD52046FFF727FD06E0D4E901219B
:100B700030209047206A401C2062381EA7F10107F0
:100B8000F4DC07E0D4E9012118F805009047206A59
:100B9000401C2062281EA5F10105F3DC2046FFF76A
:100BA00021FD2078000602D50220BDE8F087012053
:100BB000FBE710B5436913B1AFF3008001E0FFF725
:100BC00022FD012010BD127800F124010A700022DC
:100BD0004A700122EDE711684FF0FF32E9E70000AB
:100BE000074B70B50D467B4400F05FF8044628467D
:100BF00000F06EF810B14FF0FF3070BD204670BDB0
:100C00009FB300002DE9F0410646FFF727FF80461D
:100C1000454613E016B1E068B0420ED12068286066
:100C2000D4E90101D8F8007088472046FFF71AFC84
:100C3000D8F80000B842EBD100E025462C68002C23
:100C4000E8D1BDE8F08110B500F04CF8BDE81040E7
:100C500000F042B810B500F065F8BDE8104000F0B3
:100C60003BB8000000487047FC96002003464068EF
:100C70008C46002818BF88423CBF03464068F8D322
:100C800018681844884207D00CF1030020F00700D0
:100C9000001D411A521A0146081D0A60FFF7E2BB07
:100CA00001694A1C02610878704700B58FB0CDE930
:100CB00001310021059105497944CDE90310114620
:100CC0006846FFF731FD0FB000BD0000E5FFFFFFF4
:100CD000007B00F080007047002801D00BF051B974
:100CE0007047000010B5002102A000F061F801205B
:100CF00010BD0000534947414252543A2041626EB0
:100D00006F726D616C207465726D696E6174696F6C
:100D10006E00000010B500F065F8BDE81040FFF768
:100D2000DBBF000010B5002102A000F041F8012057
:100D300010BD00005349475056464E3A2050757238
:100D400065207669727475616C20666E2063616CD3
:100D50006C6564007546FFF785FFAE460500694681
:100D6000534620F00700854618B020B5FFF738FB42
:100D7000BDE820404FF000064FF000074FF000089C
:100D80004FF0000B21F00701AC46ACE8C009ACE81D
:100D9000C009ACE8C009ACE8C0098D46704710B581
:100DA0000446AFF300802046BDE81040FFF7A1BA2B
:100DB00070B505460C460A2000E06D1C0BF0E2F809
:100DC00035B128780028F8D102E0641C0BF0DAF87D
:100DD00014B120780028F8D1BDE870400A200BF04B
:100DE000D1B8000010B5012805D0002103A0FFF7FD
:100DF000DFFF012010BD09A1F8E700005349475269
:100E0000544D454D3A204F7574206F6620686561DA
:100E100070206D656D6F7279000000003A204865A2
:100E20006170206D656D6F727920636F727275707D
:100E300074656400FEE700001D4A30B5136823F0B6
:100E4000010313601B4A1368C3F30B140123A4F5B9
:100E50004065243D06D01268C2F30B12A2F540642F
:100E6000273C10D1144A12686AB9144A14684FF02A
:100E70008A45B5EB045F11D01268C2F30B02A2F5EC
:100E80008064833C0AD00E4A93609368002BFCD1A7
:100E900010601068884209D0002030BD094A1360F4
:100EA0001368002BFCD1074A083AF1E7012030BD56
:100EB000002000E000ED00E0002004E00010005CF5
:100EC00000300240084C0258014800F04DBF0000BD
:100ED00048030020F0B50468059D666C45EA0343AD
:100EE00006F040461E4366640368DA634268B2F562
:100EF000403F02D00068C160F0BD836801F47F42CA
:100F000001F47F0C01F07F4401F47F0701F47F4678
:100F100042EA0C02CDB2BBB1012B16D001F47F0224
:100F2000C1F3C401D20C022B11D0032B14D0210F1A
:100F3000340B3A0D240144EA022242EA013242EA29
:100F4000151200688263F0BD22432A43F9E7B30A11
:100F50005B0143EAC22206E0E30FF40A640144EABB
:100F6000822242EAC3320A43EBE7704701B5009898
:100F700001E0401E00900028FBD108BD10B5044CD4
:100F80002068000603D500F085FC8020206010BD9D
:100F9000143C0140704730B5D1E901230D681A4374
:100FA000D1E9033423431A434B691A438B691A432B
:100FB000D1E90734496A012D056807D01A43224355
:100FC0000A436FF30E052A4302600AE025F4F84550
:100FD000234329430B43416803606FF30E010A4327
:100FE0004260002030BD426942EA41014161002077
:100FF000704718B5D1E900236FF01F041A438B68BE
:10100000C96804EB431343EA41210A430092026199
:10101000002018BDF0B5D1E900346FF00F055B1E5C
:101020002E0105EB041423438C682F034FEA054C73
:101030000D8A06EB04248E8A2343CC68097E4FF088
:101040007F4E012A07EB05450CEB06560EEB0161BE
:101050000CD082683F1107EB043423432B43334306
:101060000B4302F07042134383600FE08768084A25
:1010700017402203C468A2F5805232433A4382608B
:101080002B430B4304F070442343C3600020F0BDA6
:10109000FF0F0FFF2DE9FE4F344E002000900A2273
:1010A000019002903078324F00EB400007EB400097
:1010B0008088401C010A8DF8001069468DF80100F7
:1010C000BA2000F095F8002841DB9DF803109DF848
:1010D000020000EB01209DF805101FFA80FA9DF830
:1010E000040000EB012040F2AB211FFA80F921A09F
:1010F000FFF756FA26A06D46FFF752FA00244FF08C
:101100000A0829A0295DFFF74BFA601C90FBF8F252
:1011100008FB120010B926A0FFF742FA641C0A2C43
:10112000EFDB23A0FFF73CFA3078032200EB40000E
:1011300007EB40008088801D010A8DF80010694689
:101140008DF80100BA2000F053F8002802DA0020E0
:10115000BDE8FE8F9DF802004A46514600F00303A9
:1011600014A0FFF71DFA0120F2E70000D8000020CC
:1011700010E400083C3C2D4754502D44454255474F
:101180002D3E3E205B25645D5245530A0000000061
:101190003C3C2D4754502D44454255472D41525219
:1011A00041592D3E3E0A0000253032782020200093
:1011B0000A0000003C3C2D4754502D494E464F2D0F
:1011C0003E3E20585F4D4158203D2025642C20593B
:1011D0005F4D4158203D2025642C205452494747FB
:1011E0004552203D203078253032780A000000003A
:1011F000F0B587B00E46022117460024ADF8041062
:101200000121ADF80240ADF80E108DF800008DF808
:101210000C00901EADF81000B01C02960590022143
:10122000684603F078F80228054603D0641C052CB4
:10123000F5DB01E0052C06DB3088BA1E2B4641BAEF
:101240000248FFF7ADF907B02846F0BDDCF1000811
:10125000FEB50024ADF8024016460F468DF800009A
:10126000ADF8042002910121684603F054F80128EA
:10127000054603D0641C052CF5DB01E0052C06DBDC
:101280003888B21E2B4641BA0248FFF789F9284632
:10129000FEBD00002CF200082DE9F047CCB04FF065
:1012A000FF3A03F02DF800F0BBF94FF48170FFF71F
:1012B000AAF8DFF82C9204468A4A99F8000000EB5D
:1012C000400002EB40008088030A237099F8001068
:1012D00001EB410002EB40000279627031B101295B
:1012E00006D0022908D0032909D00BE07E4E01E088
:1012F0007D4EBA36BA2505E07A4EF03E01E0784ED2
:101300000A36EF25A01C4FF48071FFF742FBA01CAA
:101310002A463146FFF7C6FA4FF441712A4673A0B8
:10132000FFF73EF97BA02A4640F20531FFF738F976
:1013300081A0FFF735F900260A2785A0A15DFFF7F8
:101340002FF9701C90FBF7F107FB110010B982A078
:10135000FFF726F9761C062EEFDB7FA0FFF720F9BA
:101360002020E07003202071E02060714FF0010820
:1013700084F8068099F800100020012905D021B1D9
:10138000022912D0032910D02BE00221AA1C03E06D
:10139000635C491C184480B29142F9DBC143601977
:1013A000491C817080F803801BE002216A1E07E05F
:1013B0006318665C891C5B7800EB0620184480B2D9
:1013C0009142F5DB404240F22B3186B263A03246B7
:1013D000FFF7E6F8310A601900F8011C665580F83D
:1013E000018000262A1D2146BA20FFF731FF002880
:1013F00002DC761C052EF5DB64480090401E009050
:10140000FCD120784FF496728DF800006946607820
:101410008DF80100BA20FFF7EBFE5DA040F24B31E2
:10142000FFF7BEF844A0E846FFF7BAF800260EE042
:1014300018F8061046A0FFF7B3F8701C90FBF7F100
:1014400007FB110010B944A0FFF7AAF8761CAE42C2
:10145000EEDB41A0FFF7A4F854A040F24F31FFF7B4
:101460009FF835A0FFF79CF800260DE0A15D38A09D
:10147000FFF796F8701C90FBF7F107FB110010B90D
:1014800035A0FFF78DF8761CAE42EFDB32A0FFF7F8
:1014900087F8032168466D1E0FE0625C435C9A4248
:1014A00009D049A0FFF77CF82046FEF7DBFF504645
:1014B0004CB0BDE8F087491C89B2A942EDDBA942D6
:1014C00005D14BA00A4640F25F31FFF769F820468C
:1014D000FEF7C8FF02F032FEFFF7DCFD0020E7E771
:1014E000D800002010E40008ACE100083C3C2D4787
:1014F00054502D44454255472D3E3E205B25645DAA
:101500006366675F696E666F5F6C656E203D202560
:1015100064200A003C3C2D4754502D444542554719
:101520002D3E3E205B25645D6366675F6E756D20B2
:101530003D202564200A00003C3C2D4754502D449A
:10154000454255472D41525241592D3E3E0A000019
:1015500025303278202020000A0000003C3C2D4736
:1015600054502D44454255472D3E3E205B25645D39
:10157000436F6E66696720636865636B73756D3A68
:10158000203078253034580A00000000FFFF0F009B
:101590003C3C2D4754502D44454255472D3E3E205E
:1015A0005B25645D72656164200A00003C3C2D4748
:1015B00054502D44454255472D3E3E205B25645DE9
:1015C0007772697465200A003C3C2D4754502D45C4
:1015D00052524F522D3E3E20436F6E666967206621
:1015E00061696C20212069203D202564200A0000CB
:1015F0003C3C2D4754502D44454255472D3E3E20FE
:101600005B25645D436F6E66696720737563636510
:10161000737320212069203D202564200A000000EA
:10162000F0B54A4885B00822D0E90210CDE9031090
:10163000BA2003A9FFF7DCFD040003D544A0FEF7A0
:10164000AFFF38E09DF810304C4D312B13D0002601
:10165000352B33D0382B48D09DF81220372B9DF8EE
:1016600013109DF811008DE807009DF80F209DF8DC
:101670000E1053D01CE09DF80E1039290ED19DF8A4
:101680000F20312A0AD19DF812609DF81300CDE990
:1016900000063BA0FEF784FF01203CE09DF81250BD
:1016A0009DF813209DF811008DE825009DF80F206E
:1016B0003FA0FEF775FF05B02046F0BD9DF80E1067
:1016C0003929EBD19DF80F20312AE7D19DF811007F
:1016D0003728E3D19DF812C09DF813708DE8811072
:1016E00041A0FEF75DFF2E702DE09DF80E1035290C
:1016F000D4D19DF80F20362AD0D19DF8110038287A
:10170000CCD19DF812709DF813608DE8C10042A005
:10171000FEF746FF022028706870CCE732A0FEF783
:101720003FFF9DF80E003928C5D19DF80F003128E4
:10173000C1D19DF810003728BDD19DF81100532864
:10174000B9D1032028706E70B5E700009CE1000855
:101750003C3C2D4754502D4552524F522D3E3E2079
:1017600047545020726561642076657273696F6EAC
:10177000206661696C65640A00000000D8000020E2
:101780003C3C2D4754502D494E464F2D3E3E20495E
:1017900043312056657273696F6E3A202563256365
:1017A00025635F25303278253032780A000000004A
:1017B0003C3C2D4754502D494E464F2D3E3E205522
:1017C0006E6B6E6F776E2049432056657273696F3A
:1017D0006E3A2025632563256325635F25303278C3
:1017E000253032780A0000003C3C2D4754502D49EA
:1017F0004E464F2D3E3E2049433220566572736956
:101800006F6E3A2025632563256325635F2530329B
:1018100078253032780A00003C3C2D4754502D4941
:101820004E464F2D3E3E2049433320566572736924
:101830006F6E3A2025632563256325635F2530326B
:1018400078253032780A00004FF0FF31054A22F83F
:101850001010921C22F8101002464FF4D17102A011
:10186000FEF79EBEDC0000203C3C2D4754502D442A
:10187000454255472D3E3E205B25645D546F7563A0
:10188000682069645B2532645D2072656C656173F4
:1018900065210A002DE9F04F41A087B002AB006836
:1018A000002606903F4807C883E80700BA20059045
:1018B0000C2202A9FFF79CFC010005D53AA0FEF717
:1018C0006FFE07B0BDE8F08F9DF80A000028F8D041
:1018D00001065AD500F00F05012D56D8DFF8F8A003
:1018E0000DF108090AF1020BBAF80800A8421AD94A
:1018F0006F1ED84613E000240EE009EBC400C07848
:1019000000F00F0118F80600884207D0BC4201DB46
:10191000FFF79AFF641CE4B2AC42EED3761CBAF82F
:1019200008008642E7DB05B300241BE009EBC40096
:10193000C17801F00F060BF8046081883246C78831
:10194000008988460B464FF4BB71CDE9007023A097
:10195000FEF726FE2048001D20F81680801C20F887
:101960001670641CAC42E1DB0DE0BAF80800564684
:1019700048B100245F4603E0385DFFF765FF641C53
:1019800030898442F8DBAAF808500322059806A99A
:10199000FFF75EFC002894DA1CA0FEF701FE90E73A
:1019A000814E000028E400083C3C2D4754502D4552
:1019B00052524F522D3E3E20493243207472616E86
:1019C00073666572206572726F722E206572726E18
:1019D0006F3A25640A200A00D80000203C3C2D47BD
:1019E00054502D44454255472D3E3E205B25645DB5
:1019F00049443A25642C20583A25642C20593A252C
:101A0000642C20573A25640A000000003C3C2D4716
:101A100054502D494E464F2D3E3E204932432077AB
:101A20007269746520656E645F636D6420657272AF
:101A30006F72210A00000000F0B51F230546002048
:101A400001265B1E05D303F01F0706FA07F40C42BC
:101A5000F7D07AB1082A09D0102A04D0182A07D161
:101A6000072B05D206E0082B02D203E0102B01D38E
:101A70000120F0BD0028FCD12B68596129688B68D2
:101A800023F0180313438B60F0BD000010B5040071
:101A900010D0607F20B900202077204600F030F879
:101AA00002206077207938B1D4E902122046FFF78E
:101AB000C3FF48B1012010BD21681048486120686B
:101AC000816821F0180181606079A0B120692168E6
:101AD000086120688168626921F0600111438160BA
:101AE00020688168A26921F0800111438160012092
:101AF0006077002010BD4FF0FF30E8E7B71DC1044C
:101B000008B500680649884208D10648016841F4D2
:101B100080510160006800F48050009008BD000012
:101B200000300240303802402DE9F04104460068A0
:101B3000016821F00501091D016000F09FFB0026EE
:101B400005464FF47A770FE000F098FB401BB8424F
:101B50000AD9606D40F020006065032084F85100D0
:101B600084F85060BDE8F08120680068C007EBD1C0
:101B70002068016821F40C510160012084F85100B3
:101B8000002084F85060EDE7F8B504461D46DDE915
:101B9000063094F85060012E18D0012684F8506069
:101BA000022684F85160266872612A460090204619
:101BB000FFF790F92068016841F40C51016020683A
:101BC000016841F0010101600020F8BD0220F8BD6C
:101BD00070472DE9F0410446006800F124050268D1
:101BE00042F004020260012901D125681C3500F091
:101BF00045FB002706464FF47A780FE000F03EFBE5
:101C0000801B40450AD9606D40F0200060650320CC
:101C100084F8510084F85070BDE8F081286880068F
:101C2000ECD42068016821F464510160012084F83B
:101C30005100002084F85070EEE70000F0B590F8F5
:101C40005020012A2CD0012680F85060022280F812
:101C5000512001EB410200EBC202158E148D978ECC
:101C6000536A2D05203243EA044445EA47552C4384
:101C70001E4D0A2B16D0092B14D0137B44EA0363A4
:101C80000029016813D0CC69AC431C43CC610368C4
:101C90001168196151680A291BD0092919D01DE062
:101CA0000220F0BDD36803F07F432343E8E74C6A8A
:101CB000AC431C434C6203681168996151680A295E
:101CC00001D009290AD1D168026821F07F419162CF
:101CD00004E0D168026821F07F41116280F8516010
:101CE000002180F850100846F0BD00000F0033FFBF
:101CF00070B5040011D01B480068000217D5206899
:101D00000168C90703D02046FFF70EFF04E0416ACF
:101D1000890604D5002106E048B1012070BDC069E4
:101D2000800604D501212046FFF753FFF4E7206821
:101D3000002505603F2021688860206805612068D3
:101D400085612068C561206845622068456320463A
:101D500000F0D2F8656584F85150002084F85050A6
:101D600070BD0000303802402DE9F047044600689D
:101D7000466805684FF004084FF000074FF001096E
:101D8000F10714D0E90512D5016821F480710160D2
:101D9000606D40F0010060652168C1F8089084F82A
:101DA000518084F85070E16909B120468847B00637
:101DB00015D5A80413D52068016821F400510160ED
:101DC000216820208860606D40F00200606584F822
:101DD000518084F85070E16909B120468847300786
:101DE00015D5280513D52068016821F4006101602C
:101DF000216808208860606D40F00400606584F808
:101E0000518084F85070E16909B120468847700715
:101E10000CD568050AD52068016821F4806101604D
:101E20002168C1F80880204600F065F8B00713D596
:101E3000A80511D52068016821F4007101602168AE
:101E400002208860606D606584F8519084F850705D
:101E5000A16909B120468847F00612D5E80410D5DB
:101E60002068016821F48051016021681020886099
:101E7000606D606584F85190204684F85070FFF7DB
:101E8000A7FEBDE8F08770B5040004D094F85100B7
:101E9000002510B106E0012070BD204684F85050A6
:101EA00000F03CF8022084F8510020680168626864
:101EB00021F44031114301602068416BA26821F098
:101EC0000701114341632068016CE2686FF30D0163
:101ED00011430164208AA18A000540EA415120682B
:101EE000426B22F44012114341636565012084F87E
:101EF0005100002070BD704700680649884207D134
:101F00000548016821F4000101605A2000F00EBE6E
:101F10007047000000B002403038024008B5006849
:101F20000B49884212D10B48016841F4000101605D
:101F300000680022052100F4000000905A2000F003
:101F400013FEBDE808405A2000F001BE08BD0000A5
:101F500000B002403038024038B50446049894F886
:101F60005050012D15D0012584F85050022584F8D9
:101F7000515000902046FEF7ADFF2068016841F403
:101F80000C5101602068016841F0010101600020EE
:101F900038BD022038BD90F83510022903D08021C9
:101FA000416501207047052180F8351000680168FF
:101FB00021F00101016000207047000070B5044667
:101FC00000F05CF90546601C02D004480078044427
:101FD00000F054F9401BA042FAD370BD2C00002041
:101FE0002DE9F04186B014216846FEF7F4FC244840
:101FF0000168002940D14FF00108C0F80080214855
:10200000016841F001010160006802240025694671
:1020100000F00100059003264FF63F000C278DE8E5
:10202000F100194800F03CF801AACDF800801748EB
:10203000694682E8F00000F033F848F23310694650
:102040008DE8F100124800F02BF84FF683706946D6
:102050008DE8F1000F4800F023F8C02069468DE8B4
:10206000F1000D4800F01CF84CF2037069468DE851
:10207000F1000A4800F014F806B0BDE8F081000055
:1020800024000020383802400014024000080240BA
:102090000018024000100240001C0240000C0240E8
:1020A0002DE9F84FDFF894B100224FF003094FF00B
:1020B0000F0A0BF1040E0B68012595402B40AB4233
:1020C00072D14C68012C05D0022C03D0112C01D008
:1020D000122C10D18668540009FA04F7BE43CF6869
:1020E000A740374387604468AC430D79C5F30015BA
:1020F000954025434560C46857008E6809FA07F586
:10210000AC43BE402643C6604C68022C01D0122C62
:1021100012D1D40800EB840CDCF820605407E40EE4
:102120000AFA04F826EA0806D1F8108008FA04F83A
:1021300048EA0608CCF820800468AC430D7905F025
:102140000305BD40254305604C68E4006FD53C4C59
:10215000256845F480452560246822F0030504F4D1
:1021600080440094374C2E19D6F808789407250F30
:102170000AFA05F4A743344CA04201D100242EE012
:10218000324CA04201D1012429E0314CA04201D1BE
:10219000022424E02F4CA04201D103241FE02E4C46
:1021A000A04202D104241AE041E02C4CA04201D10B
:1021B000052414E02A4CA04201D106240FE0294C4A
:1021C000A04201D107240AE0274CA04201D10824F3
:1021D00005E0264CA04201D1092400E00A24AC40CD
:1021E0003C43C6F80848DBF800405D464E689C4317
:1021F000F60300D51C432C60DEF8004075464E689F
:102200009C43B60300D51C432C600C4D08352C684C
:102210004E689C43F60200D51C432C60074D0C35DC
:102220002C684E689C43B60200D51C432C60521C9F
:10223000102AFFF440AFBDE8F88F0000003C0140D9
:1022400044380240003001400000024000040240D7
:1022500000080240000C024000100240001402403E
:1022600000180240001C02400020024000240240EE
:102270000AB1816170470904FBE7000001488068EA
:10228000704700002C00002090F84120202A24D123
:1022900090F84020012A20D0012280F840202422FA
:1022A00080F841200268136823F00103136002687C
:1022B000136823F480531360026813680B431360A0
:1022C00001680A6842F001020A60202180F841108A
:1022D000002180F840100846704702207047000037
:1022E00070B5040004D094F84100002510B106E058
:1022F000012070BD204684F8405000F071F9242080
:1023000084F841002068016821F001010160216822
:10231000606820F0706008612068816821F40041E5
:102320008160E0680128A06807D040F4044021687B
:102330008860E068022803D006E040F40040F6E739
:1023400021684FF40060486020684168114A1143D9
:1023500041602068C16821F40041C160D4E90401F2
:102360000843A16940EA01202168C860D4E9070157
:102370000843216808602068016841F0010101609C
:102380006564202084F84100256384F842500020D1
:1023900070BD0000008000022DE9F84F044690F85F
:1023A00041001F469046DDF828A08B4620287ED1AC
:1023B00094F8400001287AD0012084F84000FFF70B
:1023C0005DFF0122064619230090D103204601F04B
:1023D000D9FFE0BB222084F84100102084F842009D
:1023E00000256564C4F8248067856563618DFF27D7
:1023F00030484FF08078FF294FF0007903D92785C6
:102400003A46009039E0618D218500903AE05946C6
:10241000204601F0A1FF13E001F0E2FFB8B9206807
:10242000406A616A0870606A401C6062208D401ECC
:1024300080B22085618D491E6185618D01B168B1D1
:10244000608D3246514600282046E5D100E002E08A
:1024500002F00AF8D0B10120BDE8F88F00225346FF
:1024600080212046009601F08DFF0028F3D1608D79
:10247000FF2804D927853A4600954346C7E7608D73
:10248000208500954B4694F82820C0E7206820213D
:10249000C16120684268084B1A40426084F84110CC
:1024A00084F84250002084F84050D5E7FFE702202E
:1024B000D2E700000024008000E800FE2DE9F84F7C
:1024C000044690F841001F469046DDF828A08B4650
:1024D00020287ED194F8400001287AD0012084F889
:1024E0004000FFF7CBFE0122064619230090D103DE
:1024F000204601F047FFE0BB212084F84100102076
:1025000084F8420000256564C4F82480678565630B
:10251000618DFF2730484FF08078FF294FF0007918
:1025200003D927853A46009039E0618D21850090D6
:102530003AE05946204601F00FFF13E001F0BBFFDF
:10254000B8B9606A216800788862606A401C60627D
:10255000608D401E6085208D401E80B22085618D7B
:1025600001B168B1608D3246514600282046E5D160
:1025700000E002E001F078FFD0B10120BDE8F88F63
:102580000022534680212046009601F0FBFE0028E1
:10259000F3D1608DFF2804D927853A46009543463C
:1025A000C7E7608D208500954B4694F82820C0E74A
:1025B00020682021C16120684268084B1A404260AF
:1025C00084F8411084F84250002084F84050D5E748
:1025D000FFE70220D2E700000020008000E800FEB4
:1025E000704700000248816802781144816070479A
:1025F0002C000020094810B5016841F40071016009
:10260000016841F480710160032000F0CDFA0020E0
:1026100000F006F800F06EFA002010BD003C024009
:1026200000B500220146362087B000F09DFA362022
:1026300000F08DFA1348016841F010010160006854
:1026400005A900F010000690684601F029F901F094
:1026500047F90D4940000D4AB0FBF1F10C4802600A
:1026600040F2E732491E41600021C0E90321816048
:1026700001F096FB10B1012007B000BD044801F045
:10268000ABFBF9E74038024040420F000010004029
:10269000BC1400202DE9F041044690F8A000154636
:1026A0000F4601281DD0012684F8A060022084F87E
:1026B000A10005EB850000EBC500342204EB80008F
:1026C0003830FEF734F92A463946204601F032FF09
:1026D0002068466284F8A160002084F8A000BDE86C
:1026E000F0810220FBE770472DE9F04104460068C5
:1026F000856B466B4FF004084FF00007690715D54E
:10270000710713D5416B21F0040141632168C1F8C1
:102710003C80D4F8A41041F00101C4F8A41084F85E
:10272000A180204684F8A070FFF7DDFFA80716D52A
:10273000B00714D52068416B21F002014163216884
:102740000220C863D4F8A40040F00200C4F8A4003A
:1027500084F8A180204684F8A070FFF7C4FF05EA42
:1027600006004FF00108C0070ED02068416B21F031
:10277000010141632168C1F83C8084F8A1802046B2
:1027800084F8A07000F090F8280710D530070ED517
:102790002068416B21F00801416321680820C8636B
:1027A00084F8A180204684F8A07000F0A1F9BDE86B
:1027B000F081000070B5040004D094F8A100002559
:1027C00010B106E0012070BD204684F8A05000F052
:1027D00097F8022084F8A1002068816921F07041F7
:1027E0008161D4E901100143D4E90302104301439C
:1027F00020688269114381612068826829490A4002
:102800008260A08A020420688368A6693343134368
:1028100083602068C2680A40C260A08B02042068FE
:10282000C368266A33431343C360206802690A40C1
:102830000261A08C020420680369A66A3343134333
:102840000361206842690A404261A08D010420684A
:102850004269236B1A430A43426194F8350002022D
:1028600094F8360001042068C36A03F07F43C36212
:102870002068C36A114394F8346033430B43C36246
:102880002068416B41F0060141632068816941F095
:1028900001018161C4F8A450012084F8A100002046
:1028A00070BD000000F800F0124910B50B68124A24
:1028B000124C11888B4212D1518800F0F7F8206831
:1028C00090F86610491C80F8661003F085FB2068BC
:1028D00004F058FEBDE81040002005F072BE00F084
:1028E000E5F8002005F06EFE206801688969BDE802
:1028F00010400847406801401400002008030020F1
:102900002DE9F04786B0044614216846FEF763F8C7
:102910005D49206888427DD15C48016841F0806152
:102920000160006800F08060059058481438016824
:1029300041F480710160016801F4807105910168C2
:1029400041F020010160016801F02001059101685A
:1029500041F001010160016801F001010591016888
:1029600041F002010160016801F002010591016876
:1029700041F040010160016801F0400105910168EA
:1029800041F004010160016801F004010591016852
:1029900041F080010160006800240E26694600F0C5
:1029A0008000059040F21560009002253848CDE97E
:1029B0000154CDE90346FFF773FB6F020097CDE9A1
:1029C000015434486946CDE90346FFF769FB41F6F7
:1029D00008000090CDE901542F486946CDE903462F
:1029E000FFF75EFB03204FF0090800906946DFF80F
:1029F000ACA0CDE90154CDE903485046FFF750FBA8
:102A0000DFF89C904FF40C6000906946CDE90154CA
:102A1000484600E034E0CDE90346FFF741FB802063
:102A20000090CDE901541F486946CDE90346FFF700
:102A300037FB4FF420400090CDE901541A48694615
:102A4000CDE90346FFF72CFB00976946CDE9015419
:102A5000CDE903484846FFF723FB4FF44070009050
:102A6000CDE90154CDE9034669465046FFF718FB0E
:102A700000220521582000F077F8582000F067F870
:102A800006B0BDE8F087000000680140443802400D
:102A900000200240001402400000024000040240F6
:102AA0000018024000080240001C024010B590F8D7
:102AB000A020012A18D0012380F8A030022280F83B
:102AC000A12050F8A02B546B24F001045463074A52
:102AD000116050F8A01C4A6B42F001024A63437037
:102AE00000210170084610BD022010BD4068014061
:102AF000704700000C4882B0016841F080510160CD
:102B0000006800F0805000900748001D016841F403
:102B100080410160006800220F2100F48040009095
:102B2000901E02B000F020B84038024000280DDBB3
:102B3000012100F01F0291404009800000F1E020D7
:102B4000C0F88011BFF34F8FBFF36F8F704700281D
:102B500009DB012100F01F0291404009800000F1D3
:102B6000E020C0F8001170470E4BF0B41B68C3F3AF
:102B70000223C3F10704042C00D904241D1D072DD2
:102B800001D2002300E0DB1E012606FA04F56D1ECB
:102B90000D409D409E40761E164045EA0601F0BC61
:102BA00009F04EB90CED00E0064A00F0070110688C
:102BB0004FF6FF03184040EA012003490843106024
:102BC000704700000CED00E00000FA051848F8B569
:102BD000016841F0805101600068164D00F080509E
:102BE0000090286840F480302860FFF747FB4FF4DE
:102BF0007A76044604E0FFF741FB001BB0420FD891
:102C00006868C003F7D5286840F400302860FFF7F3
:102C100035FB044606E0FFF731FB001BB04201D94B
:102C20000320F8BD68688003F5D50020F8BD0000DA
:102C300040380240007000400248016841F4807151
:102C40000160704700700040704770472DE9F84FF1
:102C500017468B460446FFF711FB824694F8400066
:102C600001280ED0012684F8406094F841004FF00E
:102C70000008012807D0022584F840802846BDE8D6
:102C8000F88F0220FBE7C4F844804FF0020984F873
:102C900041900022202153462046009701F0ACFFCE
:102CA0000500E9D100225946204601F081FEDBF8FB
:102CB000240058B90122534602212046009701F012
:102CC0009BFF0500D8D12168C1F80C9084F84160C1
:102CD000D2E770477047000070B50446006882680C
:102CE0000168530734D54B0332D594F84110203096
:102CF00012290FD094F8411022291BD01EE0E16A5E
:102D000001B3616A09780170616A491C6162E16A14
:102D1000491EE162216889684907F0D40EE0A16B81
:102D200081B10178226B1170216B491C2163A16B69
:102D3000491EA163216889684907F0D42046FFF73E
:102D4000C9FF70BD2068016821F480210160F5E7AA
:102D500093074FF001056CD58B036AD50221C16042
:102D60002068016821F4E021016094F841001228F4
:102D700015D094F84100222825D094F8410002286B
:102D800049D094F841000828DBD12068416921F03E
:102D90004061416184F84150606CD8B345E02068DF
:102DA0000168490709D5016821F004010160E06B61
:102DB0000068016821F00101016084F8415020465B
:102DC00000F032FA70BD2068016849070AD5016831
:102DD00021F004010160E06B0068016821F001014D
:102DE000016011E020300AE0A16B69B10178226B2B
:102DF0001170216B491C2163A16B491EA1632168DD
:102E0000896811F47C5FEFD184F84150204600F0CE
:102E1000AEF970BD05E084F841502046FFF715FF7C
:102E2000F7E72046FFF710FFF3E72046FFF751FFD3
:102E3000EFE7130711D50B030FD50821C1602068F8
:102E40000168490205D5016821F41021016084F868
:102E50004150204600F08CF9DBE7D30722D0CB03AA
:102E600020D5C5602068016821F470210160606C84
:102E700040F0020060642068016849070FD50168CE
:102E800021F004010160E16B0B480865E06BFFF77E
:102E900082F80028BDD0606C40F00400606484F8C3
:102EA0004150C2E7D206B4D5C902B2D51021C160E3
:102EB000204600F05EF9ACE72B4B0008F8B504465D
:102EC000FFF7DCF9064624B194F84100002510B163
:102ED00009E00120F8BD84F84050204600F088F851
:102EE00041F28830A064206801686FF0FF03A26897
:102EF00021F4F85103EB022211430160A06C00227F
:102F0000202133460090204601F076FE10BBE26897
:102F1000E16923790A43216A41EA03610A4321688E
:102F20000B680E4E33401A430A60D4E905210A4368
:102F300021684B680A4E3340268A43EA06431A4307
:102F40004A6021680A6842F001020A606564012152
:102F500084F8411084F84050F8BD00002FFFFF00B6
:102F6000FEF8E0FF2DE9F843164688460446FFF7D1
:102F700085F9034694F8400001280DD0012084F81B
:102F8000400094F841000027012807D0022584F86A
:102F900040702846BDE8F8830220FBE76764822082
:102FA00084F841000022A06C20210090204601F00E
:102FB00023FE0500EBD120680168726821F008014A
:102FC00011430160706808280AD1216830680863DD
:102FD00010202168C8602068016841F480110160F8
:102FE0004FF040624146204601F0E2FCCFE700008E
:102FF0002DE9F04387B0044614216846FDF7EBFC49
:1030000027492068884247D12648016841F00201DB
:103010000160006800F0020005902248083801684D
:1030200041F020010160016801F020010591016873
:1030300041F002010160006802240025DFF8689079
:1030400000F002000590C0206946032609278DE89C
:10305000F1004846FFF724F830024FF00A088DE8E7
:10306000710169464846FFF71BF8042069468DE860
:10307000F1000E4F3846FFF713F8402069468DE8FF
:1030800071013846FFF70CF8002205215C20FFF79C
:103090006BFD5C20FFF75BFD07B0BDE8F08300002F
:1030A000001000A038380240001402400004024022
:1030B0002DE9F84F16460F460446FFF7DFF8824623
:1030C0002068816900F1200594F84020012A0ED083
:1030D0004FF0010884F8408094F841204FF0000937
:1030E000012A06D0022084F84090BDE8F88F022023
:1030F000FBE7C4F844909FB3222284F84120026980
:10310000521CA2630269521C62632763426922F067
:10311000406242F080624261206881610DE00621D8
:10312000204601F069FDC0B92878216B0870206B3A
:10313000401C2063A06B401EA063A06B53464FF061
:10314000010200960028EAD14FF00201204601F06A
:1031500053FD10B922680221D16084F84180C2E792
:10316000FFE7606C40F0080060640120BBE7704737
:10317000704770472DE9F84F16460F460446FFF793
:103180007DF88246206894F8401000F1200501295E
:103190000ED04FF0010884F8408094F841104FF0B1
:1031A0000009012906D0022084F84090BDE8F88F7C
:1031B0000220FBE7C4F844907FB3122184F8411049
:1031C0000169491CE1620169491CA16267624169A8
:1031D00021F0406141610DE00421204601F00CFD29
:1031E000C0B9606A00782870606A401C6062E06A5A
:1031F000401EE062E06A53464FF00102009600284C
:10320000EAD14FF00201204601F0F6FC10B9226825
:103210000221D16084F84180C6E7FFE7606C40F08E
:10322000080060640120BFE7704700002DE9F84FF7
:10323000044600780026DFF820943546C0070ED0FB
:10324000D9F8001021F40001C9F80010D9F80010D5
:10325000626B1143C9F80010606B00B90126206849
:10326000FE4F00030ED53868E16B20F44010084390
:103270003860E06BB0F5801F01D010B102E001268C
:1032800000E001252068C0020ED53868216C20F4CA
:10329000400008433860206CB0F5800F01D010B1B9
:1032A00002E0012600E001252068C10100D50126C9
:1032B000800666D5E8483830016841F080510160E9
:1032C0000068DFF89CA300F080500090DAF800104E
:1032D00041F48071CAF80010FEF7D0FF804605E087
:1032E000FEF7CCFFA0EB080064287DD8DAF80000D8
:1032F000C005F5D5DFF864A3AAF11C0ADAF80000CE
:1033000010F440702AD0218E01F44071814225D002
:10331000DAF80010DAF8002021F4407142F480322B
:10332000CAF80020DAF8002022F48032CAF800201F
:10333000CAF80010DAF80000C0070FD0FEF79EFFB1
:10334000804641F2883B05E0FEF798FFA0EB0801BC
:103350005945CAD8DAF800008007F5D5206BC0F3CC
:10336000012103297ED0D9F8001021F4F811C9F801
:103370000010DAF80010228EC2F30B021143CAF8D3
:1033800000102078C00607D5386820F080703860BB
:103390003868A16B0843386020884104B14805D5DE
:1033A0000168626E21F440311143016021880904F3
:1033B00005D50168A26E21F4402111430160216806
:1033C000C90305D50168E26E21F440111143016083
:1033D0002168890305D50168226F21F4400111435A
:1033E00001602178490600E021E105D50168626CA1
:1033F00021F00301114301602178090605D5016818
:10340000A26C21F00C01114301602188C90505D58A
:103410000168E26C21F030011143016021888905C7
:1034200005D50168226D21F0C0011143016021889A
:10343000490505D50168626D21F4407111430160B1
:103440002188090505D50168A26D21F44061114369
:1034500001602188C90407D50168E26D21F440515B
:10346000114300E05BE001602188890405D5016813
:10347000226E21F44041114301602168490205D5C3
:103480000168A26F21F080611143016021684FF053
:103490000069890209D50168E26F21F000611143DA
:1034A0000160E16F494500D1012521680A0700D577
:1034B0000125490305D50168626F21F04071114370
:1034C00001602168090206D50168D4F8802021F046
:1034D0008051114301602168490106D50168D4F883
:1034E000842021F00051114301602068000106D5BD
:1034F0003868D4F8881020F00070084338602068DD
:10350000C00006D53868D4F88C1020F080600843DD
:103510003860DFF84481A8F1080876B909E0D9F8E5
:103520000020514B22F4F81218400243C9F8002041
:103530001FE72068B0F1007F78D1D8F8001021F0A3
:103540008061C8F80010FEF799FE064604E0FEF719
:1035500095FE801B64286AD8D8F800000001F6D4D4
:1035600020784249C00711D0606B78B908680A68B2
:10357000C0F301406368C2F303629B0143EA004069
:1035800040EA0260227A40EA027008602068020382
:1035900003D5E26BB2F5801F05D0C0021AD5206CAE
:1035A000B0F5800F16D108680A68C0F3014063685F
:1035B000C2F302729B0143EA0040237B40EA0360AE
:1035C00040EA027008603868626A20F01F00521EEC
:1035D000104338602068C0010FD508680A68C0F33E
:1035E00003606368268AC2F302729B0143EA0643C2
:1035F00043EA006040EA02700860206880010BD551
:103600006068228A800140EA0240227B40EA026030
:10361000227A40EA02700860D8F8001041F0806118
:10362000C8F80010FEF72AFE064606E009E083E02F
:10363000FEF724FE801B64287ED8D8F80000000125
:10364000F6D5E5B3D8F80000454620F08050C8F81C
:103650000000FEF713FE0BE0083802408C380240F1
:103660000070004090380240FFFCFF0F8438024099
:10367000064604E0FEF702FE801B642867D828682F
:10368000C0438000F6D520683549020301D5E26BBE
:103690001AB1C0021DD5206CD8B908680A68C0F3F9
:1036A00001406369C2F302729B0143EA0040237E3A
:1036B00040EA036040EA02700860386800E04DE0CC
:1036C000A26A6FF0FF0320F4F85003EB02221043CC
:1036D00038602068800212D5E06F48450FD1086835
:1036E0000A68C0F303606369268CC2F302729B010F
:1036F00043EA064343EA006040EA0270086020782B
:10370000000715D508680A68C0F303606369C2F34F
:1037100001429B0143EA024242EA0060227F40EA02
:10372000027008603868E16A20F44030084338606D
:10373000286840F0805000E009E02860FEF79EFD18
:10374000044607E0FEF79AFD001B642802D9032017
:10375000BDE8F88F2868C0438000F3D40020F7E765
:10376000883802402DE9F04704000D4669D0DFF8A3
:103770001C81D8F8000000F00F00A8420CD2D8F845
:10378000001021F00F012943C8F80010D8F80000FC
:1037900000F00F00A84254D120683D4E810712D599
:1037A000400703D5306840F4E050306020780007CF
:1037B00003D5306840F4604030603068A16820F084
:1037C000F000084330602078C00729D03049606895
:1037D0000839012810D00968022810D0890700296B
:1037E0002FDA316821F0030101433160FEF746FD15
:1037F000074641F288390CE009688903EFE789013F
:10380000EDE7FEF73BFDC11B494502D90320BDE8AA
:10381000F0873068616800F00C00B0EB810FF0D1E8
:10382000D8F80010404601F00F01A9420BD90168F9
:1038300021F00F0129430160006800F00F00A84249
:1038400001D00120E3E72078400705D53068E16822
:1038500020F4E050084330602078000706D5306837
:10386000216920F4604040EAC100306000F058F85F
:103870003168084AC1F30311515CC8400649086029
:1038800006480068FEF7CCFE0020C0E7003C02407E
:1038900008380240FCE0000838000020300000201A
:1038A0000F2202600C4A136803F00303436013689D
:1038B00003F0F0038360136803F4E053C3601268FD
:1038C0004FF4E05303EAD20202610448006800F0BA
:1038D0000F0008607047000008380240003C0240BA
:1038E0000448054900680968044AC1F38221515C13
:1038F000C840704738000020083802400CE100083A
:103900000448054900680968044AC1F34231515C22
:10391000C840704738000020083802400CE1000819
:10392000154810B5006810F00C01144813D0144B62
:1039300004290FD008290ED10F4C241F216801F053
:103940003F022168490207D52068C0F38810A0FB18
:10395000030106E0184610BD2168C1F38811A1FBE0
:1039600000010023FCF7A5FD2168C1F30141491CBA
:103970004900B0FBF1F010BD083802400024F4000B
:1039800040787D012DE9F84F04004FF0000877D012
:103990002078DFF864B3ABF10409C007A9F104058E
:1039A0004AD0DBF800105846C1F38101012908D044
:1039B0000068C0F3810002280AD1D9F80000400253
:1039C00006D52868800337D560680028DFD033E04B
:1039D0006068B0F5803F0BD010B1B0F5A02F11D0CA
:1039E000286820F480302860286820F4802002E0D5
:1039F000286840F480302860606888B1FEF73EFC9B
:103A0000064609E0286840F480202860F0E7FEF7C9
:103A100035FC801B642873D828688003F7D50BE039
:103A2000FEF72CFC064604E0FEF728FC801B642809
:103A3000F1D828688003F7D42078800740D5DBF8D8
:103A40000010584611F00C0F08D00068C0F3810038
:103A500002280AD1D9F80000400206D4286880075D
:103A600017D5E06801280BD113E0E068002828682A
:103A700017D040F001002860FEF700FC064605E084
:103A800035E1FEF7FBFB801B0228C4D828688007BD
:103A9000F7D52868216920F0F80040EAC1002860C5
:103AA0000EE020F001002860FEF7E8FB064604E087
:103AB000FEF7E4FB801B022822D828688007F7D491
:103AC0002078000725D58C4F60696C37002838684E
:103AD0000FD040F001003860FEF7D0FB064604E04E
:103AE000FEF7CCFB801B02280AD838688007F7D580
:103AF0000FE020F001003860FEF7C0FB064605E04D
:103B000082E0FEF7BBFB801B02287DD83868800767
:103B1000F7D42078400769D5DFF8DCA10AF1380A2C
:103B2000DAF80000C0000CD4DAF8001041F080513F
:103B3000CAF80010DAF800004FF0010800F08050D9
:103B400000906E4F3868C0050FD4386840F480701C
:103B50003860FEF793FB064604E0FEF78FFB801B00
:103B6000642851D83868C005F7D5634FA068683716
:103B700001280AD008B1052811D0386820F00100CA
:103B80003860386820F0040002E0386840F0010036
:103B90003860A06898B1FEF771FB06460BE0386804
:103BA00040F004003860F0E7FEF768FB811B41F24B
:103BB0008830814267D838688007F5D50DE0FEF778
:103BC0005DFB064606E0FEF759FB811B41F288309B
:103BD000814258D838688007F5D4B8F1000F05D075
:103BE000DAF8001021F08051CAF80010A169D9B3A9
:103BF000DBF80000C0F3810002284BD028680229BE
:103C000020F08070286000E03DE003D0FEF736FB36
:103C100004463BE0FEF732FB064604E0FEF72EFBCF
:103C2000801B02282FD828688001F7D4D4E9070127
:103C3000334A0843A16A490802EB0141626A41EA3A
:103C40008211084394F82C1040EA016094F8301077
:103C500040EA0171C9F80010286840F080702860BF
:103C6000FEF70CFB044605E043E0FEF707FB001BF4
:103C7000022808D828688001F7D53AE0FEF7FEFA56
:103C8000001B022802D90320BDE8F88F28688001B4
:103C9000F4D42EE0D9F80000012928D0E26900F41C
:103CA0008001914223D1226A00F03F0191421ED14E
:103CB000626A47F6C0710140B1EB821F17D1A26A58
:103CC0004FF0FF3300F4403103EB5202B1EB024FEF
:103CD0000DD194F82C2000F07061B1EB026F06D189
:103CE00094F8301000F0E040B0EB017F01D00120EB
:103CF000CAE70020C8E70000083802400070004012
:103D00000000FFFF70B504000D4603D094F82C00AE
:103D100010B107E0012070BD002084F82D0020467E
:103D200000F011F8022084F82C002068211DFDF716
:103D300032F9D4E900022946FDF76CF9012084F834
:103D40002C00002070BDFEF74BB910B5044690F86A
:103D50002C00022809D0022084F82C002068FDF7EE
:103D600042F9012084F82C00002010BD70B50446F3
:103D700090F82C000D4602280CD0022084F82C006C
:103D80002068FDF736F92868022804D0012084F85D
:103D90002C00002070BD0520F9E770477047704780
:103DA00010B5040003D094F83D0010B107E00120E5
:103DB00010BD002084F83C00204600F00CF80220E2
:103DC00084F83D002068211D00F0E0FF012084F808
:103DD0003D00002010BD70470168CA6842F0010232
:103DE000CA6001688868064A1040062806D0B0F507
:103DF000803F03D0086840F0010008600020704751
:103E000007000100704770B50446006801694FF073
:103E10000005C943890715D4C168C943890711D46E
:103E2000E91E016101202077206880698007204613
:103E300002D0FFF7E7FF04E000F0A7F8204600F00B
:103E4000A5F8257720680169C943490717D4C168D7
:103E5000C943490713D46FF00401016102202077A0
:103E60002068806910F4407F204602D0FFF7CAFF27
:103E700004E000F08AF8204600F088F825772068F2
:103E80000169C943090716D4C168C943090712D497
:103E90006FF008010161042020772068C069800765
:103EA000204602D0FFF7AEFF04E000F06EF8204697
:103EB00000F06CF8257720680169C943C90617D45A
:103EC000C168C943C90613D46FF01001016108200D
:103ED00020772068C06910F4407F204602D0FFF7A9
:103EE00091FF04E000F051F8204600F04FF82577EC
:103EF00020680169C943C90708D1C168C943C90716
:103F000004D1891E0161204600F042F82068016951
:103F1000C943090609D4C168C943090605D46FF02D
:103F2000800101612046FFF739FF20680169C9431C
:103F3000C90509D4C168C943090605D46FF4807165
:103F400001612046FFF729FF20680169C94349063E
:103F500009D4C168C943490605D46FF04001016125
:103F6000204600F01FF820680169C94389060BD478
:103F7000C168C943890607D46FF02001016120465A
:103F8000BDE87040FFF70BBF70BD70477047000081
:103F900000680349884201D1FEF724BB7047000046
:103FA00000100040704710B5040002D0606F10B1DF
:103FB00007E0012010BD002084F87000204600F0CA
:103FC00025F8242060672068016821F00101016064
:103FD000204600F0CFFF0128ECD0606A10B12046E7
:103FE00000F038FF2068416821F49041416020686A
:103FF000816821F02A0181602068016841F0010197
:1040000001602046BDE8104000F088BF10B586B0C2
:10401000044614216846FCF7DEFC144920688842F7
:1040200021D11348016841F010010160006800F0DF
:10403000100005900E481438016841F0010101603C
:104040000068694600F0010005904FF4C0600090E0
:10405000022001900020029003200390072004908A
:104060000448FEF71DF806B010BD00000010014026
:104070004438024000000240FEE701688A69D243EA
:10408000920701D400228A6200688169C943C90786
:1040900003D0816941F0010181617047234870B507
:1040A00086B0016841F480010160006800F480007E
:1040B00005901E481038016841F0800101600168D8
:1040C00001F080010591016841F080010160006804
:1040D0000324174D694600F08000059010200090E1
:1040E000122001900020CDE902040420049028460B
:1040F000FDF7D6FF2021284600916946FDF7D0FF45
:10410000E814694601260225CDE90254CDE90006EE
:104110000848FDF7C5FF80206946CDE9000606483E
:10412000CDE90254FDF7BCFF06B070BD4038024037
:10413000001C0240000C0240000402400F4800B581
:1041400087B0016841F0020101600068694600F033
:104150000200059080200090094801900020029004
:104160000848FDF79DFF012217201146FEF7FCFCD1
:104170001720FEF7ECFC07B000BD0000303802400D
:1041800000001110000402402DE9F04104460068CF
:1041900016460D468069C043C0062ED420274FF036
:1041A000000820688069C043800615D5681CF8D0D7
:1041B000FEF764F8801BA84201D8002DF1D1606C95
:1041C00040F02000606484F8417084F8428001204F
:1041D00084F84080BDE8F08121681020C861206823
:1041E000C7612046FFF749FF20684168044A114033
:1041F0004160606C40F00400E4E70020EAE7000062
:1042000000E800FE0C4801220A4910B501600B4984
:1042100041600021C0E90212016141618161C16117
:104220000162FEF75DF8BDE8104003480021FEF78B
:104230002BB8000000580040649600203232919064
:1042400038B50C4613464FF47A7122460091014668
:104250000248FEF7A1F8002038BD00006496002057
:1042600023482DE9F043016887B041F00201016065
:10427000016801F002010591016841F00801016047
:10428000006880240325DFF86C9000F0080005909A
:1042900001206946CDE900400220CDE902054846EB
:1042A000FDF7FEFE002248468021FDF7E1FF124F98
:1042B0002601002231463846FDF7DAFFDFF83C8060
:1042C0004046FCF753FE012231463846FDF7D0FF49
:1042D0004046FCF74BFE00206946CDE90205CDE9DA
:1042E00000404846FDF7DCFE07B0BDE8F083000063
:1042F0003038024000040240000C0240FFFF090079
:1043000010B5FFF7CBFEFFF77DFFFFF7A9FFBDE874
:104310001040FFF713BF70B500240E46054616E0A7
:1043200004EB440005EB80039978C90706D09A880E
:1043300015F820009968FFF783FF05E01A7915F852
:104340002000996800F0E0F8641C002802D1B44213
:10435000E6D1204670BD0000F0B50068059C4568B8
:104360004FF48066064FC1F3090106EA545641EA4C
:1043700002413E431943B54321430D434560F0BD1F
:10438000FF63FF032DE9F0411D4617460E46044624
:10439000DDF8188008E0681C06D0FDF76FFFA0EB81
:1043A0000800A8420BD855B12068806936EA0000A1
:1043B00013D00020B842EED00020BDE8F081606C40
:1043C00040F020006064202084F84100002084F840
:1043D000420084F840000120EFE70120EAE70000F6
:1043E0002DE9F041202716460D4604464FF00008FF
:1043F00026E0324629462046FFF7C6FE80BB2068ED
:104400008069C043800615D420688169C943490783
:1044100001D4218DC9B9C76120684168114A114092
:104420004160C4F8448084F8417084F8428084F884
:10443000408015E0FDF722FF801BA84208D83DB15F
:1044400020688069C0434007D3D40020BDE8F081D4
:10445000606C40F02000606484F8417084F8408013
:104460000120F3E700E800FE70B516460D4604464D
:104470000DE0324629462046FFF786FE08B10120AE
:1044800070BDFDF7FBFE801BA84207D835B1206840
:104490008069C0438006ECD4002070BD606C40F0A1
:1044A00020006064202084F84100002084F842004D
:1044B00084F84000E3E770B516460D4604460FE069
:1044C000324629462046FFF75FFE08B1012070BD45
:1044D000681C05D0FDF7D2FE801BA84207D835B175
:1044E00020688069C0438007EAD4002070BD606CFA
:1044F00040F020006064202084F84100002084F80F
:10450000420084F84000E1E738B50C4613464FF40A
:104510007A712246009101460248FDF7CFFF002044
:1045200038BD0000649600200148FEF7DDB80000A9
:10453000A0030020F0B504688B88E568C5F30B453F
:104540002B441D04882303EBC213E65806F470467F
:10455000E65004680F68E668C6F30B46761C3E44D6
:104560002E43E65003688C89DD68C5F30A052C44A8
:1045700025048C2404EBC2141E5906F470461E5107
:1045800003688F68DE68C6F30A06761C3E442E4335
:104590001E510468942303EBC213E55825F0070568
:1045A000E55005680C69EC5091F8313005681F0240
:1045B00091F832301C040B7E1E069C2303EBC213C1
:1045C00055F803C04FF0000C45F803C091F8305087
:1045D00034433D4325430468E5500468982303EBC6
:1045E000C213E55825F0FF05E55005684C69EC500D
:1045F0000468A02303EBC213E55840F20776B543E5
:10460000E550D1E907452C430568EC500468AC231C
:1046100003EBC213E55844F803C005684C6AEC503C
:104620000B698BB3012B32D0042B32D0022B30D04C
:10463000032B2ED0072B2CD001230568B02404EBCC
:10464000C2142E5906F0E0262E51D1E90065AD1BAB
:104650000E8D5D435E43ED1C45EA064305682B5114
:104660000468B42303EBC213E5586FF30A05E55061
:104670000468C96AE1500068842101EBC211425804
:1046800042F001024250F0BDFFE70423D5E70323C7
:10469000D3E70223D1E700000C4802220A4910B5F3
:1046A00001600021C0E90112C160C0E90E1201647D
:1046B00041648164C164FDF7E6FBBDE81040034836
:1046C0000121FDF7BBBA000000B002404803002002
:1046D00000B587B01C216846FCF77DF9154800221B
:1046E0001349102301600121C0E901120421C0E92E
:1046F0000313402343614FF4C073C0E906324A02FA
:1047000002628A024262CA02826207220220CDE964
:104710000002CDE9021203210690CDE904100548FC
:104720006946FFF7EFFA00F0E3F807B000BD0000BC
:10473000400100A0140500202DE9F04387B01421AA
:104740006846FCF748F93F48016841F00401016000
:10475000016801F004010591016841F48071016074
:10476000016801F480710591016841F02001016048
:10477000016801F020010591016841F080010160AC
:10478000016801F080010591016841F001010160BB
:10479000016801F001010591016841F00201016029
:1047A000016801F002010591016841F040010160DA
:1047B000016801F040010591016841F010010160BC
:1047C000016801F010010591016841F008010160E4
:1047D00000684FF4E0541C4F012200F0080021460D
:1047E00005903846FDF744FDDFF8608001229021F6
:1047F0004046FDF73DFDDFF858907E15002231461A
:104800004846FDF735FD00250094012469463846E9
:10481000CDE901450395FDF743FC02276946902049
:10482000CDE90004CDE902474046FDF739FCCDE96A
:104830000064CDE9027569464846FDF731FC07B0D2
:10484000BDE8F08330380240001C0240000C0240FA
:104850000018024010B58EB034216846FCF7BBF852
:10486000224800242049C0E9001484602E21C4603D
:1048700004614461C0E906411721016240F24E31F2
:10488000416240F2F711816240F26231C16240F24E
:104890000D21016380F8344080F8354080F83640BF
:1048A000FDF788FF4FF44871029402224FF4F07034
:1048B000CDE90041CDE90302FF22CDE905244FF403
:1048C0008062079205228DF83040CDE90A10CDE9CB
:1048D00008248DF831400022044869468DF83240A2
:1048E000FDF7D8FE0EB010BD00680140A003002007
:1048F0002DE9F8431F4C082700254FF6FF790126C4
:10490000009521464A46C4E90067C4E90265A1F161
:104910003400FFF72BFA0120FDF750FB022021465F
:10492000C4E90007C4E90265A1F134004A46FFF773
:104930001DFA03204FF00408E560214684E8810158
:10494000A1F134004A46FFF711FA4FF40C700090C1
:1049500021464A46C4E90260C4E90087A1F1340057
:10496000FFF704FAA4F1340040F26A51BDE8F843BD
:10497000FFF7EBB94805002007F0AEBE07F0E8BE30
:104980000948084901604FF4E131416000210C22DF
:104990008160C160C0E904128161C161016241624C
:1049A000FFF701BB0010014094040020FEE77047B0
:1049B000F0B54B6A4FF040652BB1AA4203D00468B2
:1049C0008B6A5B1E23618B69002B5DD00C6A7CB304
:1049D00004688B68E361CB69C3B1D1E90B464F6AC8
:1049E00034434E6B3E4334438E8A44EA86440E6918
:1049F00034430E6A3443CE6834431C438B691C43F2
:104A00000B687DE0006849688161F0BDD1E90B3435
:104A10004D6A23434C6B2C4323438C8A43EA8443E3
:104A20000C6923430C6A23438C690968234354E0CF
:104A3000FFE7CC69BCB1D1E90B67D1F824C03E4394
:104A40004F6B47EA0C073E438F8A46EA8746CF689A
:104A50003E4326431E430B681E43036816435E61B4
:104A6000AA42CFD1F0BDD1E90B454E6A00682C4374
:104A70004D6B35432C438D8A096844EA85441C43B9
:104A80000C4314434461F0BD0B6A5BB304688B684C
:104A9000E361CB6993B1D1E90B464F6A34434E6B66
:104AA0003E4334438E8A44EA86440E6934430E6A98
:104AB0003443CE6834431C438B6921E0D1E90B3485
:104AC0004D6A23434C6B2C4323438C8A43EA844333
:104AD0000C6923430C6A8969234300680B43134321
:104AE0004361F0BDCB6983B1D1E90B464F6A3443D2
:104AF0004E6B3E4334438E8A44EA8644CE68344348
:104B00001C43036814435C61AAE74B6A002BE8D09E
:104B1000D1E90B4500682C434D6B898A1D432C431A
:104B200044EA814111434161F0BD10B5806B002121
:104B30008163C16290F84110082905D0012180F8F5
:104B40004110FEF7C6F810BD02680221D16001686D
:104B50000A6842F400320A600068016841F002010C
:104B6000016010BD084A491E10B51268116141F27A
:104B7000883201460448FEF79BFA002803D0BDE8BE
:104B80001040FCF707BA10BD480400202DE9F0439F
:104B90008FB01F4616460D4638210446DDE91689BA
:104BA0006846FBF718FFCDE90046094841F2883214
:104BB000CDE906576946CDF82490CDF80C80FEF774
:104BC00045F8002801D0FCF7E5F90FB0BDE8F08307
:104BD00048040020074A491E10B51268116141F2CD
:104BE000883201460348FEF7C5FA08B1FCF7D2F94E
:104BF000002010BD480400202DE9F0411E46174654
:104C000088460546069C07E0601C05D0FDF736FB8C
:104C1000801BA0420BD854B12868806810EA0800B5
:104C200000D00120B842EFD10020BDE8F08104207F
:104C300085F84100686C40F0010068640120F4E7E9
:104C40000148FEF749B800004804002004A0FBF723
:104C5000A7FCFFF793FE012007F02EFAFBE7000008
:104C600077656C636F6D6520746F20746865205480
:104C70006F75636847465820776F726C6400000058
:104C8000502010B572B680F31188BFF34F8FBFF379
:104C90006F8F62B608F0CCFB18B104494FF080501A
:104CA0000860002080F3118810BD000004ED00E0D2
:104CB000F0B5B7B0342124A8FBF78DFE142131A83C
:104CC000FBF789FE90216846FBF785FEFDF7B4FFF0
:104CD0002248016841F080510160006800F0805076
:104CE00036901F48016841F4404101600068022489
:104CF000012600F44040369060053704CDE92A4093
:104D000019202C904FF4D870CDE92D042F9424A8AD
:104D1000CDE92467FEF736FEFDF758FF31A90F20D5
:104D2000002581E831004FF4A0503490E002359026
:104D3000072131A8FEF716FD482000904FF4B0700F
:104D4000059004200694CDE90705CDE90A67684679
:104D50001195FEF76BFA37B0F0BD00004038024005
:104D6000007000400548016841F47001016003498A
:104D70004FF00060803908607047000088ED00E067
:104D80000148FFF740B80000BC140020F0B50268ED
:104D90004FF0804E244D254E254FA842DFF894C099
:104DA000254B09D0704507D0B04205D0B84203D09A
:104DB000604501D0984203D122F070044A68224332
:104DC000A8421BD0704519D0B04217D0B84215D0B8
:104DD000604513D0984211D0184CA0420ED0184C08
:104DE000A0420BD0174CA04208D0174CA04205D0CF
:104DF000164CA04202D0164CA04203D122F44074BB
:104E0000CA6822434C6922F08002224302608A6809
:104E1000C2620A688262A84201D0984201D109693F
:104E2000016301214161F0BD000001400004004028
:104E300000080040000C0040000401400040014018
:104E4000004401400048014000180040001C0040A0
:104E50000020004090F82410C90706D001684A6875
:104E6000836A22F400321A434A6090F824108907BA
:104E700006D501684A68C36A22F480321A434A6040
:104E800090F82410490706D501684A68036B22F49C
:104E900080221A434A6090F82410090706D5016859
:104EA0004A68436B22F400421A434A6090F8241087
:104EB000C90606D501688A68836B22F480521A43BA
:104EC0008A6090F82410890606D501688A68C36B49
:104ED00022F400521A438A6090F82410490611D532
:104EE00001684A68036C22F480121A434A60016C1C
:104EF000B1F5801F06D101684A68436C22F4C002F4
:104F00001A434A6090F82410090606D501684A68D9
:104F1000806C22F4002202434A607047F8B50025F5
:104F20000446C567FDF7AAF90746206800686FF0D8
:104F30007E46000708D500223B464FF4001120466C
:104F4000009600F03BF960B92068006840070AD578
:104F500000223B464FF480012046009600F02EF9D7
:104F600008B10320F8BD20206067A067002084F806
:104F70007050F8BD70B5044600200546A26821694E
:104F8000E3690A43616919430A4321680B687F4E4C
:104F9000334013430B6021684A68E36822F44052AF
:104FA0001A434A60226AA1690A4321688B6823F484
:104FB000306313438B60764E4FF400422168754B8B
:104FC000B1420AD1196811F0030152D001297BD0F6
:104FD000022971D003296ED183E06F4EB1420AD10C
:104FE000196811F00C0167D0042965D0082974D024
:104FF0000C2960D175E0694EB1420AD1196811F0EF
:10500000300159D010296AD0202966D0302952D1D8
:1050100067E0634EB1420AD1196811F0C0014BD06C
:1050200040295CD0802958D0C02944D159E05D4E38
:10503000B1420DD1196811F440713DD0B1F5807FB6
:105040004DD0B1F5007F48D0B1F5407F33D148E075
:10505000554EB1420FD1196811F4406109D0B1F534
:10506000806F3CD0B1F5006F37D0B1F5406F22D1E1
:1050700037E0012120E04D4EB1420DD1196811F405
:10508000405119D0B1F5805F29D0B1F5005F24D02F
:10509000B1F5405F0FD124E0454EB1420BD1196804
:1050A00011F4404108D0B1F5804F18D0914214D08E
:1050B000B1F5404F15D01021E3694FF6EF769342DA
:1050C00036D1092926D201E009E006E0DFE801F047
:1050D0000B0E18221B2222221E000221ECE70421C3
:1050E000EAE70821E8E7FEF7FBFB01E0FEF708FC32
:1050F0004100606801EB5001B1FBF0F080B20AE0C2
:105100002C496068F6E7FEF70BFCF1E760684FF4A6
:105110008031EFE70125A0F11001B14230D84FF600
:10512000F0710140C0F3420001432068C16028E0F3
:1051300009291DD2DFE801F00508121C151C1C1CF2
:105140001800FEF7CDFB01E0FEF7DAFB01466068D0
:1051500001EB5001B1FBF0F080B20AE01649606843
:10516000F6E7FEF7DDFBF1E7606802EB5001F1E7DF
:105170000125A0F11001B14202D82168C86000E009
:105180000125002020666066284670BDF369FFEFA8
:1051900000100140903802400044004000480040A8
:1051A000004C0040005000400014014000780040D6
:1051B000007C00400048E8010024F4002DE9F0479D
:1051C0001F4690460E460446089D4FF0000A4FF0D9
:1051D000200937E0681C35D0FDF750F8C01BA84205
:1051E00021D805B32068016849072BD5C069C043A1
:1051F000000527D421684FF4006008622068016828
:1052000021F4D07101602068816821F00101816082
:10521000C4F87490C4F87890C4F87C90032084F8A3
:1052200070A0BDE8F0872068016821F4D0710160AA
:105230002068816821F001018160C4F87490C4F88D
:105240007890EBE72068C06936EA000004D00020BF
:105250004045BFD00020E4E70120F9E7FEE7000069
:105260001CB500F062F81E20FCF7A8FE002000909C
:105270004FF480710346024601903820FFF786FC08
:1052800000F06FF800F03CF80446014607A0FBF779
:1052900087F9A4F56F40183802D04FF4005001E0B0
:1052A0004FF44050BDE81C4000F006B85732355F5F
:1052B00049443D25780D0A0000B591B04FF4407186
:1052C0000EAA0390002006910B2100914FF440613B
:1052D000CDE90710890309910F9008210B900C90DC
:1052E0000D900E90054805916946FDF73BFE00289C
:1052F00001D0FBF74FFE11B000BD000048040020B4
:105300000EB54FF040714FF400508B13CDE9000102
:10531000002209149020FFF739FC022102A8FFF7B0
:1053200021FCBDF8080040BA0EBD3EB502200024A5
:10533000C5012346224629468DF808000620009420
:105340000194FFF723FC2804294600231A46CDE9DF
:1053500000403120FFF71AFC012102A8FFF73AFCB8
:105360003EBD0EB5302001058DF808000020034633
:105370000246CDE900010914C020FFF707FC012116
:1053800002A8FFF727FC0EBD002809DB012100F071
:105390001F0291404009800000F1E020C0F8001198
:1053A000704730B50468256825F440350D43256005
:1053B00001684C6B24F0070414434C630068016CD3
:1053C0006FF30D0119430164002030BD00280DDB8F
:1053D000012100F01F0291404009800000F1E0200F
:1053E000C0F88011BFF34F8FBFF36F8F704709076D
:1053F000090E002804DB00F1E02080F8001470475B
:1054000000F00F0000F1E02080F8141D704700004C
:10541000024800684068016849690847080300209D
:10542000FBF71EFA144800B58BB00078C0071FD1F7
:10543000114806F027FDD8B10020104A3F210692FE
:105440000122CDE907100E490A230990CDE9022077
:10545000CDE904010421CDE900010A490A4801F01F
:1054600043FD0A4A0A49FBF706FA0348AFF30080F6
:105470000BB0054800BD00009C0000209043009048
:105480008CE10008B8430090EC9500200000000873
:105490002D6F0008144800B58BB00078C00720D1EC
:1054A000114806F0EFFCE0B1104A002006923F21BF
:1054B0000F4A1423CDE9071001210990CDE902100C
:1054C000CDE9041204211122CDE9000109490A485D
:1054D00001F00AFD094A0A49FBF7CDF90248AFF38A
:1054E00000800BB0044800BDA00000209443009051
:1054F00090E10008C84300901096002000000008CA
:105500002D6F0008144800B58BB00078C00720D17B
:10551000114806F0B7FCE0B10020104A3F21069286
:105520000F4A2823CDE9071001210990CDE9021087
:105530000420CDE904120922CDE9001009490A48E6
:1055400001F0D2FC094A0A49FBF795F90248AFF38A
:1055500000800BB0044800BDA4000020B4430090BC
:1055600094E10008B8440090349600200000000840
:105570002D6F000810B5094C074820602046FCF745
:1055800082FC07480849A0610648E0614FF080604E
:10559000C1F8000110BD000000B002404803002027
:1055A000115400082154000808E000E040F2EF1018
:1055B000704700002DE9FC47086800264FF40037CB
:1055C0000C4620280DD040280BD0042809D00021FB
:1055D000802889464FF4807A01D0504503D10120BC
:1055E00002E00121F4E70020804602F0CBF80168D8
:1055F000096A884705462068402810D004DC042842
:105600000AD0202820D10AE0802803D050451BD1A1
:10561000092604E00A2602E0102D18D0012645498B
:10562000102D4F6016D04FF001008860E08A8A4646
:10563000228AA0EB0200C860E18A208AA1EB000365
:105640000BD14FF002020AE04FF00007E4E74FF001
:105650000206E4E74FF00200E7E74FF001023548A9
:105660003946FFF79EFECAF83C605046A18A228A5E
:10567000891ACAF8381059EA080620D0217FFF2974
:1056800004D202210164217F416401E00021016410
:10569000B8F1000F06D0102D22D0227FA16941EA77
:1056A00002614164E18A228A891A0162102D36D092
:1056B00001212048CAF824100021FCF7BFFA1D4838
:1056C0000121FCF7BBFA66B3618A208ACDE90001AB
:1056D000E268184861681346FCF756FABDE8FC8793
:1056E000218B1F274FF03F0C89B2CA0AC2EB02225E
:1056F000B2FBF7F3C1F3451201F01F01C2EB022226
:10570000B2FBFCF2C1EB0121B1FBF7F1277F3F06B1
:1057100047EA034343EA02220A434264C2E7022102
:10572000C7E7608A0090238A0248E2686168FCF754
:1057300013FCD3E7480300202DE9FC470C4602F098
:1057400021F80168096A88471028064625D04FF0DD
:105750000100814624D1208B4FF01F034FF03F05FD
:1057600080B24FEAD021C1EB0121B1FBF3F2C0F3CB
:10577000451100F01F00C1EB0121B1FBF5F1C0EBB9
:105780000020B0FBF3F0237F4FEA036343EA0242B9
:1057900042EA012747EA000706E04FF00200D8E797
:1057A000217FA06940EA016720684FF4003A082889
:1057B00016D04FF440352C49102E4D6012D04FF0CA
:1057C00001008860E08A8846228AA0EB0200C86057
:1057D000E08A218AA0EB010307D14FF0020206E024
:1057E0005546E8E74FF00200EBE74FF001021E4894
:1057F0002946FFF7D6FD554517D141460120C1E99D
:1058000010070920C8F83C00E08A228A801AC8F8EC
:105810002000102E07D00120C8F8240012480021D3
:10582000FCF70CFA04E00220F6E70021C8E90E19A3
:105830000D480121FCF702FA55450BD1618A208AF7
:10584000CDE90001E16808480B460A46FCF79CF9DF
:10585000BDE8FC87608A39460090238A0248E268E6
:10586000FCF77AFBF4E70000480300200168896A2E
:105870000847000000F10C0110B50B464160002103
:105880000172417260220749016000F1200118464F
:1058900001F0E8FC044960232022143006F0E0FA0D
:1058A000203810BDCCE400089588000810B50446E7
:1058B000074820600748FCF71BFA07494FF0806053
:1058C000C1F88001BFF34F8FBFF36F8F204610BD2B
:1058D000CCE400084803002008E000E000F088B8AD
:1058E0007047000010B500F08FF80149016010BD4D
:1058F0001CE500080149016070470000D0EB00087A
:1059000000F024B97047000010B500F02BF90149F0
:10591000016010BD50E500080149016070470000BA
:10592000D0EB000800F016BA00F02EBA00F035BA3D
:1059300000F035BA00F03CBA00F044BA00F04EBABC
:105940007047000000F12C0100F1140210B5C0E90D
:10595000012100F5BC73154900F58E740160C0E9A2
:105960000343104601F02EFC114940F8181B01F0CA
:1059700029FC104940F8F01B01F024FC02460E48B7
:1059800002F5D671106002F15C00A2F58E7200F093
:10599000BBF900F5A87000F0F8FAA0F53274A0F594
:1059A000A87000F03BFA204610BD000038E6000861
:1059B00070F100083CF10008A4F10008084910B596
:1059C000016000F5BC7000F0D9FA5C3801F002FC0F
:1059D000F03801F0FFFB183801F0FCFB143810BD63
:1059E00038E600080048704714E1000802207047BC
:1059F0007047A430814210B505D100F05DFBBDE8D1
:105A0000104000F045BA10BD2DE9FF4103F014FA33
:105A100045490025C56340F8401B03F065FA43493A
:105A2000FF24016080F82640856280F82C503030D9
:105A300003F05AFA3E494FF6FF760160C68485624C
:105A4000858580F82E4080F82F5080F8305080F8FF
:105A50003150343003F048FA8562012280F82C502E
:105A600000F1340780F824203249334A0160394676
:105A7000C685068680F83240A0F1A404D2E900323F
:105A80002E4E4FF4F070C1E90232C7E900640022E3
:105A9000009004F1400011464FF44873804603F033
:105AA00042FAFF2246460020114602F031FEB06263
:105AB00004F17000D82240F22311064603F0C9FA1F
:105AC00000221146104602F023FEB0623046B58532
:105AD000ADF800500099ADF80C5005F01CFADB222F
:105AE00040F2F62104F1A40003F0B3FA0120ADF86E
:105AF000080002AAADF8045001A904F1A40002F0C4
:105B0000CCFE201D4146C4F8CC7005F0E4FA201DFF
:105B1000314605F0E0FA201D04F1A40105F0DBFA9E
:105B200004B02046BDE8F0814CE60008F4E9000826
:105B3000CCEF000860EB000884E100086CEC000882
:105B40000149016002F0D8BD4CE600087047703092
:105B5000814210B505D100F0AFFABDE8104000F069
:105B600083B910BD2DE9FF4703F066F946490025CA
:105B7000C56340F8401B03F0B7F94449FF260160B4
:105B800080F82660856280F82C50303003F0ACF944
:105B90008562012280F82C504FF6FF773C4980F84F
:105BA00024200160C785078680F83260343003F016
:105BB0009BF93849A0F1A4040160C78485628585FA
:105BC000354A80F82E6000F1340680F82F503146B7
:105BD00080F8305080F831504FF4F070D2E9003244
:105BE0002E4FC1E90232C6E900740022009004F190
:105BF000400011464FF44873074603F094F9002221
:105C0000FF21104602F084FDB86204F17000DB222F
:105C100040F2F621814603F01CFA0120ADF808009D
:105C200002AA484601A9ADF8045002F036FEE4226B
:105C3000C4F89860EF2104F1A40003F00AFA0022EE
:105C400004F1A4081146104602F062FDC8F82800CD
:105C5000D02005530120ADF800000099ADF80C00EC
:105C6000404605F058F9201D394605F034FA201D4C
:105C7000494605F030FA201D414605F02CFA04B0E3
:105C80002046BDE8F087000080E60008F4E900083F
:105C900060EB0008CCEF00087CE1000884EC000811
:105CA0000149016002F02EBD80E600087047704790
:105CB000034A00238360026018324260C16070476B
:105CC000B4E600087047704770470000034A00239D
:105CD0008360026018324260C1607047DCE60008F1
:105CE0007047022070470000004870475896002017
:105CF00010B50446D0F84C0100F046F92046BDE846
:105D0000104000F06DBA000010B500F0F9F801493C
:105D1000016010BD04E700080A4B10B5B3F900405C
:105D20000948641C03D1B0F90040641C07D0B3F9E2
:105D300000300B60B0F900001060012010BD0020A1
:105D400010BD0000DC000020DE000020FBF7A4BA3C
:105D50007047000070B5044601F068FB00F0ACF934
:105D600001462068C26C20469047206800234FF00F
:105D70005041044A456F2046A847002084F84A0055
:105D800070BD000000B80BD05A2010B5FFF7FCFA28
:105D9000BDE810405820FFF7F7BA01F0EDBB5A20DC
:105DA00010B5FFF713FBBDE810405820FFF70EBBFE
:105DB00003480160012002498839086070470000EB
:105DC000AC68014009215A2010B5FFF710FB0921EA
:105DD000BDE810405820FFF70ABB00000C480068DF
:105DE0000C490B4AC0F30A00401E121D80B2088005
:105DF0001268C2F30A02521E4A8005493431086013
:105E000003482830016841F001010160704700003B
:105E10000C68014014000020704700007FB5044664
:105E200007482146D0E90223684608F0D5F8014624
:105E300004F59C70054603F06FF8C4F834517FBD3B
:105E40003CE1000808B5D0F84C11054B009100F575
:105E50009871D0F84821034807F0E8FC08BD00001D
:105E6000BC020020B80200207FB504460748214646
:105E7000D0E90423684608F0AFF8014604F59C70A9
:105E8000054603F049F8C4F834517FBD3CE10008F1
:105E90007FB5044607482146D0E90623684608F046
:105EA0009BF8014604F59C70054603F035F8C4F8EC
:105EB00034517FBD3CE1000808B5D0F84C11054BCA
:105EC000009100F59871D0F84821034807F006FDCD
:105ED00008BD0000BC020020B802002008B5D0F8C0
:105EE0004C11054B009100F59871D0F848210348FA
:105EF00007F04AFD08BD0000BC020020B8020020E7
:105F000070B515460E4600F0EBFB174A04461549DE
:105F10000021C0F83011C0F834111060134A02603B
:105F200000F59C70124AC0E900211249D1E90E2106
:105F3000C0E90221C4E952560F4D286801688A68F9
:105F400000219047002002F0FDFB286890F87610B1
:105F500009B1C16C01B98168084603F0EEFE204624
:105F600070BD0000A0E80008C00200206CE7000837
:105F70009CEC00083CE10008080300200149016096
:105F8000704700006CE7000870470021016070470F
:105F900030B5044C039D04600171C28003814581CA
:105FA00030BD0000A8E7000803220021012010B541
:105FB00006F04CFE074CA06020B100231A4619469B
:105FC00006F0B0FE01210022084606F03FFE6060A8
:105FD00010BD0000180000200B4808B540680028DC
:105FE00011D0002100910B4607496A4606F054FF84
:105FF0000098002807D005494FF080500860BFF393
:106000004F8FBFF36F8F08BD1800002004ED00E034
:106010000749002210B50C46606806F0F9FF606879
:106020002146BDE810404FF0FF3206F0F1BF0000FE
:1060300018000020034800231A461946806806F01D
:1060400071BE00001800002002484FF0FF31806848
:1060500007F080B81800002002480021806807F08F
:1060600079B800001800002008B5002069460090AB
:106070000748806806F076FF0098002807D0054999
:106080004FF080500860BFF34F8FBFF36F8F08BD94
:106090001800002004ED00E0704741607047704731
:1060A00070470000024901600021416001727047A1
:1060B000BCE70008704700000148C0687047000056
:1060C000B402002003484068002802D00268926AA7
:1060D00010477047B402002077B587B0064608A87D
:1060E00005F0E1F900286ED1B6F8E84006F1A80500
:1060F000ECB3641E55D4A0B205EBC000016800915A
:1061000008A940680190684605F0D5F900285AD1E1
:1061100008A8694605F0CFF928B1A2B2294602A81D
:1061200007F0F5FEE5E708A9684605F0E9F948B18A
:10613000A2B2294602A807F0EAFE08A8694602F0C2
:1061400043FAD6E7DDE90801CDE9020102A8694674
:1061500002F03AFABDF82400BDF82610BDF806207A
:1061600010FB01F0BDF8041011FB020200E018E082
:1061700002EB420000EBC201BDF80C00BDF80E209E
:1061800010FB02F000EB800040008142B1DDA2B2C2
:10619000294604A807F0BBFEDDE90201CDE90801AC
:1061A000A7E7B6F8E800082808D10722294668467C
:1061B00007F0ADFE08A8694602F006FADDE908120C
:1061C000284607F0C8FE0AB070BD000003484068CA
:1061D000002802D00268D26910477047B40200203C
:1061E0002DE9F0413B4D04460026A86808B1017A2C
:1061F00019B194F82D1129B113E084F82D610168CB
:10620000896862E068B1007A58B1686810B10168C5
:1062100009698847A8680168C9688847012084F827
:106220002D0100270BE0E01990F8880030B1B8B2DA
:10623000211D51F820000168096D88477F1CB4F8C2
:106240008400B842EFDC83B238E0E01890F88800B0
:10625000A0BB201D99B2221D52F82170002218E027
:1062600050F82210B94213D1114606E000EB810C20
:10627000DCF804C040F821C0491CB0F880C08C454F
:1062800001DD1F29F2DB1FFA8CF1491EA0F88010F6
:10629000521CB0F880109142E2DC98B206E021185E
:1062A000401C80B291F8892081F88820B4F88410CD
:1062B0008142F4D888B2204480F888605B1EC4D53F
:1062C0006868002804D00168496ABDE8F0410847C1
:1062D000BDE8F081B402002003484068002802D0E5
:1062E0000268926910477047B40200200348406872
:1062F000002802D00268126A10477047B4020020DA
:106300002DE9F04F99B0044680F82C1129B10020F6
:10631000A4F8E80019B0BDE8F08FB4F8E80098B12F
:106320000020B84E80F00105306920B106F114005C
:1063300005F0B9F850B1002DECD001A807F01AFE15
:10634000358804F1A80720E00120EAE7AD481430C1
:1063500001F030F8D6E905122046FFF7BDFE002017
:10636000009003460246014601A802F078F9016850
:1063700071614068B061E0E707EBC5000168426801
:1063800001A807F0E8FD6D1CADB2B4F8E800A84222
:10639000F2D8358804F1EA0BB24608E00BEBC500F1
:1063A000016842682046FFF797FE6D1CADB2B4F855
:1063B0002A01A842F2D89448006890F848000128C1
:1063C00006D0DFF844820228BAF8005074D0FAE010
:1063D000BAF8006000250CE0B0B207EBC0008046C0
:1063E00005F05CF8A84203DD404605F057F8054685
:1063F000761CB4F8E800B042EEDC844800880F2830
:1064000001D9C00800E00120814600200090034629
:106410000246014612A802F022F9DFF8EC8152E0B0
:10642000D1F880108847064612A805F037F848448E
:10643000B0420BDDAE4209DA12A805F02FF8B042E7
:106440003BDD12A805F02AF8002836DD12A805F079
:1064500025F8B04201DCB54200DA2E4612A805F05C
:106460001DF8361A12A805F019F8024630B200904D
:1064700067480021008803B216A802F0F0F801680E
:10648000129140681390BAF8006010E007EBC60163
:1064900012AA14A805F071F814A805F004F820B9A0
:1064A000206814A9C26A20469047761CB6B2B4F898
:1064B000E800B04207D9E9E710E0D8F80000016829
:1064C000CA6F0121904712A804F0E8FFA842D8F84B
:1064D00000000168A4DBC969884778E0DFF83491DF
:1064E00050E007EBC5004E460168149140681590D6
:1064F00099F80000012802D114A800F003FF14A8A5
:1065000004F0D1FFE0BB12A802F0B0F8BDF85000D3
:10651000B146ADF84800BDF85200ADF84A00BDF8EC
:106520005400ADF84C0014A8D8F8006004F0B6FF91
:10653000BDF84A10BDF84C30401A80B20090306867
:106540008AB2BDF84810D0F878C03046E047ADF8C0
:106550004E0099F80000012819D0206812A9C26ADB
:1065600020469047BDF84A00BDF84E100844ADF8EB
:106570004A0014A804F092FFBDF94A108842D2DC08
:106580006D1CADB2B4F8E800A842AAD81FE0DDE95E
:106590001201CDE9160116A800F00CFF206816A91B
:1065A000C26ADDE707EBC5000168129140681390ED
:1065B00012A804F078FF20B9206812A9C26A204608
:1065C00090476D1CADB2B4F8E800A842EAD8124872
:1065D000007800283FF49EAE0020A4F82A01BAF803
:1065E000004009E001A800EBC40001684268584679
:1065F00007F0B1FC641CA4B2BDF84400A042F1D87D
:1066000088E60000B40200200803002000030020F8
:10661000FE020020F8020020F90200200022A0F86B
:10662000842011464318491C202983F88820F9DB6F
:106630007047704770B50646194886B00C46002270
:106640001146008800B200901648008803B203A8E3
:1066500002F005F80246214601A804F08EFF0199D8
:10666000114D2160029A62606868002805D096F892
:106670002C3123B13046FFF72FFD06B070BD016805
:106680008A6821469047286918B101688A682146BE
:1066900090470648006801684A6921469047ECE740
:1066A00000030020FE020020B402002008030020A6
:1066B0003EB50A49044608480022098800880BB202
:1066C000114600B2009001A801F0C9FF206801A99D
:1066D000C26A204690473EBD00030020FE02002013
:1066E00070B5154900250160A0F88450A83007F066
:1066F00041FC423007F03EFC80F84250A0F1EA0431
:1067000080F843500D490E48FAF796FB00B101207E
:106710000C4E08B1358006E04FF4806030800220D6
:10672000706002F051FAF56020467560B560FFF7C1
:1067300075FF204670BD0000DCE70008CDB5E8B568
:10674000C2A507F4B40200200149086070470000A8
:10675000F402002030B5044C039D04600171C28036
:106760000381458130BD000018E800080121017255
:1067700070477047C3638260016000F059BA70B51A
:1067800000F11A040546008EA8B1A08A0A2134F847
:106790001060401CB0FBF1F201FB1200A082E08A05
:1067A000401EE082284600F034F9298B05F11200E2
:1067B000022902D003E0FAF753F80121C1803146E3
:1067C00007F01AF8304670BD2DE9F04700F11205C8
:1067D0000C460021DDF8208016E0561AB5F806C0F8
:1067E000761E34F8027BB6B2B44501D8FAF738F811
:1067F00095F804C08CEA060C0CF0010635F816601A
:10680000BE4211D1491C89B29142E6D3002600F163
:106810001A0903EB08070CE034F8025B31464846DE
:1068200006F0A6FFA84202D00020BDE8F087761C43
:10683000B6B2B742F0D80120F7E72DE9F84F9146FC
:10684000824631F8020B0C46050B31F815204A45FB
:1068500002D00020BDE8F88F00F00F082A46C0F3F0
:1068600003272146C0F303163B4650460096FFF728
:10687000ABFF50B1E81942463044394604EB4003BF
:10688000504600F01DFA0120E4E704EB450000EB60
:10689000470000EB460101EB4801D2E72DE9F84F34
:1068A0005FEA02088B46044610464FF0000927D0E5
:1068B000B8F8045001460E2204F140000090F9F7A8
:1068C000F1FF94F84D004FF4807101EA001694F83E
:1068D00047000643A5F63160F7101E2847D2DFE8CF
:1068E00000F0184646181818183A3A3A46464646EE
:1068F00046464646464646461818181818181818A8
:10690000A4F84E904846A4F85090A4F85290BDE8E0
:10691000F88F002104F11A0006F02AFF40F63361D7
:10692000884208D1DBF80000C2685846904705F05D
:1069300015FAA4F84E00F11934F84E0F084401B2CC
:106940002180009804F0F7FB14F8050C2179401A17
:1069500004F8050C30E034F8500FC01B01B2009869
:1069600004F0E9FB2088F119401A208024E0A5F505
:1069700060601B3822D0A5F560601D381ED0A5F5DB
:1069800060601F381AD0009805F0E8F9A4F84E00AE
:10699000A5F56060093840F6136A24D0554522D029
:1069A000A5F5606019381ED0A4F85290009805F043
:1069B000D5F9801BA4F850000098A8E76D1E5A4630
:1069C000ABB24146204604F0CFFB05F0C7F9A4F86E
:1069D0004E00009805F0D2F98508009805F0CEF930
:1069E00005EB501012E0009805F0C8F95545074630
:1069F00002D140F60C6500E06D1E5A46ABB241462E
:106A0000204604F0B1FB05F0B9F9381AA4F8520099
:106A1000CCE770B500F11A0605460DE0F9F720FF46
:106A2000A0880122824334F81010A280E088401E22
:106A3000E080304606F0ACFE304607F021FB68B936
:106A4000288F00280AD005F13204E9D1E6E728466C
:106A500000F00EF90146304606F09AFE304607F087
:106A60000FFB0028F3D070BD70B504461D4804F13B
:106A70001A05D0E9002012B9C3070DD060B104EBAC
:106A80006003C00701D0186882581846904700215B
:106A90000246284606F0A0FEE06BE8B10021284639
:106AA00006F066FEC0B1204600F09CF801212846A1
:106AB00006F05EFE40F63F16B0420DD1002128469A
:106AC00006F056FE01210246284606F085FE00210A
:106AD0003246284606F080FE2046BDE87040FFF7AB
:106AE0004EBE0000C80000202DE9F0411C461746AC
:106AF0000646FFF7B9FF054638682946C26838469A
:106B0000904701462060A5F560607F2805D80A46B9
:106B100039463046FFF7C2FE09E096F8550038B115
:106B2000A5F51060023803D1304600F044F820602B
:106B3000206810B105F022F928B1002086F8550030
:106B40002846BDE8F0810120F8E72DE9F0471C4612
:106B500017460646DDE90889FFF786FF05463868CF
:106B60004B4642462946D0F808C03846E047014621
:106B70002060A5F560607F2805D80A463946304672
:106B8000FFF78CFE09E096F8550038B1A5F51060C6
:106B9000023803D1304600F00EF82060206810B1B2
:106BA00005F0ECF828B1002086F855002846BDE82D
:106BB000F0870120F8E770B5044689B104F1400080
:106BC0000E220546F9F76EFE94F84D00002101EA09
:106BD000401094F8461008432946404284F8490082
:106BE000084670BD2DE9F047C56B0646002406F146
:106BF0001A0768884FEA500814E00021384606F06A
:106C0000B7FD814603462A464146304604F0B7FAAE
:106C100000280BD005EB40014A463046FFF70DFE39
:106C2000002803D02046641C0A28E6DBBDE8F08774
:106C300010B5044600206060E06020742086208348
:106C400020872046FFF7E5FE0848D0E900211AB961
:106C5000C8070AD0002908D004EB6100C90701D099
:106C600001688A58BDE81040104710BDC0000020E0
:106C7000416811B90168A1B14160017C41B1C168AD
:106C800021B10A8812B18A1CC26008E00021017497
:106C900041680A882AB1022A05D08A1C4260088805
:106CA000704700207047891C416081680A1D82601E
:106CB0000968C16019B1098809B101210174D7E7D8
:106CC0002DE9F84F88469A464245154600F11A04C8
:106CD00081464FF00A0B1BD9A5EB080087B20026AE
:106CE00009F13200009011E0E08A00B3401E80B24A
:106CF000E082A18A01440098B1FBFBF20BFB121168
:106D000034F8111006F078FD761CB6B2BE42EBD313
:106D10004146204606F04FFD5E4617E06D1EE18AB3
:106D2000ADB22046491C0A293AF8152001D9F9F7D5
:106D300097FD818A0931B1FBF6F306FB13138382B9
:106D4000C18A491CC182002106F046FD002DE5D113
:106D50004846BDE8F84FFFF75CBE10B5044600207A
:106D6000012120606060E0602074E0822083E08583
:106D70002086E0862087E063A4F84E00A4F8500047
:106D8000A4F8520084F8541084F855002046FFF708
:106D90004FFF204610BD000070B50D4604466068E8
:106DA00001684A6890470028F9D10B4E30680168A5
:106DB000496E8847FFF750F9606801688A6829467C
:106DC00090472068C16A2046884730680168096E8C
:106DD000BDE870400847000008030020002070470D
:106DE0007047704701680969084740680168096889
:106DF000084710B50446406801680968884738B9F3
:106E0000207A28B1606801684969884700202072AB
:106E1000606801680968884718B1BDE81040FFF74D
:106E200023B92068416A2046BDE81040084710B5E4
:106E3000FFF70AF9BDE81040FFF7FCB80168496C9C
:106E4000084710B50446406801680968884700286B
:106E50000BD1607A002808D0207A002805D120685C
:106E6000416A2046BDE81040084710BD70B5044691
:106E700001202072606801688969884705460068BA
:106E800020282BD008DC012828D002281BD0042879
:106E90000BD0082807D110E040281FD080281DD033
:106EA000B0F5807F1AD0F9F7DBFC2068297F826B70
:106EB000204690472068026B0BE02068297F826B98
:106EC0002046904703E02068C16B20468847206831
:106ED000426B29462046BDE8704010472068C16BD0
:106EE00020468847E6E700002DE9F04F87B081464D
:106EF0000DF1500EDDE917409EE8200C0DF1400E1B
:106F00009EE8C0110495CDE905408DE8C0114846C2
:106F100004F052F804490160C0E906AB1999016216
:106F200007B0BDE8F08F00004CE80008704770B56E
:106F300090F82C50044608790E4628B1002084F8B9
:106F40002C0018B125B109E00120F8E7002D17D079
:106F50002068416920468847002D11D030790128EA
:106F60000ED1A06A00280BD00168C96888470028A4
:106F700006D0A06A01688A682146BDE870401047C3
:106F800070BD10B50446D0F8340100280CD001685B
:106F9000C9688847002807D0D4F834010168896897
:106FA00088470020C4F8340110BD70B586B004468F
:106FB000B0F90A0000220D461146009001A8B4F96C
:106FC000083001F04CFB206801A9026A2046904776
:106FD00003A8214604F03BFD00F0D4FB016803AA9E
:106FE0002B468E6901A9B04708B94FF6FF75E584B5
:106FF00006B070BD01684A6E4FF6FE711047000082
:1070000038B5104900242346224602C02146009488
:1070100001F025FB0481012144818481C481046144
:107020004461846180F8204080F82110064940F8CE
:10703000041C4FF6FF714184FF2180F82410001FCB
:1070400038BD0000E4EC0008DCE80008704730B40C
:107050000446881800B29C4220D2002B1ED000EEBD
:10706000104A30BCF8EE400A00EE103AB8EE401A72
:1070700080EE810AF7EE000A30EE600A20EE001A78
:1070800041EE000A00EE101A01EE102AB8EEC00A16
:10709000B8EEC11A01EE200A00F002B830BC704709
:1070A000B5EEC00AF6EE000AF1EE10FA02DD30EE9F
:1070B000200A01E030EE600ABDEEC00A10EE100AB0
:1070C00000B270472DE9FF41244C0546D5E9006028
:1070D000A169E9B3A06801EBD17103AF00EB6100D6
:1070E0000390A06929680297CDE90010E36BE26A7A
:1070F000E169206800F034F80646A06969680297E3
:10710000CDE90010236C226B216A606800F028F83A
:107110000644D4E9051000EBD07001EB6000039049
:10712000A06929680297CDE90010636C626B616AFF
:10713000E06800F015F88046A06969680297CDE91B
:107140000010A36CA26BA16A206900F009F800E0AE
:1071500000E04044C5E90060BDE8FF81B096002032
:10716000F0B501240028DDE90565DDF81CC001DA71
:107170004042A41E002E01DA76426442002D01DA5C
:107180006D426442DCF800E046FA01F77A4303FB03
:1071900007E301278F407F1E3740784390FBF5F1CE
:1071A00005FB110190FBF5F0194491FBF5F3184430
:1071B000104491FBF5F2604305FB1211CCF800106E
:1071C000F0BD00000249016000218180704700008D
:1071D0009CE90008704710B50446D4E90320801AE2
:1071E000002801DCA368184401280DD9606800EB71
:1071F00042101F22F9F79BFBD4E90210401C814288
:1072000000D8401AE06010BDF9F72AFB10B504461B
:10721000006801682046884708B1F9F721FB20691A
:10722000A168401C814200D8401A206110BD41680D
:10723000006901EB40107047D0E90321891A002949
:1072400001DC80680144012901DC01207047002035
:107250007047D0E90310814201D10120704700201E
:1072600070470000034B0360C0E901120021C160B8
:1072700001617047D0E9000870B516460C46054616
:10728000FEF71AFFFFF7CAF9306838B10168C9681C
:107290008847306810B1016809688847286810B1CC
:1072A000016849698847206810B1016849688847C2
:1072B000286810B10168096888472068002804D050
:1072C00001688968BDE87040084770BD70B5044624
:1072D00000680E461546C168204688473068016838
:1072E000304688472946204601F0E9FA28680169B6
:1072F00028468847FEF7E0FE0168896ABDE87040CD
:107300000847000008491CB500240A880749098875
:10731000ADF80040ADF80420ADF80240ADF806101D
:10732000694600F005F81CBDFE02002000030020A5
:1073300010B504460A48007800280FD001280DD166
:107340002088A28810440A46401E2080A11C2046A6
:1073500000F01EF8A088E188A180E08010BD000048
:10736000F80200203CB5084A00251388074A128815
:10737000ADF80050ADF80430ADF80250ADF806207D
:107380006A4600F005F83CBDFE0200200003002024
:10739000074B10B51B78002B08D0012B06D10388B2
:1073A0000C8804809088C01A401E088010BD000020
:1073B000F8020020094910B5097800290DD00129EB
:1073C0000BD1074C4388C188028824880B44E31AF8
:1073D0000380428082888180C28010BDF802002034
:1073E000FE020020074A10B51278002A09D0012AAF
:1073F00007D1054C0B8802882488E31A5B1E0380A2
:107400000A8010BDF80200200403002004494978D6
:1074100021B190F86A0008B1002070470120704740
:10742000F8020020406801688969084710B50446E1
:10743000FEF7BAFD60680168C9688847E0680168BE
:10744000896888472068C16D2046BDE8104008471C
:1074500040680168096808472DE9FF4F89B08846F0
:1074600004466846DDE91665DDE91A97DDE918BAD4
:1074700001F010FACDE90078ADF810602046ADF8C3
:107480001250ADF814B08DF81C9000F0DDF8DDE975
:107490000B120346204603F05BFF0390104840891F
:1074A000ADF8160000F06EF90168496A88478DF85A
:1074B0001E008DF81D003EB135B12068016B2046DD
:1074C00088470099084201D1F9F7CAF9CDF818A008
:1074D000606801684A68694690470DB0BDE8F08F62
:1074E000F802002010B5044600F04CF82068D0F8EF
:1074F00090102046BDE810400847000010B5044633
:107500000A48407858B994F84800022807D06068C3
:10751000FFF76BFC18B16168487A0028FCD0FEF7D1
:1075200093FD2046BDE8104000F08EB8F802002020
:107530002DE9F04F89B0834612A81C4615468A46AD
:1075400090E8C00300F01EF90168496A8847094ABB
:10755000012302215289CDE90532CDE907108DE8DA
:10756000D00300222B465146584600F026FA09B0B7
:10757000BDE8F08FF8020020012180F84B1080F860
:107580006910704710B5044690F86A00002812D0C0
:10759000022001F018F8002084F86A0084F86900DD
:1075A000204600F051F801462068D0F89C20204683
:1075B000BDE81040104710BD416801224A72406882
:1075C0000168096908474FF6FF707047FEF732BD42
:1075D0002DE9F04188B01C460F4616460546684620
:1075E000DDF8388001F056F9012000902868816AA2
:1075F00028468847B9B203463A0C284603F0A8FE4D
:107600000190300CADF81060ADF812000D480394F5
:107610004089ADF81400ADF8168000F0B3F80168A9
:10762000496A88478DF81D008DF81E00FF208DF8EF
:107630001C00686801684A686946904708B020469F
:10764000BDE8F081F802002010B5044606484078F5
:1076500040B12068816A20468847E16B884201D1A9
:10766000206C10BDE06B10BDF802002081651C305D
:1076700001F08CBD80F87410012180F875107047FE
:107680002DE9FE430F460446806998460A9916463E
:1076900080B30022029202AACDE9001201683246AC
:1076A0000D683946A847154D8146A5F80A8000F0B7
:1076B00069F80168496A88470D2818D2DFE800F0A8
:1076C000070F1B1B1B1B1B1B1B1B1B1B1B0068898A
:1076D000029906FB0070404201EB400006E0688919
:1076E000029906FB0070A0EB80000844E063484666
:1076F000BDE8FE83FFE7F9F7B3F80000F8020020C9
:1077000010B529B13C3080E80E001AB1012002E02A
:10771000F9F7A6F80020044908700BB1012000E039
:1077200000200249087010BDF9020020FA02002072
:10773000F0B50F4B104C124D90F874C090F834E037
:107740000C4F0E4EF445198820882A7807D0002A5D
:107750000DD13980308021801880012006E0002A78
:1077600005D0388031802180188000202870F0BD3D
:10777000FE0200200203002000030020040300207A
:10778000F80200200448016891F8760010B1C86C36
:10779000002800D18868704708030020FEB5044621
:1077A0000068D0F8941020468847594E00250028DC
:1077B0007ED0012000F005FF94F8660084F8670091
:1077C00084F8665084F84B5094F8750030B1206806
:1077D000D0F8A8102046884784F8755094F84A00DD
:1077E000616868B1002048720127F770FEF764FCF9
:1077F00001680A6B0121904794F8670010B103E01B
:107800000120F0E784F86770FEF756FC01684969CB
:10781000884754F8580F016809698847E07B401E83
:10782000C0B2E073217C583C09B10028ECD130791A
:10783000401C40B2307194F96410814214DC3571FF
:107840006A46E0680168CB6801A99847002820686B
:1078500006D0DDE90021D0F8A0302046984703E0AB
:10786000D0F8A410204688478DF80850606950B1C0
:107870000168CA6802A9904728B1A06D0168CA686A
:107880009DF80810904704F11C0001F081FC94F869
:107890006C0068B320690168096988470746206F52
:1078A00000B92767206F1B49381A884220D900E0A9
:1078B00024E02069016889698847216F7A1A642168
:1078C000B2FBF1F2B0FBF2F0002802DC84F86510A4
:1078D00008E0642802DB84F8655003E0C0F164002E
:1078E00084F8650020690168CA690021904727670C
:1078F000FEF7E2FB01680A6B002190472068D0F890
:10790000981020468847012000F05CFEF570FEBD0F
:10791000F802002000E1F50510B586B0044603A882
:10792000CDE90312FFF7CEFB039802A9ADF80400DE
:107930000498ADF8080001A8FFF754FD94F86B1007
:1079400004F11C000029BDF8081016D089B200917E
:10795000BDF804108BB2B4F860108AB2B4F85C10B1
:1079600089B201F089FB002805D0BDF90400E0656B
:10797000BDF90800206606B010BD8BB2BDF804103A
:107980008AB2002101F0B8FB012084F86B00ECE71B
:1079900010B5044690F86B0000280DD0B4F86000D4
:1079A000012183B2B4F85C0082B204F11C0001F042
:1079B000A3FB002084F86B0010BD2DE9FF4F8BB0B6
:1079C000054602A8DDF87880DDE91C49DDE91F766F
:1079D000DDE919BA00F05EFF022F08D0FF2C02D3B8
:1079E000B9F1000F01D0042009E0012007E0FF2CCD
:1079F00002D3B9F1000F01D0402000E02020029016
:107A00000C9803900D9804901B98ADF818B0ADF841
:107A10001AA0ADF81C0028468DF82440FFF714FE8C
:107A2000189A03460E992846CDE9008603F0AAFC71
:107A30008DF82570BBF1000F0590ADF81E808DF814
:107A4000266009D0BAF1000F06D02868016B2846DD
:107A500088470299084201D1F8F702FF6868016877
:107A60004A6802A990470FB0BDE8F08F2DE9FF4F9B
:107A700089B08B4616A91C46154691E8C007FFF74A
:107A800081FE0168496A8847074900222B464989D7
:107A9000CDE90610089059468DE8D0070998FFF700
:107AA0008CFF0DB0BDE8F08FF80200202DE9F04703
:107AB00086B004460EA8984691468A4690E8E000B3
:107AC000FFF760FE0168496A8847084943464A460D
:107AD0004989CDE903108DE8E00020685146456CE6
:107AE0002046A84706B0BDE8F0870000F802002055
:107AF0002DE9FF4F8BB08946054602A8DDF860B03E
:107B0000DDE91B64DDE919A700F0C4FEFF2F01D2F7
:107B1000082000E002204FF00008CDE902082846C6
:107B2000FFF792FDCDE90064DDE90D12034628461A
:107B300003F028FC8DF82470ADF818B0ADF81C8067
:107B40008DF825400590ADF81AA0ADF81E60CDF86F
:107B500020908DF826402868016B284688470299B6
:107B6000084201D1F8F77CFE686801684A6802A9FA
:107B700090470FB0BDE8F08F10B50446406801682B
:107B80008968884794F86900002802D0012084F8A9
:107B90006A0010BD406801688968084710B573B372
:107BA000D007B0EBC17F04D106E012F8010B01F859
:107BB000010B5B1EF9D229E0D00704D012F8010BAB
:107BC0005B1E01F8010B012B16D99007B0EB817FEA
:107BD00007D032F8020B9B1E012B21F8020BF8D8BC
:107BE0000AE0900708D032F8020B9B1E21F8020B26
:107BF00002E001CA1B1F01C1032BFAD804E005E013
:107C000012F8010B01F8010B5B1EF9D2012010BD27
:107C1000826B002A01D0084610477047044600686E
:107C2000816E204688472068016E20468847FEF70F
:107C3000EFF92068816DF8E770B5284EDDE904455D
:107C400040C080E80E000021C160016100F118020F
:107C500041610123018341838183C1830184418484
:107C60008184917334328162818541638163C16310
:107C7000016480F8441080F8453080F84630816413
:107C8000118051809180D18080F8603080F861103F
:107C900080F8621080F8633080F8641080F8651016
:107CA00080F866100E4A80F8671080F86810C16688
:107CB00080F87110001F1060AC420A4A14800A4A12
:107CC00015800A4A11700A490C800A490D8001D2B8
:107CD000012100E0002180F8341070BD5CEA00084A
:107CE00008030020FE02002000030020F80200200C
:107CF00002030020040300200FB40A497CB5D1E937
:107D000000411A460A9B0CAD00EB6100C90701D087
:107D100001680C5901950B99009107A9A0477CBCFB
:107D20005DF814FBD000002010B5002A044688B08E
:107D300018D0012A18D0022A24D0032A12D1B4F96B
:107D400004000090C888B4F906306188C01AB4F9FC
:107D50000020401A01B205A800F081FC01682160F2
:107D60004068606008B010BDB4F9040000908988D4
:107D7000B4F90630081A2188401AB4F9021002B288
:107D800001A8E9E7B4F906000090CA88B4F9043004
:107D9000101A6288801A02B288882188C01A401A94
:107DA00001B203A8D8E770B58AB00646012415468B
:107DB0000E9881B182B2CDE9003102A82B4631463E
:107DC00000F095FB002102A800F0A1FABDF8080020
:107DD00070B1641CF6E711463046FEF745FE0A28EE
:107DE00000D1641C29463046FEF73EFE0028F6D13D
:107DF0000AB0A0B270BD2DE9FF4F0026924681B0B7
:107E0000884634463546B3461DE00499A14601989C
:107E10006B464246CDF800B0FEF766FE040014D073
:107E20000A2C12D0009868B1848803F0A7FF074697
:107E3000D8F80000009A4946C36B4046984738443A
:107E4000304486B26D1C5545DFDB05B03046BDE8D9
:107E5000F08F2DE9FF4FD7B01C468946DDE96475E8
:107E6000002F74D02068002871D0A07B00286ED02D
:107E7000106853905068002254901146B9F90600DA
:107E8000009049A8B9F9043000F0E9FBA27949A9AA
:107E900053A8FFF749FF49A9A2790846FFF744FF15
:107EA00007A8FEF75AFF20680168496C8847034617
:107EB0002A4607A8AA463946FEF75CFC1DA8FEF72D
:107EC0004CFF207900B101205FEA000809D020684A
:107ED0000168496C8847034652461DA83946FEF79B
:107EE00049FC20680168096B8847B4F90C100D182B
:107EF000002D03DDBDF94E21824201DA002602E0A9
:107F0000501890FBF5F633A8FEF727FF207C48B108
:107F100020680168496C88470346524633A83946B1
:107F2000FEF728FC217C2068BDF82821CDE900015E
:107F3000637933A94BA800F0DAFA207C60BB49E0F2
:107F4000BDF92A01B0EB450F02DA012101E0A2E000
:107F500000214BA800F0DBF9BDF83E710AE0617921
:107F600007A8FEF781FDB8F1000F03D061791DA8C5
:107F7000FEF77AFD7F1EBFB2F1D2BDF82601761E54
:107F80002844ADF82601BDF82A01401BADF82A01AE
:107F9000BDF82C0100287ED0002ED1DC1CE06179D8
:107FA00007A8FEF761FDB8F1000F074603D061791D
:107FB0001DA8FEF759FD002F7DD00A2F0AD1BDF86C
:107FC00026012844ADF82601BDF82A01401BADF872
:107FD0002A01761E002EE2DC00270DF5A67B0DF1AE
:107FE0001C0A207C002650B1BDF92A01B0EB450FD8
:107FF00001DA012100E000214BA800F088F9B8F176
:10800000000F20D0207C10B1BDF8460106E02168A9
:1080100000231DA847F6FF72FFF7EDFE217900B29D
:10802000012902D0022907D00EE0BDF92811081A53
:1080300000EBD070401004E0E27BBDF82811104442
:10804000081A06B200E0E67BBDF824013044ADF822
:108050005401207C10B1BDF83E0101E047F6FF70ED
:108060009DF84A114A46CDE9050155A9CDE9001B05
:1080700002A981E89004BDF926310021579800F04B
:108080001DF8002817D1BDF826012844ADF82601B7
:10809000BDF82A0100E00EE0401B00B2ADF82A0155
:1080A000217C09B1A84206DB53A803F0F7F9BDF91A
:1080B0002611884295DA5BB0BDE8F08F2DE9FF4FBD
:1080C00093B0DDE9204ADDF89880DDE92259504679
:1080D00003F0DFF9109000262868B8F1000F37464A
:1080E000417A1291007A1190B4F9004025980E90CF
:1080F00006D0287C042805D001200E9908440E9053
:108100000020E6E00220F8E725990020B3460D9014
:1081100088450EDB28680168496988470646286853
:108120000FAB0CAA0168D1F808C03146E0470D90AA
:108130000AE00FA90CA80DABCDE900012A68494659
:108140002498FEF702FD0646A6F57E40FF381ED0B5
:10815000A6F500500B381AD0002E71D00A2E70D020
:108160000D9808B186880DE028680168096988477C
:10817000A0F57E41FF390AD0A0F500510B3906D099
:108180000D9818B1B9F1000F02D002E000279EE06F
:108190003C440D9803F0F2FD07B2B9F1010F00D194
:1081A000E41BBBF1000F0DD02868B9F1000F0D9A48
:1081B0000168CB6B594602D09847241A05E09847CE
:1081C000044406E0B9F1000F03D0B9F1010F06D065
:1081D0000CE01198211A109881427DDC06E012987B
:1081E000E1190144BAF90000814279DB0D984FF49E
:1081F0008071427B01EA4211827911430A1990F998
:108200000910BAF900000A44824260DB0A19109989
:108210008A425CDAA0424FF0000B02DD001B1FFA1D
:1082200080FB0020009028680168C96A88470346DF
:108230000D988646427B510604D54FF47E4102E0FC
:1082400063E05EE00021007A4FF4807C0CEAC20C0F
:1082500041EA0C0101431698591A084400B20190F2
:10826000BAF9021081420DDD9EF807304FF4807C90
:108270000CEA02121A4302448A4228DB081A80B22E
:10828000CDE9000128680168896B88470DF1240C4D
:10829000AB79AA7B9DF83C108CE80E00A968089188
:1082A000DDE90C23CDE906201598CDE904A300995A
:1082B00004EB0B031BB20093CDE902B102684368E3
:1082C00013980068D0F844C0DDE91301E04708F1D5
:1082D00001000E99804600E002E08842FFF614AFEC
:1082E0009EB10A2E0DD008F1010407E024984946FA
:1082F000FEF7BAFB48B10A2803D0641C25988442D3
:10830000F4DB002017B0BDE8F08F0120FAE72DE97B
:10831000F34F83B04FF0000A0446407AD146D0466E
:108320000499554679B1032809D0042807D00128BB
:1083300005D000210228884603D000250FE0012146
:10834000F8E701250BE0032821D004281FD00021E5
:1083500001288A461DD002281BD00020814600201B
:1083600060828346A0820020009020886B460190A6
:10837000217AE2686068FEF7B7FB208058B1E18A95
:10838000491CE1820A2806D0009961B907E0012161
:10839000DEE70120E2E7218B00230A466CE0A0F52E
:1083A00000520B3ADFD10026A0F500520B3A0DD057
:1083B00088882080009803F0E1FC0646E0680168A8
:1083C000CB6BDDE900219847304486B221882046F6
:1083D00000F083F830B10199204600F07EF808B92A
:1083E000B4F818B0278BB81980B22083A18A08444A
:1083F000218A884201D9012600E00026049818B39A
:10840000B8F1000F05D175B12188204600F065F85C
:1084100048B1A08A218BA28B08441044228A904242
:108420000FD9608A68B1002E9DD0608A00289AD04A
:108430000120A077608BA18B0844608305B0BDE864
:10844000F08F00230A4634E026B3BAF1000F03D0C0
:108450003A46012311460FE0B9F1000F83D021887D
:10846000204600F03AF858B90199204600F035F856
:1084700030B101235A463946204600F01EF8DDE7A8
:108480002188204600F029F800288BD1608A002836
:10849000CAD0D3E72188204600F01FF80028F4D185
:1084A0000199204600F019F80028BDD001235A4652
:1084B0003946204600F001F855E730B5C58A448AB0
:1084C000ED1A2C444482848A2244428362188282B8
:1084D000C382028B511A018330BD202905D0A1F53A
:1084E00000500B3801D0002070470120704770B554
:1084F00004460020DDE90456208061602372667224
:10850000E56022826082A082E08220836083A08373
:10851000A0772868416928468847050019D0E06897
:108520000168CA6829469047064603F027FCA083E5
:10853000607A04280DD1E06832460168CB6B294689
:1085400098470546304603F019FCA18B284408449F
:10855000A083204670BD70B514460D462BB1012B8B
:1085600007D0022B09D0032B0CD0B0F9000008442F
:1085700070BD02F08EFF001B02E002F08AFF401B7C
:10858000401E70BDB0F90000104470BD70B51446B7
:108590000D462BB1012B07D0022B09D0032B0BD09A
:1085A000B0F90200104470BDB0F90200084470BD7B
:1085B00002F074FF001B02E002F070FF401B401E3F
:1085C00070BD7047704770472DE9F04704460D466F
:1085D000084602F068FF00283FD1204602F063FF02
:1085E00038B12888208068886080A888A080E888C2
:1085F00032E0B4F90000B5F90010884200DB08460B
:10860000B4F902608046B5F90200864200DB0646F6
:10861000204602F03EFF0746284602F03AFF874216
:1086200001DD204600E0284602F033FF8146204667
:1086300002F034FF0746284602F030FF874201DD92
:10864000204600E0284602F029FFA4F80080801BA5
:108650006680A9EB0801A180E080BDE8F08710B535
:10866000029C018042808380C48010BD0021018073
:1086700041808180C18070472DE9F04188460446E1
:1086800002F03EFF88B3B4F90050B8F9000085420B
:1086900000DC0546B4F90260B8F90200864200DC4D
:1086A0000646204602F0F5FE0746404602F0F1FE7F
:1086B000874201DA204600E0404602F0EAFE401B15
:1086C000A080204602F0EAFE0746404602F0E6FEA1
:1086D000874201DA204600E0404602F0DFFE801BC0
:1086E000E08025806680BDE8F081FFE700202080E3
:1086F0006080A080E080F6E70149016070470000DB
:10870000D0EB00080149016070470000D0EB000881
:1087100070B505460A48006828B190F8763023B154
:10872000C46C1CB901E0F8F79BF8846813460A464C
:1087300029462068C66A2046B446BDE870406047B6
:108740000803002070B5002822D11249114A121FD7
:10875000096841B10B680B4493604B680B44D360CC
:108760008B685C1806E00C4991600C490968D1607F
:108770000B490C68002C0BD01080FDF7B5FA0546AC
:10878000FDF7AFFA07490C6007490D6007490880FB
:1087900070BD0000AC0000204045009098E100084A
:1087A0009845009010030020180300201C030020AF
:1087B0001D4A70B51369002B35D051884FF6FE76EF
:1087C000908801444C1C34408D00C0EBC000640014
:1087D0002B44536140002344D3600344936100233E
:1087E0001380166A751B2C1B201AD06118464FF691
:1087F000FF74D38006E0156945F82030556925F8E7
:108800001040401C8842F6D3D368002008E0C0EB3B
:10881000C001401C03EB41010C7B24F020040C73CD
:1088200091888842F3D370BDD0020020F0B4044692
:1088300007481546049E8268002A07D184603246A4
:1088400041802846F0BC194600F004B8F0BC7047DF
:10885000D002002010B50E4CA369002B16D10029C0
:1088600014D092B2A28063881344C2EBC20203EB1D
:1088700043035B0003EB42028A4201D3F7F7F0FFA8
:1088800021622061BDE81040FFF792BF10BD0000DB
:10889000D002002000228261704770B5044608882B
:1088A000E0851088208604F13000054602F076FF4E
:1088B0002081284602F0CAFF608170BD70470B46D8
:1088C0000146091D186842691846104770477047ED
:1088D00070470000F0B50D46016B8DB004460029CD
:1088E00052D005A803F0B3F82889E18E0844A18E80
:1088F00002B2E888084401B205A802F024FEC0B123
:10890000A889E18E0844A18E02B26889084401B2A8
:1089100005A802F018FE60B900200090022103466D
:10892000024607A8FDF734FB206B01684A6C07A9D3
:108930009047216B0AA803F08AF8EA88A08EBDF858
:1089400028C00244E78EA2EB0C032A892979B5F8E6
:108950000AE03A44BDF82A60AD897044921B8DF854
:1089600008103D44ADF80C20AD1B084EA0EB0C00E8
:108970000196ADF80A30ADF80E00ADF81050206B3E
:108980000168CA6C01A990470DB0F0BD28F100083C
:10899000704700002DE9F04F0D46016B04469BB077
:1089A000287911B100287DD0A0E000287BD1624851
:1089B0000021006890F849001790A186E186179879
:1089C000401E032870DB0B28216301DD032002E039
:1089D000032190FBF1F04FF0000B5A4659461690D8
:1089E0004FF0FF3015905548008800B20090544871
:1089F000008803B218A8FFF732FE5249482201A8A6
:108A0000F7F795FF012060E01799A9F1010609FB2E
:108A100001F0169990FBF1FA53E001A900200090B3
:108A200031F8360000FB0AF00FFA80F801EBC600BF
:108A3000E988808800FB0AF007B22889384402B22E
:108A400001EB080001B218A802F07DFD68B3288987
:108A50006B46384402B2E888404401B2201D02F05F
:108A6000DCFA009909B359452AD013A802F0EFFFA8
:108A7000BDF95000BDF94C20B5F9061000EBD070DF
:108A8000BDF94E3002EB6000B5F90820091ABDF9B6
:108A9000520000EBD07003EB6000101A494300FB5A
:108AA000001003E045E01EE014E009E0159988425B
:108AB00006D20099159021638B46A4F83480E7868E
:108AC000B61C092EA9DB09F10100169981468842DE
:108AD0009ADD08E0B5F90820201DB5F9061004F16B
:108AE000300302F09AFA206B002822D0216B04A8F0
:108AF00002F0ADFF28890026E18E0844BDF812106F
:108B0000401AA18E03B2E8880844BDF81010401A3C
:108B1000297902B2009601A8FDF73AFA206B0168A4
:108B20004A6C01A990472879002802D02663A686BE
:108B3000E6861BB0BDE8F08F08030020000300208C
:108B4000FE02002040E4000830B50C46016B85B001
:108B5000054600291FD003A802F079FF2089AB8EBB
:108B600022791844BDF80C30E188C01A6389EC8E74
:108B70008DF804202344BDF80E40ADF808001B1BFF
:108B8000064C0094ADF80610ADF80A30286B016869
:108B90008A6C6946904705B030BD000018E80008AF
:108BA0001CB50A46044600F10801684602F0E5FCDF
:108BB00094F83800694618B1204600F02BF91CBD26
:108BC000201D03F09CF81CBD3EB504460848002259
:108BD0001146008800B200900648008803B201A840
:108BE000FFF73DFD206801A98268204690473EBD01
:108BF00000030020FE020020F0B58DB014460646AA
:108C00000D46084602F04FFC00287CD102E0E469E2
:108C1000002C78D0204600F0FCF9294602F070FCC8
:108C20000028F4D0E06900286ED001A8FFF71EFDEF
:108C300020682146C26805A89047204600F0C9F97F
:108C4000BDF81610084407B2204600F0AFF9BDF891
:108C500014103A46BDF91830084401B2BDF91A00A3
:108C600000900BA8FFF7FBFC01462A4609A802F07A
:108C700084FC204600F0CDF909A9024607A802F0BD
:108C80007CFCDDE90701CDE90101BDF90400B5F97E
:108C90000010884213D1BDF90600B5F902209042B8
:108CA0000DD1BDF90800B5F90420904207D1BDF9F6
:108CB0000A00B5F90620904201D1012000E0002011
:108CC00090F0010F7DD0BDF8080000287ED0BDF8DF
:108CD0000A0000287AD0BDF90600B5F902209042BA
:108CE0000EDDBDF80600801A00B20090B5F9043020
:108CF00005A8FFF7B4FCE26905A93046FFF77CFF41
:108D0000BDF9040001E080E05BE0B5F900108842A5
:108D100010DDBDF90A000090BDF80400BDF9062081
:108D2000401A03B205A8FFF79AFCE26905A930468C
:108D3000FFF762FF284602F0ACFB074601A802F0ED
:108D4000A8FB87421ADD284602F0A3FB074601A8CC
:108D500002F09FFB381A07B201A802F09AFB014605
:108D6000BDF90A00BDF906203B46009005A8FFF7B3
:108D700076FCE26905A93046FFF73EFF284602F07F
:108D80008DFB074601A802F089FB874219DD2846C2
:108D900002F084FB074601A802F080FB381A07B2F4
:108DA00001A802F07BFB00970246B5F9043005A844
:108DB000B5F90010FFF753FCE26905A93046FFF74B
:108DC0001BFF204600F025F9024600E01FE003A843
:108DD000294602F0D2FB03A802F065FB002814D15B
:108DE000204600F0E3F8BDF80C10081AADF80C00AE
:108DF000204600F0EEF8BDF80E10081AADF80E008F
:108E0000206803A98268204690470DB0F0BDE26952
:108E10002946D3E738B505460C4600206A4600903F
:108E2000281D02F02CF9009A002A03D0214628467A
:108E3000FFF7E2FE38BD00002DE9F8431D4900258B
:108E400001602B461C492A4641600830294600959E
:108E5000FFF705FC0830FFF709FC85600121C560BC
:108E6000A0F110040561261D0576144A417640F8EC
:108E70000C2C2A46C56105628584C58480F82810BB
:108E800011460F48008807B20E4800880FFA80F894
:108E90006068436B3046984730683946826B30468D
:108EA000904730684146C26B304690472046BDE847
:108EB000F8830000D0EB0008E4EC00089CF0000808
:108EC000FE020020000300200149016070470000FD
:108ED000D0EB000890F82510002904D090F8241059
:108EE000002900D01860704730B500258580C58006
:108EF0000121058145818581C581058245824561C4
:108F00008561C56180F8245080F825100149016011
:108F100030BD000004EC00084A684260D1E902213B
:108F2000C0E9022170472DE9F041044600681F4660
:108F3000069E456B2046A84720683946826B20462E
:108F4000904720683146C26B2046BDE8F04110478B
:108F50001FB5044651EA020027D0D4E90103CDE948
:108F60000003E088104402B2A088084401B22068DF
:108F7000436B20469847D4E90101CDE902016069BD
:108F800038B101680A6969469047606901680A69F1
:108F900009E0FDF791F80168CA6A69469047FDF754
:108FA0008BF80168CA6A02A990471FBD1CB5044628
:108FB000B0F92000401C09D12146684602F047FD67
:108FC000BDF800002084BDF802006084B4F92000E0
:108FD0001CBD1CB50446B0F92200401C09D1214635
:108FE000684602F034FDBDF800002084BDF80200A0
:108FF0006084B4F922001CBD4FF0FF3181810184EF
:1090000041841168C16110607047704770477047B4
:1090100070473EB50446B0F90C00401C12D1B4F9BB
:109020000A000022B4F908301146009001A8FFF7A9
:1090300016FB206801A9026A20469047DDE901017C
:10904000C4E9030104F10C003EBD81807047C1807A
:10905000704770B5044600681546C36A20469847B5
:1090600020682946036B2046BDE8704018470181FF
:1090700070474181704700002DE9FF410446808818
:109080000F4690460A9E0022E1881D468DF8042076
:10909000184BADF80600281AADF8081000B200937E
:1090A000ADF80A50ADF80C6004F02CFFA18A88429C
:1090B0000ADCBDF80C00BDF80810401A00B204F03C
:1090C00021FFA18A884212DD206901684A68694649
:1090D000904700202081E81B6081A6EB0800A0815A
:1090E000A5800120E680A07304B0BDE8F0810020D7
:1090F000FAE7000028F10008F0B501291E4687B004
:1091000017460D46044603D0022D01D03DB328E09A
:10911000B4F90A20D01C07280DD3B4F906000021A9
:10912000009004A8B4F90430FDF714FB206901682D
:109130008A6804A99047B4F90C20D01C072810D3E2
:10914000B4F906000121009004A8B4F90430FDF739
:1091500001FB206901688A6804A9904701E0A780A3
:10916000E680002008498DF80850ADF80C600191A8
:10917000ADF80A70ADF80E00206901680A6801A90F
:10918000904707B0F0BD0000A8E7000801617047F4
:10919000817B002909D00189491C89B201810729F5
:1091A00003D90021418181818173704738B50C78E2
:1091B000049D14F0FF0407D0012C09D0022C02D129
:1091C000009500F0E3F838BD009500F09DFB38BD38
:1091D000009500F0D3F938BD2DE9F04F89B0044671
:1091E00008681E460D460490486805901068069071
:1091F0005068079004A8FEF785F806A82946FEF7F0
:1092000097F8BDF81420BDF81A10BDF918005D4F8D
:1092100012FB0102BDF91C5004EB8204BDF81020C2
:109220001044ADF81800BDF812000844ADF81A005B
:10923000BDF91E00019038680168096B8847FF2E50
:1092400017D04006002816DA019AABB2386892B2FD
:10925000BDF81410CDE90216CDE900320168BDF861
:109260001A30BDF81820CD6B2146A84709B0BDE8DB
:10927000F08F8006E6E7434800680168096A88477E
:109280004149BDF91A30BDF91820098801FB0321B5
:1092900000EB410000215EE000234EE02268110E49
:1092A00048D0FF2901D1FF2E5FD0D7B2009716FB1F
:1092B00001F1C2F307484FF0FC0CC2F3072B028800
:1092C000F82701EB1121491C07EA12270CEAD20A00
:1092D000D206C1F307214FEA126E18FB01FCC1F15F
:1092E000FF0217FB02C74FF4784CBFB207EB1727FA
:1092F0007F1C3F0A0CEA07281BFB01F74FF4FC6CAC
:109300001AFB0277BFB207EB17277F1CC7F30727AB
:109310000CEAC70748EA0708009F17FB01F11EFB8C
:10932000021189B201EB1121491CC1F3072148EA5E
:10933000D1010180801C5B1C241DAB42AEDB1249B5
:109340000988491B00EB4100BDF91410491B04EBCF
:10935000810409F10101019A894691429CDB094887
:1093600000680168496A884780E74FF478414FF404
:10937000FC6701EA122107EA52173943C2F3C4021B
:109380001143D6E708030020020300202DE9F04F27
:109390008DB00546088814468846169E022801D0DE
:1093A000F7F75EFA002E62D02068099060680A9094
:1093B00018680B9058680C9009A8FDF7A3FF0BA83C
:1093C0002146FDF7B5FFBDF82820BDF82E10BDF9E8
:1093D0002C00684F12FB0102BDF932A05419BDF8F0
:1093E0002420BDF930501044ADF82C00BDF8260003
:1093F0000844ADF82E0038680168D1F88410884719
:10940000DFF87491012816D0384600680168096AAF
:1094100088474946BDF92E30BDF92C20FF2E08F1B2
:10942000040C098801FB032100EB41007ED20021DE
:10943000C6F1FF0779E00DF1140BB9F80020386888
:1094400000210B238BE80E0008911FFA8AF2BDF869
:109450002810ABB20193BDF82C300496CDE902215F
:10946000BDF82E10424600912146FEF7A6FA0DB037
:10947000BDE8F08F00234BE014F8011B4FF0F80B10
:109480004FF0FC0802883CF811100BEA112E08EA94
:10949000D108C9060BEA122B090ECDE90218FC21EE
:1094A00001EAD2010191D1064FF478424FEA1168E6
:1094B000CDF800800EFB06F80BFB0781DDF80C8071
:1094C00089B201EB1121491C08FB06F8090A02EADE
:1094D0000122019901FB07814FF4FC6889B201EB7D
:1094E0001121491CC1F3072108EAC101DDF8008000
:1094F0000A430299714308FB071189B201EB11215C
:10950000491C5B1CC1F3072142EAD10120F8021B70
:10951000AB42B1DB18490988491B00EB4100BDF99A
:109520002810491B0C4409F1010100E003E05145FA
:1095300089469FDB18E0104E002213E0002106E070
:1095400014F8013B491C3CF8133020F8023BA942B7
:10955000F6DB3188491B00EB4100BDF92810491B9F
:10956000521C0C445245E9DB024800680168496A14
:1095700088477CE708030020020300202DE9FF4F05
:109580008DB0064615460E981A9C0088012801D019
:10959000F7F766F9002C5FD02868099068680A9090
:1095A00018680B9058680C9009A8FDF7ABFE0BA843
:1095B0002946FDF7BDFEBDF82820BDF82E10BDF9E7
:1095C0002C005D4F12FB01029519BDF82420BDF956
:1095D00030601044ADF82C00BDF826000844ADF80A
:1095E0002E00BDF93200019038680168D1F884106E
:1095F0008847DFF84881012812D0384600680168A2
:10960000096A88474146BDF92E30BDF92C204FF438
:10961000784E098801FB0321002300EB410073E031
:109620000DF11409B8F80020386800270B23012138
:1096300089E88E00BDF82810B3B2019A019392B266
:109640000494CDE90221BDF82E10BDF82C300E9AFD
:1096500000912946FEF7B1F911B0BDE8F08F002264
:1096600046E0297801EB41070E993944091DFF2C8A
:1096700053D08F784FF0F80C91F801A091F800B01A
:10968000018867430CEA11284FF0FC0C0CEAD10C5E
:10969000C9064FEA1169C4F1FF0108FB01770AFB13
:1096A00004F80CFB018CBFB21FFA8CFC07EB1727E8
:1096B0000CEB1C2C7F1C0CF1010C3F0ACCF3072C8B
:1096C0004FF4FC680EEA072708EACC0C47EA0C07BF
:1096D0000BFB04FC09FB01C189B201EB1121491C00
:1096E000C1F30721521C6D1C47EAD10120F8021B6F
:1096F000B242B6DB11490988891B00EB4100BDF974
:109700002810891B5B1C0D4401998B42A7DB0A487A
:1097100000680168496A88479EE791F802C091F89D
:10972000018009780EEA0C274FF4FC6C0CEAC80C97
:1097300047EA0C07D6E700000803002002030020D8
:109740002DE9F04788B0984691468A460646DDE9FD
:109750001054002C51D0084602F078F807B2504659
:1097600002F01CF803B2424604A849460097FEF7EF
:1097700076FF504602F03AF858B1504602F036F8FB
:10978000022806D0504602F031F80B2801D0F7F736
:1097900067F8504601F0DEFF8046504601F00EFFAC
:1097A0008146504602F022F8022820D0504602F0AE
:1097B0001DF80B2824D0504601F09AFF002738B33B
:1097C00006A8514601F050FFDDE906022946CDE921
:1097D00000026846FEF750FF00980290019803903F
:1097E00002A801F060FEE8B12B46009486E004A9CF
:1097F00023462A464046FFF7EFFC08B0BDE8F08755
:1098000004AA2B46494640460094FFF7CFFCF4E7F4
:10981000CDE90047306804AA2B464146046930462A
:10982000A047EAE7CDE90047306802AB04AA414609
:1098300007693046B847BDF90A00B5F902209042E1
:1098400012DDBDF80A00801A00B20090B5F90430AC
:1098500006A8B5F90010FEF702FF06AB494604AAB8
:109860004046009400F042F9BDF90800B5F9001037
:10987000884212DDBDF90E000090BDF80800BDF968
:109880000A20401A03B206A8FEF7E9FE06AB4946D5
:1098900004AA4046009400F029F9284601F0F9FD99
:1098A000064602A801F0F5FD01468E4210DDBDF925
:1098B0000E000090701A03B2BDF90A2006A8FEF748
:1098C000CEFE06AB494604AA4046009400F00EF9CD
:1098D000284601F0E3FD064602A801F0DFFD02463E
:1098E00096428ADDB01A00B20090B5F9043006A89D
:1098F000B5F90010FEF7B3FE06AB009404AA494682
:10990000404600F0F3F878E72DE9F04F8DB00546BA
:10991000088814468846169E08B1F6F7A1FF20680D
:10992000099060680A9018680B9058680C9009A814
:10993000FDF7E8FC0BA82146FDF7FAFCBDF828204E
:10994000BDF82E10BDF92C00664F12FB0102541910
:10995000BDF82420BDF930501044ADF82C00BDF8FE
:1099600026000844ADF82E00BDF932000190386899
:109970000168D1F884108847DFF86C91012813D072
:10998000384600680168096A88474946BDF92E30A3
:10999000BDF92C20098801FB032100EB410108F1EE
:1099A00004000290002085E00DF1140AB9F80020AF
:1099B000386800270B2301218AE88E00BDF82810A3
:1099C000ABB2019A019392B2BDF82C30CDE90221DD
:1099D000BDF82E104246049600912146FDF7EDFF9A
:1099E0000DB0BDE8F08F002357E02278029850F8C0
:1099F00022005FEA10684DD0B8F1FF0F01D1FF2EB1
:109A000062D00A8800F0FF0CC0F30747CDF800C011
:109A1000C0F3072BF82000EA122CFC2000EAD20940
:109A2000D0064FEA106E06FB08F04FF4FC6800EB1E
:109A30001020401CC0F30720C0F1FF0217FB00F705
:109A40001CFB02774FF4784CBFB207EB17277F1C43
:109A50003F0A0CEA07271BFB00FC19FB02CC1FFA8C
:109A60008CFC0CEB1C2C0CF1010CCCF3072C08EA41
:109A7000CC0C47EA0C07DDF800C01CFB00FC1EFB09
:109A800002C080B200EB1020401CC0F3072047EA60
:109A9000D0000880891C5B1C641CAB42A5DB12480B
:109AA0000088401B01EB4001BDF92800401B044425
:109AB0000AF10100019A8246904294DB094800684D
:109AC0000168496A88478BE74FF478424FF4FC6796
:109AD00002EA102207EA50173A43C0F3C4000243D7
:109AE0000A80D7E708030020020300202DE9F04F89
:109AF00087B00646106814460D46009050680190E5
:109B000018680290586803906846FDF7FBFB02A8AE
:109B10002146FDF70DFCBDF80420BDF80A00BDF993
:109B2000081012FB0012154406EB4204BDF8002099
:109B3000BDF90C601144ADF80810BDF802100844DE
:109B4000ADF80A00BDF90E00049075480068016880
:109B5000096A88477349BDF90A30BDF908200988A8
:109B600001FB032100EB41001099FF294FF0000198
:109B700062D3C6E0002350E02978E1B3109A4A434B
:109B800002EB1221491CC1F30721A1B327884FF032
:109B9000F80B4FF0FC0802880BEA172908EAD70CEB
:109BA000FF063F0E05970BEA122708EAD20BD206F2
:109BB00019FB01F84FEA126EC1F1FF0217FB028791
:109BC0004FF47848BFB207EB17277F1C3F0A08EA1B
:109BD00007291CFB01F74FF4FC6C1BFB0277BFB29B
:109BE00007EB17277F1CC7F307270CEAC70749EACB
:109BF0000709059F00E00CE017FB01F11EFB0211B5
:109C000089B201EB1121491CC1F3072149EAD101B5
:109C10000180801C5B1CA41C6D1CB342ACDB414961
:109C20000988891B00EB4100BDF90410891B0D4414
:109C300004EB41040AF10101049A8A46914299DB3E
:109C400063E000234EE02978F1B3FF2965D027882F
:109C50004FF0F80E4FF0FC0C02880EEA172A0CEABF
:109C6000D70BFF060EEA122C3F0E0597FC2707EADA
:109C7000D207D2061AFB01F84FEA126EC1F1FF02B9
:109C80001CFB028C4FF478481FFA8CFC0CEB1C2C4C
:109C90000CF1010C4FEA1C2C08EA0C2C1BFB01F800
:109CA00017FB02874FF4FC68BFB207EB17277F1C36
:109CB000C7F3072708EAC7074CEA070C059F17FBFD
:109CC00001F11EFB021100E008E089B201EB112155
:109CD000491CC1F307214CEAD1010180801C5B1CA7
:109CE000A41C6D1CB342AEDB0E490988891B00EB36
:109CF0004100BDF90410891B0D4404EB410409F136
:109D00000101049A894691429BDB0548006801687D
:109D1000496A884707B0BDE8F08F2188DDE7000079
:109D2000080300200203002010B5044600F0C0F92B
:109D30002046BDE8104000F079B910B50446FFF7A1
:109D4000F3FF204600F01DF8204600F063F920469E
:109D500000F020F8204600F026F82046BDE810402C
:109D6000AFF3008010B5044600F064FC204600F01C
:109D7000E1FA204600F0A6FC2046BDE8104000F0C5
:109D8000D5BB10B5044600F013FB2046BDE81040DB
:109D900000F0CEB910B5044600F04AFB2046BDE8FD
:109DA000104000F005BA10B5044600F07BFB2046D9
:109DB000BDE8104000F03ABA2DE9F04F924E05464A
:109DC0008BB014468846306890F8480002287DD051
:109DD00001A8ADF8043001F009FD07462868416A82
:109DE0002846884787427FD101A801F0B3FC5FEA8B
:109DF000000B79D02068079060680890D8F80010B0
:109E00000591D8F80400069001A801F01FFD07B2E3
:109E100001A801F0C3FC009703B2B4F9022002A824
:109E2000B4F90010FEF71BFC07A8FDF76BFA05A8B4
:109E3000FDF768FA02A8FDF765FA74480022DFF81A
:109E4000D0811146008800B20090B8F8000003B23B
:109E500009A8FEF704FC014605A8FEF70DFC05A8BD
:109E600001F021FB00287DD1BDF914000DF11C0982
:109E7000BDF91C1005AF884236DBBDF91600BDF9EF
:109E80001E10884230DB384601F003FB044648468A
:109E900001F0FFFA844227DC384601F0FFFA04465D
:109EA000484601F0FBFA84421EDC2868816A284695
:109EB00088478246304600680168896A8847BDF94C
:109EC0000C505C46BDF91420A94600E00CE0BDF83A
:109ED0000810511A09B2002908DD0BEB4104A5EB6B
:109EE0000101ADF80C100BE0F6F7BAFC08DAA2EBB2
:109EF0000102ADF81420BDF818201144ADF8181077
:109F0000BDF91620BDF80A10A2EB010109B2002923
:109F10000ADD11FB09F204EB4204BDF80E20A2EBAE
:109F20000101ADF80E1009E008DAA2EB0102ADF86C
:109F30001620BDF81A201144ADF81A10BDF90C1006
:109F400000295EDDBDF90E60002E5ADDBDF914302A
:109F5000BDF9162000EB4307BDF9180002FB0A7794
:109F6000884200E04DE000DA0146B8F80000C31A6C
:109F70008B4200DC19468846BDF91A10B14200DA5E
:109F80000E4622490988891AB14200DC0E468045F6
:109F900024D1854222D1DFF87090D9F80000016801
:109FA000096B8847C0070FD0ADF818802346ADF87D
:109FB0001A60D9F80000009501684D6DDDE90512C1
:109FC000A8470BB0BDE8F08FD9F800003A4606FB71
:109FD0000AF30168CD6A2146A84712E000254FEA3E
:109FE00048080CE0084843463A4600680168D1F842
:109FF0002CC02146E0476D1C574404EB4904B54290
:10A00000F0DB5846DDE700000803002004030020D1
:10A010000203002010B5044600F0C8FA2046BDE84F
:10A02000104000F045B970477047000070B5194DF9
:10A03000044695F85400C00710D105F1540001F012
:10A0400021FF58B105F158001349144A0160144921
:10A05000F6F711FC05F15400AFF3008095F85000BD
:10A06000C00710D10B48503001F00CFF58B109481F
:10A070000C495C30094A01600B49F6F7FCFB0548C6
:10A080005030AFF3008003485830A066001DE066F2
:10A0900070BD0000540200204CED000800000008D4
:10A0A00027A0000860ED000829A00008704770474D
:10A0B00070B5194D044695F84400C00710D105F15C
:10A0C000440001F0DFFE58B105F148001349144A7D
:10A0D00001601449F6F7CFFB05F14400AFF30080AF
:10A0E00095F84000C00710D10B48403001F0CAFE7F
:10A0F00058B109480C494C30094A01600B49F6F740
:10A10000BAFB05484030AFF3008003484830206771
:10A11000001D606770BD00005402002074ED00084F
:10A1200000000008ADA0000888ED0008AFA00008FE
:10A1300070B5194D044695F83400C00710D105F1EB
:10A14000340001F09FFE58B105F138001349144A5C
:10A1500001601449F6F78FFB05F13400AFF300807E
:10A1600095F83000C00710D10B48303001F08AFE5E
:10A1700058B109480C493C30094A01600B49F6F7CF
:10A180007AFB05483030AFF3008003483830A065D3
:10A19000001DE06570BD00005402002000EE0008C4
:10A1A0000000000825A5000864EE00082DA60008A0
:10A1B00070B5184D0446287DC00710D105F1140074
:10A1C00001F060FE58B105F118001349134A01600F
:10A1D0001349F6F750FB05F11400AFF30080287C1B
:10A1E000C00710D10B48103001F04CFE58B109489F
:10A1F0000C491C30094A01600B49F6F73CFB054845
:10A200001030AFF3008003481830A060001DE060FC
:10A2100070BD0000D4010020C4ED0008000000085B
:10A22000A9A3000814EE000827A5000870B5194D71
:10A23000044695F83400C00710D105F1340001F050
:10A2400021FE58B105F138001349144A0160144940
:10A25000F6F711FB05F13400AFF3008095F83000FC
:10A26000C00710D10B48303001F00CFE58B109483E
:10A270000C493C30094A01600B49F6F7FCFA0548E5
:10A280003030AFF3008003483830A061001DE0613A
:10A2900070BD0000D4010020D8ED000800000008C7
:10A2A000ABA3000828EE000829A5000870470000AD
:10A2B00070B5194D044695F85400C00710D105F14A
:10A2C000540001F0DFFD58B105F158001349144A5C
:10A2D00001601449F6F7CFFA05F15400AFF300809E
:10A2E00095F85000C00710D10B48503001F0CAFD5E
:10A2F00058B109480C495C30094A01600B49F6F72E
:10A30000BAFA05485030AFF3008003485830A062D5
:10A31000001DE06270BD0000D401002078EE00084E
:10A32000000000082FA60008DCEE0008BBA600080D
:10A330007047000070B5164D04462879C0070ED14D
:10A34000281D01F09FFD50B105F108001149124A86
:10A3500001601249F6F78FFA281DAFF300802878C4
:10A36000C0070ED10A4801F08DFD50B108480C49D4
:10A370000C30094A01600B49F6F77DFA0448AFF347
:10A380000080034808302064001D606470BD000038
:10A39000540200209CED000800000008ADA2000857
:10A3A000B0ED000831A30008704770477047000007
:10A3B00070B5194D044695F82400C00710D105F179
:10A3C000240001F05FFD58B105F128001349144A3B
:10A3D00001601449F6F74FFA05F12400AFF300804D
:10A3E00095F82000C00710D10B48203001F04AFD3D
:10A3F00058B109480C492C30094A01600B49F6F75D
:10A400003AFA05482030AFF3008003482830206630
:10A41000001D606670BD000054020020F0EE0008D0
:10A4200000000008BDA6000840EF000845A700088E
:10A4300070B5164D04462879C0070ED1281D01F0CD
:10A4400021FD50B105F108001149124A016012497D
:10A45000F6F711FA281DAFF300802878C0070ED157
:10A460000A4801F00FFD50B108480C490C30094A68
:10A4700001600B49F6F7FFF90448AFF30080034889
:10A4800008302061001D606170BD0000D401002013
:10A49000A0EE000800000008B5A6000804EF0008C0
:10A4A000BFA6000870B5194D044695F82400C007F2
:10A4B00010D105F1240001F0E5FC58B105F12800A8
:10A4C0001349144A01601449F6F7D5F905F124003F
:10A4D000AFF3008095F82000C00710D10B48203062
:10A4E00001F0D0FC58B109480C492C30094A0160F0
:10A4F0000B49F6F7C0F905482030AFF30080034858
:10A5000028302062001D606270BD0000D401002070
:10A51000B4EE000800000008B7A6000818EF000815
:10A52000C1A60008704770477047704770B5184D56
:10A530000446287DC00710D105F1140001F0A2FCEB
:10A5400058B105F118001349134A01601349F6F791
:10A5500092F905F11400AFF30080287CC00710D1F8
:10A560000B48103001F08EFC58B109480C491C30E2
:10A57000094A01600B49F6F77EF905481030AFF340
:10A58000008003481830A063001DE06370BD000028
:10A5900054020020ECED000800000008ADA3000804
:10A5A0003CEE00082BA500087047000070B5194D5F
:10A5B000044695F84400C00710D105F1440001F0AD
:10A5C00061FC58B105F148001349144A016014496F
:10A5D000F6F751F905F14400AFF3008095F840001B
:10A5E000C00710D10B48403001F04CFC58B109486D
:10A5F0000C494C30094A01600B49F6F73CF9054813
:10A600004030AFF30080034848302063001D606392
:10A6100070BD0000D401002054EF000800000008C5
:10A6200047A7000868EF000849A70008704770476F
:10A630007047000070B5194D044695F86400C007D6
:10A6400010D105F1640001F01DFC58B105F168005E
:10A650001349144A01601449F6F70DF905F1640035
:10A66000AFF3008095F86000C00710D10B48603050
:10A6700001F008FC58B109480C496C30094A0160E6
:10A680000B49F6F7F8F805486030AFF3008003484F
:10A6900068302065001D606570BD0000D401002099
:10A6A00050EE000800000008A9A500088CEE000884
:10A6B00031A6000870477047704770477047704771
:10A6C0007047704770B5194D044695F87400C0077F
:10A6D00010D105F1740001F0D5FB58B105F17800F7
:10A6E0001349144A01601449F6F7C5F805F17400DE
:10A6F000AFF3008095F87000C00710D10B487030A0
:10A7000001F0C0FB58B109480C497C30094A01608E
:10A710000B49F6F7B0F805487030AFF300800348F6
:10A720007830A064001DE06470BD0000D4010020FA
:10A73000C8EE000800000008B9A600082CEF0008C9
:10A74000C3A6000870477047704700002DE9F04F1E
:10A7500089B014460D46DDE91268002E49D0206804
:10A76000059060680690186807905868089005A8DA
:10A77000FCF7C8FD07A82146FCF7DAFDBDF8182054
:10A78000BDF81E00BDF91C10644C12FB0012BDF98F
:10A790002070BDF9229005EB4205BDF8142011444C
:10A7A000ADF81C10BDF816100844ADF81E00206866
:10A7B0000168096B8847FF2E02D2400706D41BE0D0
:10A7C0001AD1B8F1000F17D1C00715D01FFA89F3BD
:10A7D000BDF81820B9B22068CDE9001302A981E8BC
:10A7E00044010168BDF81E30BDF81C208C6B294661
:10A7F000A04709B0BDE8F08F484800680168096AC1
:10A8000088474749FF2EBDF91E30BDF91C20098835
:10A8100001FB032100EB41045ED2C6F1FF034FF0C0
:10A82000000C56E0002246E035F8020B4FF0F80A23
:10A830004FF0FC0E21880AEA102B0EEAD008C00661
:10A840000AEA112A000ECDE90108C8060EEAD10E67
:10A850004FEA1068CDF800800BFB06F80AFB038076
:10A86000DDF808804FF4784180B200EB1020401CE6
:10A8700008FB06F8000A01EA00210EFB03804FF4F2
:10A88000FC6880B200EB1020401CC0F3072008EAEF
:10A89000C000DDF8008001430198704308FB03000D
:10A8A00080B200EB1020401C521CC0F3072041EA8C
:10A8B000D00024F8020BBA42B6DB19480CF1010CA7
:10A8C0000088C01B04EB4004BDF91800C01B05EB59
:10A8D0004005CC45A6DB1AE0DFF840A00026DFF8F3
:10A8E00040B04FEA470810E0DAF8000043462A4635
:10A8F0000168CF6A2146B847BBF80000761C04EB1C
:10A900004004BDF9180005EB40054E45ECDB03485B
:10A9100000680168496A88476BE700000803002067
:10A92000020300202DE9F04F1C00164685B00D46AD
:10A9300027D0084600F0B7FD002822D128680390F0
:10A940006868049003A8FCF7DDFC514F3868016883
:10A95000096B8847FF2C01D0000700E08007002822
:10A9600012DABDF812103868BDF810200294CDE953
:10A9700000210168BDF80E30BDF80C208C6C31460A
:10A98000A04705B0BDE8F08F4148BDF91050BDF9B2
:10A99000129000680168096A88473E49BDF90E3087
:10A9A000BDF90C20098803FB0121B3B200EB410083
:10A9B00003F478414FEA112E03F4FC614FEAD10B06
:10A9C000D906FF2C4FEA116A49D20023C4F1FF02D5
:10A9D00042E0002137E00688F8271EFB04F807EA6A
:10A9E000162CFC271CFB028C4FF478481FFA8CFCB9
:10A9F00007EAD6070CEB1C2C0CF1010CF6064FEA0B
:10AA00001C2C360E08EA0C2C1BFB04F817FB0287E3
:10AA10004FF4FC68BFB207EB17277F1CC7F307276B
:10AA200008EAC7074CEA070C1AFB04F716FB027684
:10AA3000B6B206EB1626761C491CC6F307264CEA6E
:10AA4000D60620F8026BA942C5DB1249A0EB4500EF
:10AA50005B1C098800EB41004B45BADB11E00D4C53
:10AA600000220CE0002102E0491C20F8023BA94230
:10AA7000FADB2188A0EB4500521C00EB41004A455F
:10AA8000F0DB034800680168496A884779E70000FD
:10AA90000803002002030020154A70B504004FF699
:10AAA000FF7012884FF0FF3500EA42004FEA500075
:10AAB000C0F100030DD0A1B1012904D0022912D0A8
:10AAC00003290ED102E0002A02D10EE06AB1184635
:10AAD00070BD0029F7D0012905D00229F6D003293D
:10AAE000F1D1012070BD284670BDF5F7B9FE000018
:10AAF000020300202DE9FF4F8DB0DDE91E64DDF873
:10AB000068A0DDF870803046239F00F0C2FC0490FE
:10AB1000304600F0C3FC03904FF48075607BA2794F
:10AB200005EA401111435FEA0109E17905EA0010E5
:10AB300040EA010B7DD0BBF1000F7AD094F90910E7
:10AB4000B8F1000F0ED0A8EB01001FFA80F80FFA41
:10AB500088F000280ADAAAEB08004FF000080FFA84
:10AB600080FA03E001EB0A000FFA80FAB6F9000060
:10AB7000504506DDA0EB0A02824602EB08011FFAEF
:10AB800081F8BB480078012800D00020259B1B9A43
:10AB9000514600900FA8FDF7DEFC259B51461B9AFD
:10ABA000ADF818000FA8FDF7F1FC07A9ADF81C00DF
:10ABB00006A8FCF7D7FB25990098229C014304D0F6
:10ABC000259801284AD10098A0B3AA4E30680168A0
:10ABD000096B8847010605D5042F03D1219909B1D6
:10ABE000012100E00021C00501D5082F09D0002077
:10ABF000084333D001B180251D9958EA010002D0E5
:10AC00002CE00120F4E704980AEB0901814225DCDD
:10AC10001B9800EB0B01039881421FDC082F1BD00F
:10AC200009F1010020F001013068249ACDE9001BF0
:10AC300001E00EE012E0CDE90214BDF81C10CDE9F0
:10AC400004258BB2BDF818108AB201680C6C2099EB
:10AC5000A04711B0BDE8F08F4946E5E70E9820B94E
:10AC6000844800680168096A8847834BBDF91C2045
:10AC7000BDF918101B8802FB031100EB41060120EF
:10AC8000B840401E012FC0B208900BD0022F0BD04D
:10AC9000042F0BD00120CDF8089000240590042F3C
:10ACA00006D009E0FF20F6E75520F4E71120F2E78F
:10ACB000219808B1012000E000204946084201D057
:10ACC000481C02901D99209D58EA01000DD01D9A44
:10ACD000029901FB0280784380B200F0070405EB83
:10ACE000D005ABEB02001FFA80FB2599009800F01D
:10ACF000C5F8019025990098FFF7CEFE00901B99AA
:10AD00000398411A5846594500DD01460498AAEBBC
:10AD10000802801A4A46484500DD1046029AA0EB18
:10AD2000080E8B46A2EB0E002299784302901FFA80
:10AD300081F92878E0408CE0F24675E008990140FE
:10AD400065D0059A51434A46FF2902DB249BFF2B1D
:10AD50005CD209F47843249A4FEA132C09F4FC637B
:10AD600051434FEAD3084FEAC963CDE90A8C1B0E61
:10AD70000993B6F800C0F82389B203EA1C28CDF87D
:10AD80001080FC2303EADC0301EB11214FEACC6CB9
:10AD9000491C4FEA1C68DDF82CC0C1F30721CDF82F
:10ADA0000C80DDF81080C1F1FF021CFB01FC18FBD8
:10ADB00002CC4FF478481FFA8CFC0CEB1C2C0CF1E5
:10ADC000010CCCF3072C08EA0C2CDDF8288018FBCA
:10ADD00001F813FB02834FF4FC689BB203EB1323CF
:10ADE0005B1CC3F3072308EAC303DDF80C804CEABD
:10ADF000030C099B13FB01F118FB021189B201EB53
:10AE00001121491CC1F307214CEAD1023280E1191A
:10AE10008CB2F840082C02D315F8010F00240199D8
:10AE2000AAF1010A06EB4106BAF1000F86DC02998D
:10AE300039B1601880B200F0070405EBD00528781E
:10AE4000E040DDE90012ABF1010B02FB1E1106EB45
:10AE50004106BBF1000F3FF76FAF0E9800287FF45B
:10AE6000F8AE044800680168496A8847F1E60000C6
:10AE7000F80200200803002002030020134A70B5E6
:10AE800004004FF6FF7012884FF0FF3500EA4200D1
:10AE90004FEA5000C0F100030DD029B1012911D0B3
:10AEA000022904D003290FD01AB1184670BD002A18
:10AEB000FCD1F5F7D5FC29B10129F8D0022903D03E
:10AEC0000329F1D0012070BD284670BD0203002087
:10AED0000F49016000218160C160016141618161B0
:10AEE000C161016241628162C16201634163816348
:10AEF000C163016441648164C16401654165816528
:10AF0000C165016641668166C16601674167704738
:10AF10007CEF0008704703B4BDF80410C1840189B8
:10AF2000002905D14189002902D102B000F018B8EA
:10AF300002B0704770B504462630054600F026FF83
:10AF400000280CD0284600F06DFF01462068002341
:10AF50001A46056F2046AC46BDE87040604770BD9C
:10AF600070B50446263000F011FF002823D0206879
:10AF7000C16E2046884706462068816E2046884775
:10AF800085B294F8300068B102280BD0206829B24D
:10AF9000826B20469047206831B2C26B2046BDE8E4
:10AFA00070401047206831B2826B2046904720687D
:10AFB00029B2C26BF2E770BD2DE9F0470DF1200C0C
:10AFC000924689469CE8F60183808171C3790B49DA
:10AFD000DFF824C062F3060364F3C713C37105727C
:10AFE00046724781A0F80C80C0F810900160A0F86C
:10AFF00014A0BDE8F087000010EB000848F000083E
:10B0000070B5846A0D4605E02868214682682846A6
:10B010009047A469002CF7D170BD2DE9F0410F468F
:10B0200090F824109846164609B1C8F80000846AC2
:10B0300021E094F82500E8B1B4F90400251DB842D8
:10B0400018DC284600F025FAB84213DDB5F90210E5
:10B05000B1420FDC284600F021FAB0420ADDA08898
:10B060004346381A01B2E088301A02B22068C56936
:10B070002046A847A469002CDBD1BDE8F0817CB54F
:10B080000E4690F825101546002923D0846A002C1E
:10B0900020D094F82500D0B1221D3146684600F03A
:10B0A0006CFA684600F0FFF988B9A0882A46BDF816
:10B0B0000010081AADF80000E088BDF80210081A68
:10B0C000ADF8020020686946C36D20469847A46920
:10B0D000002CDED17CBD814210B510D04A6972B916
:10B0E0000022C1E90502826A22B9816210BD8A424A
:10B0F00005D0024690690028F9D18A4201D1F5F7BE
:10B10000AFFB916110BD826A002A08D000238A42F9
:10B1100006D14B618A690AB1826207E08362704797
:10B120009069884204D1886990614B618B61704756
:10B130000200F5D170470172CB05427B22F060021C
:10B14000427302D542F020024273890503D5D1B281
:10B1500041F0400141737047AFF30080014800683F
:10B1600070470000AC68014010B50C4611681046ED
:10B17000CA6819469047002800D1204610BD30B556
:10B1800010880024984218D802EB810030F8040C93
:10B19000984212D30FE06018400832F820509D42C8
:10B1A00003D200F1010084B205E003D102EB80007C
:10B1B000408830BD81B28C42EDD3002030BD10B547
:10B1C000C2B1137BB3B1D47A527B02F0070244EAD6
:10B1D000022213440CE0C46934F822408C4205D1A9
:10B1E000C069022101EB8201405610BD521C92B28F
:10B1F0009342F0D8002010BD006A70478A888069A9
:10B200000968D20A50F822000844704708B591F83E
:10B210002820FF2A0ED3CA8CA2F57F43FF3B09D01A
:10B22000B1F90A20B1F90830009200221146FDF769
:10B2300016FA08BD002100910B46F6E770B50446EA
:10B2400090F8280086B00D4600282DD0E08CA0F59F
:10B250007F41FF3928D004A9ADF81000084600F05E
:10B260009DFA03B2B4F90A000022009002A8114628
:10B27000FDF7F5F9206802A9426A20469047FCF7DD
:10B2800081FAE18C064604A8ADF8101000F062FACD
:10B290000022014694F828002B46CDE900023068D0
:10B2A00002AA04693046A04706B070BD3CB500252F
:10B2B000ADF80050ADF80450ADF80250ADF80650AE
:10B2C00091F82C201AB991F82620FF2A05D10A8975
:10B2D000ADF804204989ADF8061000990160019984
:10B2E00041603CBD7CB504460868009048686946EA
:10B2F00001902068426A204690470848016891F80A
:10B30000760008B1C86C00B9886894F82630A26A43
:10B310000168CD696946A8477CBD0000080300208C
:10B3200000200D2910B509D2DFE801F00B09070D47
:10B330000D0D0D0F0F0F0F0F0D00202010BD182049
:10B3400010BD102010BDF5F78BFA082010BD0000CD
:10B350002DE9FC411C4615460E460746FCF712FA3D
:10B360000168496A8847064923462A464989CDE942
:10B3700000103146384600F005F8BDE8FC810000B9
:10B38000F80200202DE9F0410E461C461546DDE985
:10B390000671FFF7C5FF07FB0561C00801FB004010
:10B3A000BDE8F0810020704700207047808870471A
:10B3B0000FB4084A10B505ABD2E9004200EB6200B9
:10B3C000D20701D002681459049AA04710BC5DF856
:10B3D00014FB0000B8000020C07900F07F00704727
:10B3E000C079C009704780897047408970472DE94E
:10B3F000F04F97B01C4615468B4680466846FBF7D3
:10B40000ACFCD8F80000426C404690470346224608
:10B4100029466846FBF7AEF900252E462C46AA467B
:10B42000A14616AB424659466846CDF858A0FBF7F0
:10B430005BFB040018D00A2C16D016980028EFD019
:10B44000848800F09BFC0746D8F80000169A49460D
:10B45000C36B404698473844284485B2002CDFD15E
:10B4600017B03046BDE8F08FB54200D92E46002512
:10B47000F4E781888079084480B270471CB50022C7
:10B4800001AB00928DF80420026894686A46A047D8
:10B490001CBD01888088084400B270474188C0887C
:10B4A000084400B27047818819B1C08808B10020F3
:10B4B00070470120704770B50546B1F900000C4691
:10B4C000B5F90010884219DBB4F90200B5F9021091
:10B4D000884213DB2046FFF7DCFF06462846FFF7CD
:10B4E000D8FF86420ADC2046FFF7D8FF04462846EC
:10B4F000FFF7D4FF844201DC012070BD002070BD45
:10B5000070B505460C460846FFF7C3FFB5F90010B5
:10B51000884216DD2846FFF7BCFFB4F900108842C8
:10B520000FDD2046FFF7BAFFB5F90210884208DDAB
:10B530002846FFF7B3FFB4F90210884201DD01206D
:10B5400070BD002070BD70B50646B0F900000D4614
:10B550001446A8420FDC3046FFF79BFFA8420ADDE5
:10B56000B6F90200A04206DC3046FFF797FFA04282
:10B5700001DD012070BD002070BD1CB50B680446C4
:10B5800068460093496801911146FDF775F80098E7
:10B590002060019860601CBD0348C268806852F852
:10B5A000211000EB41007047A8000020018A408A6A
:10B5B000490BC90041EA50307047000070B501885E
:10B5C00004464FF6FE7081423FD2264D28466A88D7
:10B5D000006991422AD2AB6801EB810203EB82023F
:10B5E000536893B300B350F82100E8B11046FFF759
:10B5F000DDFF0B282088A96800EB80000ED001EB4E
:10B600008000018940894143480021882A69C01C83
:10B6100020F0030052F82110084470BD01EB8001B6
:10B62000088949894843F0E7184670BDAB88134440
:10B6300099420AD28A1AEB68C2EBC20203EB4202B9
:10B64000137B03F01F030B2B01D0002070BD138967
:10B65000528950F821005343DB1C23F003021044AD
:10B6600070BD0000D002002038B51E4CA3689BB10D
:10B6700009886288914211D201EB810103EB8101BB
:10B680004A8AC2F30C0200920A8AC2F30C03B1F98F
:10B690000E20B1F90C1019E0F5F7E2F8A388134475
:10B6A00099420AD2891AE268C1EBC10102EB410159
:10B6B0000A6802604968416038BDA1F57F42FE3AE0
:10B6C00007D0002100910B4600221146FCF7C7FF6E
:10B6D00038BD0549098809B20091044909880BB2AF
:10B6E000F2E70000D002002000030020FE0200204C
:10B6F000174B9A6852B300885988884210D200EBE1
:10B70000800002EB8000018A0289C1F30C019142A2
:10B710001AD3418A4089C1F30C01814214D315E048
:10B720009A880A44904211D2401AD968C0EBC000EE
:10B7300001EB4000B0F904100289914204DBB0F93A
:10B7400006104089814201DA0120704700207047CD
:10B75000D00200200F4B10B59A6832B101884FF625
:10B76000FF70814203D3002010BDF5F779F8A1F5F1
:10B770007F40FE380AD0186918B150F8210000281F
:10B78000F2D101EB810052F8200010BD02480068A0
:10B79000406C10BDD002002008030020114B10B5F2
:10B7A0009A6842B100885988884206D200EB80002E
:10B7B00002EB80000BE0F5F753F89A880A449042B8
:10B7C00007D2401AD968C0EBC00001EB40000089E5
:10B7D00010BDA0F57F41FE3901D0002010BD024808
:10B7E000008810BDD0020020FE020020154B00880A
:10B7F0009A68B2B15988884205D200EB800002EB0A
:10B800008000FFF7D3BE9A880A44904209D2401ABA
:10B81000D968C0EBC00001EB4000007B00F01F00C6
:10B820007047A0F57F41FE3901D0002070470648DF
:10B83000016891F8760008B1C86C00B988680168A1
:10B84000496A0847D002002008030020114B10B5B8
:10B850009A6842B100885988884206D200EB80007D
:10B8600002EB80000BE0F4F7FBFF9A880A44904259
:10B8700007D2401AD968C0EBC00001EB40004089F4
:10B8800010BDA0F57F41FE3901D0002010BD024857
:10B89000008810BDD0020020000300201FB5044620
:10B8A00091F83200FF2805D2002323806380A38013
:10B8B000E3801FBD91F82C0038B130316846FFF7A6
:10B8C000D3FE00982060019806E02E3102A8FFF711
:10B8D000CBFE02982060039860601FBD2DE9F04107
:10B8E000044690F82C0088B0884610B1206B079071
:10B8F00002E0E08DADF81C00002707A83E46FFF7E8
:10B900004DFF054607A8FFF7A1FFADF80C704146B3
:10B91000ADF81050ADF80E60ADF8120003A8FCF7BA
:10B92000ABFE1D48006818B3BDF81C00A0F57F41B0
:10B93000FF392ED0BDF8100000282AD0BDF8120023
:10B94000002826D00020ADF81400ADF8180005A995
:10B95000ADF81600ADF81A002068426A20469047FC
:10B960000E48016891F8760020B1C86C18B901E062
:10B97000F4F776FF8868012394F8322003A98DE854
:10B980000E000168BDF91630BDF91420CC6807A976
:10B99000A04708B0BDE8F081D802002008030020CD
:10B9A0001CB5D0E90112CDE900120021ADF800105C
:10B9B000ADF8021001680A69694690471CBD70B570
:10B9C0000C4609880546808808442080E8886188FC
:10B9D00008446080291D2046FCF74EFEA088002800
:10B9E0000BD0E088002808D06869002805D00168DD
:10B9F0000A6A2146BDE87040104770BD7FB50C460D
:10BA000009880546808808442080E88861880844C1
:10BA10006080686821460090A86801906846FCF73D
:10BA20002BFE0098029001980390029820600398E2
:10BA30006060686910B101680A6903E0FAF73CFBCD
:10BA40000168CA6A04B02146BDE8704010477CB561
:10BA50000A460446002510895389ADF80050ADF818
:10BA60000400ADF80250ADF8063008686946436A34
:10BA70001046984700982060019860607CBD8288DD
:10BA80000B881A440A80C2884B881A444A8040694D
:10BA9000002802D00268526A1047704700207047A1
:10BAA000054810B5008820B14FF6FF7101EA40004B
:10BAB00010BDF4F7D5FE0000020300204FF47840DB
:10BAC00000EA01204FF4FC6108B501EAC201084315
:10BAD00040EAD300009008BD1020704710B5002444
:10BAE000048044808480C48010BDF8B526300546AB
:10BAF00000F04CF9002813D0284600F081F90446E4
:10BB0000284600F08FF90646284600F069F90146FC
:10BB100032460020009020680023C5692046A847CF
:10BB2000F8BD0FB42DE9F0410446263098B08046A8
:10BB300000F02CF9002837D020AF404600F060F923
:10BB400006460068016B3046884705B201A8FBF73E
:10BB500004F93068416C304688471F99034601A8B4
:10BB60003A46FAF707FEB4F90860404600F048F993
:10BB70000746404600F034F90096024694F831102A
:10BB800001A83B46FCF70FF9B4F92C1000B24A1992
:10BB9000002A05DD10FB05F2401E00FB012502E036
:10BBA000002800DC002528B218B0BDE8F0015DF8DF
:10BBB00014FB00002DE9F34F8BB0044626300090B3
:10BBC00000F0E4F8002844D0009800F019F90028AB
:10BBD0003FD094F82E800746D4F828902834009857
:10BBE00000F0EEF8A6888346257A009800F0F8F871
:10BBF000E3794FF0000A617A283C8DF814B08DF893
:10BC00001E808DF815008DF81650ADF81C60009858
:10BC1000CDF8189004978DF81F308DF8201000F0A3
:10BC200001F90546214609A8FFF711FF0A480168F6
:10BC300091F8760008B1C86C00B9886804AA00922F
:10BC4000CDE9015ACDF80CA00C9BDDE90912FCF7F7
:10BC500053F80DB0BDE8F08F08030020F0B5838ADB
:10BC6000002404255B1E11E0E218066902EBD27283
:10BC70005210C2EBC20705EB4707F65B8E4202D9B2
:10BC8000A2F1010302E005D202F101049C42EBDDC6
:10BC90000020F0BD0069C2EBC20100EB4100F0BD25
:10BCA0002DE9F041984617460E460546FFF7D6FFA8
:10BCB00004000CD1D6B10A2E18D028680169284694
:10BCC000884701462846FFF7C9FF04000ED02868C0
:10BCD0002146826C2846904738602868416B284688
:10BCE000884788F800002046BDE8F0810020FBE787
:10BCF00010B50024048044808480C48010BD1FB52A
:10BD000090F82520002A28D0826A002A25D00A68C7
:10BD1000029249680391846A1DE094F82500C8B135
:10BD2000221D684602A9FFF728FC6846FFF7BBFB07
:10BD300080B9A088BDF80010081AADF80000E088AE
:10BD4000BDF80210081AADF8020020686946826842
:10BD500020469047A469002CDFD11FBD427B5106CD
:10BD600002D54FF47E4100E00021007A4FF4807349
:10BD700003EAC2021143014308B27047417B4FF40A
:10BD80008072807A02EA4101084370470088A0F57A
:10BD90007F41FF3901D0012070470020704700002B
:10BDA000054910B5096821B104490088098888420D
:10BDB00001D3F4F755FD10BD100300201C03002033
:10BDC00010B50446FFF7ECFF04492088096801EB31
:10BDD0004000407800F0030010BD00001003002078
:10BDE00010B50446FFF7DCFF04492088096801EB21
:10BDF00040004078C0F3810010BD00001003002017
:10BE000010B50446FFF7CCFF04492088096811F8F3
:10BE100010000349096851F8200010BD10030020EC
:10BE20001803002010B50446FFF7BAFF0348218825
:10BE30000068BDE81040FFF7AFBB0000140300200E
:10BE40000907090E002804DB00F1E02080F8001447
:10BE5000704700F00F0000F1E02080F8141D7047DB
:10BE60002DE9F0411C4617460E00804607D00546D6
:10BE700002E02846B0473D442046641EF9D24046C1
:10BE8000BDE8F081016809B100207047012101601F
:10BE9000084670470020F4F7DDBE000008B500201A
:10BEA00003460246009001460148FCF7D8FB08BD56
:10BEB000C802002010B5F9F7EDFA044C2060F9F73C
:10BEC00021FB6060F9F7AEFAA06010BD5896002023
:10BED00019487CB519490160194A1A49F4F7CBFC95
:10BEE0001948F9F7C7FC164A1849F4F7C4FC184872
:10BEF000FEF7EEFF124A1749F4F7BDFC0E4816494B
:10BF0000001D0F4A01601549F4F7B5FC4FF4F075B8
:10BF10000F484FF448740C490D4A7830064BCDE970
:10BF20000045FBF789FE0E49016002B0044A0D4945
:10BF3000BDE87040F4F79FBC0C00002040E700080B
:10BF400000000008515D0008AC070020AD58000853
:10BF5000CC13002015AF000858E70008195E000850
:10BF600084E500084159000801480021016070473C
:10BF70000C03002030380A2801D20120704700202D
:10BF800070477047704700000349CA695206FCD5E4
:10BF9000C2B28A62704700000010014088B0BFF34F
:10BFA0004F8FBFF36F8F394800240460BFF34F8F6A
:10BFB000BFF36F8F364B186840F400301860BFF342
:10BFC0004F8FBFF36F8F324870300460BFF34F8FD5
:10BFD000001F006843F6FF752C4E1036C0F34E313B
:10BFE000C0F3C90205EA4117104647EA807CC6F84B
:10BFF00000C0401EF9D2491EF4D2BFF34F8F18681B
:10C0000040F480301860BFF34F8FBFF36F8FF6F7A7
:10C01000F1FAF8F74DFEF8F78FFB1F481D49016054
:10C02000012104714471446184610162F5F72EFDC0
:10C03000F8F732FBF8F74CFBF8F70CFC18481749F7
:10C04000016002214160042181601021C16017213B
:10C0500001614FF44071C0E90514C4610462F6F750
:10C060002DFFF9F7FDF8F8F78BFCF8F785FC0D4983
:10C070001C226846F4F75BFC0021684600F028F8B3
:10C080000949086000F01FF8FEE7000050EF00E0EB
:10C0900014ED00E00030024024030020001000A056
:10C0A00048040020E0E000080400002001460020D1
:10C0B000842900D0C81C704710B500B9012000F0D9
:10C0C00049FC002010BD10B500F0EEFC002010BDB2
:10C0D0007FB50D4641690446B0F9080081B1A169F8
:10C0E00071B1FFF7E3FFD4E905122B468DE8070095
:10C0F0002269D4E9001001F05CF9039004B070BD2E
:10C10000FFF7D4FF03A92B46CDE90001208A82B2B4
:10C11000D4E9001001F020F9012801D00020EDE75A
:10C120000398EBE72DE9F041184E0F460446756978
:10C130003068001D00F012FB38B9306890F82C1000
:10C1400001208840B1698143B161601C07D137B1DA
:10C150003168BDE8F0410E48091D00F043BB30686E
:10C160002C44AC424460316805D2B068091DBDE87A
:10C17000F04100F01FBB7068091D00F01BFB306B25
:10C18000844200D23463BDE8F08100003C0000200E
:10C19000D81500202DE9F041054600F02FFB2E4E6A
:10C1A0003069401C306130682C4F10B1F06940B3E9
:10C1B0002DE035603069012829D1002404EB84008A
:10C1C00007EB800000F0E8FA641C072CF6D3234844
:10C1D0008C3000F0E1FA2148A03000F0DDFA1F4871
:10C1E000B43000F0D9FA1D48C83000F0D5FA1B4829
:10C1F000DC3000F0D1FA19488C3070601430B06037
:10C2000005E03068E96AC06A884200D835600121DB
:10C21000F06A401CF062E86AB26981401143B16182
:10C2200000EB8000291D07EB800000F0DBFA00F036
:10C2300009FBF06900280CD03068E96AC06A8842BE
:10C2400007D207494FF080500860BFF34F8FBFF30C
:10C250006F8FBDE8F08100003C000020FC1400203E
:10C2600004ED00E030B4026C0B46002A0BD0C1682C
:10C270001144C1608468A14201D30168C1601846BD
:10C2800030BCF4F70FBB30BC70472DE9F041856B33
:10C29000002617460446026C82B1C7B1E068F4F785
:10C2A00001FBE168206C091AE1602268914202D228
:10C2B000A168081AE060022F16D017E02068A8B91C
:10C2C000A06801F01BF906460020A0600EE060683F
:10C2D000F4F7E8FA216C606808446060A16888425D
:10C2E00004D32068606001E005B16D1E6D1CA5637C
:10C2F0003046BDE8F08110B5044690F8510068B1B1
:10C3000001280ED0022811D0502072B680F3118877
:10C31000BFF34F8FBFF36F8F62B6FEE7206B00F065
:10C32000A7FA2046BDE8104000F0A2BA10BD0000F8
:10C3300010484FF40041420706D00E49C01D20F0BE
:10C340000700411AC1F500410B4A00230144083996
:10C35000C2E90003103A21F0070111604B600B6045
:10C360000B1AC0E9001393604FF000405360D06097
:10C3700070470000EC15002088000020134E4FF09D
:10C380008058134DDFF84C90A6F1C80711E000F07B
:10C3900035FAF068C468201D00F0E0F92869401EF5
:10C3A0002861E868401EE86000F04CFA2046FFF77C
:10C3B000A2FFE8680028EAD138680128F9D9C9F84D
:10C3C0000080BFF34F8FBFF36F8FF2E7C4150020DB
:10C3D0003C00002004ED00E00346009829B1026013
:10C3E000C0E90F31012100F057BC0060F8E72DE9EA
:10C3F000F0479A4681466FF00303DDE9098403EBB9
:10C400008202089D206B104420F00706700709D0B7
:10C41000502072B680F31188BFF34F8FBFF36F8F38
:10C4200062B6FEE7002761B1002023180A5C83F89A
:10C4300034200A5C12B1401C1028F6D384F84370F3
:10C4400001E084F83470072D00D30625E562201D35
:10C45000C4E9115700F0ABF904F1180000F0A7F996
:10C460002461C5F107006462A061E76484F850703C
:10C4700052464946304600F019F9B8F1000F2060E5
:10C4800001D0C8F80040BDE8F087000030B5114980
:10C4900000E011460A688242FBD34B685C18844274
:10C4A00003D1406818444860084643681C18944209
:10C4B00009D1084C103C2468A24209D052681A44A1
:10C4C00042600A6812680260814200D0086030BD94
:10C4D0000460F9E78800002010B5044600F08EF9EA
:10C4E000A06B20B1002400F0ADF9204610BD01245E
:10C4F000F9E7000006484168096829B14168C96840
:10C50000C9684968016370474FF0FF31FAE70000DE
:10C510003C0000200A484068401C4FF0500072B6B2
:10C5200080F3118805D0BFF34F8FBFF36F8F62B6D2
:10C53000FEE7BFF34F8FBFF36F8F62B6FEE70000D9
:10C54000900000202DE9F041044600F057F994F9DD
:10C55000455004F1240609E0606A48B1304601F014
:10C5600067F808B100F026FA6D1E6DB2002DF3DCFD
:10C570004FF0FF3684F8456000F064F900F03EF9B2
:10C5800094F9445004F1100709E0206948B1384695
:10C5900001F04EF808B100F00DFA6D1E6DB2002DDD
:10C5A000F3DC84F84460BDE8F04100F04BB90000D2
:10C5B0002DE9F0410026054600F0AEFA344F386808
:10C5C00008B9FFF7B5FEF86805424FD1E5B3083565
:10C5D000680710D005F00700C0F10800054468079F
:10C5E00009D0502072B680F31188BFF34F8FBFF38C
:10C5F0006F8F62B6FEE73DB37868854236D824492E
:10C6000010310846046801E0214604466068A842EB
:10C6100002D220680028F7D13868844226D00E68FC
:10C620002068086008366068411B102911D960191C
:10C6300042070AD0502072B680F31188BFF34F8FA3
:10C64000BFF36F8F62B6FEE710E041606560FFF7F1
:10C650001DFF61687868401A7860BA68904200D21D
:10C66000B860F86801430020C4E9000101F01CF83B
:10C67000700709D0502072B680F31188BFF34F8F36
:10C68000BFF36F8F62B6FEE73046BDE8F081000071
:10C69000780000200449086818B10868826C521CB0
:10C6A00082640868704700003C000020031F10B53A
:10C6B0004FF080741C601B1F21F001011960191FCD
:10C6C000044B0B6014390A60091F44386FF00202F2
:10C6D0000A6010BD15C5000838B5F9F787F904469A
:10C6E000F9F780F90022214613460092FCF79EF8E4
:10C6F0001149104808600020FCF724F80D48083064
:10C70000FAF722F80D480078C0070DD10B48FFF763
:10C71000B9FB48B10A48F9F715F90A4A0A49F4F78A
:10C72000AAF80648AFF30080BDE838400748F9F79B
:10C73000F9B80000080000201403002020030020A6
:10C740005C97002000000008BD5900084414002038
:10C750000148FBF763BA000044140020D0E901321D
:10C7600001699A60D0E901235A604A68824201D186
:10C7700082684A60002202610868401E08600868FA
:10C7800070470000034B036003F1540008608020F1
:10C7900010607047580500204FF0FF3200F108018B
:10C7A000C0E90112C16001610021016070470021F0
:10C7B0000161704730B50C68621C02D000F10802BC
:10C7C00002E0026904E01A4653681D68A542FAD9DE
:10C7D00053684B6099608A60516008610168491C28
:10C7E000016030BD42684A6093688B60936859600D
:10C7F000916008610168491C01607047502072B661
:10C8000080F31188BFF34F8FBFF36F8F0B4962B670
:10C810004868401C486001280ED10948006810F0A3
:10C82000FF0F09D0502072B680F31188BFF34F8FED
:10C83000BFF36F8F62B6FEE77047000090000020E4
:10C8400004ED00E00949486828B1401E486001D164
:10C8500080F311887047502072B680F31188BFF3BF
:10C860004F8FBFF36F8F62B6FEE70000900000208D
:10C8700070B500282BD0164DA0F108046068E96857
:10C88000084209D1502072B680F31188BFF34F8F50
:10C89000BFF36F8F62B6FEE722684AB1502072B6CE
:10C8A00080F31188BFF34F8FBFF36F8F62B6FEE73F
:10C8B0008843606000F030F9606869680844686027
:10C8C0002046FFF7E3FDBDE8704000F0EDBE70BD0F
:10C8D000780000204FF0E0200021016181614FF4D9
:10C8E0007A7204490968B1FBF2F1491E41610721DE
:10C8F000016170473800002010B5F3F75FFD134960
:10C90000102810D300F1E02090F8F0030A7890424C
:10C9100009D2502072B680F31188BFF34F8FBFF356
:10C920006F8F62B6FEE70A480068896800F4E0602D
:10C93000884209D9502072B680F31188BFF34F8F17
:10C94000BFF36F8F62B6FEE710BD000090000020BD
:10C950000CED00E0020010B516D01048806B48B115
:10C96000502072B680F31188BFF34F8FBFF36F8FE3
:10C9700062B6FEE700F0D0F800211046FFF7D2FBC8
:10C9800000F092FE002807D105494FF08050086062
:10C99000BFF34F8FBFF36F8F10BD00003C0000202E
:10C9A00004ED00E002498A6A02604969416070470B
:10C9B0003C00002001490120486270473C000020F3
:10C9C00010B50C4650B10A4909681831FFF7F2FE5C
:10C9D0002046BDE810400121FFF7A4BB502072B6ED
:10C9E00080F31188BFF34F8FBFF36F8F62B6FEE7FE
:10C9F0003C00002070B504000B464FD0A26CB2B1D1
:10CA0000616C994200D21946E06A884246D0012AF8
:10CA100044D1234D2A68944213D1502072B680F33A
:10CA20001188BFF34F8FBFF36F8F62B6FEE75020C0
:10CA300072B680F31188BFF34F8FBFF36F8F62B66A
:10CA4000FEE7E162A269002A02DBC1F10701A161F0
:10CA5000144E00EB8000616906EB800081421DD11D
:10CA6000201DFFF77BFE012150B9E06A00EB800238
:10CA700056F8222022B901FA00F2A8699043A86171
:10CA8000E06AAA6981401143A96100EB8000211D81
:10CA900006EB8000BDE87040FFF7A4BE70BD00004B
:10CAA0003C000020FC14002010B586B0002405AA2C
:10CAB00004A9039403A80494FFF764FEDDE90301CD
:10CAC00000940023CDE9011011480FA1059A00F050
:10CAD00070FC10490028486313D0502072B680F3D0
:10CAE0001188BFF34F8FBFF36F8F62B64FF0FF30E7
:10CAF00008630120C8614C6106B0BDE8104000F039
:10CB000043B806B010BD000049444C450000000089
:10CB10007DC300083C0000200248816B491C8163F2
:10CB2000704700003C000020154A906B10B10120B6
:10CB3000506270470020506290691249B0FA80F04C
:10CB4000C0F11F0000EB800051F820306BB101EB09
:10CB5000800000F10803416849684160994201D1B1
:10CB600049684160C86810607047502072B680F311
:10CB70001188BFF34F8FBFF36F8F62B6FEE70000DF
:10CB80003C000020FC1400202C491CB508780190C2
:10CB9000FF20087008788DF800009DF800009DF8CF
:10CBA000002000F0F000904209D0502072B680F3CF
:10CBB0001188BFF34F8FBFF36F8F62B6FEE79DF80A
:10CBC00000001F4B00F0500018700720986006E02E
:10CBD000401E98609DF8000040008DF800009DF810
:10CBE000000000069868F3D4032809D0502072B6DC
:10CBF00080F31188BFF34F8FBFF36F8F62B6FEE7EC
:10CC00004FF440709860019808700E48016841F434
:10CC100070010160016841F070410160FFF75AFE48
:10CC200000205860F3F790FB0748016841F040414D
:10CC30000160F3F775FB00201CBD000000E400E07C
:10CC40009000002020ED00E034EF00E0F8B5050092
:10CC500017460E4614D0EEB105FB06F04830FFF73C
:10CC6000A7FC04000AD0002084F8460004F1480222
:10CC70003B46314628460094FFF7AEFB2046F8BD00
:10CC8000502072B680F31188BFF34F8FBFF36F8FC0
:10CC900062B6FEE70020E1E770B504000D4625D03E
:10CCA000FFF7ACFDD4E90F20216802FB0011A16061
:10CCB0000021A163216861600A46D4E90F01401E8A
:10CCC00000FB0121E1604FF0FF3084F8440084F85C
:10CCD000450004F110009DB1FFF75EFD04F1240052
:10CCE000FFF75AFDFFF7AEFD012070BD502072B670
:10CCF00080F31188BFF34F8FBFF36F8F62B6FEE7EB
:10CD000021690029EED000F093FC0028EAD0044904
:10CD10004FF080500860BFF34F8FBFF36F8FE1E794
:10CD200004ED00E02DE9FF4F04001F4683B08B4661
:10CD30004FF0000603D0BBF1000F0AD015E05020E1
:10CD400072B680F31188BFF34F8FBFF36F8F62B657
:10CD5000FEE7206C48B1502072B680F31188BFF313
:10CD60004F8FBFF36F8F62B6FEE7022F0CD1E06BDF
:10CD7000012809D0502072B680F31188BFF34F8F7D
:10CD8000BFF36F8F62B6FEE700F044FBDFF804915B
:10CD90004FF080584FF0000A58B9059848B150201C
:10CDA00072B680F31188BFF34F8FBFF36F8F62B6F7
:10CDB000FEE7FFF723FDA06BE16B884205D3022F4E
:10CDC00003D00598C8B1DEB11EE03A465946204668
:10CDD000FFF75BFA616A19B104F1240000F028FC46
:10CDE00028B1C9F80080BFF34F8FBFF36F8FFFF7F3
:10CDF00029FD012007B0BDE8F08FFFF723FD21E0FA
:10CE00006846FFF7CFFD0126FFF71CFDFFF784FE04
:10CE1000FFF7F4FC94F94400401C01D184F844A0CD
:10CE200094F94500401C01D184F845A0FFF70AFDA4
:10CE300005A9684600F052FA30B12046FFF782FBA0
:10CE400000F032FC0020D5E7FFF7D8FCA06BE16BC7
:10CE5000884201D1012500E00025FFF7F3FC95B1E0
:10CE6000059904F11000FFF7ABFD2046FFF76AFBC0
:10CE700000F01AFC00289CD1C9F80080BFF34F8F46
:10CE8000BFF36F8F95E72046FFF75CFB00F00CFCCB
:10CE90008FE7000004ED00E02DE9F04704001F4695
:10CEA0009046894603D0B9F1000F0AD015E0502012
:10CEB00072B680F31188BFF34F8FBFF36F8F62B6E6
:10CEC000FEE7206C48B1502072B680F31188BFF3A2
:10CED0004F8FBFF36F8F62B6FEE7022F0CD1E06B6E
:10CEE000012809D0502072B680F31188BFF34F8F0C
:10CEF000BFF36F8F62B6FEE7FFF7FEFC5020EFF343
:10CF0000118672B680F31188BFF34F8FBFF36F8F16
:10CF100062B6A06BE16B884206D3022F04D00020DA
:10CF200086F31188BDE8F08794F945503A464946A2
:10CF30002046FFF7AAF9681C04D06D1C84F8455000
:10CF40000120EDE7606A0028FAD004F1240000F027
:10CF50006FFB0028F4D0B8F1000FF1D00121C8F820
:10CF60000010EDE770B504000E460BD0206C98B1B0
:10CF7000502072B680F31188BFF34F8FBFF36F8FCD
:10CF800062B6FEE7502072B680F31188BFF34F8F70
:10CF9000BFF36F8F62B6FEE7206858B9A06848B14A
:10CFA000502072B680F31188BFF34F8FBFF36F8F9D
:10CFB00062B6FEE7FFF7A0FC5020EFF3118572B6D2
:10CFC00080F31188BFF34F8FBFF36F8FA16B62B6F1
:10CFD000E06B884218D994F94500491CA163411CB3
:10CFE00004D0401C84F8450001200EE0606A00284F
:10CFF000FAD004F1240000F01BFB0028F4D0002E2E
:10D00000F2D001203060EFE7002085F3118870BD79
:10D010002DE9F74704008A4683B04FF0000603D09D
:10D02000BAF1000F0AD015E0502072B680F31188D3
:10D03000BFF34F8FBFF36F8F62B6FEE7206C48B12E
:10D04000502072B680F31188BFF34F8FBFF36F8FFC
:10D0500062B6FEE700F0DEF9DFF8F49000274FF04B
:10D06000805858B9059848B1502072B680F311889D
:10D07000BFF34F8FBFF36F8F62B6FEE7FFF7BEFBC4
:10D08000A56BC5B151462046FFF7ECF86D1EA563B0
:10D09000206950B104F1100000F0CAFA28B1C9F8B3
:10D0A0000080BFF34F8FBFF36F8FFFF7CBFB0120E3
:10D0B00006B0BDE8F087059808B11EB106E0FFF79D
:10D0C000C1FB27E06846FFF76DFC0126FFF7BAFBBE
:10D0D000FFF722FDFFF792FB94F94400401C01D1B9
:10D0E00084F8447094F94500401C01D184F84570DF
:10D0F000FFF7A8FB05A9684600F0F0F800282046D5
:10D100000AD0FFF71FFA00F0CFFA2046FFF7E4F944
:10D110000028B3D00020CBE7FFF7DEF990B10599E6
:10D1200004F12400FFF74CFC2046FFF70BFA00F057
:10D13000BBFA0028A2D1C9F80080BFF34F8FBFF31C
:10D140006F8F9BE72046FFF7FDF900F0ADFA95E7FA
:10D1500004ED00E02DE9F3434FF0000504002E46F6
:10D1600083B00BD0206C98B1502072B680F3118838
:10D17000BFF34F8FBFF36F8F62B6FEE7502072B6DA
:10D1800080F31188BFF34F8FBFF36F8F62B6FEE756
:10D1900000F040F9DFF8409100274FF0805858B96F
:10D1A000049848B1502072B680F31188BFF34F8FB6
:10D1B000BFF36F8F62B6FEE7FFF720FBA06BC8B12D
:10D1C000401EA063206810B9FFF764FAA0602069D0
:10D1D00050B104F1100000F02BFA28B1C9F800801A
:10D1E000BFF34F8FBFF36F8FFFF72CFB012005B00C
:10D1F000BDE8F083049808B175B111E04EB150203C
:10D2000072B680F31188BFF34F8FBFF36F8F62B692
:10D21000FEE7FFF717FB5DE06846FFF7C3FB01255C
:10D22000FFF710FBFFF778FCFFF7E8FA94F94400EA
:10D23000401C01D184F8447094F94500401C01D190
:10D2400084F84570FFF7FEFA04A9684600F046F836
:10D250000028204612D0FFF775F900F025FA204685
:10D26000FFF73AF90028A7D09EB3FFF7C7FA606A24
:10D2700050B3206B0068C0F1070126E0FFF72CF9DE
:10D28000E0B1206838B9FFF7B9FAA06800F086F974
:10D290000646FFF7D7FA049904F12400FFF790FB44
:10D2A0002046FFF74FF900F0FFF9002884D1C9F8B4
:10D2B0000080BFF34F8FBFF36F8F7DE72046FFF7EE
:10D2C00041F900F0F1F977E70021A068FFF792FB40
:10D2D0009FE7FFE700208AE704ED00E02DE9F04139
:10D2E00005000C4611D0D4B1FFF788FA194E7169C8
:10D2F0006B682268C81A571C1BD02F68B66AB742E1
:10D300001DD08B421BD8012414E0502072B680F34C
:10D310001188BFF34F8FBFF36F8F62B6FEE75020C7
:10D3200072B680F31188BFF34F8FBFF36F8F62B671
:10D33000FEE70024FFF786FA2046BDE8F08182422E
:10D3400005D9101A20602846FFF72CFBF1E70020D2
:10D350002060D8E73C0000202DE9FF5F9946164683
:10D360008A4683469000DDE90E87FFF721F9050024
:10D370001CD05420FFF71CF9040014D000202563B2
:10D3800084F851004B46CDE90087CDE90240324692
:10D3900051465846FFF72BF82046FEF7FBFE0120CA
:10D3A00004B0BDE8F09F2846FFF762FA4FF0FF3067
:10D3B000F6E7F0B585B00546DDE90B040A9EA8B195
:10D3C000F4B1542700972063022084F85100002014
:10D3D00004AFCDE90240CDE900672846FFF707F822
:10D3E0002046FEF7D7FE049805B0F0BD502072B677
:10D3F00080F31188BFF34F8FBFF36F8F62B6FEE7E4
:10D40000502072B680F31188BFF34F8FBFF36F8F38
:10D4100062B6FEE70548C16919B1806B18B10020FA
:10D420007047012070470220704700003C00002038
:10D430002DE9F0412F4F0026B86B40B1386A401CEF
:10D440003862786A00B101263046BDE8F0817D6916
:10D450006D1C7D6115D17868006848B1502072B6A6
:10D4600080F31188BFF34F8FBFF36F8F62B6FEE773
:10D470007868B9687960B860B86A401CB862FFF72C
:10D4800039F8386BDFF87080854209D37868006816
:10D4900080B17868C068C468606885420DD238631E
:10D4A0003868C06A00EB800158F821000128C8D90B
:10D4B0000126C6E74FF0FF30F1E7201DFFF74EF9D8
:10D4C000A06A18B104F11800FFF748F9E06A0121D9
:10D4D000BA6981401143B96100EB800108EB81001A
:10D4E000211DFFF77FF9E06A3968C96A8842CDD308
:10D4F0000126CBE73C000020FC14002070B504009E
:10D500004FF0000045D0234D29688C4209D05020AF
:10D5100072B680F31188BFF34F8FBFF36F8F62B67F
:10D52000FEE7A16C71B1491EA164636CE26A9A4284
:10D530002FD000292DD1201DFFF710F91649012207
:10D5400050B114E0502072B680F31188BFF34F8FB2
:10D55000BFF36F8F62B6FEE7E06A00EB800351F81D
:10D56000233023B9AB6902FA00F08343AB61606CEE
:10D57000E062C0F10700A061E06AAB6982401A4333
:10D58000AA6100EB800001EB8000211DFFF72AF962
:10D59000012070BD3C000020FC14002070B5040088
:10D5A0004FF0000039D0204DE16A2A68D26A9142DA
:10D5B00034D2A069002804DB2868C06AC0F10700E3
:10D5C000A061E06A194E616900EB800006EB800003
:10D5D00081421ED1201DFFF7C1F8012150B9E06A38
:10D5E00000EB800256F8222022B9AA6901FA00F065
:10D5F0008243AA612868C06AE062AA698140114337
:10D60000A96100EB8000211D06EB8000FFF7EAF81E
:10D6100002E02868C06AE062012070BD616C2A687F
:10D62000D26A9142F8D370BD3C000020FC14002067
:10D630002DE9F041C068C468ACB104F11800074698
:10D64000FFF78CF8164DA86B0126B0B11548394686
:10D65000FFF7C8F8E06A2968C96A88421ED9012024
:10D660006E62BDE8F081502072B680F31188BFF37E
:10D670004F8FBFF36F8F62B6FEE7201DFFF76EF886
:10D68000E06AAA6906FA00F11143A961054900EBB5
:10D690008000B43901EB8000211DD9E70020E0E7CC
:10D6A0003C000020B01500202DE9F0472D4D00244E
:10D6B0002746A86B38B1FFF7A1F8A86B401EA863F6
:10D6C000A86B50B148E0502072B680F31188BFF3C8
:10D6D0004F8FBFF36F8F62B6FEE72869012622499C
:10D6E000D0B3A1F1B4098846D8F80010E9B1D8F850
:10D6F0000C00C46804F11800FFF730F8201DFFF794
:10D700002DF8E06AAA6906FA00F11143A96100EB5D
:10D71000800109EB8100211DFFF764F8E06A2968A8
:10D72000C96A8842E0D36E62DEE70CB1FEF7E2FE22
:10D730002C6A3CB1FFF77CFE00B16E62641EF9D129
:10D7400000202862686A38B1084901273807086054
:10D75000BFF34F8FBFF36F8FFFF774F83846BDE804
:10D76000F08700003C000020B015002004ED00E030
:10D7700010B5C28A8A4201D8F3F772F8828A11443E
:10D780000A22B1FBF2F302FB131130F8110010BDB5
:10D7900010B5C28A0A2A01D3F3F762F8838A1A44C1
:10D7A0000A23B2FBF3F403FB142220F81210C18AFF
:10D7B000491CC18210BD70B5C28A8A4201D2F3F7FA
:10D7C0004FF8838A0A240B44B3FBF4F5511A04FB87
:10D7D00015338382C18270BD10B5C38A8B4201D8D4
:10D7E000F3F73EF8838A19440A23B1FBF3F403FBF1
:10D7F000141120F8112010BD10B5C288521C022A45
:10D8000011D80279521E02F001038380C2880346B8
:10D81000521C1204120CC28005D0027902F00102DF
:10D8200023F8121010BDF3F71BF800002DE9F047A4
:10D830008246906889469846089F14460168096A9E
:10D840008847E8280BD360680168096A8847102870
:10D8500005D3E0680168096A88470C2801D2F2F70D
:10D86000FFFF424649465046F9F706FDE0680021B1
:10D870000268526A904718B1F8F714FC1649016023
:10D8800000210646A06800F037FB18B1F8F72AF827
:10D89000054600E000256068002100F030FB20B163
:10D8A0002946F8F705FA044600E00024C8F80060AD
:10D8B000C9F80040CAF800500CB1201D00E000205B
:10D8C0003860A760324621462846EC63F9F7FEFC33
:10D8D0002046BDE8F08700002CE800082DE9F0475D
:10D8E0008246906889469846089F14460168096AEE
:10D8F0008847E8280BD360680168096A88471028C0
:10D9000005D3E0680168096A8847542801D2F2F714
:10D91000A7FF424649465046F9F7AEFCE0680021B1
:10D920000268526A904720B1142100F085FA064639
:10D9300000E00026A068002100F0DEFA18B1F7F739
:10D94000D1FF054600E000256068002100F0D7FA0D
:10D9500020B12946F8F7ACF9044600E00024C8F8E5
:10D960000060C9F80040CAF800500CB1201D00E06A
:10D9700000203860A760324621462846EC63F9F75C
:10D98000A5FC2046BDE8F0872DE9F0478246906867
:10D9900089469846089F14460168096A8847E8281E
:10D9A0000BD360680168096A8847102805D3E068CE
:10D9B0000168096A8847542801D2F2F751FF4246AC
:10D9C00049465046F9F758FCE06800210268526A5F
:10D9D000904720B1142100F0FFF8064600E0002631
:10D9E000A06800210268526A904718B1F7F78CFFCF
:10D9F000054600E00025606800210268526A9047F1
:10DA000020B12946F8F762F9044600E00024C8F87E
:10DA10000060C9F80040CAF800500CB1201D00E0B9
:10DA200000203860A760324621462846EC63F9F7AB
:10DA30004DFC2046BDE8F08770B504462748012517
:10DA40000078B0B194F84E00401CC0B284F84E008B
:10DA500094F84D30984227D8B4F950200021F9F7B6
:10DA6000F6FAC107A4F852000AD0002803DD01210C
:10DA700003E0257270BD4FF0FF310844A4F8520056
:10DA800094F84C0004F10C03E0B101281AD00228EC
:10DA90000FD003280DD02572606801688A6F04F1E9
:10DAA0003C01BDE8704010472572002084F84E000C
:10DAB00070BD208AB4F85210081A01B2A4F85210AE
:10DAC000002207E0608AB4F85210081A02B2A4F8E3
:10DAD000522000211846FBF73BFADDE7FA0200204E
:10DAE00030B490F84C200B46114800888AB1012AC6
:10DAF00013D01048022A008807D0032A15D11968CC
:10DB0000002240424C6D01B20BE0196800224C6DBE
:10DB1000F9E7196840424C6D01E019684C6D02B29A
:10DB200000211846A44630BC604730BC7047000056
:10DB300000030020FE02002030B40B46816B9942A6
:10DB40000AD090F84C207AB1012A0DD0022A05D0D3
:10DB5000032A03D00121017230BC7047B0F9521082
:10DB600000221868446D04E0B0F9522000211868C2
:10DB7000446D1846A44630BC604700001FB50446FB
:10DB80000B480078002811D00A482146D0E90C2320
:10DB9000684600F039FA606801688A6F6946904704
:10DBA000606801680A6E04F10C0190471FBD000017
:10DBB000FA0200203CE100080146064800780028EF
:10DBC00006D04868002803D002680C31526E104716
:10DBD00070470000FA020020F8B50D46F8F762FA27
:10DBE000234940F80C1BF9F70BFAC062A0F10C01B5
:10DBF0002048D0E90A2301F13C0000F005FAA0F129
:10DC00003C04022084F84C00002084F84D5084F835
:10DC10004E00A4F8520018480078D8B1174D0022E1
:10DC2000174E1146288800B20090308803B204F1E4
:10DC30000C000746FBF777F93846F9F7DBF994F85B
:10DC40004C0068B101280DD0022805D0032805D06A
:10DC5000012020722046F8BD308804E0308803E0BF
:10DC6000288801E028884042A4F85000F2E700002C
:10DC70004CE900083CE10008FA0200200003002003
:10DC8000FE020020034910B540F80C1BF9F7DEF93D
:10DC90000C3810BD4CE9000870B504462748012532
:10DCA0000078B0B194F84E00401CC0B284F84E0029
:10DCB00094F84D30984227D8B4F950200021F9F754
:10DCC000C6F9C107A4F852000AD0002803DD0121DB
:10DCD00003E0257270BD4FF0FF310844A4F85200F4
:10DCE00094F84C0004F10C03E0B101281AD002288A
:10DCF0000FD003280DD02572606801688A6F04F187
:10DD00003C01BDE8704010472572002084F84E00A9
:10DD100070BD208AB4F85210081A01B2A4F852104B
:10DD2000002207E0608AB4F85210081A02B2A4F880
:10DD3000522000211846FBF70BF9DDE7FA0200201C
:10DD400030B490F84C200B46114800888AB1012A63
:10DD500013D01048022A008807D0032A15D1196869
:10DD6000002240424C6D01B20BE0196800224C6D5C
:10DD7000F9E7196840424C6D01E019684C6D02B238
:10DD800000211846A44630BC604730BC70470000F4
:10DD900000030020FE02002030B40B46816B994244
:10DDA0000AD090F84C207AB1012A0DD0022A05D071
:10DDB000032A03D00121017230BC7047B0F9521020
:10DDC00000221868446D04E0B0F952200021186860
:10DDD000446D1846A44630BC604700001FB5044699
:10DDE0000B480078002811D00A482146D0E90023CA
:10DDF000684600F021F9606801688A6F69469047BB
:10DE0000606801680A6E04F10C0190471FBD0000B4
:10DE1000FA0200203CE1000801460648007800288C
:10DE200006D04868002803D002680C31526E1047B3
:10DE300070470000FA020020F8B50D46F8F732F9F5
:10DE4000234940F80C1BF9F7DBF8C062A0F10C0184
:10DE50002048D0E9082301F13C0000F0EDF8A0F1E2
:10DE60003C04032084F84C00002084F84D5084F8D2
:10DE70004E00A4F8520018480078D8B1174D00227F
:10DE8000174E1146288800B20090308803B204F182
:10DE90000C000746FBF747F83846F9F7ABF894F85B
:10DEA0004C0068B101280DD0022805D0032805D008
:10DEB000012020722046F8BD308804E0308803E05D
:10DEC000288801E028884042A4F85000F2E70000CA
:10DED00074E900083CE10008FA0200200003002079
:10DEE000FE020020034910B540F80C1BF9F7AEF80C
:10DEF0000C3810BD74E900080268526A10470268C5
:10DF0000526A1047002801DA404200B270477CB5DF
:10DF100015460C4606466846FAF7A8FBB4F84000DA
:10DF2000A84213D904EBC500016800914168019132
:10DF3000B4F84010491E89B2A4F84010A94205D98E
:10DF400004EBC1010A6802604968416000983060D2
:10DF5000019870607CBD10B5B0F84030082B01D33B
:10DF6000F2F77EFC00EBC3045B1CA0F8403021609C
:10DF7000626010BD082304491A4610B5FDF770FF12
:10DF80000021A0F8401010BD6D86000830B4C268B2
:10DF90004368D40703EB6203826801D01868825893
:10DFA000184630BC104730B4C2684368D40703EB4E
:10DFB0006203826801D018688258184630BC104746
:10DFC000C1684268CB0702EB6102816801D010682A
:10DFD000415810460847000010B5034C10C080E8B7
:10DFE0000E00001F10BD00009CEC000830B4C26899
:10DFF0004368D40703EB6203826801D01868825833
:10E00000184630BC1047000010B5034C10C080E823
:10E010000E00001F10BD0000B4EC000830B4C26850
:10E020004368D40703EB6203826801D01868825802
:10E03000184630BC1047000010B5034C10C080E8F3
:10E040000E00001F10BD0000CCEC0008E820704757
:10E0500001EB4102C2EB411100EBC10008307047F7
:10E060001020704700EB01100830704754207047B3
:10E07000C1EBC10101EB410100EB810008307047A9
:10E08000C08A0A2801D000207047012070474168EB
:10E0900039B1816819B9C068C10702D008B101203F
:10E0A000704700207047416839B1816819B9C0686C
:10E0B000C10702D008B101207047002070474168B5
:10E0C00039B1816819B9C068C10702D008B101200F
:10E0D0007047002070474FF04070E1EE100A704723
:10E0E000D0F100084D4C00080000000000000000C6
:10E0F0000010000000000000000000000000000010
:10E1000000000000010203040607080900000000E7
:10E110000102030400000090000000002A002A0011
:10E12000070006001C001E40901B0090000000002D
:10E130002A002A00070006001C001E4018000000EC
:10E1400001000000455E000800000000B95E000804
:10E1500000000000DD5E0008000000001C00000060
:10E16000010000001C000000010000001800000079
:10E170000100000000000000000000004F5B0008EC
:10E1800000000000F3590008000000002037009054
:10E1900038370090B43B009038450090815800001B
:10E1A000000000008140000000000000002003E0AB
:10E1B00001053C000108280C503203050000000056
:10E1C00000000017191E148B2B0D33350C080000AE
:10E1D000009A03110001000000000032000000203E
:10E1E0005894C50200000004B02300932B007B3537
:10E1F000006941005B4F005B000000000000000070
:10E20000000000000000000000000000000000000E
:10E2100000000000000000000000000002040608EA
:10E220000A0C0E10121416181AFF0000000000004D
:10E230000000000000000000000000020406080AC0
:10E240000C0F10121316181C1D1E1F20212224262D
:10E25000FFFFFFFF000000FFFFFFFFFFFFFFFFFFCB
:10E26000FFFFFFFF4801002003E001050D0001084A
:10E27000280F5032030500000000000000000000DD
:10E28000008A2A0C45470C0800000002022D0000FD
:10E29000000000036432000000286494C5020700F7
:10E2A00000049C2C008F3400843F007C4C00775B82
:10E2B00000770000000000000000000000000000E7
:10E2C000000000000000000000000000000000004E
:10E2D00000000000000018161412100E0C0A0806A8
:10E2E0000402FFFF0000000000000000000000002A
:10E2F0000000000016181C1D1E1F202122241312CE
:10E30000100F0A0806040200FFFFFFFFFFFF0000D6
:10E3100000000000000000000000000000002401D8
:10E3200097E0011001050D00010000055A46531148
:10E3300000001111141414220A040000000000004F
:10E3400053001400008400003C0000641E2887274E
:10E35000083234050D2033601102240000648080EF
:10E3600014020000548968856D827280767D7B7B03
:10E3700000000000000000F0503CFFFF070000001C
:10E3800002141403040021640A00000000000000CD
:10E39000000000000000000000000000000000007D
:10E3A00000003220503C3C00000000000D060C052F
:10E3B0000B040A03FFFFFFFFFFFF00010203040538
:10E3C000060708090A0B0C0DFFFFFFFFFFFFFFFF09
:10E3D000FFFFFFFF00000000000000000000000041
:10E3E00000003C00051E00022A1E19140200030A48
:10E3F000050000000000000001FFFF86220300006E
:10E4000033000F000000503C50000000002A0100C3
:10E410002003E00147802003E0014780E001100174
:10E4200050802003E0015080814E00000000000079
:10E4300000000000814E000000000000000000000D
:10E440000000000000000000FFFFFFFFFFFFFFFFD4
:10E4500000000000FFFFFFFF01000000FFFFFFFFC3
:10E46000FFFFFFFF00000000FFFFFFFF01000000B3
:10E470000100000000000000010000000100000099
:10E4800000000000010000003031323334353637EF
:10E4900038394142434445464030580030313233E8
:10E4A00034353637383961626364656640307800E8
:10E4B000040000080000000000000002000100004D
:10E4C000100000000000000000000000AD55000832
:10E4D000996D00083D6E000875550008436E0008F0
:10E4E0006D580008DD6D0008AD5800080000000000
:10E4F0006D6E0008F36D0008E56D0008B555000865
:10E5000039570008E16D0008E36D000800000000C5
:10E510002F6E00080000000000000000F558000801
:10E5200000000000A18B0008DD580008D188000819
:10E53000E158000895890008D5880008498B000833
:10E5400091890008CD88000800000000000000004C
:10E550001959000800000000A18B000801590008AB
:10E56000D18800080559000895890008D588000859
:10E57000498B000891890008CD8800080000000040
:10E5800000000000415900080000000075760008F6
:10E590001D7C0008000000002D590008B975000816
:10E5A000957B0008FD740008CD75000859B100087E
:10E5B0009D7B000851740008000000006D7A00087F
:10E5C0003175000859740008F17A0008AD7A000826
:10E5D0006D76000800000000D1750008E5740008A1
:10E5E0003959000829590008315900083D590008D7
:10E5F000000000000000000001770008817600089C
:10E60000117C0008C7750008257400080000000090
:10E61000000000009D7700080D740008797B000859
:10E6200035590008197900089179000831770008F8
:10E630000000000000000000BD59000800000000BC
:10E64000000000000000000000000000415B000826
:10E6500000000000A18B0008F1590008D1880008D3
:10E66000CF88000895890008D5880008498B0008E4
:10E6700091890008CD88000800000000000000001B
:10E68000A15C000800000000A18B00084D5B0008A1
:10E69000D1880008CF88000895890008D58800082F
:10E6A000498B000891890008CD880008000000000F
:10E6B00000000000AF5C0008AD5C0008C55C00080D
:10E6C00000000000FCFFFFFF000000000000000051
:10E6D000000000000000000000000000C95C00080D
:10E6E000C75C0008E15C000800000000FCFFFFFFC1
:10E6F000000000000000000000000000000000001A
:10E7000000000000D9620008CD610008ED62000839
:10E71000C5600008F15C0008836F0008000000007D
:10E72000000000000000000000000000B1660008CA
:10E7300035660008016300080000000000000000CA
:10E74000515D0008000000004D5D0008195D0008E3
:10E75000000000000000000000000000195E00083A
:10E76000000000000000000000000000D962000866
:10E77000CD610008ED620008C5600008E161000895
:10E78000836F00087D5F00080000000000000000AB
:10E7900000000000B166000835660008016300084B
:10E7A0000000000000000000000000000000000069
:10E7B000000000000000000000000000B56000083C
:10E7C0000000000099600008A16000089F60000838
:10E7D0009B6000080000000000000000D9620008F3
:10E7E000CD610008ED620008C5600008E161000825
:10E7F0003366000800000000000000000000000078
:10E8000000000000B16600083566000801630008DA
:10E8100000000000000000000000000000000000F8
:10E820000000000000000000000000007367000806
:10E83000000000006D670008A16000089F600008EC
:10E840009B60000800000000000000002D6F000821
:10E8500000000000A1BC00087DB40008EBB3000874
:10E86000E7B3000800000000B1B30008000000009A
:10E870000000000000000000ADB3000873B4000801
:10E88000D9B30008E1B30008BFB1000800000000E0
:10E89000F9B10008FDB10008000000000000000010
:10E8A000D9620008CD610008ED620008C56000086B
:10E8B000E1610008836F0008000000000000000014
:10E8C0000000000000000000B16600083566000886
:10E8D0000163000800000000000000004D70000807
:10E8E000000000003DB200080DB20008FDB90008AC
:10E8F000A1B9000800000000D58E0008BFB90008CB
:10E900007FBA0008278F00084B9000084F9000083E
:10E91000539000086F9000087390000800000000FA
:10E920000F900008119000080B9000080D9000084F
:10E93000518F000800000000F98F0008F56F0008F3
:10E94000AB6F0008000000000000000085DC00083C
:10E950000000000039DA0008B9DB00087DDB0008A0
:10E960009B600008E1DA000839DB000800000000C5
:10E9700000000000E5DE00080000000099DC00084F
:10E9800019DE0008DDDD00089B60000841DD00089D
:10E9900099DD00080000000000000000D5710008AB
:10E9A0000000000000000000000000000000000067
:10E9B000000000000000000095BE000895BE0008A1
:10E9C00095BE000895BE0008000000000000000091
:10E9D0005372000839720008D77100080000000067
:10E9E000000000000D7200082F72000800000000F7
:10E9F000000000000000000000000000E5B2000878
:10EA0000ADB20008FDB90008A1B90008000000007F
:10EA1000D58E0008BFB900087FBA0008278F00080C
:10EA20004B9000084F900008539000086F9000082A
:10EA300073900008000000000F900008119000087B
:10EA40000B9000080D900008518F00080000000096
:10EA5000F98F000800000000000000000000000026
:10EA600000000000757600081D7C00080000000012
:10EA700079750008B9750008957B0008FD740008D9
:10EA8000CD75000895BE00089D7B000851740008F4
:10EA9000000000006D7A0008317500085974000804
:10EAA000F17A0008AD7A00086D76000800000000D9
:10EAB000D1750008E574000895BE000895BE0008F1
:10EAC00095BE000895BE0008000000000000000090
:10EAD0000177000881760008117C0008C7750008DE
:10EAE0002574000800000000000000009D77000869
:10EAF0000D740008797B000895BE0008197900089C
:10EB00009179000831770008000000000000000043
:10EB1000000000000000000095BE00087DB4000861
:10EB2000EBB30008E7B3000800000000B1B3000831
:10EB3000000000000000000000000000ADB300086D
:10EB400073B40008D9B30008E1B30008A5B3000806
:10EB500000000000A9B30008000000000000000051
:10EB60000000000000000000DDB800089DB80008AB
:10EB7000FDB90008A1B9000800000000D58E00080A
:10EB8000BFB900087FBA0008278F00084B90000823
:10EB90004F900008539000086F9000087390000891
:10EBA000000000002F6F0008119000080B90000873
:10EBB0000D900008518F000800000000F98F000838
:10EBC000000000009B88000800000000000000001A
:10EBD000C98E000800000000A18B0008BD88000855
:10EBE000D1880008CF88000895890008D5880008DA
:10EBF000498B000891890008CD88000800000000BA
:10EC000000000000000000000000000095BE0008A9
:10EC100095BE0008FDB90008A1B900080000000079
:10EC2000D58E0008BFB900087FBA0008278F0008FA
:10EC30004B9000084F900008539000086F90000818
:10EC400073900008000000000F9000081190000869
:10EC50000B9000080D900008518F00080000000084
:10EC6000F98F000800000000000000000000000014
:10EC7000000000008DDF00088FE0000800000000A9
:10EC8000000000000000000000000000A7DF0008F6
:10EC9000A7E00008000000000000000000000000E5
:10ECA00000000000C1DF0008BFE000080000000015
:10ECB000000000000000000000000000EDDF000880
:10ECC0000000000000000000000000000000000044
:10ECD000000000001DE0000800000000000000002F
:10ECE00000000000000000000000000095BE0008C9
:10ECF00095BE0008FDB90008A1B900080000000099
:10ED000095BE0008BFB900087FBA0008278F000829
:10ED10004B9000084F900008539000086F90000837
:10ED200073900008000000000F9000081190000888
:10ED30000B9000080D900008518F000800000000A3
:10ED4000F98F0008000000000000000027A0000864
:10ED500000000000000000000000000000000000B3
:10ED600029A00008000000000000000000000000D2
:10ED700000000000ADA0000800000000000000003E
:10ED80000000000000000000AFA00008000000002C
:10ED9000000000000000000000000000ADA200081C
:10EDA0000000000000000000000000000000000063
:10EDB00031A3000800000000000000000000000077
:10EDC00000000000A9A300080000000000000000EF
:10EDD0000000000000000000ABA3000800000000DD
:10EDE000000000000000000000000000ADA30008CB
:10EDF0000000000000000000000000000000000013
:10EE000025A5000800000000000000000000000030
:10EE10000000000027A5000800000000000000001E
:10EE2000000000000000000029A50008000000000C
:10EE30000000000000000000000000002BA50008FA
:10EE400000000000000000000000000000000000C2
:10EE5000A9A500080000000000000000000000005C
:10EE6000000000002DA600080000000000000000C7
:10EE700000000000000000002FA6000800000000B5
:10EE800000000000000000000000000031A60008A3
:10EE90000000000000000000000000000000000072
:10EEA000B5A60008000000000000000000000000FF
:10EEB00000000000B7A600080000000000000000ED
:10EEC0000000000000000000B9A6000800000000DB
:10EED000000000000000000000000000BBA60008C9
:10EEE0000000000000000000000000000000000022
:10EEF000BDA60008000000000000000000000000A7
:10EF000000000000BFA60008000000000000000094
:10EF10000000000000000000C1A600080000000082
:10EF2000000000000000000000000000C3A6000870
:10EF300000000000000000000000000000000000D1
:10EF400045A70008000000000000000000000000CD
:10EF50000000000047A700080000000000000000BB
:10EF6000000000000000000049A7000800000000A9
:10EF700000000000000000000000000015AF0008C5
:10EF80000000000000000000419700084DA70008A5
:10EF900000000000B99D000825A90008D9BA0008A2
:10EFA0009DBA0008A1BA0008BDBA00080000000020
:10EFB0000000000000000000000000000000000051
:10EFC000F5AA00080000000000000000000000009A
:10EFD00000000000B5BB0008DDBA0008FDB900085C
:10EFE000A1B9000800000000D58E0008BFB90008D4
:10EFF0007FBA0008278F00084B9000084F90000848
:10F00000539000086F900008739000080000000003
:10F010000F900008119000080B9000080D90000858
:10F02000518F000800000000F98F00080000000068
:10F030000000000035AF0008EBBA000823BB000851
:10F0400000000000000000000000000000000000C0
:10F05000A1BC00087DB40008EBB30008E7B30008CA
:10F0600000000000B1B30008000000000000000034
:10F0700000000000ADB3000873B40008D9B3000865
:10F08000E1B3000895BE000800000000A9B3000825
:10F0900095BE000800000000000000000000000015
:10F0A00000000000FFBC0008F1BC0008FDB900082A
:10F0B000A1B90008000000001BB00008BFB900089B
:10F0C0007FBA0008278F00084B9000084F90000877
:10F0D000539000086F900008739000080000000033
:10F0E0000F900008119000080B9000080D90000888
:10F0F000518F0008000000007FB00008D7B0000862
:10F1000007B100080000000000000000000000003F
:10F110000000000001B00008000000000000000036
:10F1200000000000000000000000000000000000DF
:10F1300000000000000000000000000000000000CF
:10F1400000000000000000000000000000000000BF
:10F150000000000000000000000000004DE000087A
:10F1600051E0000800000000000000000000000066
:10F17000000000000000000000000000000000008F
:10F18000000000000000000000000000000000007F
:10F1900061E0000865E000080000000000000000D9
:10F1A000000000000000000000000000000000005F
:10F1B000000000000000000000000000000000004F
:10F1C000000000006DE0000871E000080000000091
:10F1D0006D61696E5461736B000000003C3C2D470B
:10F1E00054502D4552524F522D3E3E20493243201D
:10F1F000526561643A203078253034582C202564DB
:10F20000206279746573206661696C65642C206581
:10F210007272636F64653A202564212050726F63B7
:10F220006573732072657365742E0A003C3C2D472C
:10F2300054502D4552524F522D3E3E2049324320CC
:10F2400057726974653A203078253034582C20255F
:10F2500064206279746573206661696C65642C2032
:10F26000657272636F64653A202564212050726F65
:10F27000636573732072657365742E0A0000000065
:10F28000B0F200080000002024030000340200084F
:10F29000A0F3000824030020049D00009002000851
:10F2A00031CCFFFF11CCFFFFF5CBFFFFBDCCFFFF43
:10F2B000011802135A32018210035924F41AAA01C8
:10F2C000012013EFB30214088B537E181AFF01219B
:10F2D0001009972003E0010A3504100869090F504E
:10F2E000323311200A321111288CAADC5804331E43
:10F2F0003C5231234032135038100E8D20164E4CA4
:10F300007C05283E280D4324100801396BC09484E5
:10F310002D401054B0419D498D527F5A75626C4208
:10F3200050142808F0503C88882750418112501F03
:10F3300002780A50FFE45961A33CB0281C56A2078A
:10F34000501E05060708090A0B0C0D0E0F101215AA
:10F35000161718191A1B1D1FA84901780E1F1E1D0C
:10F360001C1B1A1918171514131216111008307FC8
:10F370007F7FFF5464180A804607503C32140A64A9
:10F38000AC21100C110262320314500CE214501321
:10F3900054100008E332A20764A4B601036EE80328
:0200000490006A
:10000000F8FCF800F8FCF800F8FCF800F8FCF80040
:10001000F8FCF800F8FCF800F8FCF800F8FCF80030
:10002000F8FCF800F8FCF800F8FCF800F8FCF80020
:10003000F8FCF800F8FCF8000000000400000038AC
:1000400000000079000000AA000000CF000000E7D7
:10005000000000F3000000F3000000E7000000CF04
:10006000000000AA00000079000000380000000431
:10007000F8FCF800F8FCF800F8FCF800F8FCF800D0
:100080000000000000000000000000000000000070
:100090000000000000000000000000000000000060
:1000A0000000000000000000F8FCF800F8FCF80078
:1000B000F8FCF800F8FCF800F8FCF800F8FCF80090
:1000C000F8FCF800F8FCF800F8FCF800F8FCF80080
:1000D000F8FCF800F8FCF8000000002C000000928A
:1000E000000000E7000000FF000000FF000000FF2C
:1000F000000000FF000000FF000000FF000000FF04
:10010000000000FF000000FF000000FF000000FFF3
:10011000000000FF000000E7000000920000002C3B
:10012000F8FCF800F8FCF8000000000000000000F7
:1001300000000000000000000000000000000000BF
:1001400000000000000000000000000000000000AF
:10015000F8FCF800F8FCF800F8FCF800F8FCF800EF
:10016000F8FCF800F8FCF800F8FCF800F8FCF800DF
:10017000F8FCF800F8FCF80000000028000000AED1
:10018000000000FB000000FF000000FF000000FF77
:10019000000000FF000000FF000000FF000000FF63
:1001A000000000FF000000FF000000FF000000FF53
:1001B000000000FF000000FF000000FF000000FF43
:1001C000000000FF000000FB000000AE000000285F
:1001D000000000000000000000000000000000001F
:1001E000000000000000000000000000000000000F
:1001F0000000000000000000F8FCF800F8FCF80027
:10020000F8FCF800F8FCF800F8FCF800F8FCF8003E
:10021000F8FCF800F8FCF800000000040000008280
:10022000000000F7000000FF000000FF000000FFDA
:10023000000000FF201C20FF606460FFA0A0A0FF62
:10024000C8C8C8FFE8E4E8FFF0F4F0FFF0F4F0FFFE
:10025000E8E8E8FFC8C8C8FFA0A0A0FF606460FF8E
:10026000201C20FF000000FF000000FF000000FF36
:10027000000000FF000000F70000008600000004FE
:10028000000000000000000000000000000000006E
:10029000000000000000000000000000000000005E
:1002A000F8FCF800F8FCF800F8FCF800F8FCF8009E
:1002B000F8FCF800F8FCF800F8FCF800000000205A
:1002C000000000C7000000FF000000FF000000FF6A
:1002D000000000FF505450FFC0C0C0FFF8FCF8FF02
:1002E000F8FCF8FFF8FCF8FFF8FCF8FFF8FCF8FF62
:1002F000F8FCF8FFF8FCF8FFF8FCF8FFF8FCF8FF52
:10030000F8FCF8FFF8FCF8FFF8FCF8FFC0C0C0FFED
:10031000505450FF000000FF000000FF000000FFED
:10032000000000FF000000C70000002000000000E7
:1003300000000000000000000000000000000000BD
:100340000000000000000000F8FCF800F8FCF800D5
:10035000F8FCF800F8FCF800F8FCF800F8FCF800ED
:1003600000000030000000E7000000FF000000FF78
:10037000000000FF404040FFD8D4D8FFF8FCF8FF51
:10038000F8FCF8FFF8FCF8FFF8FCF8FFF8FCF8FFC1
:10039000F8FCF8FFF8FCF8FFF8FCF8FFF8FCF8FFB1
:1003A000F8FCF8FFF8FCF8FFF8FCF8FFF8FCF8FFA1
:1003B000F8FCF8FFF8FCF8FFF8FCF8FFD8D4D8FFF9
:1003C000404040FF000000FF000000FF000000FF71
:1003D000000000E700000030000000000000000006
:1003E000000000000000000000000000000000000D
:1003F000F8FCF800F8FCF800F8FCF800F8FCF8004D
:10040000F8FCF8000000002C000000EF000000FFE6
:10041000000000FF080808FF909490FFF8FCF8FF28
:10042000F8FCF8FFF8FCF8FFF8FCF8FFF8FCF8FF20
:10043000F8FCF8FFF8FCF8FFF8FCF8FFF8FCF8FF10
:10044000F8FCF8FFF8FCF8FFF8FCF8FFF8FCF8FF00
:10045000F8FCF8FFF8FCF8FFF8FCF8FFF8FCF8FFF0
:10046000F8FCF8FFF8FCF8FFF8FCF8FF909490FF18
:10047000080808FF000000FF000000FF000000EF78
:100480000000002C00000000000000000000000040
:100490000000000000000000F8FCF800F8FCF80084
:1004A000F8FCF800F8FCF80000000020000000E371
:1004B000000000FF000000FF101010FFC8C4C8FFBC
:1004C000F8FCF8FFF8FCF8FFF8FCF8FFF8FCF8FF80
:1004D000F8FCF8FFF8FCF8FFF8FCF8FFF8FCF8FF70
:1004E000F8FCF8FFF8FCF8FFF8FCF8FFF8FCF8FF60
:1004F000F8FCF8FFF8FCF8FFF8FCF8FFF8FCF8FF50
:10050000F8FCF8FFF8FCF8FFF8FCF8FFF8FCF8FF3F
:10051000F8FCF8FFF8FCF8FFC8C4C8FF101010FF83
:10052000000000FF000000FF000000E700000020C6
:1005300000000000000000000000000000000000BB
:10054000F8FCF800F8FCF800F8FCF80000000004E3
:10055000000000C7000000FF000000FF181418FF93
:10056000D0D0D0FFF8FCF8FFF8FCF8FFF8FCF8FF5B
:10057000F8FCF8FFF8FCF8FFF8FCF8FFF8FCF8FFCF
:10058000F8FCF8FFF8FCF8FFF8FCF8FFF8FCF8FFBF
:10059000F8FCF8FFF8FCF8FFF8FCF8FFF8FCF8FFAF
:1005A000F8FCF8FFF8FCF8FFF8FCF8FFF8FCF8FF9F
:1005B000F8FCF8FFF8FCF8FFF8FCF8FFF8FCF8FF8F
:1005C000F8FCF8FFD0D0D0FF181418FF000000FF8F
:1005D000000000FF000000C7000000040000000051
:1005E0000000000000000000F8FCF800F8FCF80033
:1005F000F8FCF80000000086000000FF000000FF8B
:10060000080408FFC8C8C8FFF8FCF8FFF8FCF8FFAA
:10061000F8FCF8FFF8FCF8FFF8FCF8FFF8FCF8FF2E
:10062000F8FCF8FFF8FCF8FFF8FCF8FFF8FCF8FF1E
:10063000F8FCF8FFF8FCF8FFF8FCF8FFF8FCF8FF0E
:10064000F8FCF8FFF8FCF8FFF8FCF8FFF8FCF8FFFE
:10065000F8FCF8FFF8FCF8FFF8FCF8FFF8FCF8FFEE
:10066000F8FCF8FFF8FCF8FFF8FCF8FFF8FCF8FFDE
:10067000C8C8C8FF080808FF000000FF000000FF0E
:1006800000000086000000000000000000000000E4
:10069000F8FCF800F8FCF8000000002C000000FB5B
:1006A000000000FF000000FF909490FFF8FCF8FFAE
:1006B000F8FCF8FFF8FCF8FFF8FCF8FFF8FCF8FF8E
:1006C000F8FCF8FFF8FCF8FFF8FCF8FFF8FCF8FF7E
:1006D000F8FCF8FFF8FCF8FFF8FCF8FFF8FCF8FF6E
:1006E000F8FCF8FFF8FCF8FFF8FCF8FFF8FCF8FF5E
:1006F000F8FCF8FFF8FCF8FFF8FCF8FFF8FCF8FF4E
:10070000F8FCF8FFF8FCF8FFF8FCF8FFF8FCF8FF3D
:10071000F8FCF8FFF8FCF8FFF8FCF8FF909490FF65
:10072000000000FF000000FF000000FB0000002CA4
:100730000000000000000000F8FCF800F8FCF800E1
:10074000000000AE000000FF000000FF404440FF3A
:10075000F8FCF8FFF8FCF8FFF8FCF8FFF8FCF8FFED
:10076000F8FCF8FFF8FCF8FFF8FCF8FFF8FCF8FFDD
:10077000F8FCF8FFF8FCF8FFF8FCF8FFF8FCF8FFCD
:10078000F8FCF8FFF8FCF8FFF8FCF8FFF8FCF8FFBD
:10079000F8FCF8FFF8FCF8FFF8FCF8FFF8FCF8FFAD
:1007A000F8FCF8FFF8FCF8FFF8FCF8FFF8FCF8FF9D
:1007B000F8FCF8FFF8FCF8FFF8FCF8FFF8FCF8FF8D
:1007C000F8FCF8FFF8FCF8FF404440FF000000FF91
:1007D000000000FF000000AE00000000000000006C
:1007E000F8FCF8000000002C000000FF000000FFF3
:1007F000000000FFD8D4D8FFF8FCF8FFF8FCF8FFA1
:10080000F8FCF8FFF8FCF8FFF8FCF8FFF8FCF8FF3C
:10081000F8FCF8FFF8FCF8FFF8FCF8FFF8FCF8FF2C
:10082000F8FCF8FFF8FCF8FFF8FCF8FFF8FCF8FF1C
:10083000F8FCF8FFF8FCF8FFF8FCF8FFF8FCF8FF0C
:10084000F8FCF8FFF8FCF8FFF8FCF8FFF8FCF8FFFC
:10085000F8FCF8FFF8FCF8FFF8FCF8FFF8FCF8FFEC
:10086000F8FCF8FFF8FCF8FFF8FCF8FFF8FCF8FFDC
:10087000D8D4D8FF000000FF000000FF000000FFF8
:100880000000002C00000000F8FCF80000000092BE
:10089000000000FF000000FF505450FFF8FCF8FF7C
:1008A000F8FCF8FFF8FCF8FFF8FCF8FFF8FCF8FF9C
:1008B000F8FCF8FFF8FCF8FFF8FCF8FFF8FCF8FF8C
:1008C000F8FCF8FFF8FCF8FFF8FCF8FF404040FFA8
:1008D000282828FFD8D4D8FFF8FCF8FFF8FCF8FF48
:1008E000F8FCF8FFF8FCF8FFF8FCF8FFF8FCF8FF5C
:1008F000F8FCF8FFF8FCF8FFF8FCF8FFF8FCF8FF4C
:10090000F8FCF8FFF8FCF8FFF8FCF8FFF8FCF8FF3B
:10091000F8FCF8FFF8FCF8FFF8FCF8FF505450FF23
:10092000000000FF000000FF000000920000000037
:1009300000000004000000EB000000FF000000FFCA
:10094000C0C0C0FFF8FCF8FFF8FCF8FFF8FCF8FFA7
:10095000F8FCF8FFF8FCF8FFF8FCF8FFF8FCF8FFEB
:10096000F8FCF8FFF8FCF8FFF8FCF8FFF8FCF8FFDB
:10097000F8FCF8FF282828FF000000FF101010FFE7
:10098000B8B8B8FFF8FCF8FFF8FCF8FFF8FCF8FF7F
:10099000F8FCF8FFF8FCF8FFF8FCF8FFF8FCF8FFAB
:1009A000F8FCF8FFF8FCF8FFF8FCF8FFF8FCF8FF9B
:1009B000F8FCF8FFF8FCF8FFF8FCF8FFF8FCF8FF8B
:1009C000F8FCF8FFC0C0C0FF000000FF000000FFFF
:1009D000000000EB0000000400000038000000FFF1
:1009E000000000FF201C20FFF8FCF8FFF8FCF8FFD7
:1009F000F8FCF8FFF8FCF8FFF8FCF8FFF8FCF8FF4B
:100A0000F8FCF8FFF8FCF8FFF8FCF8FFF8FCF8FF3A
:100A1000F8FCF8FFF8FCF8FFF8FCF8FFD0D0D0FFA6
:100A2000080808FF000000FF000400FF909490FFFA
:100A3000F8FCF8FFF8FCF8FFF8FCF8FFF8FCF8FF0A
:100A4000F8FCF8FFF8FCF8FFF8FCF8FFF8FCF8FFFA
:100A5000F8FCF8FFF8FCF8FFF8FCF8FFF8FCF8FFEA
:100A6000F8FCF8FFF8FCF8FFF8FCF8FFF8FCF8FFDA
:100A7000201C20FF000000FF000000FF00000038E5
:100A800000000079000000FF000000FF606460FFCC
:100A9000F8FCF8FFF8FCF8FFF8FCF8FFF8FCF8FFAA
:100AA000F8FCF8FFF8FCF8FFF8FCF8FFF8FCF8FF9A
:100AB000F8FCF8FFF8FCF8FFF8FCF8FFF8FCF8FF8A
:100AC000F8FCF8FFF8FCF8FFA0A0A0FF000000FF72
:100AD000000000FF000000FF686868FFF8FCF8FFF6
:100AE000F8FCF8FFF8FCF8FFF8FCF8FFF8FCF8FF5A
:100AF000F8FCF8FFF8FCF8FFF8FCF8FFF8FCF8FF4A
:100B0000F8FCF8FFF8FCF8FFF8FCF8FFF8FCF8FF39
:100B1000F8FCF8FFF8FCF8FF606460FF000000FFDD
:100B2000000000FF00000079000000AA000000FFA4
:100B3000000000FFA0A0A0FFF8FCF8FFF8FCF8FF01
:100B4000F8FCF8FFF8FCF8FFF8FCF8FFF8FCF8FFF9
:100B5000F8FCF8FFF8FCF8FFF8FCF8FFF8FCF8FFE9
:100B6000F8FCF8FFF8FCF8FFF8FCF8FFF8FCF8FFD9
:100B7000F8FCF8FF606460FF000000FF000000FF69
:100B8000000000FF484448FFF0ECF0FFF8FCF8FFDD
:100B9000F8FCF8FFF8FCF8FFF8FCF8FFF8FCF8FFA9
:100BA000F8FCF8FFF8FCF8FFF8FCF8FFF8FCF8FF99
:100BB000F8FCF8FFF8FCF8FFF8FCF8FFF8FCF8FF89
:100BC000A0A0A0FF000000FF000000FF000000AA9E
:100BD000000000CF000000FF000000FFC8C8C8FFF1
:100BE000F8FCF8FFF8FCF8FFF8FCF8FFF8FCF8FF59
:100BF000F8FCF8FFF8FCF8FFF8FCF8FFF8FCF8FF49
:100C0000F8FCF8FFF8FCF8FFF8FCF8FFF8FCF8FF38
:100C1000F8FCF8FFF8FCF8FFF8FCF8FFF8F8F8FF2C
:100C2000303030FF000000FF000000FF000000FF38
:100C3000282828FFD8DCD8FFF8FCF8FFF8FCF8FFDC
:100C4000F8FCF8FFF8FCF8FFF8FCF8FFF8FCF8FFF8
:100C5000F8FCF8FFF8FCF8FFF8FCF8FFF8FCF8FFE8
:100C6000F8FCF8FFF8FCF8FFC8C8C8FF000000FF58
:100C7000000000FF000000CF000000EB000000FFBC
:100C8000000000FFE8E8E8FFF8FCF8FFF8FCF8FFD8
:100C9000F8FCF8FFF8FCF8FFF8FCF8FFF8FCF8FFA8
:100CA000F8FCF8FFF8FCF8FFF8FCF8FFF8FCF8FF98
:100CB000F8FCF8FFF8FCF8FFF8FCF8FFF8FCF8FF88
:100CC000F8FCF8FFF8FCF8FFE0DCE0FF101010FF84
:100CD000000000FF000000FF000000FF101010FFE8
:100CE000C0C4C0FFF8FCF8FFF8FCF8FFF8FCF8FF00
:100CF000F8FCF8FFF8FCF8FFF8FCF8FFF8FCF8FF48
:100D0000F8FCF8FFF8FCF8FFF8FCF8FFF8FCF8FF37
:100D1000E8E8E8FF000000FF000000FF000000EB33
:100D2000000000F7000000FF000000FFF0F4F0FFFB
:100D3000F8FCF8FFF8FCF8FFF8FCF8FFF8FCF8FF07
:100D4000F8FCF8FFF8FCF8FFF8FCF8FFF8FCF8FFF7
:100D5000F8FCF8FFF8FCF8FFF8FCF8FFF8FCF8FFE7
:100D6000F8FCF8FFF8FCF8FFF8FCF8FFF8FCF8FFD7
:100D7000F8FCF8FFB8B4B8FF000000FF000000FF67
:100D8000000000FF000000FF181818FFF8FCF8FF33
:100D9000F8FCF8FFF8FCF8FFF8FCF8FFF8FCF8FFA7
:100DA000F8FCF8FFF8FCF8FFF8FCF8FFF8FCF8FF97
:100DB000F8FCF8FFF8FCF8FFF8F4F8FF000000FF7B
:100DC000000000FF000000F7000000F7000000FF37
:100DD000000000FFF0F4F0FFF8FCF8FFF8FCF8FF6B
:100DE000F8FCF8FFF8FCF8FFF8FCF8FFF8FCF8FF57
:100DF000F8FCF8FFF8FCF8FFF8FCF8FFF8FCF8FF47
:100E0000F8FCF8FFF8FCF8FFF8FCF8FFF8FCF8FF36
:100E1000F8FCF8FFF8FCF8FFF8FCF8FFB8B8B8FFEA
:100E2000000000FF000000FF000000FF000000FFC6
:100E3000181818FFF8FCF8FFF8FCF8FFF8FCF8FFAA
:100E4000F8FCF8FFF8FCF8FFF8FCF8FFF8FCF8FFF6
:100E5000F8FCF8FFF8FCF8FFF8FCF8FFF8FCF8FFE6
:100E6000F0F4F0FF000000FF000000FF000000F7BA
:100E7000000000EB000000FF000000FFE8E8E8FFD2
:100E8000F8FCF8FFF8FCF8FFF8FCF8FFF8FCF8FFB6
:100E9000F8FCF8FFF8FCF8FFF8FCF8FFF8FCF8FFA6
:100EA000F8FCF8FFF8FCF8FFF8FCF8FFF8FCF8FF96
:100EB000F8FCF8FFF8FCF8FFF8FCF8FFF8FCF8FF86
:100EC000E0E0E0FF101010FF000000FF000000FF56
:100ED000000000FF101010FFC0C0C0FFF8FCF8FFBA
:100EE000F8FCF8FFF8FCF8FFF8FCF8FFF8FCF8FF56
:100EF000F8FCF8FFF8FCF8FFF8FCF8FFF8FCF8FF46
:100F0000F8FCF8FFF8FCF8FFE8E8E8FF000000FF55
:100F1000000000FF000000EB000000CF000000FF19
:100F2000000000FFC8C8C8FFF8FCF8FFF8FCF8FF95
:100F3000F8FCF8FFF8FCF8FFF8FCF8FFF8FCF8FF05
:100F4000F8FCF8FFF8FCF8FFF8FCF8FFF8FCF8FFF5
:100F5000F8FCF8FFF8FCF8FFF8FCF8FFF8FCF8FFE5
:100F6000F8FCF8FFF8F8F8FF303430FF000000FF1D
:100F7000000000FF000000FF282428FFD8D8D8FF79
:100F8000F8FCF8FFF8FCF8FFF8FCF8FFF8FCF8FFB5
:100F9000F8FCF8FFF8FCF8FFF8FCF8FFF8FCF8FFA5
:100FA000F8FCF8FFF8FCF8FFF8FCF8FFF8FCF8FF95
:100FB000C8C8C8FF000000FF000000FF000000CF0D
:100FC000000000AA000000FF000000FFA0A0A0FF9A
:100FD000F8FCF8FFF8FCF8FFF8FCF8FFF8FCF8FF65
:100FE000F8FCF8FFF8FCF8FFF8FCF8FFF8FCF8FF55
:100FF000F8FCF8FFF8FCF8FFF8FCF8FFF8FCF8FF45
:10100000F8FCF8FFF8FCF8FFF8FCF8FF686868FFE8
:10101000000000FF000000FF000000FF404440FF10
:10102000F0ECF0FFF8FCF8FFF8FCF8FFF8FCF8FF34
:10103000F8FCF8FFF8FCF8FFF8FCF8FFF8FCF8FF04
:10104000F8FCF8FFF8FCF8FFF8FCF8FFF8FCF8FFF4
:10105000F8FCF8FFF8FCF8FFA0A0A0FF000000FFDC
:10106000000000FF000000AA00000079000000FF5F
:10107000000000FF686468FFF8FCF8FFF8FCF8FF68
:10108000F8FCF8FFF8FCF8FFF8FCF8FFF8FCF8FFB4
:10109000F8FCF8FFF8FCF8FFF8FCF8FFF8FCF8FFA4
:1010A000F8FCF8FFF8FCF8FFF8FCF8FFF8FCF8FF94
:1010B000A0A0A0FF000000FF000000FF000000FF54
:1010C000686468FFF8FCF8FFF8FCF8FFF8FCF8FF2C
:1010D000F8FCF8FFF8FCF8FFF8FCF8FFF8FCF8FF64
:1010E000F8FCF8FFF8FCF8FFF8FCF8FFF8FCF8FF54
:1010F000F8FCF8FFF8FCF8FFF8FCF8FFF8FCF8FF44
:10110000686468FF000000FF000000FF0000007935
:1011100000000038000000FF000000FF201C20FF3E
:10112000F8FCF8FFF8FCF8FFF8FCF8FFF8FCF8FF13
:10113000F8FCF8FFF8FCF8FFF8FCF8FFF8FCF8FF03
:10114000F8FCF8FFF8FCF8FFF8FCF8FFF8FCF8FFF3
:10115000F8FCF8FFD0D4D0FF080808FF000000FF1B
:10116000000400FF908C90FFF8FCF8FFF8FCF8FFFB
:10117000F8FCF8FFF8FCF8FFF8FCF8FFF8FCF8FFC3
:10118000F8FCF8FFF8FCF8FFF8FCF8FFF8FCF8FFB3
:10119000F8FCF8FFF8FCF8FFF8FCF8FFF8FCF8FFA3
:1011A000F8FCF8FFF8FCF8FF201C20FF000000FF0F
:1011B000000000FF0000003C00000004000000EB05
:1011C000000000FF000000FFC0C0C0FFF8FCF8FFF7
:1011D000F8FCF8FFF8FCF8FFF8FCF8FFF8FCF8FF63
:1011E000F8FCF8FFF8FCF8FFF8FCF8FFF8FCF8FF53
:1011F000F8FCF8FFF8FCF8FFF8FCF8FF282828FFB7
:10120000000000FF100C10FFB8B4B8FFF8FCF8FFA6
:10121000F8FCF8FFF8FCF8FFF8FCF8FFF8FCF8FF22
:10122000F8FCF8FFF8FCF8FFF8FCF8FFF8FCF8FF12
:10123000F8FCF8FFF8FCF8FFF8FCF8FFF8FCF8FF02
:10124000F8FCF8FFF8FCF8FFF8FCF8FFC0C0C0FF9E
:10125000000000FF000000FF000000EB00000004A1
:10126000F8FCF80000000092000000FF000000FF02
:10127000505450FFF8FCF8FFF8FCF8FFF8FCF8FFBA
:10128000F8FCF8FFF8FCF8FFF8FCF8FFF8FCF8FFB2
:10129000F8FCF8FFF8FCF8FFF8FCF8FFF8FCF8FFA2
:1012A000F8FCF8FF403C40FF282828FFD0D4D0FFAE
:1012B000F8FCF8FFF8FCF8FFF8FCF8FFF8FCF8FF82
:1012C000F8FCF8FFF8FCF8FFF8FCF8FFF8FCF8FF72
:1012D000F8FCF8FFF8FCF8FFF8FCF8FFF8FCF8FF62
:1012E000F8FCF8FFF8FCF8FFF8FCF8FFF8FCF8FF52
:1012F000F8FCF8FF505450FF000000FF000000FF12
:101300000000009200000000F8FCF8000000002C33
:10131000000000FF000000FF000000FFD8D4D8FF4D
:10132000F8FCF8FFF8FCF8FFF8FCF8FFF8FCF8FF11
:10133000F8FCF8FFF8FCF8FFF8FCF8FFF8FCF8FF01
:10134000F8FCF8FFF8FCF8FFF8FCF8FFF8FCF8FFF1
:10135000F8FCF8FFF8FCF8FFF8FCF8FFF8FCF8FFE1
:10136000F8FCF8FFF8FCF8FFF8FCF8FFF8FCF8FFD1
:10137000F8FCF8FFF8FCF8FFF8FCF8FFF8FCF8FFC1
:10138000F8FCF8FFF8FCF8FFF8FCF8FFF8FCF8FFB1
:10139000F8FCF8FFF8FCF8FFD8D4D8FF000000FFF5
:1013A000000000FF000000FF0000002C0000000013
:1013B000F8FCF800F8FCF800000000AE000000FFA8
:1013C000000000FF404440FFF8FCF8FFF8FCF8FF85
:1013D000F8FCF8FFF8FCF8FFF8FCF8FFF8FCF8FF61
:1013E000F8FCF8FFF8FCF8FFF8FCF8FFF8FCF8FF51
:1013F000F8FCF8FFF8FCF8FFF8FCF8FFF8FCF8FF41
:10140000F8FCF8FFF8FCF8FFF8FCF8FFF8FCF8FF30
:10141000F8FCF8FFF8FCF8FFF8FCF8FFF8FCF8FF20
:10142000F8FCF8FFF8FCF8FFF8FCF8FFF8FCF8FF10
:10143000F8FCF8FFF8FCF8FFF8FCF8FFF8FCF8FF00
:10144000404440FF000000FF000000FF000000AE2D
:101450000000000000000000F8FCF800F8FCF800B4
:101460000000002C000000FB000000FF000000FF57
:10147000989498FFF8FCF8FFF8FCF8FFF8FCF8FFE8
:10148000F8FCF8FFF8FCF8FFF8FCF8FFF8FCF8FFB0
:10149000F8FCF8FFF8FCF8FFF8FCF8FFF8FCF8FFA0
:1014A000F8FCF8FFF8FCF8FFF8FCF8FFF8FCF8FF90
:1014B000F8FCF8FFF8FCF8FFF8FCF8FFF8FCF8FF80
:1014C000F8FCF8FFF8FCF8FFF8FCF8FFF8FCF8FF70
:1014D000F8FCF8FFF8FCF8FFF8FCF8FFF8FCF8FF60
:1014E000F8FCF8FF989898FF000000FF000000FF4C
:1014F000000000FB0000002C0000000000000000C5
:10150000F8FCF800F8FCF800F8FCF8000000008691
:10151000000000FF000000FF080408FFC8C8C8FF63
:10152000F8FCF8FFF8FCF8FFF8FCF8FFF8FCF8FF0F
:10153000F8FCF8FFF8FCF8FFF8FCF8FFF8FCF8FFFF
:10154000F8FCF8FFF8FCF8FFF8FCF8FFF8FCF8FFEF
:10155000F8FCF8FFF8FCF8FFF8FCF8FFF8FCF8FFDF
:10156000F8FCF8FFF8FCF8FFF8FCF8FFF8FCF8FFCF
:10157000F8FCF8FFF8FCF8FFF8FCF8FFF8FCF8FFBF
:10158000F8FCF8FFF8FCF8FFC8C8C8FF080808FF17
:10159000000000FF000000FF0000008600000000C7
:1015A0000000000000000000F8FCF800F8FCF80063
:1015B000F8FCF80000000004000000CB000000FF71
:1015C000000000FF181418FFD0D4D0FFF8FCF8FF7B
:1015D000F8FCF8FFF8FCF8FFF8FCF8FFF8FCF8FF5F
:1015E000F8FCF8FFF8FCF8FFF8FCF8FFF8FCF8FF4F
:1015F000F8FCF8FFF8FCF8FFF8FCF8FFF8FCF8FF3F
:10160000F8FCF8FFF8FCF8FFF8FCF8FFF8FCF8FF2E
:10161000F8FCF8FFF8FCF8FFF8FCF8FFF8FCF8FF1E
:10162000F8FCF8FFF8FCF8FFF8FCF8FFD0D0D0FF8A
:10163000181418FF000000FF000000FF000000CB9E
:101640000000000800000000000000000000000092
:10165000F8FCF800F8FCF800F8FCF800F8FCF800DA
:1016600000000020000000E7000000FF000000FF75
:10167000101010FFC8C4C8FFF8FCF8FFF8FCF8FF12
:10168000F8FCF8FFF8FCF8FFF8FCF8FFF8FCF8FFAE
:10169000F8FCF8FFF8FCF8FFF8FCF8FFF8FCF8FF9E
:1016A000F8FCF8FFF8FCF8FFF8FCF8FFF8FCF8FF8E
:1016B000F8FCF8FFF8FCF8FFF8FCF8FFF8FCF8FF7E
:1016C000F8FCF8FFF8FCF8FFF8FCF8FFF8FCF8FF6E
:1016D000C8C8C8FF101010FF000000FF000000FF86
:1016E000000000E7000000200000000000000000F3
:1016F0000000000000000000F8FCF800F8FCF80012
:10170000F8FCF800F8FCF800F8FCF8000000002CE9
:10171000000000EF000000FF000000FF080808FFC5
:10172000909490FFF8FCF8FFF8FCF8FFF8FCF8FF45
:10173000F8FCF8FFF8FCF8FFF8FCF8FFF8FCF8FFFD
:10174000F8FCF8FFF8FCF8FFF8FCF8FFF8FCF8FFED
:10175000F8FCF8FFF8FCF8FFF8FCF8FFF8FCF8FFDD
:10176000F8FCF8FFF8FCF8FFF8FCF8FFF8FCF8FFCD
:10177000F8FCF8FF909490FF080808FF000000FFB5
:10178000000000FF000000EF0000002C000000003F
:101790000000000000000000000000000000000049
:1017A000F8FCF800F8FCF800F8FCF800F8FCF80089
:1017B000F8FCF800F8FCF80000000030000000E73A
:1017C000000000FF000000FF000000FF404040FF5D
:1017D000D8D4D8FFF8FCF8FFF8FCF8FFF8FCF8FFC5
:1017E000F8FCF8FFF8FCF8FFF8FCF8FFF8FCF8FF4D
:1017F000F8FCF8FFF8FCF8FFF8FCF8FFF8FCF8FF3D
:10180000F8FCF8FFF8FCF8FFF8FCF8FFF8FCF8FF2C
:10181000F8FCF8FFD8D4D8FF404040FF000000FF9C
:10182000000000FF000000FF000000E700000030A3
:1018300000000000000000000000000000000000A8
:101840000000000000000000F8FCF800F8FCF800C0
:10185000F8FCF800F8FCF800F8FCF800F8FCF800D8
:10186000F8FCF80000000020000000CB000000FFA2
:10187000000000FF000000FF000000FF505450FF78
:10188000C8C4C8FFF8FCF8FFF8FCF8FFF8FCF8FF44
:10189000F8FCF8FFF8FCF8FFF8FCF8FFF8FCF8FF9C
:1018A000F8FCF8FFF8FCF8FFF8FCF8FFF8FCF8FF8C
:1018B000F8FCF8FFC0C0C0FF505450FF000400FF08
:1018C000000000FF000000FF000000FF000000CB50
:1018D00000000020000000000000000000000000E8
:1018E00000000000000000000000000000000000F8
:1018F000F8FCF800F8FCF800F8FCF800F8FCF80038
:10190000F8FCF800F8FCF800F8FCF800F8FCF80027
:101910000000000400000086000000FB000000FF43
:10192000000000FF000000FF000000FF202020FF5B
:10193000606460FFA0A0A0FFC8CCC8FFE8E8E8FF93
:10194000F0F4F0FFF0F4F0FFE8E8E8FFC8CCC8FFDF
:10195000A0A0A0FF686468FF202020FF000000FF17
:10196000000000FF000000FF000000FF000000FB7F
:1019700000000086000000040000000000000000DD
:101980000000000000000000000000000000000057
:101990000000000000000000F8FCF800F8FCF8006F
:1019A000F8FCF800F8FCF800F8FCF800F8FCF80087
:1019B000F8FCF800F8FCF800F8FCF800F8FCF80077
:1019C00000000028000000B2000000FF000000FF3F
:1019D000000000FF000000FF000000FF000000FF0B
:1019E000000000FF000000FF000000FF000000FFFB
:1019F000000000FF000000FF000000FF000000FFEB
:101A0000000000FF000000FF000000FF000000FFDA
:101A1000000000B2000000280000000000000000EC
:101A200000000000000000000000000000000000B6
:101A300000000000000000000000000000000000A6
:101A4000F8FCF800F8FCF800F8FCF800F8FCF800E6
:101A5000F8FCF800F8FCF800F8FCF800F8FCF800D6
:101A6000F8FCF800F8FCF800F8FCF800F8FCF800C6
:101A70000000002C00000092000000EB000000FFBE
:101A8000000000FF000000FF000000FF000000FF5A
:101A9000000000FF000000FF000000FF000000FF4A
:101AA000000000FF000000FF000000FF000000EB4E
:101AB0000000009200000030F8FCF800F8FCF8008C
:101AC0000000000000000000000000000000000016
:101AD0000000000000000000000000000000000006
:101AE0000000000000000000F8FCF800F8FCF8001E
:101AF000F8FCF800F8FCF800F8FCF800F8FCF80036
:101B0000F8FCF800F8FCF800F8FCF800F8FCF80025
:101B1000F8FCF800F8FCF800F8FCF800F8FCF80015
:101B2000000000040000003C00000079000000AA52
:101B3000000000CF000000E7000000F3000000F309
:101B4000000000E7000000CF000000AA0000007DB8
:101B50000000003C00000004F8FCF800F8FCF8006D
:101B6000F8FCF800F8FCF80000000000000000009D
:101B70000000000000000000000000000000000065
:101B80000000000000000000000000000000000055
:101B90000000000000000000000000000000000045
:101BA0000000000000000000000000000000000035
:101BB0000000000000000000000000000000000025
:101BC000000000000000000000000000F8FCF82009
:101BD000F8FCF861F8FCF896F8FCF8BAF8FCF8CFD5
:101BE000F8FCF8DBF8FCF8DBF8FCF8CFF8FCF8BA06
:101BF000F8FCF892F8FCF861F8FCF824000000000A
:101C000000000000000000000000000000000000D4
:101C1000F8FCF800F8FCF800F8FCF800F8FCF80014
:101C2000F8FCF800F8FCF800F8FCF800F8FCF80004
:101C3000F8FCF800F8FCF8000000000000000000CC
:101C40000000000000000000000000000000000094
:101C50000000000000000000000000000000000084
:101C60000000000000000000F8FCF818F8FCF8790B
:101C7000F8FCF8D7F8FCF8FFF8FCF8FFF8FCF8FFE0
:101C8000F8FCF8FFF8FCF8FFF8FCF8FFF8FCF8FFA8
:101C9000F8FCF8FFF8FCF8FFF8FCF8FFF8FCF8FF98
:101CA000F8FCF8FFF8FCF8D7F8FCF879F8FCF8181D
:101CB0000000000000000000F8FCF800F8FCF8004C
:101CC000F8FCF800F8FCF800F8FCF800F8FCF80064
:101CD000F8FCF800F8FCF800F8FCF800F8FCF80054
:101CE00000000000000000000000000000000000F4
:101CF00000000000000000000000000000000000E4
:101D00000000000000000000F8FCF818F8FCF8964D
:101D1000F8FCF8F7F8FCF8FFF8FCF8FFE8ECE8FF4F
:101D2000A8A8A8FF707470FF484848FF303030FF03
:101D3000202020FF202020FF303030FF484848FF7F
:101D4000707070FFA8A8A8FFE8ECE8FFF8FCF8FFA7
:101D5000F8FCF8FFF8FCF8F7F8FCF896F8FCF8182F
:101D6000F8FCF800F8FCF800F8FCF800F8FCF800C3
:101D7000F8FCF800F8FCF800F8FCF800F8FCF800B3
:101D8000F8FCF800F8FCF80000000000000000007B
:101D90000000000000000000000000000000000043
:101DA0000000000000000000F8FCF800F8FCF86DEE
:101DB000F8FCF8EFF8FCF8FFF8FCF8FFA8A8A8FF7B
:101DC000484848FF000400FF000000FF000000FF3B
:101DD000000000FF000000FF000000FF000000FF07
:101DE000000000FF000000FF000000FF000000FFF7
:101DF000000400FF484848FFA8A8A8FFF8FCF8FF27
:101E0000F8FCF8FFF8FCF8EFF8FCF86DF8FCF800C7
:101E1000F8FCF800F8FCF800F8FCF800F8FCF80012
:101E2000F8FCF800F8FCF800F8FCF800F8FCF80002
:101E300000000000000000000000000000000000A2
:101E4000000000000000000000000000F8FCF81096
:101E5000F8FCF8B6F8FCF8FFF8FCF8FFB0B0B0FFFB
:101E6000282828FF000000FF000000FF000000FFFE
:101E7000000000FF000000FF000000FF000000FF66
:101E8000000000FF000000FF000000FF000000FF56
:101E9000000000FF000000FF000000FF000000FF46
:101EA000000000FF282828FFB0B0B0FFF8FCF8FFC2
:101EB000F8FCF8FFF8FCF8B6F8FCF814F8FCF800A9
:101EC000F8FCF800F8FCF800F8FCF800F8FCF80062
:101ED000F8FCF800F8FCF80000000000000000002A
:101EE00000000000000000000000000000000000F2
:101EF000F8FCF820F8FCF8D7F8FCF8FFE8ECE8FF6D
:101F0000505050FF000000FF000000FF000000FFE5
:101F1000000000FF000000FF000000FF000000FFC5
:101F2000000000FF000000FF000000FF000000FFB5
:101F3000000000FF000000FF000000FF000000FFA5
:101F4000000000FF000000FF000000FF000000FF95
:101F5000000000FF505050FFE8ECE8FFF8FCF8FFED
:101F6000F8FCF8D7F8FCF820F8FCF800F8FCF800CA
:101F7000F8FCF800F8FCF800F8FCF800F8FCF800B1
:101F80000000000000000000000000000000000051
:101F900000000000F8FCF81CF8FCF8E3F8FCF8FF7F
:101FA000D0CCD0FF181C18FF000000FF000000FF7D
:101FB000000000FF000000FF000000FF000000FF25
:101FC000000000FF000000FF000000FF000000FF15
:101FD000000000FF000000FF000000FF000000FF05
:101FE000000000FF000000FF000000FF000000FFF5
:101FF000000000FF000000FF000000FF000000FFE5
:10200000181818FFD0CCD0FFF8FCF8FFF8FCF8E364
:10201000F8FCF81CF8FCF800F8FCF800F8FCF800F4
:10202000F8FCF800F8FCF8000000000000000000D8
:102030000000000000000000F8FCF810F8FCF8D7E1
:10204000F8FCF8FFC0C0C0FF100C10FF000000FF3C
:10205000000000FF000000FF000000FF000000FF84
:10206000000000FF000000FF000000FF000000FF74
:10207000000000FF000000FF000000FF000000FF64
:10208000000000FF000000FF000000FF000000FF54
:10209000000000FF000000FF000000FF000000FF44
:1020A000000000FF000000FF000000FF100C10FF08
:1020B000C0C0C0FFF8FCF8FFF8FCF8D7F8FCF81037
:1020C000F8FCF800F8FCF800F8FCF800F8FCF80060
:1020D000000000000000000000000000F8FCF80014
:1020E000F8FCF8B2F8FCF8FFD0CCD0FF101010FFCD
:1020F000000000FF000000FF000000FF000000FFE4
:10210000000000FF000000FF000000FF000000FFD3
:10211000000000FF000000FF000000FF000000FFC3
:10212000000000FF000000FF000000FF000000FFB3
:10213000000000FF000000FF000000FF000000FFA3
:10214000000000FF000000FF000000FF000000FF93
:10215000000000FF000000FF101010FFD0CCD0FFE7
:10216000F8FCF8FFF8FCF8B2F8FCF800F8FCF8000E
:10217000F8FCF800F8FCF800000000000000000087
:1021800000000000F8FCF869F8FCF8FFE8ECE8FF54
:10219000201C20FF000000FF000000FF000000FFE7
:1021A000000000FF000000FF000000FF000000FF33
:1021B000000000FF000000FF000000FF000000FF23
:1021C000000000FF000000FF000000FF000000FF13
:1021D000000000FF000000FF000000FF000000FF03
:1021E000000000FF000000FF000000FF000000FFF3
:1021F000000000FF000000FF000000FF000000FFE3
:10220000000000FF181C18FFE8ECE8FFF8FCF8FFDE
:10221000F8FCF86DF8FCF800F8FCF800F8FCF800A1
:102220000000000000000000F8FCF818F8FCF8EFCF
:10223000F8FCF8FF505050FF000000FF000000FFC6
:10224000000000FF000000FF000000FF000000FF92
:10225000000000FF000000FF000000FF000000FF82
:10226000000000FF000000FF000000FF000000FF72
:10227000000000FF000000FF000000FF000000FF62
:10228000000000FF000000FF000000FF000000FF52
:10229000000000FF000000FF000000FF000000FF42
:1022A000000000FF000000FF000000FF000000FF32
:1022B000505050FFF8FCF8FFF8FCF8F3F8FCF81861
:1022C000F8FCF800F8FCF800000000000000000036
:1022D000F8FCF896F8FCF8FFB0B0B0FF000000FF83
:1022E000000000FF000000FF000000FF000000FFF2
:1022F000000000FF000000FF000000FF000000FFE2
:10230000000000FF000000FF000000FF000000FFD1
:10231000000000FF000000FF000000FF000000FFC1
:10232000000000FF000000FF000000FF000000FFB1
:10233000000000FF000000FF000000FF000000FFA1
:10234000000000FF000000FF000000FF000000FF91
:10235000000000FF000000FF000000FFB0B0B0FF71
:10236000F8FCF8FFF8FCF896F8FCF800F8FCF80028
:1023700000000000F8FCF818F8FCF8F7F8FCF8FF8B
:10238000282828FF000000FF000000FF000000FFD9
:10239000000000FF000000FF000000FF000000FF41
:1023A000000000FF000000FF000000FF000000FF31
:1023B000000000FF000000FF000000FF000000FF21
:1023C000000000FF000000FF000000FF000000FF11
:1023D000000000FF000000FF000000FF000000FF01
:1023E000000000FF000000FF000000FF000000FFF1
:1023F000000000FF000000FF000000FF000000FFE1
:10240000000000FF282828FFF8FCF8FFF8FCF8F788
:10241000F8FCF818F8FCF80000000000F8FCF87967
:10242000F8FCF8FFA8A8A8FF000000FF000000FFCC
:10243000000000FF000000FF000000FF000000FFA0
:10244000000000FF000000FF000000FF000000FF90
:10245000000000FF000000FF000000FFC0BCC0FF44
:10246000D8D4D8FF282C28FF000000FF000000FF70
:10247000000000FF000000FF000000FF000000FF60
:10248000000000FF000000FF000000FF000000FF50
:10249000000000FF000000FF000000FF000000FF40
:1024A000000000FF000000FF000000FF000000FF30
:1024B000A8A8A8FFF8FCF8FFF8FCF879F8FCF800E9
:1024C00000000000F8FCF8D7F8FCF8FF484848FF87
:1024D000000000FF000000FF000000FF000000FF00
:1024E000000000FF000000FF000000FF000000FFF0
:1024F000000000FF000000FF000000FF000000FFE0
:10250000000000FFD8D4D8FFF8FCF8FFF0F0F0FF8F
:10251000484848FF000000FF000000FF000000FFE7
:10252000000000FF000000FF000000FF000000FFAF
:10253000000000FF000000FF000000FF000000FF9F
:10254000000000FF000000FF000000FF000000FF8F
:10255000000000FF000000FF484848FFF8FCF8FFBB
:10256000F8FCF8D7F8FCF800F8FCF824F8FCF8FFC1
:10257000E8ECE8FF000400FF000000FF000000FF9F
:10258000000000FF000000FF000000FF000000FF4F
:10259000000000FF000000FF000000FF000000FF3F
:1025A000000000FF000000FF000000FF303030FF9F
:1025B000F8F4F8FFF8FCF8FFF8FCF8FF706C70FF17
:1025C000000000FF000000FF000000FF000000FF0F
:1025D000000000FF000000FF000000FF000000FFFF
:1025E000000000FF000000FF000000FF000000FFEF
:1025F000000000FF000000FF000000FF000000FFDF
:10260000000000FFE8ECE8FFF8FCF8FFF8FCF82415
:10261000F8FCF865F8FCF8FFA8A8A8FF000000FF88
:10262000000000FF000000FF000000FF000000FFAE
:10263000000000FF000000FF000000FF000000FF9E
:10264000000000FF000000FF000000FF000000FF8E
:10265000000000FF000000FF606060FFF8FCF8FF72
:10266000F8FCF8FFF8FCF8FF989898FF000400FFCA
:10267000000000FF000000FF000000FF000000FF5E
:10268000000000FF000000FF000000FF000000FF4E
:10269000000000FF000000FF000000FF000000FF3E
:1026A000000000FF000000FF000000FFA8A8A8FF36
:1026B000F8FCF8FFF8FCF865F8FCF892F8FCF8FF75
:1026C000707070FF000000FF000000FF000000FFBE
:1026D000000000FF000000FF000000FF000000FFFE
:1026E000000000FF000000FF000000FF000000FFEE
:1026F000000000FF000000FF000000FF000000FFDE
:10270000000000FF989C98FFF8FCF8FFF8FCF8FF29
:10271000F8FCF8FFB8B8B8FF101010FF000000FF79
:10272000000000FF000000FF000000FF000000FFAD
:10273000000000FF000000FF000000FF000000FF9D
:10274000000000FF000000FF000000FF000000FF8D
:10275000000000FF707070FFF8FCF8FFF8FCF892C2
:10276000F8FCF8BAF8FCF8FF484848FF000000FF02
:10277000000000FF000000FF000000FF000000FF5D
:10278000000000FF000000FF000000FF000000FF4D
:10279000000000FF000000FF000000FF000000FF3D
:1027A000000000FF000000FF000000FF080808FF15
:1027B000D0CCD0FFF8FCF8FFF8FCF8FFF8FCF8FFED
:1027C000D8D8D8FF282428FF000000FF000000FF11
:1027D000000000FF000000FF000000FF000000FFFD
:1027E000000000FF000000FF000000FF000000FFED
:1027F000000000FF000000FF000000FF484848FF05
:10280000F8FCF8FFF8FCF8BAF8FCF8D3F8FCF8FF8D
:10281000302C30FF000000FF000000FF000000FF30
:10282000000000FF000000FF000000FF000000FFAC
:10283000000000FF000000FF000000FF000000FF9C
:10284000000000FF000000FF000000FF000000FF8C
:10285000000000FF000000FF202020FFF0F0F0FF4C
